{
  "_format": "hh-sol-artifact-1",
  "contractName": "GoingUpProjects",
  "sourceName": "contracts/GoingUpProjects.sol",
  "abi": [
    {
      "inputs": [],
      "stateMutability": "nonpayable",
      "type": "constructor"
    },
    {
      "anonymous": false,
      "inputs": [
        {
          "indexed": true,
          "internalType": "uint256",
          "name": "projectId",
          "type": "uint256"
        },
        {
          "indexed": false,
          "internalType": "address",
          "name": "member",
          "type": "address"
        }
      ],
      "name": "AcceptProjectInvitation",
      "type": "event"
    },
    {
      "anonymous": false,
      "inputs": [
        {
          "indexed": true,
          "internalType": "uint256",
          "name": "projectId",
          "type": "uint256"
        },
        {
          "indexed": false,
          "internalType": "address",
          "name": "activatedBy",
          "type": "address"
        }
      ],
      "name": "Activate",
      "type": "event"
    },
    {
      "anonymous": false,
      "inputs": [
        {
          "indexed": false,
          "internalType": "address",
          "name": "changedBy",
          "type": "address"
        },
        {
          "indexed": false,
          "internalType": "uint256",
          "name": "newAddMemberPrice",
          "type": "uint256"
        }
      ],
      "name": "AddMemberPriceChanged",
      "type": "event"
    },
    {
      "anonymous": false,
      "inputs": [
        {
          "indexed": false,
          "internalType": "address",
          "name": "setBy",
          "type": "address"
        },
        {
          "indexed": false,
          "internalType": "address",
          "name": "targetAddress",
          "type": "address"
        },
        {
          "indexed": false,
          "internalType": "uint256",
          "name": "overridePrice",
          "type": "uint256"
        }
      ],
      "name": "AddMemberPriceOverrideSet",
      "type": "event"
    },
    {
      "anonymous": false,
      "inputs": [
        {
          "indexed": true,
          "internalType": "uint256",
          "name": "projectId",
          "type": "uint256"
        },
        {
          "indexed": false,
          "internalType": "address",
          "name": "allowedBy",
          "type": "address"
        }
      ],
      "name": "AllowMembersToEdit",
      "type": "event"
    },
    {
      "anonymous": false,
      "inputs": [
        {
          "indexed": true,
          "internalType": "address",
          "name": "creator",
          "type": "address"
        },
        {
          "indexed": false,
          "internalType": "uint256",
          "name": "projectId",
          "type": "uint256"
        }
      ],
      "name": "Create",
      "type": "event"
    },
    {
      "anonymous": false,
      "inputs": [
        {
          "indexed": true,
          "internalType": "uint256",
          "name": "projectId",
          "type": "uint256"
        },
        {
          "indexed": false,
          "internalType": "address",
          "name": "deactivatedBy",
          "type": "address"
        }
      ],
      "name": "Deactivate",
      "type": "event"
    },
    {
      "anonymous": false,
      "inputs": [
        {
          "indexed": true,
          "internalType": "uint256",
          "name": "projectId",
          "type": "uint256"
        },
        {
          "indexed": false,
          "internalType": "address",
          "name": "allowedBy",
          "type": "address"
        }
      ],
      "name": "DisallowMembersToEdit",
      "type": "event"
    },
    {
      "anonymous": false,
      "inputs": [
        {
          "indexed": true,
          "internalType": "uint256",
          "name": "projectId",
          "type": "uint256"
        },
        {
          "indexed": false,
          "internalType": "address",
          "name": "from",
          "type": "address"
        },
        {
          "indexed": false,
          "internalType": "address",
          "name": "to",
          "type": "address"
        }
      ],
      "name": "DisinviteMember",
      "type": "event"
    },
    {
      "anonymous": false,
      "inputs": [
        {
          "indexed": false,
          "internalType": "address",
          "name": "changedBy",
          "type": "address"
        },
        {
          "indexed": false,
          "internalType": "uint256",
          "name": "newFreeMembers",
          "type": "uint256"
        }
      ],
      "name": "FreeMembersChanged",
      "type": "event"
    },
    {
      "anonymous": false,
      "inputs": [
        {
          "indexed": true,
          "internalType": "uint256",
          "name": "projectId",
          "type": "uint256"
        },
        {
          "indexed": false,
          "internalType": "address",
          "name": "from",
          "type": "address"
        },
        {
          "indexed": false,
          "internalType": "address",
          "name": "to",
          "type": "address"
        }
      ],
      "name": "InviteMember",
      "type": "event"
    },
    {
      "anonymous": false,
      "inputs": [
        {
          "indexed": true,
          "internalType": "uint256",
          "name": "projectId",
          "type": "uint256"
        },
        {
          "indexed": false,
          "internalType": "address",
          "name": "member",
          "type": "address"
        },
        {
          "indexed": false,
          "internalType": "string",
          "name": "reason",
          "type": "string"
        }
      ],
      "name": "LeaveProject",
      "type": "event"
    },
    {
      "anonymous": false,
      "inputs": [
        {
          "indexed": true,
          "internalType": "uint256",
          "name": "projectId",
          "type": "uint256"
        },
        {
          "indexed": false,
          "internalType": "address",
          "name": "addedBy",
          "type": "address"
        },
        {
          "indexed": false,
          "internalType": "address",
          "name": "member",
          "type": "address"
        }
      ],
      "name": "ManuallyAddMember",
      "type": "event"
    },
    {
      "anonymous": false,
      "inputs": [
        {
          "indexed": false,
          "internalType": "uint256",
          "name": "projectId",
          "type": "uint256"
        },
        {
          "indexed": false,
          "internalType": "address",
          "name": "removedBy",
          "type": "address"
        },
        {
          "indexed": false,
          "internalType": "address",
          "name": "memberRemoved",
          "type": "address"
        },
        {
          "indexed": false,
          "internalType": "string",
          "name": "reason",
          "type": "string"
        }
      ],
      "name": "RemoveMember",
      "type": "event"
    },
    {
      "anonymous": false,
      "inputs": [
        {
          "indexed": true,
          "internalType": "uint256",
          "name": "projectId",
          "type": "uint256"
        },
        {
          "indexed": false,
          "internalType": "address",
          "name": "setAsAchievedBy",
          "type": "address"
        },
        {
          "indexed": false,
          "internalType": "address",
          "name": "member",
          "type": "address"
        }
      ],
      "name": "SetMemberGoalAsAchieved",
      "type": "event"
    },
    {
      "anonymous": false,
      "inputs": [
        {
          "indexed": true,
          "internalType": "uint256",
          "name": "projectId",
          "type": "uint256"
        },
        {
          "indexed": false,
          "internalType": "address",
          "name": "setAsVerifiedBy",
          "type": "address"
        },
        {
          "indexed": false,
          "internalType": "address",
          "name": "member",
          "type": "address"
        }
      ],
      "name": "SetMemberRewardAsVerified",
      "type": "event"
    },
    {
      "anonymous": false,
      "inputs": [
        {
          "indexed": true,
          "internalType": "uint256",
          "name": "projectId",
          "type": "uint256"
        },
        {
          "indexed": false,
          "internalType": "address",
          "name": "setBy",
          "type": "address"
        },
        {
          "indexed": false,
          "internalType": "string",
          "name": "key",
          "type": "string"
        },
        {
          "indexed": false,
          "internalType": "string",
          "name": "value",
          "type": "string"
        }
      ],
      "name": "SetProjectExtraData",
      "type": "event"
    },
    {
      "anonymous": false,
      "inputs": [
        {
          "indexed": true,
          "internalType": "uint256",
          "name": "projectId",
          "type": "uint256"
        },
        {
          "indexed": false,
          "internalType": "address",
          "name": "setBy",
          "type": "address"
        },
        {
          "indexed": false,
          "internalType": "address",
          "name": "member",
          "type": "address"
        }
      ],
      "name": "SetProjectMemberExtraData",
      "type": "event"
    },
    {
      "anonymous": false,
      "inputs": [
        {
          "indexed": true,
          "internalType": "uint256",
          "name": "projectId",
          "type": "uint256"
        },
        {
          "indexed": false,
          "internalType": "address",
          "name": "setBy",
          "type": "address"
        }
      ],
      "name": "SetProjectPrivate",
      "type": "event"
    },
    {
      "anonymous": false,
      "inputs": [
        {
          "indexed": true,
          "internalType": "uint256",
          "name": "projectId",
          "type": "uint256"
        },
        {
          "indexed": false,
          "internalType": "address",
          "name": "setBy",
          "type": "address"
        }
      ],
      "name": "SetProjectPublic",
      "type": "event"
    },
    {
      "anonymous": false,
      "inputs": [
        {
          "indexed": true,
          "internalType": "uint256",
          "name": "projectId",
          "type": "uint256"
        },
        {
          "indexed": false,
          "internalType": "address",
          "name": "reviewedBy",
          "type": "address"
        },
        {
          "indexed": false,
          "internalType": "int8",
          "name": "score",
          "type": "int8"
        },
        {
          "indexed": false,
          "internalType": "string",
          "name": "comments",
          "type": "string"
        }
      ],
      "name": "SubmitProjectReview",
      "type": "event"
    },
    {
      "anonymous": false,
      "inputs": [
        {
          "indexed": true,
          "internalType": "uint256",
          "name": "projectId",
          "type": "uint256"
        },
        {
          "indexed": false,
          "internalType": "address",
          "name": "from",
          "type": "address"
        },
        {
          "indexed": false,
          "internalType": "address",
          "name": "to",
          "type": "address"
        }
      ],
      "name": "TransferProjectOwnership",
      "type": "event"
    },
    {
      "anonymous": false,
      "inputs": [
        {
          "indexed": true,
          "internalType": "address",
          "name": "updater",
          "type": "address"
        },
        {
          "indexed": false,
          "internalType": "uint256",
          "name": "projectId",
          "type": "uint256"
        }
      ],
      "name": "Update",
      "type": "event"
    },
    {
      "inputs": [
        {
          "internalType": "uint256",
          "name": "projectId",
          "type": "uint256"
        }
      ],
      "name": "acceptProjectInvitation",
      "outputs": [],
      "stateMutability": "nonpayable",
      "type": "function"
    },
    {
      "inputs": [
        {
          "internalType": "uint256",
          "name": "projectId",
          "type": "uint256"
        }
      ],
      "name": "activate",
      "outputs": [],
      "stateMutability": "nonpayable",
      "type": "function"
    },
    {
      "inputs": [],
      "name": "addMemberPrice",
      "outputs": [
        {
          "internalType": "uint256",
          "name": "",
          "type": "uint256"
        }
      ],
      "stateMutability": "view",
      "type": "function"
    },
    {
      "inputs": [
        {
          "internalType": "address",
          "name": "",
          "type": "address"
        }
      ],
      "name": "addMemberPriceOverrides",
      "outputs": [
        {
          "internalType": "uint256",
          "name": "",
          "type": "uint256"
        }
      ],
      "stateMutability": "view",
      "type": "function"
    },
    {
      "inputs": [
        {
          "internalType": "address",
          "name": "",
          "type": "address"
        }
      ],
      "name": "admins",
      "outputs": [
        {
          "internalType": "bool",
          "name": "",
          "type": "bool"
        }
      ],
      "stateMutability": "view",
      "type": "function"
    },
    {
      "inputs": [
        {
          "internalType": "uint256",
          "name": "projectId",
          "type": "uint256"
        }
      ],
      "name": "allowMembersToEdit",
      "outputs": [],
      "stateMutability": "nonpayable",
      "type": "function"
    },
    {
      "inputs": [
        {
          "internalType": "string",
          "name": "name",
          "type": "string"
        },
        {
          "internalType": "string",
          "name": "description",
          "type": "string"
        },
        {
          "internalType": "uint256",
          "name": "started",
          "type": "uint256"
        },
        {
          "internalType": "uint256",
          "name": "ended",
          "type": "uint256"
        },
        {
          "internalType": "string",
          "name": "primaryUrl",
          "type": "string"
        },
        {
          "internalType": "string",
          "name": "tags",
          "type": "string"
        },
        {
          "internalType": "bool",
          "name": "isPrivate",
          "type": "bool"
        }
      ],
      "name": "create",
      "outputs": [],
      "stateMutability": "payable",
      "type": "function"
    },
    {
      "inputs": [
        {
          "internalType": "uint256",
          "name": "projectId",
          "type": "uint256"
        }
      ],
      "name": "deactivate",
      "outputs": [],
      "stateMutability": "nonpayable",
      "type": "function"
    },
    {
      "inputs": [
        {
          "internalType": "uint256",
          "name": "projectId",
          "type": "uint256"
        }
      ],
      "name": "disallowMembersToEdit",
      "outputs": [],
      "stateMutability": "nonpayable",
      "type": "function"
    },
    {
      "inputs": [
        {
          "internalType": "uint256",
          "name": "projectId",
          "type": "uint256"
        },
        {
          "internalType": "address",
          "name": "member",
          "type": "address"
        }
      ],
      "name": "disinviteMember",
      "outputs": [],
      "stateMutability": "nonpayable",
      "type": "function"
    },
    {
      "inputs": [
        {
          "internalType": "uint256",
          "name": "",
          "type": "uint256"
        },
        {
          "internalType": "string",
          "name": "",
          "type": "string"
        }
      ],
      "name": "extraData",
      "outputs": [
        {
          "internalType": "string",
          "name": "",
          "type": "string"
        }
      ],
      "stateMutability": "view",
      "type": "function"
    },
    {
      "inputs": [],
      "name": "freeMembers",
      "outputs": [
        {
          "internalType": "uint256",
          "name": "",
          "type": "uint256"
        }
      ],
      "stateMutability": "view",
      "type": "function"
    },
    {
      "inputs": [
        {
          "internalType": "uint256",
          "name": "projectId",
          "type": "uint256"
        }
      ],
      "name": "getPendingInvites",
      "outputs": [
        {
          "internalType": "address[]",
          "name": "",
          "type": "address[]"
        }
      ],
      "stateMutability": "view",
      "type": "function"
    },
    {
      "inputs": [
        {
          "internalType": "address",
          "name": "member",
          "type": "address"
        }
      ],
      "name": "getPendingInvitesByAddress",
      "outputs": [
        {
          "internalType": "uint256[]",
          "name": "",
          "type": "uint256[]"
        }
      ],
      "stateMutability": "view",
      "type": "function"
    },
    {
      "inputs": [
        {
          "internalType": "uint256",
          "name": "projectId",
          "type": "uint256"
        }
      ],
      "name": "getProjectMembers",
      "outputs": [
        {
          "internalType": "address[]",
          "name": "",
          "type": "address[]"
        }
      ],
      "stateMutability": "view",
      "type": "function"
    },
    {
      "inputs": [
        {
          "internalType": "address",
          "name": "member",
          "type": "address"
        }
      ],
      "name": "getProjectsByAddress",
      "outputs": [
        {
          "internalType": "uint256[]",
          "name": "",
          "type": "uint256[]"
        }
      ],
      "stateMutability": "view",
      "type": "function"
    },
    {
      "inputs": [
        {
          "internalType": "uint256",
          "name": "projectId",
          "type": "uint256"
        },
        {
          "internalType": "address",
          "name": "member",
          "type": "address"
        },
        {
          "internalType": "string",
          "name": "role",
          "type": "string"
        },
        {
          "internalType": "string",
          "name": "goal",
          "type": "string"
        },
        {
          "internalType": "string",
          "name": "rewardData",
          "type": "string"
        }
      ],
      "name": "inviteMember",
      "outputs": [],
      "stateMutability": "payable",
      "type": "function"
    },
    {
      "inputs": [
        {
          "internalType": "uint256",
          "name": "projectId",
          "type": "uint256"
        },
        {
          "internalType": "address",
          "name": "addressToCheck",
          "type": "address"
        }
      ],
      "name": "isAddressInvitedToProject",
      "outputs": [
        {
          "internalType": "bool",
          "name": "",
          "type": "bool"
        }
      ],
      "stateMutability": "view",
      "type": "function"
    },
    {
      "inputs": [
        {
          "internalType": "uint256",
          "name": "projectId",
          "type": "uint256"
        },
        {
          "internalType": "string",
          "name": "reason",
          "type": "string"
        }
      ],
      "name": "leaveProject",
      "outputs": [],
      "stateMutability": "nonpayable",
      "type": "function"
    },
    {
      "inputs": [
        {
          "internalType": "uint256",
          "name": "projectId",
          "type": "uint256"
        },
        {
          "internalType": "address",
          "name": "member",
          "type": "address"
        },
        {
          "internalType": "string",
          "name": "role",
          "type": "string"
        },
        {
          "internalType": "string",
          "name": "goal",
          "type": "string"
        },
        {
          "internalType": "string",
          "name": "rewardData",
          "type": "string"
        }
      ],
      "name": "manuallyAddMember",
      "outputs": [],
      "stateMutability": "nonpayable",
      "type": "function"
    },
    {
      "inputs": [],
      "name": "owner",
      "outputs": [
        {
          "internalType": "address",
          "name": "",
          "type": "address"
        }
      ],
      "stateMutability": "view",
      "type": "function"
    },
    {
      "inputs": [],
      "name": "price",
      "outputs": [
        {
          "internalType": "uint256",
          "name": "",
          "type": "uint256"
        }
      ],
      "stateMutability": "view",
      "type": "function"
    },
    {
      "inputs": [
        {
          "internalType": "uint256",
          "name": "",
          "type": "uint256"
        },
        {
          "internalType": "address",
          "name": "",
          "type": "address"
        }
      ],
      "name": "projectMemberMapping",
      "outputs": [
        {
          "internalType": "string",
          "name": "role",
          "type": "string"
        },
        {
          "internalType": "string",
          "name": "goal",
          "type": "string"
        },
        {
          "internalType": "string",
          "name": "rewardData",
          "type": "string"
        },
        {
          "internalType": "bool",
          "name": "goalAchieved",
          "type": "bool"
        },
        {
          "internalType": "bool",
          "name": "rewardVerified",
          "type": "bool"
        },
        {
          "internalType": "string",
          "name": "extraData",
          "type": "string"
        }
      ],
      "stateMutability": "view",
      "type": "function"
    },
    {
      "inputs": [
        {
          "internalType": "uint256",
          "name": "",
          "type": "uint256"
        }
      ],
      "name": "projects",
      "outputs": [
        {
          "internalType": "uint256",
          "name": "id",
          "type": "uint256"
        },
        {
          "internalType": "string",
          "name": "name",
          "type": "string"
        },
        {
          "internalType": "string",
          "name": "description",
          "type": "string"
        },
        {
          "internalType": "uint256",
          "name": "started",
          "type": "uint256"
        },
        {
          "internalType": "uint256",
          "name": "ended",
          "type": "uint256"
        },
        {
          "internalType": "string",
          "name": "primaryUrl",
          "type": "string"
        },
        {
          "internalType": "string",
          "name": "tags",
          "type": "string"
        },
        {
          "internalType": "address",
          "name": "owner",
          "type": "address"
        },
        {
          "internalType": "bool",
          "name": "active",
          "type": "bool"
        },
        {
          "internalType": "bool",
          "name": "allowMembersToEdit",
          "type": "bool"
        },
        {
          "internalType": "bool",
          "name": "isPrivate",
          "type": "bool"
        }
      ],
      "stateMutability": "view",
      "type": "function"
    },
    {
      "inputs": [
        {
          "internalType": "uint256",
          "name": "projectId",
          "type": "uint256"
        },
        {
          "internalType": "address",
          "name": "member",
          "type": "address"
        },
        {
          "internalType": "string",
          "name": "reason",
          "type": "string"
        }
      ],
      "name": "removeMember",
      "outputs": [],
      "stateMutability": "nonpayable",
      "type": "function"
    },
    {
      "inputs": [
        {
          "internalType": "uint256",
          "name": "newAddMemberPrice",
          "type": "uint256"
        }
      ],
      "name": "setAddMemberPrice",
      "outputs": [],
      "stateMutability": "nonpayable",
      "type": "function"
    },
    {
      "inputs": [
        {
          "internalType": "address",
          "name": "targetAddress",
          "type": "address"
        },
        {
          "internalType": "uint256",
          "name": "overridePrice",
          "type": "uint256"
        }
      ],
      "name": "setAddMemberPriceOverride",
      "outputs": [],
      "stateMutability": "nonpayable",
      "type": "function"
    },
    {
      "inputs": [
        {
          "internalType": "address",
          "name": "targetAddress",
          "type": "address"
        },
        {
          "internalType": "bool",
          "name": "isAdmin",
          "type": "bool"
        }
      ],
      "name": "setAdmin",
      "outputs": [],
      "stateMutability": "nonpayable",
      "type": "function"
    },
    {
      "inputs": [
        {
          "internalType": "uint256",
          "name": "newFreeMembers",
          "type": "uint256"
        }
      ],
      "name": "setFreeMembers",
      "outputs": [],
      "stateMutability": "nonpayable",
      "type": "function"
    },
    {
      "inputs": [
        {
          "internalType": "uint256",
          "name": "projectId",
          "type": "uint256"
        },
        {
          "internalType": "address",
          "name": "member",
          "type": "address"
        }
      ],
      "name": "setMemberGoalAsAchieved",
      "outputs": [],
      "stateMutability": "nonpayable",
      "type": "function"
    },
    {
      "inputs": [
        {
          "internalType": "uint256",
          "name": "projectId",
          "type": "uint256"
        },
        {
          "internalType": "address",
          "name": "member",
          "type": "address"
        }
      ],
      "name": "setMemberRewardAsVerified",
      "outputs": [],
      "stateMutability": "nonpayable",
      "type": "function"
    },
    {
      "inputs": [
        {
          "internalType": "uint256",
          "name": "newPrice",
          "type": "uint256"
        }
      ],
      "name": "setPrice",
      "outputs": [],
      "stateMutability": "nonpayable",
      "type": "function"
    },
    {
      "inputs": [
        {
          "internalType": "uint256",
          "name": "projectId",
          "type": "uint256"
        },
        {
          "internalType": "string",
          "name": "key",
          "type": "string"
        },
        {
          "internalType": "string",
          "name": "value",
          "type": "string"
        }
      ],
      "name": "setProjectExtraData",
      "outputs": [],
      "stateMutability": "nonpayable",
      "type": "function"
    },
    {
      "inputs": [
        {
          "internalType": "uint256",
          "name": "projectId",
          "type": "uint256"
        },
        {
          "internalType": "address",
          "name": "member",
          "type": "address"
        },
        {
          "internalType": "string",
          "name": "data",
          "type": "string"
        }
      ],
      "name": "setProjectMemberExtraData",
      "outputs": [],
      "stateMutability": "nonpayable",
      "type": "function"
    },
    {
      "inputs": [
        {
          "internalType": "uint256",
          "name": "projectId",
          "type": "uint256"
        }
      ],
      "name": "setProjectPrivate",
      "outputs": [],
      "stateMutability": "nonpayable",
      "type": "function"
    },
    {
      "inputs": [
        {
          "internalType": "uint256",
          "name": "projectId",
          "type": "uint256"
        }
      ],
      "name": "setProjectPublic",
      "outputs": [],
      "stateMutability": "nonpayable",
      "type": "function"
    },
    {
      "inputs": [
        {
          "internalType": "uint256",
          "name": "projectId",
          "type": "uint256"
        },
        {
          "internalType": "int8",
          "name": "score",
          "type": "int8"
        },
        {
          "internalType": "string",
          "name": "comments",
          "type": "string"
        }
      ],
      "name": "submitProjectReview",
      "outputs": [],
      "stateMutability": "payable",
      "type": "function"
    },
    {
      "inputs": [
        {
          "internalType": "address",
          "name": "newOwner",
          "type": "address"
        }
      ],
      "name": "transferOwnership",
      "outputs": [],
      "stateMutability": "nonpayable",
      "type": "function"
    },
    {
      "inputs": [
        {
          "internalType": "uint256",
          "name": "projectId",
          "type": "uint256"
        },
        {
          "internalType": "address",
          "name": "to",
          "type": "address"
        }
      ],
      "name": "transferProjectOwnership",
      "outputs": [],
      "stateMutability": "payable",
      "type": "function"
    },
    {
      "inputs": [
        {
          "internalType": "uint256",
          "name": "projectId",
          "type": "uint256"
        },
        {
          "internalType": "string",
          "name": "name",
          "type": "string"
        },
        {
          "internalType": "string",
          "name": "description",
          "type": "string"
        },
        {
          "internalType": "uint256",
          "name": "started",
          "type": "uint256"
        },
        {
          "internalType": "uint256",
          "name": "ended",
          "type": "uint256"
        },
        {
          "internalType": "string",
          "name": "primaryUrl",
          "type": "string"
        },
        {
          "internalType": "string",
          "name": "tags",
          "type": "string"
        },
        {
          "internalType": "bool",
          "name": "isPrivate",
          "type": "bool"
        }
      ],
      "name": "update",
      "outputs": [],
      "stateMutability": "payable",
      "type": "function"
    },
    {
      "inputs": [
        {
          "internalType": "address",
          "name": "tokenAddress",
          "type": "address"
        },
        {
          "internalType": "uint256",
          "name": "tokenID",
          "type": "uint256"
        },
        {
          "internalType": "uint256",
          "name": "amount",
          "type": "uint256"
        },
        {
          "internalType": "bytes",
          "name": "data",
          "type": "bytes"
        }
      ],
      "name": "withdrawERC1155",
      "outputs": [],
      "stateMutability": "nonpayable",
      "type": "function"
    },
    {
      "inputs": [
        {
          "internalType": "address",
          "name": "tokenAddress",
          "type": "address"
        },
        {
          "internalType": "uint256",
          "name": "amount",
          "type": "uint256"
        }
      ],
      "name": "withdrawERC20",
      "outputs": [],
      "stateMutability": "nonpayable",
      "type": "function"
    },
    {
      "inputs": [
        {
          "internalType": "address",
          "name": "tokenAddress",
          "type": "address"
        },
        {
          "internalType": "uint256",
          "name": "tokenID",
          "type": "uint256"
        }
      ],
      "name": "withdrawERC721",
      "outputs": [],
      "stateMutability": "nonpayable",
      "type": "function"
    },
    {
      "inputs": [],
      "name": "withdrawFunds",
      "outputs": [],
      "stateMutability": "nonpayable",
      "type": "function"
    }
  ],
  "bytecode": "0x60806040526001600055662386f26fc10000600355600560045567016345785d8a000060055534801561003157600080fd5b50600180546001600160a01b03191633179055615200806100536000396000f3fe6080604052600436106102665760003560e01c80638da5cb5b11610144578063c7d3c30e116100b6578063f08afc851161007a578063f08afc8514610779578063f2fde38b1461078f578063f3e414f8146107af578063f80a4874146107cf578063f9d4f284146107ef578063fe26b70b1461080f57600080fd5b8063c7d3c30e146106f3578063d4eba6a814610706578063d515d9d914610726578063d5842c8b14610746578063dfecbd8e1461076657600080fd5b8063a1538bde11610108578063a1538bde14610614578063a1db978214610634578063abd6dd0114610654578063b260c42a14610686578063b4bd0197146106a6578063b709af50146106c657600080fd5b80638da5cb5b146105665780638e3ea7cf1461059e578063916b9bef146105be57806391b7f5ed146105de578063a035b1fe146105fe57600080fd5b8063429b62e5116101dd57806366f9363c116101a157806366f9363c146104955780636da52db1146104b55780637c59b702146104d55780637cc35b05146105105780637e9d4ed114610526578063836825401461054657600080fd5b8063429b62e5146103c857806343ec213d14610408578063473f8501146104285780634b0bddd21461045557806353baa5d01461047557600080fd5b806316fa0b3e1161022f57806316fa0b3e146103205780631cdb86261461034057806324600fc31461036d5780632f1fff1314610382578063331a749a146103955780633bcaa830146103a857600080fd5b80627671e31461026b578063063872041461028d5780630b397a05146102ad5780630e7563bf146102cd578063107046bd146102e0575b600080fd5b34801561027757600080fd5b5061028b6102863660046144b2565b61082f565b005b34801561029957600080fd5b5061028b6102a83660046144e7565b6108cb565b3480156102b957600080fd5b5061028b6102c83660046145bf565b610ca2565b61028b6102db36600461461f565b610dd7565b3480156102ec57600080fd5b506103006102fb3660046144b2565b611262565b6040516103179b9a99989796959493929190614752565b60405180910390f35b34801561032c57600080fd5b5061028b61033b3660046147f7565b6114ed565b34801561034c57600080fd5b5061036061035b3660046145bf565b611592565b6040516103179190614821565b34801561037957600080fd5b5061028b611648565b61028b61039036600461487d565b6116bb565b61028b6103a3366004614931565b611cf1565b3480156103b457600080fd5b5061028b6103c3366004614990565b611db9565b3480156103d457600080fd5b506103f86103e33660046149b5565b60026020526000908152604090205460ff1681565b6040519015158152602001610317565b34801561041457600080fd5b5061028b610423366004614990565b612180565b34801561043457600080fd5b506104486104433660046144b2565b612586565b60405161031791906149d0565b34801561046157600080fd5b5061028b610470366004614a1d565b6125a6565b34801561048157600080fd5b5061028b6104903660046144b2565b61261b565b3480156104a157600080fd5b5061028b6104b036600461487d565b612992565b3480156104c157600080fd5b5061028b6104d03660046144b2565b612ac3565b3480156104e157600080fd5b506105026104f03660046149b5565b60066020526000908152604090205481565b604051908152602001610317565b34801561051c57600080fd5b5061050260045481565b34801561053257600080fd5b5061028b6105413660046144e7565b612e34565b34801561055257600080fd5b5061028b6105613660046144e7565b6131ee565b34801561057257600080fd5b50600154610586906001600160a01b031681565b6040516001600160a01b039091168152602001610317565b3480156105aa57600080fd5b5061028b6105b93660046144b2565b6132cc565b3480156105ca57600080fd5b5061028b6105d93660046144b2565b613352565b3480156105ea57600080fd5b5061028b6105f93660046144b2565b6133dd565b34801561060a57600080fd5b5061050260035481565b34801561062057600080fd5b5061028b61062f366004614a54565b613426565b34801561064057600080fd5b5061028b61064f3660046147f7565b6134d9565b34801561066057600080fd5b5061067461066f3660046144e7565b613596565b60405161031796959493929190614ac9565b34801561069257600080fd5b5061028b6106a13660046144b2565b6137fe565b3480156106b257600080fd5b5061028b6106c13660046144b2565b61388f565b3480156106d257600080fd5b506106e66106e13660046149b5565b61390e565b6040516103179190614b33565b61028b610701366004614b6b565b613932565b34801561071257600080fd5b5061028b6107213660046144b2565b613b44565b34801561073257600080fd5b506104486107413660046144b2565b613c3f565b34801561075257600080fd5b506106e66107613660046149b5565b613c59565b61028b6107743660046144e7565b613c7d565b34801561078557600080fd5b5061050260055481565b34801561079b57600080fd5b5061028b6107aa3660046149b5565b613d39565b3480156107bb57600080fd5b5061028b6107ca3660046147f7565b613da5565b3480156107db57600080fd5b5061028b6107ea366004614c3c565b613e56565b3480156107fb57600080fd5b506103f861080a3660046144e7565b6141e9565b34801561081b57600080fd5b5061028b61082a3660046144b2565b614208565b6000818152600760208190526040909120015481906001600160a01b031633146108745760405162461bcd60e51b815260040161086b90614c9f565b60405180910390fd5b600082815260076020818152604092839020909101805460ff60a81b19169055905133815283917f28cf371e0846d7075b0f20e862d6bc23805f62e691976f6be6447f190a8ec50a91015b60405180910390a25050565b600082815260076020908152604080832081516101608101909252805482526001810180548795948401919061090090614cce565b80601f016020809104026020016040519081016040528092919081815260200182805461092c90614cce565b80156109795780601f1061094e57610100808354040283529160200191610979565b820191906000526020600020905b81548152906001019060200180831161095c57829003601f168201915b5050505050815260200160028201805461099290614cce565b80601f01602080910402602001604051908101604052809291908181526020018280546109be90614cce565b8015610a0b5780601f106109e057610100808354040283529160200191610a0b565b820191906000526020600020905b8154815290600101906020018083116109ee57829003601f168201915b505050505081526020016003820154815260200160048201548152602001600582018054610a3890614cce565b80601f0160208091040260200160405190810160405280929190818152602001828054610a6490614cce565b8015610ab15780601f10610a8657610100808354040283529160200191610ab1565b820191906000526020600020905b815481529060010190602001808311610a9457829003601f168201915b50505050508152602001600682018054610aca90614cce565b80601f0160208091040260200160405190810160405280929190818152602001828054610af690614cce565b8015610b435780601f10610b1857610100808354040283529160200191610b43565b820191906000526020600020905b815481529060010190602001808311610b2657829003601f168201915b5050509183525050600791909101546001600160a01b03808216602084015260ff600160a01b8304811615156040850152600160a81b8304811615156060850152600160b01b909204909116151560809092019190915260e08201519192503391161480610bd157508061012001518015610bd157506000828152600860205260409020610bd19033614299565b610bed5760405162461bcd60e51b815260040161086b90614d08565b6000848152600b60205260409020610c0590846142bb565b5060408051602080820183526000808352878152600a82528381206001600160a01b03881682529091529190912090610c3e9082614d84565b506001600160a01b0383166000908152600c60205260409020610c6190856142d0565b50837f6f6b7b88ae3aeea58ec4761e132ecfec9ff054b29d7e0116533b320d8b7758003385604051610c94929190614e44565b60405180910390a250505050565b60008281526007602081905260409091200154336001600160a01b0390911603610d0e5760405162461bcd60e51b815260206004820152601a60248201527f6f776e65722063616e6e6f74206c656176652070726f6a656374000000000000604482015260640161086b565b6000828152600860205260409020610d269033614299565b610d425760405162461bcd60e51b815260040161086b90614e5e565b6000828152600860205260409020610d5a90336142bb565b5060408051602080820183526000808352858152600a82528381203382529091529190912090610d8a9082614d84565b50336000908152600960205260409020610da490836142d0565b50817f417462e9e2a4bcf0628b9739ba91bbf7ee6d93f1ce945936db56ac47360d903a33836040516108bf929190614e95565b600354341015610df95760405162461bcd60e51b815260040161086b90614ec1565b600088815260076020908152604080832081516101608101909252805482526001810180548d959484019190610e2e90614cce565b80601f0160208091040260200160405190810160405280929190818152602001828054610e5a90614cce565b8015610ea75780601f10610e7c57610100808354040283529160200191610ea7565b820191906000526020600020905b815481529060010190602001808311610e8a57829003601f168201915b50505050508152602001600282018054610ec090614cce565b80601f0160208091040260200160405190810160405280929190818152602001828054610eec90614cce565b8015610f395780601f10610f0e57610100808354040283529160200191610f39565b820191906000526020600020905b815481529060010190602001808311610f1c57829003601f168201915b505050505081526020016003820154815260200160048201548152602001600582018054610f6690614cce565b80601f0160208091040260200160405190810160405280929190818152602001828054610f9290614cce565b8015610fdf5780601f10610fb457610100808354040283529160200191610fdf565b820191906000526020600020905b815481529060010190602001808311610fc257829003601f168201915b50505050508152602001600682018054610ff890614cce565b80601f016020809104026020016040519081016040528092919081815260200182805461102490614cce565b80156110715780601f1061104657610100808354040283529160200191611071565b820191906000526020600020905b81548152906001019060200180831161105457829003601f168201915b5050509183525050600791909101546001600160a01b03808216602084015260ff600160a01b8304811615156040850152600160a81b8304811615156060850152600160b01b909204909116151560809092019190915260e082015191925033911614806110ff575080610120015180156110ff575060008281526008602052604090206110ff9033614299565b61111b5760405162461bcd60e51b815260040161086b90614d08565b60008a815260076020819052604090912001548a90600160a01b900460ff1661117b5760405162461bcd60e51b815260206004820152601260248201527170726f6a656374206e6f742061637469766560701b604482015260640161086b565b60008b81526007602052604090206001016111968b82614d84565b5060008b81526007602052604090206002016111b28a82614d84565b5060008b815260076020526040902060038101899055600481018890556005016111dc8782614d84565b5060008b81526007602052604090206006016111f88682614d84565b5060008b815260076020818152604092839020909101805460ff60b01b1916600160b01b8815150217905590518c815233917f5f66d2a93b609bc6596b75c6dbb0e4f3f7cafd4b3b617157ff304d1076e58375910160405180910390a25050505050505050505050565b6007602052600090815260409020805460018201805491929161128490614cce565b80601f01602080910402602001604051908101604052809291908181526020018280546112b090614cce565b80156112fd5780601f106112d2576101008083540402835291602001916112fd565b820191906000526020600020905b8154815290600101906020018083116112e057829003601f168201915b50505050509080600201805461131290614cce565b80601f016020809104026020016040519081016040528092919081815260200182805461133e90614cce565b801561138b5780601f106113605761010080835404028352916020019161138b565b820191906000526020600020905b81548152906001019060200180831161136e57829003601f168201915b5050505050908060030154908060040154908060050180546113ac90614cce565b80601f01602080910402602001604051908101604052809291908181526020018280546113d890614cce565b80156114255780601f106113fa57610100808354040283529160200191611425565b820191906000526020600020905b81548152906001019060200180831161140857829003601f168201915b50505050509080600601805461143a90614cce565b80601f016020809104026020016040519081016040528092919081815260200182805461146690614cce565b80156114b35780601f10611488576101008083540402835291602001916114b3565b820191906000526020600020905b81548152906001019060200180831161149657829003601f168201915b505050600790930154919250506001600160a01b0381169060ff600160a01b8204811691600160a81b8104821691600160b01b909104168b565b6001546001600160a01b031633148061151557503360009081526002602052604090205460ff165b6115315760405162461bcd60e51b815260040161086b90614eee565b6001600160a01b03821660008181526006602090815260409182902084905581513381529081019290925281018290527fe7f7f25d3b7ef2ac6491f0eb64c7bc8b3629dc3591569e52be1b7a4eb5ea97dc9060600160405180910390a15050565b600d6020908152600092835260409092208151808301840180519281529084019290930191909120915280546115c790614cce565b80601f01602080910402602001604051908101604052809291908181526020018280546115f390614cce565b80156116405780601f1061161557610100808354040283529160200191611640565b820191906000526020600020905b81548152906001019060200180831161162357829003601f168201915b505050505081565b6001546001600160a01b031633148061167057503360009081526002602052604090205460ff165b61168c5760405162461bcd60e51b815260040161086b90614eee565b60405133904780156108fc02916000818181858888f193505050501580156116b8573d6000803e3d6000fd5b50565b600088815260076020908152604080832081516101608101909252805482526001810180548d9594840191906116f090614cce565b80601f016020809104026020016040519081016040528092919081815260200182805461171c90614cce565b80156117695780601f1061173e57610100808354040283529160200191611769565b820191906000526020600020905b81548152906001019060200180831161174c57829003601f168201915b5050505050815260200160028201805461178290614cce565b80601f01602080910402602001604051908101604052809291908181526020018280546117ae90614cce565b80156117fb5780601f106117d0576101008083540402835291602001916117fb565b820191906000526020600020905b8154815290600101906020018083116117de57829003601f168201915b50505050508152602001600382015481526020016004820154815260200160058201805461182890614cce565b80601f016020809104026020016040519081016040528092919081815260200182805461185490614cce565b80156118a15780601f10611876576101008083540402835291602001916118a1565b820191906000526020600020905b81548152906001019060200180831161188457829003601f168201915b505050505081526020016006820180546118ba90614cce565b80601f01602080910402602001604051908101604052809291908181526020018280546118e690614cce565b80156119335780601f1061190857610100808354040283529160200191611933565b820191906000526020600020905b81548152906001019060200180831161191657829003601f168201915b5050509183525050600791909101546001600160a01b03808216602084015260ff600160a01b8304811615156040850152600160a81b8304811615156060850152600160b01b909204909116151560809092019190915260e082015191925033911614806119c1575080610120015180156119c1575060008281526008602052604090206119c19033614299565b6119dd5760405162461bcd60e51b815260040161086b90614d08565b336000908152600660205260408120548b918190036119fb57506005545b6004546000838152600860205260409020611a15906142dc565b6000848152600b60205260409020611a2c906142dc565b611a369190614f27565b611a41906001614f27565b1115611ba75780341015611a675760405162461bcd60e51b815260040161086b90614ec1565b60008c8152600860205260409020611a7f908c614299565b15611a9c5760405162461bcd60e51b815260040161086b90614f3f565b60008c8152600b60205260409020611ab4908c6142e6565b5060008c8152600a602090815260408083206001600160a01b038f1684529091529020611ae28a8c83614f89565b5060008c8152600a602090815260408083206001600160a01b038f1684529091529020600101611b13888a83614f89565b5060008c8152600a602090815260408083206001600160a01b038f1684529091529020600201611b44868883614f89565b506001600160a01b038b166000908152600c60205260409020611b67908d6142fb565b508b7fc6f31c441833b21f293718c07925d80b07f6bc91007450774197b3db20f72fcc338d604051611b9a929190614e44565b60405180910390a2611ce3565b60008c8152600860205260409020611bbf908c614299565b15611bdc5760405162461bcd60e51b815260040161086b90614f3f565b60008c8152600b60205260409020611bf4908c6142e6565b5060008c8152600a602090815260408083206001600160a01b038f1684529091529020611c228a8c83614f89565b5060008c8152600a602090815260408083206001600160a01b038f1684529091529020600101611c53888a83614f89565b5060008c8152600a602090815260408083206001600160a01b038f1684529091529020600201611c84868883614f89565b506001600160a01b038b166000908152600c60205260409020611ca7908d6142fb565b508b7fc6f31c441833b21f293718c07925d80b07f6bc91007450774197b3db20f72fcc338d604051611cda929190614e44565b60405180910390a25b505050505050505050505050565b600354341015611d135760405162461bcd60e51b815260040161086b90614ec1565b6004198260000b12158015611d2c575060058260000b13155b611d785760405162461bcd60e51b815260206004820152601f60248201527f73636f7265206d757374206265206265747765656e202d3520616e64202b3500604482015260640161086b565b827f60bba7935bbeede862536783b7f9a308eb01a6e5799e17ff32a5da221e1a962c338484604051611dac9392919061504a565b60405180910390a2505050565b6000838152600760209081526040808320815161016081019092528054825260018101805488959484019190611dee90614cce565b80601f0160208091040260200160405190810160405280929190818152602001828054611e1a90614cce565b8015611e675780601f10611e3c57610100808354040283529160200191611e67565b820191906000526020600020905b815481529060010190602001808311611e4a57829003601f168201915b50505050508152602001600282018054611e8090614cce565b80601f0160208091040260200160405190810160405280929190818152602001828054611eac90614cce565b8015611ef95780601f10611ece57610100808354040283529160200191611ef9565b820191906000526020600020905b815481529060010190602001808311611edc57829003601f168201915b505050505081526020016003820154815260200160048201548152602001600582018054611f2690614cce565b80601f0160208091040260200160405190810160405280929190818152602001828054611f5290614cce565b8015611f9f5780601f10611f7457610100808354040283529160200191611f9f565b820191906000526020600020905b815481529060010190602001808311611f8257829003601f168201915b50505050508152602001600682018054611fb890614cce565b80601f0160208091040260200160405190810160405280929190818152602001828054611fe490614cce565b80156120315780601f1061200657610100808354040283529160200191612031565b820191906000526020600020905b81548152906001019060200180831161201457829003601f168201915b5050509183525050600791909101546001600160a01b03808216602084015260ff600160a01b8304811615156040850152600160a81b8304811615156060850152600160b01b909204909116151560809092019190915260e082015191925033911614806120bf575080610120015180156120bf575060008281526008602052604090206120bf9033614299565b6120db5760405162461bcd60e51b815260040161086b90614d08565b60008581526008602052604090206120f39085614299565b61210f5760405162461bcd60e51b815260040161086b90614e5e565b6000858152600a602090815260408083206001600160a01b0388168452909152902060040161213e8482614d84565b50847fd9f85596d0350abe376b65c9bc1ab49e988552f2ac979b593e5d55cadd53fa7b3386604051612171929190614e44565b60405180910390a25050505050565b60008381526007602090815260408083208151610160810190925280548252600181018054889594840191906121b590614cce565b80601f01602080910402602001604051908101604052809291908181526020018280546121e190614cce565b801561222e5780601f106122035761010080835404028352916020019161222e565b820191906000526020600020905b81548152906001019060200180831161221157829003601f168201915b5050505050815260200160028201805461224790614cce565b80601f016020809104026020016040519081016040528092919081815260200182805461227390614cce565b80156122c05780601f10612295576101008083540402835291602001916122c0565b820191906000526020600020905b8154815290600101906020018083116122a357829003601f168201915b5050505050815260200160038201548152602001600482015481526020016005820180546122ed90614cce565b80601f016020809104026020016040519081016040528092919081815260200182805461231990614cce565b80156123665780601f1061233b57610100808354040283529160200191612366565b820191906000526020600020905b81548152906001019060200180831161234957829003601f168201915b5050505050815260200160068201805461237f90614cce565b80601f01602080910402602001604051908101604052809291908181526020018280546123ab90614cce565b80156123f85780601f106123cd576101008083540402835291602001916123f8565b820191906000526020600020905b8154815290600101906020018083116123db57829003601f168201915b5050509183525050600791909101546001600160a01b03808216602084015260ff600160a01b8304811615156040850152600160a81b8304811615156060850152600160b01b909204909116151560809092019190915260e0820151919250339116148061248657508061012001518015612486575060008281526008602052604090206124869033614299565b6124a25760405162461bcd60e51b815260040161086b90614d08565b60008581526008602052604090206124ba9085614299565b6125065760405162461bcd60e51b815260206004820152601a60248201527f63616e6e6f742072656d6f76652061206e6f6e2d6d656d626572000000000000604482015260640161086b565b600085815260086020526040902061251e90856142bb565b506001600160a01b038416600090815260096020526040902061254190866142d0565b507f192e9717726252986d627e77aab569769deec7d8ec94b1e7b356598545ce46e885338686604051612577949392919061507e565b60405180910390a15050505050565b6000818152600b602052604090206060906125a090614307565b92915050565b6001546001600160a01b031633146125f05760405162461bcd60e51b815260206004820152600d60248201526c3737ba103a34329037bbb732b960991b604482015260640161086b565b6001600160a01b03919091166000908152600260205260409020805460ff1916911515919091179055565b600081815260076020908152604080832081516101608101909252805482526001810180548695948401919061265090614cce565b80601f016020809104026020016040519081016040528092919081815260200182805461267c90614cce565b80156126c95780601f1061269e576101008083540402835291602001916126c9565b820191906000526020600020905b8154815290600101906020018083116126ac57829003601f168201915b505050505081526020016002820180546126e290614cce565b80601f016020809104026020016040519081016040528092919081815260200182805461270e90614cce565b801561275b5780601f106127305761010080835404028352916020019161275b565b820191906000526020600020905b81548152906001019060200180831161273e57829003601f168201915b50505050508152602001600382015481526020016004820154815260200160058201805461278890614cce565b80601f01602080910402602001604051908101604052809291908181526020018280546127b490614cce565b80156128015780601f106127d657610100808354040283529160200191612801565b820191906000526020600020905b8154815290600101906020018083116127e457829003601f168201915b5050505050815260200160068201805461281a90614cce565b80601f016020809104026020016040519081016040528092919081815260200182805461284690614cce565b80156128935780601f1061286857610100808354040283529160200191612893565b820191906000526020600020905b81548152906001019060200180831161287657829003601f168201915b5050509183525050600791909101546001600160a01b03808216602084015260ff600160a01b8304811615156040850152600160a81b8304811615156060850152600160b01b909204909116151560809092019190915260e0820151919250339116148061292157508061012001518015612921575060008281526008602052604090206129219033614299565b61293d5760405162461bcd60e51b815260040161086b90614d08565b600083815260076020818152604092839020909101805460ff60b01b1916600160b01b179055905133815284917fb73e4ba45c2954d5b4e8ebe9b323e78b8aa4e7ff0a690f4244f46dda051170849101611dac565b6001546001600160a01b03163314806129ba57503360009081526002602052604090205460ff165b6129d65760405162461bcd60e51b815260040161086b90614eee565b60008881526008602052604090206129ee90886142e6565b506000888152600a602090815260408083206001600160a01b038b1684529091529020612a1c868883614f89565b506000888152600a602090815260408083206001600160a01b038b1684529091529020600101612a4d848683614f89565b506000888152600a602090815260408083206001600160a01b038b1684529091529020600201612a7e828483614f89565b50877fd964449c6fa9af4a279c0d5de7838f879ec83eaf4c1cb8904fa27f9fd245d4653389604051612ab1929190614e44565b60405180910390a25050505050505050565b6000818152600760209081526040808320815161016081019092528054825260018101805486959484019190612af890614cce565b80601f0160208091040260200160405190810160405280929190818152602001828054612b2490614cce565b8015612b715780601f10612b4657610100808354040283529160200191612b71565b820191906000526020600020905b815481529060010190602001808311612b5457829003601f168201915b50505050508152602001600282018054612b8a90614cce565b80601f0160208091040260200160405190810160405280929190818152602001828054612bb690614cce565b8015612c035780601f10612bd857610100808354040283529160200191612c03565b820191906000526020600020905b815481529060010190602001808311612be657829003601f168201915b505050505081526020016003820154815260200160048201548152602001600582018054612c3090614cce565b80601f0160208091040260200160405190810160405280929190818152602001828054612c5c90614cce565b8015612ca95780601f10612c7e57610100808354040283529160200191612ca9565b820191906000526020600020905b815481529060010190602001808311612c8c57829003601f168201915b50505050508152602001600682018054612cc290614cce565b80601f0160208091040260200160405190810160405280929190818152602001828054612cee90614cce565b8015612d3b5780601f10612d1057610100808354040283529160200191612d3b565b820191906000526020600020905b815481529060010190602001808311612d1e57829003601f168201915b5050509183525050600791909101546001600160a01b03808216602084015260ff600160a01b8304811615156040850152600160a81b8304811615156060850152600160b01b909204909116151560809092019190915260e08201519192503391161480612dc957508061012001518015612dc957506000828152600860205260409020612dc99033614299565b612de55760405162461bcd60e51b815260040161086b90614d08565b600083815260076020818152604092839020909101805460ff60b01b19169055905133815284917f168a71deb8127d652672213c2cd3b59bbc36a568bf9708634a183f5af379550e9101611dac565b6000828152600760209081526040808320815161016081019092528054825260018101805487959484019190612e6990614cce565b80601f0160208091040260200160405190810160405280929190818152602001828054612e9590614cce565b8015612ee25780601f10612eb757610100808354040283529160200191612ee2565b820191906000526020600020905b815481529060010190602001808311612ec557829003601f168201915b50505050508152602001600282018054612efb90614cce565b80601f0160208091040260200160405190810160405280929190818152602001828054612f2790614cce565b8015612f745780601f10612f4957610100808354040283529160200191612f74565b820191906000526020600020905b815481529060010190602001808311612f5757829003601f168201915b505050505081526020016003820154815260200160048201548152602001600582018054612fa190614cce565b80601f0160208091040260200160405190810160405280929190818152602001828054612fcd90614cce565b801561301a5780601f10612fef5761010080835404028352916020019161301a565b820191906000526020600020905b815481529060010190602001808311612ffd57829003601f168201915b5050505050815260200160068201805461303390614cce565b80601f016020809104026020016040519081016040528092919081815260200182805461305f90614cce565b80156130ac5780601f10613081576101008083540402835291602001916130ac565b820191906000526020600020905b81548152906001019060200180831161308f57829003601f168201915b5050509183525050600791909101546001600160a01b03808216602084015260ff600160a01b8304811615156040850152600160a81b8304811615156060850152600160b01b909204909116151560809092019190915260e0820151919250339116148061313a5750806101200151801561313a5750600082815260086020526040902061313a9033614299565b6131565760405162461bcd60e51b815260040161086b90614d08565b600084815260086020526040902061316e9084614299565b61318a5760405162461bcd60e51b815260040161086b90614e5e565b6000848152600a602090815260408083206001600160a01b038716845290915290819020600301805460ff191660011790555184907f36645d58e02afa1c38639e8290df30bfae15c41917fb49043cd0d853b279942990610c949033908790614e44565b6001546001600160a01b031633148061321657503360009081526002602052604090205460ff165b6132325760405162461bcd60e51b815260040161086b90614eee565b600082815260086020526040902061324a9082614299565b6132665760405162461bcd60e51b815260040161086b90614e5e565b6000828152600a602090815260408083206001600160a01b038516845290915290819020600301805461ff0019166101001790555182907f831a63cadef843aaf575ea22551d52b9832e3110954e1d97a237b88598cc7f0a906108bf9033908590614e44565b6001546001600160a01b03163314806132f457503360009081526002602052604090205460ff165b6133105760405162461bcd60e51b815260040161086b90614eee565b600481905560408051338152602081018390527fb1cd13d2c2f805634911f8ba7c0f1f1a3b73ddcfe210982d9effa12e0e5fce7491015b60405180910390a150565b6000818152600760208190526040909120015481906001600160a01b0316331461338e5760405162461bcd60e51b815260040161086b90614c9f565b600082815260076020818152604092839020909101805460ff60a01b19169055905133815283917f2db5b21c1b51bf62f3aedd6ee9d626e86c1ce7a4c3678863d72af87528620af591016108bf565b6001546001600160a01b031633148061340557503360009081526002602052604090205460ff165b6134215760405162461bcd60e51b815260040161086b90614eee565b600355565b6001546001600160a01b031633148061344e57503360009081526002602052604090205460ff165b61346a5760405162461bcd60e51b815260040161086b90614eee565b604051637921219560e11b815284906001600160a01b0382169063f242432a906134a090309033908990899089906004016150ba565b600060405180830381600087803b1580156134ba57600080fd5b505af11580156134ce573d6000803e3d6000fd5b505050505050505050565b6001546001600160a01b031633148061350157503360009081526002602052604090205460ff165b61351d5760405162461bcd60e51b815260040161086b90614eee565b60405163a9059cbb60e01b81523360048201526024810182905282906001600160a01b0382169063a9059cbb906044016020604051808303816000875af115801561356c573d6000803e3d6000fd5b505050506040513d601f19601f8201168201806040525081019061359091906150ff565b50505050565b600a6020908152600092835260408084209091529082529020805481906135bc90614cce565b80601f01602080910402602001604051908101604052809291908181526020018280546135e890614cce565b80156136355780601f1061360a57610100808354040283529160200191613635565b820191906000526020600020905b81548152906001019060200180831161361857829003601f168201915b50505050509080600101805461364a90614cce565b80601f016020809104026020016040519081016040528092919081815260200182805461367690614cce565b80156136c35780601f10613698576101008083540402835291602001916136c3565b820191906000526020600020905b8154815290600101906020018083116136a657829003601f168201915b5050505050908060020180546136d890614cce565b80601f016020809104026020016040519081016040528092919081815260200182805461370490614cce565b80156137515780601f1061372657610100808354040283529160200191613751565b820191906000526020600020905b81548152906001019060200180831161373457829003601f168201915b505050506003830154600484018054939460ff808416956101009094041693509161377b90614cce565b80601f01602080910402602001604051908101604052809291908181526020018280546137a790614cce565b80156137f45780601f106137c9576101008083540402835291602001916137f4565b820191906000526020600020905b8154815290600101906020018083116137d757829003601f168201915b5050505050905086565b6000818152600760208190526040909120015481906001600160a01b0316331461383a5760405162461bcd60e51b815260040161086b90614c9f565b600082815260076020818152604092839020909101805460ff60a01b1916600160a01b179055905133815283917f3852d39a30839f855c0cb6324fff483384b34a6031c370abda21e5df18931b8a91016108bf565b6001546001600160a01b03163314806138b757503360009081526002602052604090205460ff165b6138d35760405162461bcd60e51b815260040161086b90614eee565b600581905560408051338152602081018390527f74259ab7af8cedcc56fe61eda6425c17b82940e9be1c4eec7074c0abcca5252a9101613347565b6001600160a01b0381166000908152600c602052604090206060906125a090614307565b6003543410156139545760405162461bcd60e51b815260040161086b90614ec1565b6139c06040518061016001604052806000815260200160608152602001606081526020016000815260200160008152602001606081526020016060815260200160006001600160a01b031681526020016000151581526020016000151581526020016000151581525090565b6000805480835260208084018b815260408086018c9052606086018b9052608086018a905260a0860189905260c086018890528615156101408701523360e087015260016101008701819052610120870186905293855260079092529220835181559151839291820190613a349082614d84565b5060408201516002820190613a499082614d84565b50606082015160038201556080820151600482015560a08201516005820190613a729082614d84565b5060c08201516006820190613a879082614d84565b5060e082015160079091018054610100840151610120850151610140909501511515600160b01b0260ff60b01b19951515600160a81b029590951661ffff60a81b19911515600160a01b026001600160a81b03199093166001600160a01b0390951694909417919091171691909117919091179055600080549080613b0b8361511c565b9091555050805160405190815233907fcc9018de05b5f497ee7618d8830568d8ac2d45d0671b73d8f71c67e824122ec790602001612ab1565b6000818152600b60205260409020613b5c9033614299565b613ba15760405162461bcd60e51b81526020600482015260166024820152751b9bdd081a5b9d9a5d1959081d1bc81c1c9bda9958dd60521b604482015260640161086b565b336000908152600c60205260409020613bba90826142d0565b506000818152600b60205260409020613bd390336142bb565b506000818152600860205260409020613bec90336142e6565b50336000908152600960205260409020613c0690826142fb565b5060405133815281907f772d3a0eec20698cdfbd3c606d83b1680e703ac1cd6cce8b19417522f4b41d0f9060200160405180910390a250565b60008181526008602052604090206060906125a090614307565b6001600160a01b03811660009081526009602052604090206060906125a090614307565b600354341015613c9f5760405162461bcd60e51b815260040161086b90614ec1565b6000828152600760208190526040909120015482906001600160a01b03163314613cdb5760405162461bcd60e51b815260040161086b90614c9f565b6000838152600760208190526040918290200180546001600160a01b0319166001600160a01b0385161790555183907f52490b9ef326bbc78c4fc19841b07019ccd6a03fd9be6be771b876a01e9bac6790611dac9033908690614e44565b6001546001600160a01b03163314613d835760405162461bcd60e51b815260206004820152600d60248201526c3737ba103a34329037bbb732b960991b604482015260640161086b565b600180546001600160a01b0319166001600160a01b0392909216919091179055565b6001546001600160a01b0316331480613dcd57503360009081526002602052604090205460ff165b613de95760405162461bcd60e51b815260040161086b90614eee565b604051632142170760e11b81523060048201523360248201526044810182905282906001600160a01b038216906342842e0e90606401600060405180830381600087803b158015613e3957600080fd5b505af1158015613e4d573d6000803e3d6000fd5b50505050505050565b6000838152600760209081526040808320815161016081019092528054825260018101805488959484019190613e8b90614cce565b80601f0160208091040260200160405190810160405280929190818152602001828054613eb790614cce565b8015613f045780601f10613ed957610100808354040283529160200191613f04565b820191906000526020600020905b815481529060010190602001808311613ee757829003601f168201915b50505050508152602001600282018054613f1d90614cce565b80601f0160208091040260200160405190810160405280929190818152602001828054613f4990614cce565b8015613f965780601f10613f6b57610100808354040283529160200191613f96565b820191906000526020600020905b815481529060010190602001808311613f7957829003601f168201915b505050505081526020016003820154815260200160048201548152602001600582018054613fc390614cce565b80601f0160208091040260200160405190810160405280929190818152602001828054613fef90614cce565b801561403c5780601f106140115761010080835404028352916020019161403c565b820191906000526020600020905b81548152906001019060200180831161401f57829003601f168201915b5050505050815260200160068201805461405590614cce565b80601f016020809104026020016040519081016040528092919081815260200182805461408190614cce565b80156140ce5780601f106140a3576101008083540402835291602001916140ce565b820191906000526020600020905b8154815290600101906020018083116140b157829003601f168201915b5050509183525050600791909101546001600160a01b03808216602084015260ff600160a01b8304811615156040850152600160a81b8304811615156060850152600160b01b909204909116151560809092019190915260e0820151919250339116148061415c5750806101200151801561415c5750600082815260086020526040902061415c9033614299565b6141785760405162461bcd60e51b815260040161086b90614d08565b82600d60008781526020019081526020016000208560405161419a9190615135565b908152602001604051809103902090816141b49190614d84565b50847fa135796c3dfbf727059d984bed603f5302680833cd089ccb602e8e31656c189833868660405161217193929190615151565b6000828152600b602052604081206142019083614299565b9392505050565b6000818152600760208190526040909120015481906001600160a01b031633146142445760405162461bcd60e51b815260040161086b90614c9f565b600082815260076020818152604092839020909101805460ff60a81b1916600160a81b179055905133815283917f6006c14b1490fea98e4a6b6ce7ec6bc4d699a2270ec1a1fb3281efe4c870b06591016108bf565b6001600160a01b03811660009081526001830160205260408120541515614201565b6000614201836001600160a01b038416614314565b60006142018383614314565b60006125a0825490565b6000614201836001600160a01b038416614407565b60006142018383614407565b6060600061420183614456565b600081815260018301602052604081205480156143fd576000614338600183615187565b855490915060009061434c90600190615187565b90508181146143b157600086600001828154811061436c5761436c61519e565b906000526020600020015490508087600001848154811061438f5761438f61519e565b6000918252602080832090910192909255918252600188019052604090208390555b85548690806143c2576143c26151b4565b6001900381819060005260206000200160009055905585600101600086815260200190815260200160002060009055600193505050506125a0565b60009150506125a0565b600081815260018301602052604081205461444e575081546001818101845560008481526020808220909301849055845484825282860190935260409020919091556125a0565b5060006125a0565b6060816000018054806020026020016040519081016040528092919081815260200182805480156144a657602002820191906000526020600020905b815481526020019060010190808311614492575b50505050509050919050565b6000602082840312156144c457600080fd5b5035919050565b80356001600160a01b03811681146144e257600080fd5b919050565b600080604083850312156144fa57600080fd5b8235915061450a602084016144cb565b90509250929050565b634e487b7160e01b600052604160045260246000fd5b600067ffffffffffffffff8084111561454457614544614513565b604051601f8501601f19908116603f0116810190828211818310171561456c5761456c614513565b8160405280935085815286868601111561458557600080fd5b858560208301376000602087830101525050509392505050565b600082601f8301126145b057600080fd5b61420183833560208501614529565b600080604083850312156145d257600080fd5b82359150602083013567ffffffffffffffff8111156145f057600080fd5b6145fc8582860161459f565b9150509250929050565b80151581146116b857600080fd5b80356144e281614606565b600080600080600080600080610100898b03121561463c57600080fd5b88359750602089013567ffffffffffffffff8082111561465b57600080fd5b6146678c838d0161459f565b985060408b013591508082111561467d57600080fd5b6146898c838d0161459f565b975060608b0135965060808b0135955060a08b01359150808211156146ad57600080fd5b6146b98c838d0161459f565b945060c08b01359150808211156146cf57600080fd5b506146dc8b828c0161459f565b9250506146eb60e08a01614614565b90509295985092959890939650565b60005b838110156147155781810151838201526020016146fd565b838111156135905750506000910152565b6000815180845261473e8160208601602086016146fa565b601f01601f19169290920160200192915050565b60006101608d835280602084015261476c8184018e614726565b90508281036040840152614780818d614726565b90508a606084015289608084015282810360a08401526147a0818a614726565b905082810360c08401526147b48189614726565b6001600160a01b03881660e085015286151561010085015285151561012085015284151561014085015291506147e79050565b9c9b505050505050505050505050565b6000806040838503121561480a57600080fd5b614813836144cb565b946020939093013593505050565b6020815260006142016020830184614726565b60008083601f84011261484657600080fd5b50813567ffffffffffffffff81111561485e57600080fd5b60208301915083602082850101111561487657600080fd5b9250929050565b60008060008060008060008060a0898b03121561489957600080fd5b883597506148a960208a016144cb565b9650604089013567ffffffffffffffff808211156148c657600080fd5b6148d28c838d01614834565b909850965060608b01359150808211156148eb57600080fd5b6148f78c838d01614834565b909650945060808b013591508082111561491057600080fd5b5061491d8b828c01614834565b999c989b5096995094979396929594505050565b60008060006060848603121561494657600080fd5b8335925060208401358060000b811461495e57600080fd5b9150604084013567ffffffffffffffff81111561497a57600080fd5b6149868682870161459f565b9150509250925092565b6000806000606084860312156149a557600080fd5b8335925061495e602085016144cb565b6000602082840312156149c757600080fd5b614201826144cb565b6020808252825182820181905260009190848201906040850190845b81811015614a115783516001600160a01b0316835292840192918401916001016149ec565b50909695505050505050565b60008060408385031215614a3057600080fd5b614a39836144cb565b91506020830135614a4981614606565b809150509250929050565b60008060008060808587031215614a6a57600080fd5b614a73856144cb565b93506020850135925060408501359150606085013567ffffffffffffffff811115614a9d57600080fd5b8501601f81018713614aae57600080fd5b614abd87823560208401614529565b91505092959194509250565b60c081526000614adc60c0830189614726565b8281036020840152614aee8189614726565b90508281036040840152614b028188614726565b90508515156060840152841515608084015282810360a0840152614b268185614726565b9998505050505050505050565b6020808252825182820181905260009190848201906040850190845b81811015614a1157835183529284019291840191600101614b4f565b600080600080600080600060e0888a031215614b8657600080fd5b873567ffffffffffffffff80821115614b9e57600080fd5b614baa8b838c0161459f565b985060208a0135915080821115614bc057600080fd5b614bcc8b838c0161459f565b975060408a0135965060608a0135955060808a0135915080821115614bf057600080fd5b614bfc8b838c0161459f565b945060a08a0135915080821115614c1257600080fd5b50614c1f8a828b0161459f565b925050614c2e60c08901614614565b905092959891949750929550565b600080600060608486031215614c5157600080fd5b83359250602084013567ffffffffffffffff80821115614c7057600080fd5b614c7c8783880161459f565b93506040860135915080821115614c9257600080fd5b506149868682870161459f565b6020808252601590820152743737ba103a343290383937b532b1ba1037bbb732b960591b604082015260600190565b600181811c90821680614ce257607f821691505b602082108103614d0257634e487b7160e01b600052602260045260246000fd5b50919050565b60208082526013908201527218d85b9b9bdd0819591a5d081c1c9bda9958dd606a1b604082015260600190565b601f821115614d7f57600081815260208120601f850160051c81016020861015614d5c5750805b601f850160051c820191505b81811015614d7b57828155600101614d68565b5050505b505050565b815167ffffffffffffffff811115614d9e57614d9e614513565b614db281614dac8454614cce565b84614d35565b602080601f831160018114614de75760008415614dcf5750858301515b600019600386901b1c1916600185901b178555614d7b565b600085815260208120601f198616915b82811015614e1657888601518255948401946001909101908401614df7565b5085821015614e345787850151600019600388901b60f8161c191681555b5050505050600190811b01905550565b6001600160a01b0392831681529116602082015260400190565b60208082526017908201527f6e6f742061206d656d626572206f662070726f6a656374000000000000000000604082015260600190565b6001600160a01b0383168152604060208201819052600090614eb990830184614726565b949350505050565b6020808252601390820152720c8d2c840dcdee840e6cadcc840cadcdeeaced606b1b604082015260600190565b6020808252600990820152683737ba1030b236b4b760b91b604082015260600190565b634e487b7160e01b600052601160045260246000fd5b60008219821115614f3a57614f3a614f11565b500190565b6020808252602a908201527f4d656d62657220697320616c72656164792061206d656d626572206f662074686040820152691a5cc81c1c9bda9958dd60b21b606082015260800190565b67ffffffffffffffff831115614fa157614fa1614513565b614fb583614faf8354614cce565b83614d35565b6000601f841160018114614fe95760008515614fd15750838201355b600019600387901b1c1916600186901b178355615043565b600083815260209020601f19861690835b8281101561501a5786850135825560209485019460019092019101614ffa565b50868210156150375760001960f88860031b161c19848701351681555b505060018560011b0183555b5050505050565b6001600160a01b0384168152600083810b602083015260606040830181905261507590830184614726565b95945050505050565b8481526001600160a01b038481166020830152831660408201526080606082018190526000906150b090830184614726565b9695505050505050565b6001600160a01b03868116825285166020820152604081018490526060810183905260a0608082018190526000906150f490830184614726565b979650505050505050565b60006020828403121561511157600080fd5b815161420181614606565b60006001820161512e5761512e614f11565b5060010190565b600082516151478184602087016146fa565b9190910192915050565b6001600160a01b038416815260606020820181905260009061517590830185614726565b82810360408401526150b08185614726565b60008282101561519957615199614f11565b500390565b634e487b7160e01b600052603260045260246000fd5b634e487b7160e01b600052603160045260246000fdfea2646970667358221220d57352983e114e7aa66b1b5a66e6dcb9691bf82c28496711d0b72235339416b164736f6c634300080f0033",
  "linkReferences": {},
  "deployedLinkReferences": {}
}