{
	"data": {
		"bytecode": {
			"linkReferences": {},
			"object": "6080604052604051806060016040528060358152602001620056c4603591396005908051906020019062000035929190620002a1565b503480156200004357600080fd5b506040518060600160405280602a81526020016200569a602a91396200006f816200010a60201b60201c565b506000600460006101000a81548160ff021916908315150217905550620000a06000801b336200012660201b60201c565b620000d27f9f2df0fed2c77648de5860a4cc508cd0818c85b8b8a1ab4ceeef8d981c8956a6336200012660201b60201c565b620001047f65d7a28e3265b37a6474929f336521b332c1681b933f6cb9f3376673440d862a336200012660201b60201c565b620003b5565b806002908051906020019062000122929190620002a1565b5050565b6200013882826200013c60201b60201c565b5050565b6200014e82826200022e60201b60201c565b6200022a5760016003600084815260200190815260200160002060000160008373ffffffffffffffffffffffffffffffffffffffff1673ffffffffffffffffffffffffffffffffffffffff16815260200190815260200160002060006101000a81548160ff021916908315150217905550620001cf6200029960201b60201c565b73ffffffffffffffffffffffffffffffffffffffff168173ffffffffffffffffffffffffffffffffffffffff16837f2f8788117e7eff1d82e926ec794901d17c78024a50270940304540a733656f0d60405160405180910390a45b5050565b60006003600084815260200190815260200160002060000160008373ffffffffffffffffffffffffffffffffffffffff1673ffffffffffffffffffffffffffffffffffffffff16815260200190815260200160002060009054906101000a900460ff16905092915050565b600033905090565b828054620002af9062000380565b90600052602060002090601f016020900481019282620002d357600085556200031f565b82601f10620002ee57805160ff19168380011785556200031f565b828001600101855582156200031f579182015b828111156200031e57825182559160200191906001019062000301565b5b5090506200032e919062000332565b5090565b5b808211156200034d57600081600090555060010162000333565b5090565b7f4e487b7100000000000000000000000000000000000000000000000000000000600052602260045260246000fd5b600060028204905060018216806200039957607f821691505b602082108103620003af57620003ae62000351565b5b50919050565b6152d580620003c56000396000f3fe6080604052600436106101cc5760003560e01c806391d14854116100f7578063b33712c511610095578063e8a3d48511610064578063e8a3d48514610650578063e985e9c51461067b578063f242432a146106b8578063f3e414f8146106e1576101cc565b8063b33712c5146105ba578063d5391393146105d1578063d547741f146105fc578063e63ab1e914610625576101cc565b8063a1538bde116100d1578063a1538bde14610514578063a1db97821461053d578063a217fddf14610566578063a22cb46514610591576101cc565b806391d1485414610485578063938e3d7b146104c25780639e50b2a2146104eb576101cc565b80632eb2c2d61161016f578063439766ce1161013e578063439766ce146103c55780634e1273f4146103dc5780635059d0d2146104195780635c975abb1461045a576101cc565b80632eb2c2d6146103215780632f2ff15d1461034a57806336568abe1461037357806339580ce81461039c576101cc565b80630e89341c116101ab5780630e89341c14610274578063156e29f6146102b157806324600fc3146102cd578063248a9ca3146102e4576101cc565b8062fdd58e146101d157806301ffc9a71461020e57806307594abf1461024b575b600080fd5b3480156101dd57600080fd5b506101f860048036038101906101f3919061349b565b61070a565b60405161020591906134ea565b60405180910390f35b34801561021a57600080fd5b506102356004803603810190610230919061355d565b6107d2565b60405161024291906135a5565b60405180910390f35b34801561025757600080fd5b50610272600480360381019061026d9190613625565b6107e4565b005b34801561028057600080fd5b5061029b600480360381019061029691906136ba565b610939565b6040516102a89190613780565b60405180910390f35b6102cb60048036038101906102c691906137a2565b610b05565b005b3480156102d957600080fd5b506102e2610d8c565b005b3480156102f057600080fd5b5061030b6004803603810190610306919061382b565b610e21565b6040516103189190613867565b60405180910390f35b34801561032d57600080fd5b5061034860048036038101906103439190613a75565b610e41565b005b34801561035657600080fd5b50610371600480360381019061036c9190613b44565b610ee2565b005b34801561037f57600080fd5b5061039a60048036038101906103959190613b44565b610f03565b005b3480156103a857600080fd5b506103c360048036038101906103be91906137a2565b610f86565b005b3480156103d157600080fd5b506103da611057565b005b3480156103e857600080fd5b5061040360048036038101906103fe9190613c47565b611112565b6040516104109190613d7d565b60405180910390f35b34801561042557600080fd5b50610440600480360381019061043b91906136ba565b61122b565b604051610451959493929190613d9f565b60405180910390f35b34801561046657600080fd5b5061046f611371565b60405161047c91906135a5565b60405180910390f35b34801561049157600080fd5b506104ac60048036038101906104a79190613b44565b611388565b6040516104b991906135a5565b60405180910390f35b3480156104ce57600080fd5b506104e960048036038101906104e49190613e56565b6113f3565b005b3480156104f757600080fd5b50610512600480360381019061050d9190613ea3565b611455565b005b34801561052057600080fd5b5061053b60048036038101906105369190613f72565b6115c8565b005b34801561054957600080fd5b50610564600480360381019061055f919061349b565b611693565b005b34801561057257600080fd5b5061057b611768565b6040516105889190613867565b60405180910390f35b34801561059d57600080fd5b506105b860048036038101906105b39190614021565b61176f565b005b3480156105c657600080fd5b506105cf611785565b005b3480156105dd57600080fd5b506105e661183f565b6040516105f39190613867565b60405180910390f35b34801561060857600080fd5b50610623600480360381019061061e9190613b44565b611863565b005b34801561063157600080fd5b5061063a611884565b6040516106479190613867565b60405180910390f35b34801561065c57600080fd5b506106656118a8565b6040516106729190613780565b60405180910390f35b34801561068757600080fd5b506106a2600480360381019061069d9190614061565b61193a565b6040516106af91906135a5565b60405180910390f35b3480156106c457600080fd5b506106df60048036038101906106da91906140a1565b6119ce565b005b3480156106ed57600080fd5b506107086004803603810190610703919061349b565b611a6f565b005b60008073ffffffffffffffffffffffffffffffffffffffff168373ffffffffffffffffffffffffffffffffffffffff160361077a576040517f08c379a0000000000000000000000000000000000000000000000000000000008152600401610771906141aa565b60405180910390fd5b60008083815260200190815260200160002060008473ffffffffffffffffffffffffffffffffffffffff1673ffffffffffffffffffffffffffffffffffffffff16815260200190815260200160002054905092915050565b60006107dd82611b34565b9050919050565b61080e7f9f2df0fed2c77648de5860a4cc508cd0818c85b8b8a1ab4ceeef8d981c8956a633611388565b61084d576040517f08c379a000000000000000000000000000000000000000000000000000000000815260040161084490614216565b60405180910390fd5b610855611371565b15610895576040517f08c379a000000000000000000000000000000000000000000000000000000000815260040161088c90614282565b60405180910390fd5b61093285858580806020026020016040519081016040528093929190818152602001838360200280828437600081840152601f19601f82011690508083019250505050505050848480806020026020016040519081016040528093929190818152602001838360200280828437600081840152601f19601f8201169050808301925050505050505060405180602001604052806000815250611bae565b5050505050565b60606000600660008481526020019081526020016000206040518060a001604052908160008201805461096b906142d1565b80601f0160208091040260200160405190810160405280929190818152602001828054610997906142d1565b80156109e45780601f106109b9576101008083540402835291602001916109e4565b820191906000526020600020905b8154815290600101906020018083116109c757829003601f168201915b505050505081526020016001820180546109fd906142d1565b80601f0160208091040260200160405190810160405280929190818152602001828054610a29906142d1565b8015610a765780601f10610a4b57610100808354040283529160200191610a76565b820191906000526020600020905b815481529060010190602001808311610a5957829003601f168201915b50505050508152602001600282015481526020016003820154815260200160048201548152505090506000816040015114158015610ab957506000816060015114155b610af8576040517f08c379a0000000000000000000000000000000000000000000000000000000008152600401610aef9061434e565b60405180910390fd5b8060200151915050919050565b610b0d611371565b15610b4d576040517f08c379a0000000000000000000000000000000000000000000000000000000008152600401610b4490614282565b60405180910390fd5b6000600660008481526020019081526020016000206040518060a0016040529081600082018054610b7d906142d1565b80601f0160208091040260200160405190810160405280929190818152602001828054610ba9906142d1565b8015610bf65780601f10610bcb57610100808354040283529160200191610bf6565b820191906000526020600020905b815481529060010190602001808311610bd957829003601f168201915b50505050508152602001600182018054610c0f906142d1565b80601f0160208091040260200160405190810160405280929190818152602001828054610c3b906142d1565b8015610c885780601f10610c5d57610100808354040283529160200191610c88565b820191906000526020600020905b815481529060010190602001808311610c6b57829003601f168201915b50505050508152602001600282015481526020016003820154815260200160048201548152505090506000816040015114158015610ccb57506000816060015114155b610d0a576040517f08c379a0000000000000000000000000000000000000000000000000000000008152600401610d01906143ba565b60405180910390fd5b600081608001511480610d2c5750818160800151610d289190614409565b3410155b610d6b576040517f08c379a0000000000000000000000000000000000000000000000000000000008152600401610d62906144af565b60405180910390fd5b610d8684848460405180602001604052806000815250611dda565b50505050565b610d996000801b33611388565b610dd8576040517f08c379a0000000000000000000000000000000000000000000000000000000008152600401610dcf9061451b565b60405180910390fd5b3373ffffffffffffffffffffffffffffffffffffffff166108fc479081150290604051600060405180830381858888f19350505050158015610e1e573d6000803e3d6000fd5b50565b600060036000838152602001908152602001600020600101549050919050565b610e49611f8a565b73ffffffffffffffffffffffffffffffffffffffff168573ffffffffffffffffffffffffffffffffffffffff161480610e8f5750610e8e85610e89611f8a565b61193a565b5b610ece576040517f08c379a0000000000000000000000000000000000000000000000000000000008152600401610ec5906145ad565b60405180910390fd5b610edb8585858585611f92565b5050505050565b610eeb82610e21565b610ef4816122b3565b610efe83836122c7565b505050565b610f0b611f8a565b73ffffffffffffffffffffffffffffffffffffffff168173ffffffffffffffffffffffffffffffffffffffff1614610f78576040517f08c379a0000000000000000000000000000000000000000000000000000000008152600401610f6f9061463f565b60405180910390fd5b610f8282826123a8565b5050565b610fb07f9f2df0fed2c77648de5860a4cc508cd0818c85b8b8a1ab4ceeef8d981c8956a633611388565b610fef576040517f08c379a0000000000000000000000000000000000000000000000000000000008152600401610fe690614216565b60405180910390fd5b610ff7611371565b15611037576040517f08c379a000000000000000000000000000000000000000000000000000000000815260040161102e90614282565b60405180910390fd5b61105283838360405180602001604052806000815250611dda565b505050565b6110817f65d7a28e3265b37a6474929f336521b332c1681b933f6cb9f3376673440d862a33611388565b6110c0576040517f08c379a00000000000000000000000000000000000000000000000000000000081526004016110b7906146ab565b60405180910390fd5b6110c8611371565b15611108576040517f08c379a00000000000000000000000000000000000000000000000000000000081526004016110ff90614282565b60405180910390fd5b61111061248a565b565b60608151835114611158576040517f08c379a000000000000000000000000000000000000000000000000000000000815260040161114f9061473d565b60405180910390fd5b6000835167ffffffffffffffff81111561117557611174613882565b5b6040519080825280602002602001820160405280156111a35781602001602082028036833780820191505090505b50905060005b8451811015611220576111f08582815181106111c8576111c761475d565b5b60200260200101518583815181106111e3576111e261475d565b5b602002602001015161070a565b8282815181106112035761120261475d565b5b602002602001018181525050806112199061478c565b90506111a9565b508091505092915050565b600660205280600052604060002060009150905080600001805461124e906142d1565b80601f016020809104026020016040519081016040528092919081815260200182805461127a906142d1565b80156112c75780601f1061129c576101008083540402835291602001916112c7565b820191906000526020600020905b8154815290600101906020018083116112aa57829003601f168201915b5050505050908060010180546112dc906142d1565b80601f0160208091040260200160405190810160405280929190818152602001828054611308906142d1565b80156113555780601f1061132a57610100808354040283529160200191611355565b820191906000526020600020905b81548152906001019060200180831161133857829003601f168201915b5050505050908060020154908060030154908060040154905085565b6000600460009054906101000a900460ff16905090565b60006003600084815260200190815260200160002060000160008373ffffffffffffffffffffffffffffffffffffffff1673ffffffffffffffffffffffffffffffffffffffff16815260200190815260200160002060009054906101000a900460ff16905092915050565b6114006000801b33611388565b61143f576040517f08c379a00000000000000000000000000000000000000000000000000000000081526004016114369061451b565b60405180910390fd5b8181600591906114509291906132ca565b505050565b6114626000801b33611388565b6114a1576040517f08c379a00000000000000000000000000000000000000000000000000000000081526004016114989061451b565b60405180910390fd5b6040518060a0016040528088888080601f016020809104026020016040519081016040528093929190818152602001838380828437600081840152601f19601f82011690508083019250505050505050815260200186868080601f016020809104026020016040519081016040528093929190818152602001838380828437600081840152601f19601f82011690508083019250505050505050815260200184815260200183815260200182815250600660008a8152602001908152602001600020600082015181600001908051906020019061157f929190613350565b50602082015181600101908051906020019061159c929190613350565b506040820151816002015560608201518160030155608082015181600401559050505050505050505050565b6115d56000801b33611388565b611614576040517f08c379a000000000000000000000000000000000000000000000000000000000815260040161160b9061451b565b60405180910390fd5b60008490508073ffffffffffffffffffffffffffffffffffffffff1663f242432a30338787876040518663ffffffff1660e01b815260040161165a959493929190614838565b600060405180830381600087803b15801561167457600080fd5b505af1158015611688573d6000803e3d6000fd5b505050505050505050565b6116a06000801b33611388565b6116df576040517f08c379a00000000000000000000000000000000000000000000000000000000081526004016116d69061451b565b60405180910390fd5b60008290508073ffffffffffffffffffffffffffffffffffffffff1663a9059cbb33846040518363ffffffff1660e01b815260040161171f929190614892565b6020604051808303816000875af115801561173e573d6000803e3d6000fd5b505050506040513d601f19601f8201168201806040525081019061176291906148d0565b50505050565b6000801b81565b61178161177a611f8a565b838361252d565b5050565b6117af7f65d7a28e3265b37a6474929f336521b332c1681b933f6cb9f3376673440d862a33611388565b6117ee576040517f08c379a00000000000000000000000000000000000000000000000000000000081526004016117e5906146ab565b60405180910390fd5b6117f6611371565b611835576040517f08c379a000000000000000000000000000000000000000000000000000000000815260040161182c90614949565b60405180910390fd5b61183d612699565b565b7f9f2df0fed2c77648de5860a4cc508cd0818c85b8b8a1ab4ceeef8d981c8956a681565b61186c82610e21565b611875816122b3565b61187f83836123a8565b505050565b7f65d7a28e3265b37a6474929f336521b332c1681b933f6cb9f3376673440d862a81565b6060600580546118b7906142d1565b80601f01602080910402602001604051908101604052809291908181526020018280546118e3906142d1565b80156119305780601f1061190557610100808354040283529160200191611930565b820191906000526020600020905b81548152906001019060200180831161191357829003601f168201915b5050505050905090565b6000600160008473ffffffffffffffffffffffffffffffffffffffff1673ffffffffffffffffffffffffffffffffffffffff16815260200190815260200160002060008373ffffffffffffffffffffffffffffffffffffffff1673ffffffffffffffffffffffffffffffffffffffff16815260200190815260200160002060009054906101000a900460ff16905092915050565b6119d6611f8a565b73ffffffffffffffffffffffffffffffffffffffff168573ffffffffffffffffffffffffffffffffffffffff161480611a1c5750611a1b85611a16611f8a565b61193a565b5b611a5b576040517f08c379a0000000000000000000000000000000000000000000000000000000008152600401611a52906149db565b60405180910390fd5b611a68858585858561273b565b5050505050565b611a7c6000801b33611388565b611abb576040517f08c379a0000000000000000000000000000000000000000000000000000000008152600401611ab29061451b565b60405180910390fd5b60008290508073ffffffffffffffffffffffffffffffffffffffff166342842e0e3033856040518463ffffffff1660e01b8152600401611afd939291906149fb565b600060405180830381600087803b158015611b1757600080fd5b505af1158015611b2b573d6000803e3d6000fd5b50505050505050565b60007f7965db0b000000000000000000000000000000000000000000000000000000007bffffffffffffffffffffffffffffffffffffffffffffffffffffffff1916827bffffffffffffffffffffffffffffffffffffffffffffffffffffffff19161480611ba75750611ba6826129d6565b5b9050919050565b600073ffffffffffffffffffffffffffffffffffffffff168473ffffffffffffffffffffffffffffffffffffffff1603611c1d576040517f08c379a0000000000000000000000000000000000000000000000000000000008152600401611c1490614aa4565b60405180910390fd5b8151835114611c61576040517f08c379a0000000000000000000000000000000000000000000000000000000008152600401611c5890614b36565b60405180910390fd5b6000611c6b611f8a565b9050611c7c81600087878787612ab8565b60005b8451811015611d3557838181518110611c9b57611c9a61475d565b5b6020026020010151600080878481518110611cb957611cb861475d565b5b6020026020010151815260200190815260200160002060008873ffffffffffffffffffffffffffffffffffffffff1673ffffffffffffffffffffffffffffffffffffffff1681526020019081526020016000206000828254611d1b9190614b56565b925050819055508080611d2d9061478c565b915050611c7f565b508473ffffffffffffffffffffffffffffffffffffffff16600073ffffffffffffffffffffffffffffffffffffffff168273ffffffffffffffffffffffffffffffffffffffff167f4a39dc06d4c0dbc64b70af90fd698a233a518aa5d07e595d983b8c0526c8f7fb8787604051611dad929190614bac565b60405180910390a4611dc481600087878787612ace565b611dd381600087878787612ad6565b5050505050565b600073ffffffffffffffffffffffffffffffffffffffff168473ffffffffffffffffffffffffffffffffffffffff1603611e49576040517f08c379a0000000000000000000000000000000000000000000000000000000008152600401611e4090614aa4565b60405180910390fd5b6000611e53611f8a565b90506000611e6085612cad565b90506000611e6d85612cad565b9050611e7e83600089858589612ab8565b8460008088815260200190815260200160002060008973ffffffffffffffffffffffffffffffffffffffff1673ffffffffffffffffffffffffffffffffffffffff1681526020019081526020016000206000828254611edd9190614b56565b925050819055508673ffffffffffffffffffffffffffffffffffffffff16600073ffffffffffffffffffffffffffffffffffffffff168473ffffffffffffffffffffffffffffffffffffffff167fc3d58168c5ae7397731d063d5bbf3d657854427343f4c083240f7aacaa2d0f628989604051611f5b929190614be3565b60405180910390a4611f7283600089858589612ace565b611f8183600089898989612d27565b50505050505050565b600033905090565b8151835114611fd6576040517f08c379a0000000000000000000000000000000000000000000000000000000008152600401611fcd90614b36565b60405180910390fd5b600073ffffffffffffffffffffffffffffffffffffffff168473ffffffffffffffffffffffffffffffffffffffff1603612045576040517f08c379a000000000000000000000000000000000000000000000000000000000815260040161203c90614c7e565b60405180910390fd5b600061204f611f8a565b905061205f818787878787612ab8565b60005b84518110156122105760008582815181106120805761207f61475d565b5b60200260200101519050600085838151811061209f5761209e61475d565b5b60200260200101519050600080600084815260200190815260200160002060008b73ffffffffffffffffffffffffffffffffffffffff1673ffffffffffffffffffffffffffffffffffffffff16815260200190815260200160002054905081811015612140576040517f08c379a000000000000000000000000000000000000000000000000000000000815260040161213790614d10565b60405180910390fd5b81810360008085815260200190815260200160002060008c73ffffffffffffffffffffffffffffffffffffffff1673ffffffffffffffffffffffffffffffffffffffff168152602001908152602001600020819055508160008085815260200190815260200160002060008b73ffffffffffffffffffffffffffffffffffffffff1673ffffffffffffffffffffffffffffffffffffffff16815260200190815260200160002060008282546121f59190614b56565b92505081905550505050806122099061478c565b9050612062565b508473ffffffffffffffffffffffffffffffffffffffff168673ffffffffffffffffffffffffffffffffffffffff168273ffffffffffffffffffffffffffffffffffffffff167f4a39dc06d4c0dbc64b70af90fd698a233a518aa5d07e595d983b8c0526c8f7fb8787604051612287929190614bac565b60405180910390a461229d818787878787612ace565b6122ab818787878787612ad6565b505050505050565b6122c4816122bf611f8a565b612efe565b50565b6122d18282611388565b6123a45760016003600084815260200190815260200160002060000160008373ffffffffffffffffffffffffffffffffffffffff1673ffffffffffffffffffffffffffffffffffffffff16815260200190815260200160002060006101000a81548160ff021916908315150217905550612349611f8a565b73ffffffffffffffffffffffffffffffffffffffff168173ffffffffffffffffffffffffffffffffffffffff16837f2f8788117e7eff1d82e926ec794901d17c78024a50270940304540a733656f0d60405160405180910390a45b5050565b6123b28282611388565b156124865760006003600084815260200190815260200160002060000160008373ffffffffffffffffffffffffffffffffffffffff1673ffffffffffffffffffffffffffffffffffffffff16815260200190815260200160002060006101000a81548160ff02191690831515021790555061242b611f8a565b73ffffffffffffffffffffffffffffffffffffffff168173ffffffffffffffffffffffffffffffffffffffff16837ff6391f5c32d9c69d2a47ea670b442974b53935d1edc7fd64eb21e047a839171b60405160405180910390a45b5050565b612492611371565b156124d2576040517f08c379a00000000000000000000000000000000000000000000000000000000081526004016124c990614282565b60405180910390fd5b6001600460006101000a81548160ff0219169083151502179055507f62e78cea01bee320cd4e420270b5ea74000d11b0c9f74754ebdbfc544b05a258612516611f8a565b6040516125239190614d30565b60405180910390a1565b8173ffffffffffffffffffffffffffffffffffffffff168373ffffffffffffffffffffffffffffffffffffffff160361259b576040517f08c379a000000000000000000000000000000000000000000000000000000000815260040161259290614dbd565b60405180910390fd5b80600160008573ffffffffffffffffffffffffffffffffffffffff1673ffffffffffffffffffffffffffffffffffffffff16815260200190815260200160002060008473ffffffffffffffffffffffffffffffffffffffff1673ffffffffffffffffffffffffffffffffffffffff16815260200190815260200160002060006101000a81548160ff0219169083151502179055508173ffffffffffffffffffffffffffffffffffffffff168373ffffffffffffffffffffffffffffffffffffffff167f17307eab39ab6107e8899845ad3d59bd9653f200f220920489ca2b5937696c318360405161268c91906135a5565b60405180910390a3505050565b6126a1611371565b6126e0576040517f08c379a00000000000000000000000000000000000000000000000000000000081526004016126d790614949565b60405180910390fd5b6000600460006101000a81548160ff0219169083151502179055507f5db9ee0a495bf2e6ff9c91a7834c1ba4fdd244a5e8aa4e537bd38aeae4b073aa612724611f8a565b6040516127319190614d30565b60405180910390a1565b600073ffffffffffffffffffffffffffffffffffffffff168473ffffffffffffffffffffffffffffffffffffffff16036127aa576040517f08c379a00000000000000000000000000000000000000000000000000000000081526004016127a190614c7e565b60405180910390fd5b60006127b4611f8a565b905060006127c185612cad565b905060006127ce85612cad565b90506127de838989858589612ab8565b600080600088815260200190815260200160002060008a73ffffffffffffffffffffffffffffffffffffffff1673ffffffffffffffffffffffffffffffffffffffff16815260200190815260200160002054905085811015612875576040517f08c379a000000000000000000000000000000000000000000000000000000000815260040161286c90614d10565b60405180910390fd5b85810360008089815260200190815260200160002060008b73ffffffffffffffffffffffffffffffffffffffff1673ffffffffffffffffffffffffffffffffffffffff168152602001908152602001600020819055508560008089815260200190815260200160002060008a73ffffffffffffffffffffffffffffffffffffffff1673ffffffffffffffffffffffffffffffffffffffff168152602001908152602001600020600082825461292a9190614b56565b925050819055508773ffffffffffffffffffffffffffffffffffffffff168973ffffffffffffffffffffffffffffffffffffffff168573ffffffffffffffffffffffffffffffffffffffff167fc3d58168c5ae7397731d063d5bbf3d657854427343f4c083240f7aacaa2d0f628a8a6040516129a7929190614be3565b60405180910390a46129bd848a8a86868a612ace565b6129cb848a8a8a8a8a612d27565b505050505050505050565b60007fd9b67a26000000000000000000000000000000000000000000000000000000007bffffffffffffffffffffffffffffffffffffffffffffffffffffffff1916827bffffffffffffffffffffffffffffffffffffffffffffffffffffffff19161480612aa157507f0e89341c000000000000000000000000000000000000000000000000000000007bffffffffffffffffffffffffffffffffffffffffffffffffffffffff1916827bffffffffffffffffffffffffffffffffffffffffffffffffffffffff1916145b80612ab15750612ab082612f9b565b5b9050919050565b612ac6868686868686613005565b505050505050565b505050505050565b612af58473ffffffffffffffffffffffffffffffffffffffff16613063565b15612ca5578373ffffffffffffffffffffffffffffffffffffffff1663bc197c8187878686866040518663ffffffff1660e01b8152600401612b3b959493929190614ddd565b6020604051808303816000875af1925050508015612b7757506040513d601f19601f82011682018060405250810190612b749190614e5a565b60015b612c1c57612b83614e94565b806308c379a003612bdf5750612b97614eb6565b80612ba25750612be1565b806040517f08c379a0000000000000000000000000000000000000000000000000000000008152600401612bd69190613780565b60405180910390fd5b505b6040517f08c379a0000000000000000000000000000000000000000000000000000000008152600401612c1390614fb8565b60405180910390fd5b63bc197c8160e01b7bffffffffffffffffffffffffffffffffffffffffffffffffffffffff1916817bffffffffffffffffffffffffffffffffffffffffffffffffffffffff191614612ca3576040517f08c379a0000000000000000000000000000000000000000000000000000000008152600401612c9a9061504a565b60405180910390fd5b505b505050505050565b60606000600167ffffffffffffffff811115612ccc57612ccb613882565b5b604051908082528060200260200182016040528015612cfa5781602001602082028036833780820191505090505b5090508281600081518110612d1257612d1161475d565b5b60200260200101818152505080915050919050565b612d468473ffffffffffffffffffffffffffffffffffffffff16613063565b15612ef6578373ffffffffffffffffffffffffffffffffffffffff1663f23a6e6187878686866040518663ffffffff1660e01b8152600401612d8c959493929190614838565b6020604051808303816000875af1925050508015612dc857506040513d601f19601f82011682018060405250810190612dc59190614e5a565b60015b612e6d57612dd4614e94565b806308c379a003612e305750612de8614eb6565b80612df35750612e32565b806040517f08c379a0000000000000000000000000000000000000000000000000000000008152600401612e279190613780565b60405180910390fd5b505b6040517f08c379a0000000000000000000000000000000000000000000000000000000008152600401612e6490614fb8565b60405180910390fd5b63f23a6e6160e01b7bffffffffffffffffffffffffffffffffffffffffffffffffffffffff1916817bffffffffffffffffffffffffffffffffffffffffffffffffffffffff191614612ef4576040517f08c379a0000000000000000000000000000000000000000000000000000000008152600401612eeb9061504a565b60405180910390fd5b505b505050505050565b612f088282611388565b612f9757612f2d8173ffffffffffffffffffffffffffffffffffffffff166014613086565b612f3b8360001c6020613086565b604051602001612f4c92919061513e565b6040516020818303038152906040526040517f08c379a0000000000000000000000000000000000000000000000000000000008152600401612f8e9190613780565b60405180910390fd5b5050565b60007f01ffc9a7000000000000000000000000000000000000000000000000000000007bffffffffffffffffffffffffffffffffffffffffffffffffffffffff1916827bffffffffffffffffffffffffffffffffffffffffffffffffffffffff1916149050919050565b6130138686868686866132c2565b61301b611371565b1561305b576040517f08c379a0000000000000000000000000000000000000000000000000000000008152600401613052906151ea565b60405180910390fd5b505050505050565b6000808273ffffffffffffffffffffffffffffffffffffffff163b119050919050565b6060600060028360026130999190614409565b6130a39190614b56565b67ffffffffffffffff8111156130bc576130bb613882565b5b6040519080825280601f01601f1916602001820160405280156130ee5781602001600182028036833780820191505090505b5090507f3000000000000000000000000000000000000000000000000000000000000000816000815181106131265761312561475d565b5b60200101907effffffffffffffffffffffffffffffffffffffffffffffffffffffffffffff1916908160001a9053507f78000000000000000000000000000000000000000000000000000000000000008160018151811061318a5761318961475d565b5b60200101907effffffffffffffffffffffffffffffffffffffffffffffffffffffffffffff1916908160001a905350600060018460026131ca9190614409565b6131d49190614b56565b90505b6001811115613274577f3031323334353637383961626364656600000000000000000000000000000000600f8616601081106132165761321561475d565b5b1a60f81b82828151811061322d5761322c61475d565b5b60200101907effffffffffffffffffffffffffffffffffffffffffffffffffffffffffffff1916908160001a905350600485901c94508061326d9061520a565b90506131d7565b50600084146132b8576040517f08c379a00000000000000000000000000000000000000000000000000000000081526004016132af9061527f565b60405180910390fd5b8091505092915050565b505050505050565b8280546132d6906142d1565b90600052602060002090601f0160209004810192826132f8576000855561333f565b82601f1061331157803560ff191683800117855561333f565b8280016001018555821561333f579182015b8281111561333e578235825591602001919060010190613323565b5b50905061334c91906133d6565b5090565b82805461335c906142d1565b90600052602060002090601f01602090048101928261337e57600085556133c5565b82601f1061339757805160ff19168380011785556133c5565b828001600101855582156133c5579182015b828111156133c45782518255916020019190600101906133a9565b5b5090506133d291906133d6565b5090565b5b808211156133ef5760008160009055506001016133d7565b5090565b6000604051905090565b600080fd5b600080fd5b600073ffffffffffffffffffffffffffffffffffffffff82169050919050565b600061343282613407565b9050919050565b61344281613427565b811461344d57600080fd5b50565b60008135905061345f81613439565b92915050565b6000819050919050565b61347881613465565b811461348357600080fd5b50565b6000813590506134958161346f565b92915050565b600080604083850312156134b2576134b16133fd565b5b60006134c085828601613450565b92505060206134d185828601613486565b9150509250929050565b6134e481613465565b82525050565b60006020820190506134ff60008301846134db565b92915050565b60007fffffffff0000000000000000000000000000000000000000000000000000000082169050919050565b61353a81613505565b811461354557600080fd5b50565b60008135905061355781613531565b92915050565b600060208284031215613573576135726133fd565b5b600061358184828501613548565b91505092915050565b60008115159050919050565b61359f8161358a565b82525050565b60006020820190506135ba6000830184613596565b92915050565b600080fd5b600080fd5b600080fd5b60008083601f8401126135e5576135e46135c0565b5b8235905067ffffffffffffffff811115613602576136016135c5565b5b60208301915083602082028301111561361e5761361d6135ca565b5b9250929050565b600080600080600060608688031215613641576136406133fd565b5b600061364f88828901613450565b955050602086013567ffffffffffffffff8111156136705761366f613402565b5b61367c888289016135cf565b9450945050604086013567ffffffffffffffff81111561369f5761369e613402565b5b6136ab888289016135cf565b92509250509295509295909350565b6000602082840312156136d0576136cf6133fd565b5b60006136de84828501613486565b91505092915050565b600081519050919050565b600082825260208201905092915050565b60005b83811015613721578082015181840152602081019050613706565b83811115613730576000848401525b50505050565b6000601f19601f8301169050919050565b6000613752826136e7565b61375c81856136f2565b935061376c818560208601613703565b61377581613736565b840191505092915050565b6000602082019050818103600083015261379a8184613747565b905092915050565b6000806000606084860312156137bb576137ba6133fd565b5b60006137c986828701613450565b93505060206137da86828701613486565b92505060406137eb86828701613486565b9150509250925092565b6000819050919050565b613808816137f5565b811461381357600080fd5b50565b600081359050613825816137ff565b92915050565b600060208284031215613841576138406133fd565b5b600061384f84828501613816565b91505092915050565b613861816137f5565b82525050565b600060208201905061387c6000830184613858565b92915050565b7f4e487b7100000000000000000000000000000000000000000000000000000000600052604160045260246000fd5b6138ba82613736565b810181811067ffffffffffffffff821117156138d9576138d8613882565b5b80604052505050565b60006138ec6133f3565b90506138f882826138b1565b919050565b600067ffffffffffffffff82111561391857613917613882565b5b602082029050602081019050919050565b600061393c613937846138fd565b6138e2565b9050808382526020820190506020840283018581111561395f5761395e6135ca565b5b835b8181101561398857806139748882613486565b845260208401935050602081019050613961565b5050509392505050565b600082601f8301126139a7576139a66135c0565b5b81356139b7848260208601613929565b91505092915050565b600080fd5b600067ffffffffffffffff8211156139e0576139df613882565b5b6139e982613736565b9050602081019050919050565b82818337600083830152505050565b6000613a18613a13846139c5565b6138e2565b905082815260208101848484011115613a3457613a336139c0565b5b613a3f8482856139f6565b509392505050565b600082601f830112613a5c57613a5b6135c0565b5b8135613a6c848260208601613a05565b91505092915050565b600080600080600060a08688031215613a9157613a906133fd565b5b6000613a9f88828901613450565b9550506020613ab088828901613450565b945050604086013567ffffffffffffffff811115613ad157613ad0613402565b5b613add88828901613992565b935050606086013567ffffffffffffffff811115613afe57613afd613402565b5b613b0a88828901613992565b925050608086013567ffffffffffffffff811115613b2b57613b2a613402565b5b613b3788828901613a47565b9150509295509295909350565b60008060408385031215613b5b57613b5a6133fd565b5b6000613b6985828601613816565b9250506020613b7a85828601613450565b9150509250929050565b600067ffffffffffffffff821115613b9f57613b9e613882565b5b602082029050602081019050919050565b6000613bc3613bbe84613b84565b6138e2565b90508083825260208201905060208402830185811115613be657613be56135ca565b5b835b81811015613c0f5780613bfb8882613450565b845260208401935050602081019050613be8565b5050509392505050565b600082601f830112613c2e57613c2d6135c0565b5b8135613c3e848260208601613bb0565b91505092915050565b60008060408385031215613c5e57613c5d6133fd565b5b600083013567ffffffffffffffff811115613c7c57613c7b613402565b5b613c8885828601613c19565b925050602083013567ffffffffffffffff811115613ca957613ca8613402565b5b613cb585828601613992565b9150509250929050565b600081519050919050565b600082825260208201905092915050565b6000819050602082019050919050565b613cf481613465565b82525050565b6000613d068383613ceb565b60208301905092915050565b6000602082019050919050565b6000613d2a82613cbf565b613d348185613cca565b9350613d3f83613cdb565b8060005b83811015613d70578151613d578882613cfa565b9750613d6283613d12565b925050600181019050613d43565b5085935050505092915050565b60006020820190508181036000830152613d978184613d1f565b905092915050565b600060a0820190508181036000830152613db98188613747565b90508181036020830152613dcd8187613747565b9050613ddc60408301866134db565b613de960608301856134db565b613df660808301846134db565b9695505050505050565b60008083601f840112613e1657613e156135c0565b5b8235905067ffffffffffffffff811115613e3357613e326135c5565b5b602083019150836001820283011115613e4f57613e4e6135ca565b5b9250929050565b60008060208385031215613e6d57613e6c6133fd565b5b600083013567ffffffffffffffff811115613e8b57613e8a613402565b5b613e9785828601613e00565b92509250509250929050565b60008060008060008060008060c0898b031215613ec357613ec26133fd565b5b6000613ed18b828c01613486565b985050602089013567ffffffffffffffff811115613ef257613ef1613402565b5b613efe8b828c01613e00565b9750975050604089013567ffffffffffffffff811115613f2157613f20613402565b5b613f2d8b828c01613e00565b95509550506060613f408b828c01613486565b9350506080613f518b828c01613486565b92505060a0613f628b828c01613486565b9150509295985092959890939650565b60008060008060808587031215613f8c57613f8b6133fd565b5b6000613f9a87828801613450565b9450506020613fab87828801613486565b9350506040613fbc87828801613486565b925050606085013567ffffffffffffffff811115613fdd57613fdc613402565b5b613fe987828801613a47565b91505092959194509250565b613ffe8161358a565b811461400957600080fd5b50565b60008135905061401b81613ff5565b92915050565b60008060408385031215614038576140376133fd565b5b600061404685828601613450565b92505060206140578582860161400c565b9150509250929050565b60008060408385031215614078576140776133fd565b5b600061408685828601613450565b925050602061409785828601613450565b9150509250929050565b600080600080600060a086880312156140bd576140bc6133fd565b5b60006140cb88828901613450565b95505060206140dc88828901613450565b94505060406140ed88828901613486565b93505060606140fe88828901613486565b925050608086013567ffffffffffffffff81111561411f5761411e613402565b5b61412b88828901613a47565b9150509295509295909350565b7f455243313135353a2062616c616e636520717565727920666f7220746865207a60008201527f65726f2061646472657373000000000000000000000000000000000000000000602082015250565b6000614194602b836136f2565b915061419f82614138565b604082019050919050565b600060208201905081810360008301526141c381614187565b9050919050565b7f53656e646572206973206e6f74206d696e746572000000000000000000000000600082015250565b60006142006014836136f2565b915061420b826141ca565b602082019050919050565b6000602082019050818103600083015261422f816141f3565b9050919050565b7f5061757361626c653a2070617573656400000000000000000000000000000000600082015250565b600061426c6010836136f2565b915061427782614236565b602082019050919050565b6000602082019050818103600083015261429b8161425f565b9050919050565b7f4e487b7100000000000000000000000000000000000000000000000000000000600052602260045260246000fd5b600060028204905060018216806142e957607f821691505b6020821081036142fc576142fb6142a2565b5b50919050565b7f546f6b656e206e6f7420666f756e640000000000000000000000000000000000600082015250565b6000614338600f836136f2565b915061434382614302565b602082019050919050565b600060208201905081810360008301526143678161432b565b9050919050565b7f546f6b656e2073657474696e67206e6f7420666f756e64000000000000000000600082015250565b60006143a46017836136f2565b91506143af8261436e565b602082019050919050565b600060208201905081810360008301526143d381614397565b9050919050565b7f4e487b7100000000000000000000000000000000000000000000000000000000600052601160045260246000fd5b600061441482613465565b915061441f83613465565b9250817fffffffffffffffffffffffffffffffffffffffffffffffffffffffffffffffff0483118215151615614458576144576143da565b5b828202905092915050565b7f416d6f756e742073656e74206e6f7420656e6f75676800000000000000000000600082015250565b60006144996016836136f2565b91506144a482614463565b602082019050919050565b600060208201905081810360008301526144c88161448c565b9050919050565b7f53656e646572206973206e6f742061646d696e00000000000000000000000000600082015250565b60006145056013836136f2565b9150614510826144cf565b602082019050919050565b60006020820190508181036000830152614534816144f8565b9050919050565b7f455243313135353a207472616e736665722063616c6c6572206973206e6f742060008201527f6f776e6572206e6f7220617070726f7665640000000000000000000000000000602082015250565b60006145976032836136f2565b91506145a28261453b565b604082019050919050565b600060208201905081810360008301526145c68161458a565b9050919050565b7f416363657373436f6e74726f6c3a2063616e206f6e6c792072656e6f756e636560008201527f20726f6c657320666f722073656c660000000000000000000000000000000000602082015250565b6000614629602f836136f2565b9150614634826145cd565b604082019050919050565b600060208201905081810360008301526146588161461c565b9050919050565b7f53656e646572206973206e6f7420706175736572000000000000000000000000600082015250565b60006146956014836136f2565b91506146a08261465f565b602082019050919050565b600060208201905081810360008301526146c481614688565b9050919050565b7f455243313135353a206163636f756e747320616e6420696473206c656e67746860008201527f206d69736d617463680000000000000000000000000000000000000000000000602082015250565b60006147276029836136f2565b9150614732826146cb565b604082019050919050565b600060208201905081810360008301526147568161471a565b9050919050565b7f4e487b7100000000000000000000000000000000000000000000000000000000600052603260045260246000fd5b600061479782613465565b91507fffffffffffffffffffffffffffffffffffffffffffffffffffffffffffffffff82036147c9576147c86143da565b5b600182019050919050565b6147dd81613427565b82525050565b600081519050919050565b600082825260208201905092915050565b600061480a826147e3565b61481481856147ee565b9350614824818560208601613703565b61482d81613736565b840191505092915050565b600060a08201905061484d60008301886147d4565b61485a60208301876147d4565b61486760408301866134db565b61487460608301856134db565b818103608083015261488681846147ff565b90509695505050505050565b60006040820190506148a760008301856147d4565b6148b460208301846134db565b9392505050565b6000815190506148ca81613ff5565b92915050565b6000602082840312156148e6576148e56133fd565b5b60006148f4848285016148bb565b91505092915050565b7f5061757361626c653a206e6f7420706175736564000000000000000000000000600082015250565b60006149336014836136f2565b915061493e826148fd565b602082019050919050565b6000602082019050818103600083015261496281614926565b9050919050565b7f455243313135353a2063616c6c6572206973206e6f74206f776e6572206e6f7260008201527f20617070726f7665640000000000000000000000000000000000000000000000602082015250565b60006149c56029836136f2565b91506149d082614969565b604082019050919050565b600060208201905081810360008301526149f4816149b8565b9050919050565b6000606082019050614a1060008301866147d4565b614a1d60208301856147d4565b614a2a60408301846134db565b949350505050565b7f455243313135353a206d696e7420746f20746865207a65726f2061646472657360008201527f7300000000000000000000000000000000000000000000000000000000000000602082015250565b6000614a8e6021836136f2565b9150614a9982614a32565b604082019050919050565b60006020820190508181036000830152614abd81614a81565b9050919050565b7f455243313135353a2069647320616e6420616d6f756e7473206c656e6774682060008201527f6d69736d61746368000000000000000000000000000000000000000000000000602082015250565b6000614b206028836136f2565b9150614b2b82614ac4565b604082019050919050565b60006020820190508181036000830152614b4f81614b13565b9050919050565b6000614b6182613465565b9150614b6c83613465565b9250827fffffffffffffffffffffffffffffffffffffffffffffffffffffffffffffffff03821115614ba157614ba06143da565b5b828201905092915050565b60006040820190508181036000830152614bc68185613d1f565b90508181036020830152614bda8184613d1f565b90509392505050565b6000604082019050614bf860008301856134db565b614c0560208301846134db565b9392505050565b7f455243313135353a207472616e7366657220746f20746865207a65726f20616460008201527f6472657373000000000000000000000000000000000000000000000000000000602082015250565b6000614c686025836136f2565b9150614c7382614c0c565b604082019050919050565b60006020820190508181036000830152614c9781614c5b565b9050919050565b7f455243313135353a20696e73756666696369656e742062616c616e636520666f60008201527f72207472616e7366657200000000000000000000000000000000000000000000602082015250565b6000614cfa602a836136f2565b9150614d0582614c9e565b604082019050919050565b60006020820190508181036000830152614d2981614ced565b9050919050565b6000602082019050614d4560008301846147d4565b92915050565b7f455243313135353a2073657474696e6720617070726f76616c2073746174757360008201527f20666f722073656c660000000000000000000000000000000000000000000000602082015250565b6000614da76029836136f2565b9150614db282614d4b565b604082019050919050565b60006020820190508181036000830152614dd681614d9a565b9050919050565b600060a082019050614df260008301886147d4565b614dff60208301876147d4565b8181036040830152614e118186613d1f565b90508181036060830152614e258185613d1f565b90508181036080830152614e3981846147ff565b90509695505050505050565b600081519050614e5481613531565b92915050565b600060208284031215614e7057614e6f6133fd565b5b6000614e7e84828501614e45565b91505092915050565b60008160e01c9050919050565b600060033d1115614eb35760046000803e614eb0600051614e87565b90505b90565b600060443d10614f4357614ec86133f3565b60043d036004823e80513d602482011167ffffffffffffffff82111715614ef0575050614f43565b808201805167ffffffffffffffff811115614f0e5750505050614f43565b80602083010160043d038501811115614f2b575050505050614f43565b614f3a826020018501866138b1565b82955050505050505b90565b7f455243313135353a207472616e7366657220746f206e6f6e204552433131353560008201527f526563656976657220696d706c656d656e746572000000000000000000000000602082015250565b6000614fa26034836136f2565b9150614fad82614f46565b604082019050919050565b60006020820190508181036000830152614fd181614f95565b9050919050565b7f455243313135353a204552433131353552656365697665722072656a6563746560008201527f6420746f6b656e73000000000000000000000000000000000000000000000000602082015250565b60006150346028836136f2565b915061503f82614fd8565b604082019050919050565b6000602082019050818103600083015261506381615027565b9050919050565b600081905092915050565b7f416363657373436f6e74726f6c3a206163636f756e7420000000000000000000600082015250565b60006150ab60178361506a565b91506150b682615075565b601782019050919050565b60006150cc826136e7565b6150d6818561506a565b93506150e6818560208601613703565b80840191505092915050565b7f206973206d697373696e6720726f6c6520000000000000000000000000000000600082015250565b600061512860118361506a565b9150615133826150f2565b601182019050919050565b60006151498261509e565b915061515582856150c1565b91506151608261511b565b915061516c82846150c1565b91508190509392505050565b7f455243313135355061757361626c653a20746f6b656e207472616e736665722060008201527f7768696c65207061757365640000000000000000000000000000000000000000602082015250565b60006151d4602c836136f2565b91506151df82615178565b604082019050919050565b60006020820190508181036000830152615203816151c7565b9050919050565b600061521582613465565b915060008203615228576152276143da565b5b600182039050919050565b7f537472696e67733a20686578206c656e67746820696e73756666696369656e74600082015250565b60006152696020836136f2565b915061527482615233565b602082019050919050565b600060208201905081810360008301526152988161525c565b905091905056fea2646970667358221220763064cf48edb1f32daf51b5981e1f4ca15b20d4d9bd95b70dc32c4a2add431c64736f6c634300080e003368747470733a2f2f6170702e676f696e6775702e78797a2f6170692f313135352d6d657461646174612f697066733a2f2f516d59576e586d7035774c5565434e4873725333504c746e464258684577706e4b766d5268726a5959336964324a",
			"opcodes": "PUSH1 0x80 PUSH1 0x40 MSTORE PUSH1 0x40 MLOAD DUP1 PUSH1 0x60 ADD PUSH1 0x40 MSTORE DUP1 PUSH1 0x35 DUP2 MSTORE PUSH1 0x20 ADD PUSH3 0x56C4 PUSH1 0x35 SWAP2 CODECOPY PUSH1 0x5 SWAP1 DUP1 MLOAD SWAP1 PUSH1 0x20 ADD SWAP1 PUSH3 0x35 SWAP3 SWAP2 SWAP1 PUSH3 0x2A1 JUMP JUMPDEST POP CALLVALUE DUP1 ISZERO PUSH3 0x43 JUMPI PUSH1 0x0 DUP1 REVERT JUMPDEST POP PUSH1 0x40 MLOAD DUP1 PUSH1 0x60 ADD PUSH1 0x40 MSTORE DUP1 PUSH1 0x2A DUP2 MSTORE PUSH1 0x20 ADD PUSH3 0x569A PUSH1 0x2A SWAP2 CODECOPY PUSH3 0x6F DUP2 PUSH3 0x10A PUSH1 0x20 SHL PUSH1 0x20 SHR JUMP JUMPDEST POP PUSH1 0x0 PUSH1 0x4 PUSH1 0x0 PUSH2 0x100 EXP DUP2 SLOAD DUP2 PUSH1 0xFF MUL NOT AND SWAP1 DUP4 ISZERO ISZERO MUL OR SWAP1 SSTORE POP PUSH3 0xA0 PUSH1 0x0 DUP1 SHL CALLER PUSH3 0x126 PUSH1 0x20 SHL PUSH1 0x20 SHR JUMP JUMPDEST PUSH3 0xD2 PUSH32 0x9F2DF0FED2C77648DE5860A4CC508CD0818C85B8B8A1AB4CEEEF8D981C8956A6 CALLER PUSH3 0x126 PUSH1 0x20 SHL PUSH1 0x20 SHR JUMP JUMPDEST PUSH3 0x104 PUSH32 0x65D7A28E3265B37A6474929F336521B332C1681B933F6CB9F3376673440D862A CALLER PUSH3 0x126 PUSH1 0x20 SHL PUSH1 0x20 SHR JUMP JUMPDEST PUSH3 0x3B5 JUMP JUMPDEST DUP1 PUSH1 0x2 SWAP1 DUP1 MLOAD SWAP1 PUSH1 0x20 ADD SWAP1 PUSH3 0x122 SWAP3 SWAP2 SWAP1 PUSH3 0x2A1 JUMP JUMPDEST POP POP JUMP JUMPDEST PUSH3 0x138 DUP3 DUP3 PUSH3 0x13C PUSH1 0x20 SHL PUSH1 0x20 SHR JUMP JUMPDEST POP POP JUMP JUMPDEST PUSH3 0x14E DUP3 DUP3 PUSH3 0x22E PUSH1 0x20 SHL PUSH1 0x20 SHR JUMP JUMPDEST PUSH3 0x22A JUMPI PUSH1 0x1 PUSH1 0x3 PUSH1 0x0 DUP5 DUP2 MSTORE PUSH1 0x20 ADD SWAP1 DUP2 MSTORE PUSH1 0x20 ADD PUSH1 0x0 KECCAK256 PUSH1 0x0 ADD PUSH1 0x0 DUP4 PUSH20 0xFFFFFFFFFFFFFFFFFFFFFFFFFFFFFFFFFFFFFFFF AND PUSH20 0xFFFFFFFFFFFFFFFFFFFFFFFFFFFFFFFFFFFFFFFF AND DUP2 MSTORE PUSH1 0x20 ADD SWAP1 DUP2 MSTORE PUSH1 0x20 ADD PUSH1 0x0 KECCAK256 PUSH1 0x0 PUSH2 0x100 EXP DUP2 SLOAD DUP2 PUSH1 0xFF MUL NOT AND SWAP1 DUP4 ISZERO ISZERO MUL OR SWAP1 SSTORE POP PUSH3 0x1CF PUSH3 0x299 PUSH1 0x20 SHL PUSH1 0x20 SHR JUMP JUMPDEST PUSH20 0xFFFFFFFFFFFFFFFFFFFFFFFFFFFFFFFFFFFFFFFF AND DUP2 PUSH20 0xFFFFFFFFFFFFFFFFFFFFFFFFFFFFFFFFFFFFFFFF AND DUP4 PUSH32 0x2F8788117E7EFF1D82E926EC794901D17C78024A50270940304540A733656F0D PUSH1 0x40 MLOAD PUSH1 0x40 MLOAD DUP1 SWAP2 SUB SWAP1 LOG4 JUMPDEST POP POP JUMP JUMPDEST PUSH1 0x0 PUSH1 0x3 PUSH1 0x0 DUP5 DUP2 MSTORE PUSH1 0x20 ADD SWAP1 DUP2 MSTORE PUSH1 0x20 ADD PUSH1 0x0 KECCAK256 PUSH1 0x0 ADD PUSH1 0x0 DUP4 PUSH20 0xFFFFFFFFFFFFFFFFFFFFFFFFFFFFFFFFFFFFFFFF AND PUSH20 0xFFFFFFFFFFFFFFFFFFFFFFFFFFFFFFFFFFFFFFFF AND DUP2 MSTORE PUSH1 0x20 ADD SWAP1 DUP2 MSTORE PUSH1 0x20 ADD PUSH1 0x0 KECCAK256 PUSH1 0x0 SWAP1 SLOAD SWAP1 PUSH2 0x100 EXP SWAP1 DIV PUSH1 0xFF AND SWAP1 POP SWAP3 SWAP2 POP POP JUMP JUMPDEST PUSH1 0x0 CALLER SWAP1 POP SWAP1 JUMP JUMPDEST DUP3 DUP1 SLOAD PUSH3 0x2AF SWAP1 PUSH3 0x380 JUMP JUMPDEST SWAP1 PUSH1 0x0 MSTORE PUSH1 0x20 PUSH1 0x0 KECCAK256 SWAP1 PUSH1 0x1F ADD PUSH1 0x20 SWAP1 DIV DUP2 ADD SWAP3 DUP3 PUSH3 0x2D3 JUMPI PUSH1 0x0 DUP6 SSTORE PUSH3 0x31F JUMP JUMPDEST DUP3 PUSH1 0x1F LT PUSH3 0x2EE JUMPI DUP1 MLOAD PUSH1 0xFF NOT AND DUP4 DUP1 ADD OR DUP6 SSTORE PUSH3 0x31F JUMP JUMPDEST DUP3 DUP1 ADD PUSH1 0x1 ADD DUP6 SSTORE DUP3 ISZERO PUSH3 0x31F JUMPI SWAP2 DUP3 ADD JUMPDEST DUP3 DUP2 GT ISZERO PUSH3 0x31E JUMPI DUP3 MLOAD DUP3 SSTORE SWAP2 PUSH1 0x20 ADD SWAP2 SWAP1 PUSH1 0x1 ADD SWAP1 PUSH3 0x301 JUMP JUMPDEST JUMPDEST POP SWAP1 POP PUSH3 0x32E SWAP2 SWAP1 PUSH3 0x332 JUMP JUMPDEST POP SWAP1 JUMP JUMPDEST JUMPDEST DUP1 DUP3 GT ISZERO PUSH3 0x34D JUMPI PUSH1 0x0 DUP2 PUSH1 0x0 SWAP1 SSTORE POP PUSH1 0x1 ADD PUSH3 0x333 JUMP JUMPDEST POP SWAP1 JUMP JUMPDEST PUSH32 0x4E487B7100000000000000000000000000000000000000000000000000000000 PUSH1 0x0 MSTORE PUSH1 0x22 PUSH1 0x4 MSTORE PUSH1 0x24 PUSH1 0x0 REVERT JUMPDEST PUSH1 0x0 PUSH1 0x2 DUP3 DIV SWAP1 POP PUSH1 0x1 DUP3 AND DUP1 PUSH3 0x399 JUMPI PUSH1 0x7F DUP3 AND SWAP2 POP JUMPDEST PUSH1 0x20 DUP3 LT DUP2 SUB PUSH3 0x3AF JUMPI PUSH3 0x3AE PUSH3 0x351 JUMP JUMPDEST JUMPDEST POP SWAP2 SWAP1 POP JUMP JUMPDEST PUSH2 0x52D5 DUP1 PUSH3 0x3C5 PUSH1 0x0 CODECOPY PUSH1 0x0 RETURN INVALID PUSH1 0x80 PUSH1 0x40 MSTORE PUSH1 0x4 CALLDATASIZE LT PUSH2 0x1CC JUMPI PUSH1 0x0 CALLDATALOAD PUSH1 0xE0 SHR DUP1 PUSH4 0x91D14854 GT PUSH2 0xF7 JUMPI DUP1 PUSH4 0xB33712C5 GT PUSH2 0x95 JUMPI DUP1 PUSH4 0xE8A3D485 GT PUSH2 0x64 JUMPI DUP1 PUSH4 0xE8A3D485 EQ PUSH2 0x650 JUMPI DUP1 PUSH4 0xE985E9C5 EQ PUSH2 0x67B JUMPI DUP1 PUSH4 0xF242432A EQ PUSH2 0x6B8 JUMPI DUP1 PUSH4 0xF3E414F8 EQ PUSH2 0x6E1 JUMPI PUSH2 0x1CC JUMP JUMPDEST DUP1 PUSH4 0xB33712C5 EQ PUSH2 0x5BA JUMPI DUP1 PUSH4 0xD5391393 EQ PUSH2 0x5D1 JUMPI DUP1 PUSH4 0xD547741F EQ PUSH2 0x5FC JUMPI DUP1 PUSH4 0xE63AB1E9 EQ PUSH2 0x625 JUMPI PUSH2 0x1CC JUMP JUMPDEST DUP1 PUSH4 0xA1538BDE GT PUSH2 0xD1 JUMPI DUP1 PUSH4 0xA1538BDE EQ PUSH2 0x514 JUMPI DUP1 PUSH4 0xA1DB9782 EQ PUSH2 0x53D JUMPI DUP1 PUSH4 0xA217FDDF EQ PUSH2 0x566 JUMPI DUP1 PUSH4 0xA22CB465 EQ PUSH2 0x591 JUMPI PUSH2 0x1CC JUMP JUMPDEST DUP1 PUSH4 0x91D14854 EQ PUSH2 0x485 JUMPI DUP1 PUSH4 0x938E3D7B EQ PUSH2 0x4C2 JUMPI DUP1 PUSH4 0x9E50B2A2 EQ PUSH2 0x4EB JUMPI PUSH2 0x1CC JUMP JUMPDEST DUP1 PUSH4 0x2EB2C2D6 GT PUSH2 0x16F JUMPI DUP1 PUSH4 0x439766CE GT PUSH2 0x13E JUMPI DUP1 PUSH4 0x439766CE EQ PUSH2 0x3C5 JUMPI DUP1 PUSH4 0x4E1273F4 EQ PUSH2 0x3DC JUMPI DUP1 PUSH4 0x5059D0D2 EQ PUSH2 0x419 JUMPI DUP1 PUSH4 0x5C975ABB EQ PUSH2 0x45A JUMPI PUSH2 0x1CC JUMP JUMPDEST DUP1 PUSH4 0x2EB2C2D6 EQ PUSH2 0x321 JUMPI DUP1 PUSH4 0x2F2FF15D EQ PUSH2 0x34A JUMPI DUP1 PUSH4 0x36568ABE EQ PUSH2 0x373 JUMPI DUP1 PUSH4 0x39580CE8 EQ PUSH2 0x39C JUMPI PUSH2 0x1CC JUMP JUMPDEST DUP1 PUSH4 0xE89341C GT PUSH2 0x1AB JUMPI DUP1 PUSH4 0xE89341C EQ PUSH2 0x274 JUMPI DUP1 PUSH4 0x156E29F6 EQ PUSH2 0x2B1 JUMPI DUP1 PUSH4 0x24600FC3 EQ PUSH2 0x2CD JUMPI DUP1 PUSH4 0x248A9CA3 EQ PUSH2 0x2E4 JUMPI PUSH2 0x1CC JUMP JUMPDEST DUP1 PUSH3 0xFDD58E EQ PUSH2 0x1D1 JUMPI DUP1 PUSH4 0x1FFC9A7 EQ PUSH2 0x20E JUMPI DUP1 PUSH4 0x7594ABF EQ PUSH2 0x24B JUMPI JUMPDEST PUSH1 0x0 DUP1 REVERT JUMPDEST CALLVALUE DUP1 ISZERO PUSH2 0x1DD JUMPI PUSH1 0x0 DUP1 REVERT JUMPDEST POP PUSH2 0x1F8 PUSH1 0x4 DUP1 CALLDATASIZE SUB DUP2 ADD SWAP1 PUSH2 0x1F3 SWAP2 SWAP1 PUSH2 0x349B JUMP JUMPDEST PUSH2 0x70A JUMP JUMPDEST PUSH1 0x40 MLOAD PUSH2 0x205 SWAP2 SWAP1 PUSH2 0x34EA JUMP JUMPDEST PUSH1 0x40 MLOAD DUP1 SWAP2 SUB SWAP1 RETURN JUMPDEST CALLVALUE DUP1 ISZERO PUSH2 0x21A JUMPI PUSH1 0x0 DUP1 REVERT JUMPDEST POP PUSH2 0x235 PUSH1 0x4 DUP1 CALLDATASIZE SUB DUP2 ADD SWAP1 PUSH2 0x230 SWAP2 SWAP1 PUSH2 0x355D JUMP JUMPDEST PUSH2 0x7D2 JUMP JUMPDEST PUSH1 0x40 MLOAD PUSH2 0x242 SWAP2 SWAP1 PUSH2 0x35A5 JUMP JUMPDEST PUSH1 0x40 MLOAD DUP1 SWAP2 SUB SWAP1 RETURN JUMPDEST CALLVALUE DUP1 ISZERO PUSH2 0x257 JUMPI PUSH1 0x0 DUP1 REVERT JUMPDEST POP PUSH2 0x272 PUSH1 0x4 DUP1 CALLDATASIZE SUB DUP2 ADD SWAP1 PUSH2 0x26D SWAP2 SWAP1 PUSH2 0x3625 JUMP JUMPDEST PUSH2 0x7E4 JUMP JUMPDEST STOP JUMPDEST CALLVALUE DUP1 ISZERO PUSH2 0x280 JUMPI PUSH1 0x0 DUP1 REVERT JUMPDEST POP PUSH2 0x29B PUSH1 0x4 DUP1 CALLDATASIZE SUB DUP2 ADD SWAP1 PUSH2 0x296 SWAP2 SWAP1 PUSH2 0x36BA JUMP JUMPDEST PUSH2 0x939 JUMP JUMPDEST PUSH1 0x40 MLOAD PUSH2 0x2A8 SWAP2 SWAP1 PUSH2 0x3780 JUMP JUMPDEST PUSH1 0x40 MLOAD DUP1 SWAP2 SUB SWAP1 RETURN JUMPDEST PUSH2 0x2CB PUSH1 0x4 DUP1 CALLDATASIZE SUB DUP2 ADD SWAP1 PUSH2 0x2C6 SWAP2 SWAP1 PUSH2 0x37A2 JUMP JUMPDEST PUSH2 0xB05 JUMP JUMPDEST STOP JUMPDEST CALLVALUE DUP1 ISZERO PUSH2 0x2D9 JUMPI PUSH1 0x0 DUP1 REVERT JUMPDEST POP PUSH2 0x2E2 PUSH2 0xD8C JUMP JUMPDEST STOP JUMPDEST CALLVALUE DUP1 ISZERO PUSH2 0x2F0 JUMPI PUSH1 0x0 DUP1 REVERT JUMPDEST POP PUSH2 0x30B PUSH1 0x4 DUP1 CALLDATASIZE SUB DUP2 ADD SWAP1 PUSH2 0x306 SWAP2 SWAP1 PUSH2 0x382B JUMP JUMPDEST PUSH2 0xE21 JUMP JUMPDEST PUSH1 0x40 MLOAD PUSH2 0x318 SWAP2 SWAP1 PUSH2 0x3867 JUMP JUMPDEST PUSH1 0x40 MLOAD DUP1 SWAP2 SUB SWAP1 RETURN JUMPDEST CALLVALUE DUP1 ISZERO PUSH2 0x32D JUMPI PUSH1 0x0 DUP1 REVERT JUMPDEST POP PUSH2 0x348 PUSH1 0x4 DUP1 CALLDATASIZE SUB DUP2 ADD SWAP1 PUSH2 0x343 SWAP2 SWAP1 PUSH2 0x3A75 JUMP JUMPDEST PUSH2 0xE41 JUMP JUMPDEST STOP JUMPDEST CALLVALUE DUP1 ISZERO PUSH2 0x356 JUMPI PUSH1 0x0 DUP1 REVERT JUMPDEST POP PUSH2 0x371 PUSH1 0x4 DUP1 CALLDATASIZE SUB DUP2 ADD SWAP1 PUSH2 0x36C SWAP2 SWAP1 PUSH2 0x3B44 JUMP JUMPDEST PUSH2 0xEE2 JUMP JUMPDEST STOP JUMPDEST CALLVALUE DUP1 ISZERO PUSH2 0x37F JUMPI PUSH1 0x0 DUP1 REVERT JUMPDEST POP PUSH2 0x39A PUSH1 0x4 DUP1 CALLDATASIZE SUB DUP2 ADD SWAP1 PUSH2 0x395 SWAP2 SWAP1 PUSH2 0x3B44 JUMP JUMPDEST PUSH2 0xF03 JUMP JUMPDEST STOP JUMPDEST CALLVALUE DUP1 ISZERO PUSH2 0x3A8 JUMPI PUSH1 0x0 DUP1 REVERT JUMPDEST POP PUSH2 0x3C3 PUSH1 0x4 DUP1 CALLDATASIZE SUB DUP2 ADD SWAP1 PUSH2 0x3BE SWAP2 SWAP1 PUSH2 0x37A2 JUMP JUMPDEST PUSH2 0xF86 JUMP JUMPDEST STOP JUMPDEST CALLVALUE DUP1 ISZERO PUSH2 0x3D1 JUMPI PUSH1 0x0 DUP1 REVERT JUMPDEST POP PUSH2 0x3DA PUSH2 0x1057 JUMP JUMPDEST STOP JUMPDEST CALLVALUE DUP1 ISZERO PUSH2 0x3E8 JUMPI PUSH1 0x0 DUP1 REVERT JUMPDEST POP PUSH2 0x403 PUSH1 0x4 DUP1 CALLDATASIZE SUB DUP2 ADD SWAP1 PUSH2 0x3FE SWAP2 SWAP1 PUSH2 0x3C47 JUMP JUMPDEST PUSH2 0x1112 JUMP JUMPDEST PUSH1 0x40 MLOAD PUSH2 0x410 SWAP2 SWAP1 PUSH2 0x3D7D JUMP JUMPDEST PUSH1 0x40 MLOAD DUP1 SWAP2 SUB SWAP1 RETURN JUMPDEST CALLVALUE DUP1 ISZERO PUSH2 0x425 JUMPI PUSH1 0x0 DUP1 REVERT JUMPDEST POP PUSH2 0x440 PUSH1 0x4 DUP1 CALLDATASIZE SUB DUP2 ADD SWAP1 PUSH2 0x43B SWAP2 SWAP1 PUSH2 0x36BA JUMP JUMPDEST PUSH2 0x122B JUMP JUMPDEST PUSH1 0x40 MLOAD PUSH2 0x451 SWAP6 SWAP5 SWAP4 SWAP3 SWAP2 SWAP1 PUSH2 0x3D9F JUMP JUMPDEST PUSH1 0x40 MLOAD DUP1 SWAP2 SUB SWAP1 RETURN JUMPDEST CALLVALUE DUP1 ISZERO PUSH2 0x466 JUMPI PUSH1 0x0 DUP1 REVERT JUMPDEST POP PUSH2 0x46F PUSH2 0x1371 JUMP JUMPDEST PUSH1 0x40 MLOAD PUSH2 0x47C SWAP2 SWAP1 PUSH2 0x35A5 JUMP JUMPDEST PUSH1 0x40 MLOAD DUP1 SWAP2 SUB SWAP1 RETURN JUMPDEST CALLVALUE DUP1 ISZERO PUSH2 0x491 JUMPI PUSH1 0x0 DUP1 REVERT JUMPDEST POP PUSH2 0x4AC PUSH1 0x4 DUP1 CALLDATASIZE SUB DUP2 ADD SWAP1 PUSH2 0x4A7 SWAP2 SWAP1 PUSH2 0x3B44 JUMP JUMPDEST PUSH2 0x1388 JUMP JUMPDEST PUSH1 0x40 MLOAD PUSH2 0x4B9 SWAP2 SWAP1 PUSH2 0x35A5 JUMP JUMPDEST PUSH1 0x40 MLOAD DUP1 SWAP2 SUB SWAP1 RETURN JUMPDEST CALLVALUE DUP1 ISZERO PUSH2 0x4CE JUMPI PUSH1 0x0 DUP1 REVERT JUMPDEST POP PUSH2 0x4E9 PUSH1 0x4 DUP1 CALLDATASIZE SUB DUP2 ADD SWAP1 PUSH2 0x4E4 SWAP2 SWAP1 PUSH2 0x3E56 JUMP JUMPDEST PUSH2 0x13F3 JUMP JUMPDEST STOP JUMPDEST CALLVALUE DUP1 ISZERO PUSH2 0x4F7 JUMPI PUSH1 0x0 DUP1 REVERT JUMPDEST POP PUSH2 0x512 PUSH1 0x4 DUP1 CALLDATASIZE SUB DUP2 ADD SWAP1 PUSH2 0x50D SWAP2 SWAP1 PUSH2 0x3EA3 JUMP JUMPDEST PUSH2 0x1455 JUMP JUMPDEST STOP JUMPDEST CALLVALUE DUP1 ISZERO PUSH2 0x520 JUMPI PUSH1 0x0 DUP1 REVERT JUMPDEST POP PUSH2 0x53B PUSH1 0x4 DUP1 CALLDATASIZE SUB DUP2 ADD SWAP1 PUSH2 0x536 SWAP2 SWAP1 PUSH2 0x3F72 JUMP JUMPDEST PUSH2 0x15C8 JUMP JUMPDEST STOP JUMPDEST CALLVALUE DUP1 ISZERO PUSH2 0x549 JUMPI PUSH1 0x0 DUP1 REVERT JUMPDEST POP PUSH2 0x564 PUSH1 0x4 DUP1 CALLDATASIZE SUB DUP2 ADD SWAP1 PUSH2 0x55F SWAP2 SWAP1 PUSH2 0x349B JUMP JUMPDEST PUSH2 0x1693 JUMP JUMPDEST STOP JUMPDEST CALLVALUE DUP1 ISZERO PUSH2 0x572 JUMPI PUSH1 0x0 DUP1 REVERT JUMPDEST POP PUSH2 0x57B PUSH2 0x1768 JUMP JUMPDEST PUSH1 0x40 MLOAD PUSH2 0x588 SWAP2 SWAP1 PUSH2 0x3867 JUMP JUMPDEST PUSH1 0x40 MLOAD DUP1 SWAP2 SUB SWAP1 RETURN JUMPDEST CALLVALUE DUP1 ISZERO PUSH2 0x59D JUMPI PUSH1 0x0 DUP1 REVERT JUMPDEST POP PUSH2 0x5B8 PUSH1 0x4 DUP1 CALLDATASIZE SUB DUP2 ADD SWAP1 PUSH2 0x5B3 SWAP2 SWAP1 PUSH2 0x4021 JUMP JUMPDEST PUSH2 0x176F JUMP JUMPDEST STOP JUMPDEST CALLVALUE DUP1 ISZERO PUSH2 0x5C6 JUMPI PUSH1 0x0 DUP1 REVERT JUMPDEST POP PUSH2 0x5CF PUSH2 0x1785 JUMP JUMPDEST STOP JUMPDEST CALLVALUE DUP1 ISZERO PUSH2 0x5DD JUMPI PUSH1 0x0 DUP1 REVERT JUMPDEST POP PUSH2 0x5E6 PUSH2 0x183F JUMP JUMPDEST PUSH1 0x40 MLOAD PUSH2 0x5F3 SWAP2 SWAP1 PUSH2 0x3867 JUMP JUMPDEST PUSH1 0x40 MLOAD DUP1 SWAP2 SUB SWAP1 RETURN JUMPDEST CALLVALUE DUP1 ISZERO PUSH2 0x608 JUMPI PUSH1 0x0 DUP1 REVERT JUMPDEST POP PUSH2 0x623 PUSH1 0x4 DUP1 CALLDATASIZE SUB DUP2 ADD SWAP1 PUSH2 0x61E SWAP2 SWAP1 PUSH2 0x3B44 JUMP JUMPDEST PUSH2 0x1863 JUMP JUMPDEST STOP JUMPDEST CALLVALUE DUP1 ISZERO PUSH2 0x631 JUMPI PUSH1 0x0 DUP1 REVERT JUMPDEST POP PUSH2 0x63A PUSH2 0x1884 JUMP JUMPDEST PUSH1 0x40 MLOAD PUSH2 0x647 SWAP2 SWAP1 PUSH2 0x3867 JUMP JUMPDEST PUSH1 0x40 MLOAD DUP1 SWAP2 SUB SWAP1 RETURN JUMPDEST CALLVALUE DUP1 ISZERO PUSH2 0x65C JUMPI PUSH1 0x0 DUP1 REVERT JUMPDEST POP PUSH2 0x665 PUSH2 0x18A8 JUMP JUMPDEST PUSH1 0x40 MLOAD PUSH2 0x672 SWAP2 SWAP1 PUSH2 0x3780 JUMP JUMPDEST PUSH1 0x40 MLOAD DUP1 SWAP2 SUB SWAP1 RETURN JUMPDEST CALLVALUE DUP1 ISZERO PUSH2 0x687 JUMPI PUSH1 0x0 DUP1 REVERT JUMPDEST POP PUSH2 0x6A2 PUSH1 0x4 DUP1 CALLDATASIZE SUB DUP2 ADD SWAP1 PUSH2 0x69D SWAP2 SWAP1 PUSH2 0x4061 JUMP JUMPDEST PUSH2 0x193A JUMP JUMPDEST PUSH1 0x40 MLOAD PUSH2 0x6AF SWAP2 SWAP1 PUSH2 0x35A5 JUMP JUMPDEST PUSH1 0x40 MLOAD DUP1 SWAP2 SUB SWAP1 RETURN JUMPDEST CALLVALUE DUP1 ISZERO PUSH2 0x6C4 JUMPI PUSH1 0x0 DUP1 REVERT JUMPDEST POP PUSH2 0x6DF PUSH1 0x4 DUP1 CALLDATASIZE SUB DUP2 ADD SWAP1 PUSH2 0x6DA SWAP2 SWAP1 PUSH2 0x40A1 JUMP JUMPDEST PUSH2 0x19CE JUMP JUMPDEST STOP JUMPDEST CALLVALUE DUP1 ISZERO PUSH2 0x6ED JUMPI PUSH1 0x0 DUP1 REVERT JUMPDEST POP PUSH2 0x708 PUSH1 0x4 DUP1 CALLDATASIZE SUB DUP2 ADD SWAP1 PUSH2 0x703 SWAP2 SWAP1 PUSH2 0x349B JUMP JUMPDEST PUSH2 0x1A6F JUMP JUMPDEST STOP JUMPDEST PUSH1 0x0 DUP1 PUSH20 0xFFFFFFFFFFFFFFFFFFFFFFFFFFFFFFFFFFFFFFFF AND DUP4 PUSH20 0xFFFFFFFFFFFFFFFFFFFFFFFFFFFFFFFFFFFFFFFF AND SUB PUSH2 0x77A JUMPI PUSH1 0x40 MLOAD PUSH32 0x8C379A000000000000000000000000000000000000000000000000000000000 DUP2 MSTORE PUSH1 0x4 ADD PUSH2 0x771 SWAP1 PUSH2 0x41AA JUMP JUMPDEST PUSH1 0x40 MLOAD DUP1 SWAP2 SUB SWAP1 REVERT JUMPDEST PUSH1 0x0 DUP1 DUP4 DUP2 MSTORE PUSH1 0x20 ADD SWAP1 DUP2 MSTORE PUSH1 0x20 ADD PUSH1 0x0 KECCAK256 PUSH1 0x0 DUP5 PUSH20 0xFFFFFFFFFFFFFFFFFFFFFFFFFFFFFFFFFFFFFFFF AND PUSH20 0xFFFFFFFFFFFFFFFFFFFFFFFFFFFFFFFFFFFFFFFF AND DUP2 MSTORE PUSH1 0x20 ADD SWAP1 DUP2 MSTORE PUSH1 0x20 ADD PUSH1 0x0 KECCAK256 SLOAD SWAP1 POP SWAP3 SWAP2 POP POP JUMP JUMPDEST PUSH1 0x0 PUSH2 0x7DD DUP3 PUSH2 0x1B34 JUMP JUMPDEST SWAP1 POP SWAP2 SWAP1 POP JUMP JUMPDEST PUSH2 0x80E PUSH32 0x9F2DF0FED2C77648DE5860A4CC508CD0818C85B8B8A1AB4CEEEF8D981C8956A6 CALLER PUSH2 0x1388 JUMP JUMPDEST PUSH2 0x84D JUMPI PUSH1 0x40 MLOAD PUSH32 0x8C379A000000000000000000000000000000000000000000000000000000000 DUP2 MSTORE PUSH1 0x4 ADD PUSH2 0x844 SWAP1 PUSH2 0x4216 JUMP JUMPDEST PUSH1 0x40 MLOAD DUP1 SWAP2 SUB SWAP1 REVERT JUMPDEST PUSH2 0x855 PUSH2 0x1371 JUMP JUMPDEST ISZERO PUSH2 0x895 JUMPI PUSH1 0x40 MLOAD PUSH32 0x8C379A000000000000000000000000000000000000000000000000000000000 DUP2 MSTORE PUSH1 0x4 ADD PUSH2 0x88C SWAP1 PUSH2 0x4282 JUMP JUMPDEST PUSH1 0x40 MLOAD DUP1 SWAP2 SUB SWAP1 REVERT JUMPDEST PUSH2 0x932 DUP6 DUP6 DUP6 DUP1 DUP1 PUSH1 0x20 MUL PUSH1 0x20 ADD PUSH1 0x40 MLOAD SWAP1 DUP2 ADD PUSH1 0x40 MSTORE DUP1 SWAP4 SWAP3 SWAP2 SWAP1 DUP2 DUP2 MSTORE PUSH1 0x20 ADD DUP4 DUP4 PUSH1 0x20 MUL DUP1 DUP3 DUP5 CALLDATACOPY PUSH1 0x0 DUP2 DUP5 ADD MSTORE PUSH1 0x1F NOT PUSH1 0x1F DUP3 ADD AND SWAP1 POP DUP1 DUP4 ADD SWAP3 POP POP POP POP POP POP POP DUP5 DUP5 DUP1 DUP1 PUSH1 0x20 MUL PUSH1 0x20 ADD PUSH1 0x40 MLOAD SWAP1 DUP2 ADD PUSH1 0x40 MSTORE DUP1 SWAP4 SWAP3 SWAP2 SWAP1 DUP2 DUP2 MSTORE PUSH1 0x20 ADD DUP4 DUP4 PUSH1 0x20 MUL DUP1 DUP3 DUP5 CALLDATACOPY PUSH1 0x0 DUP2 DUP5 ADD MSTORE PUSH1 0x1F NOT PUSH1 0x1F DUP3 ADD AND SWAP1 POP DUP1 DUP4 ADD SWAP3 POP POP POP POP POP POP POP PUSH1 0x40 MLOAD DUP1 PUSH1 0x20 ADD PUSH1 0x40 MSTORE DUP1 PUSH1 0x0 DUP2 MSTORE POP PUSH2 0x1BAE JUMP JUMPDEST POP POP POP POP POP JUMP JUMPDEST PUSH1 0x60 PUSH1 0x0 PUSH1 0x6 PUSH1 0x0 DUP5 DUP2 MSTORE PUSH1 0x20 ADD SWAP1 DUP2 MSTORE PUSH1 0x20 ADD PUSH1 0x0 KECCAK256 PUSH1 0x40 MLOAD DUP1 PUSH1 0xA0 ADD PUSH1 0x40 MSTORE SWAP1 DUP2 PUSH1 0x0 DUP3 ADD DUP1 SLOAD PUSH2 0x96B SWAP1 PUSH2 0x42D1 JUMP JUMPDEST DUP1 PUSH1 0x1F ADD PUSH1 0x20 DUP1 SWAP2 DIV MUL PUSH1 0x20 ADD PUSH1 0x40 MLOAD SWAP1 DUP2 ADD PUSH1 0x40 MSTORE DUP1 SWAP3 SWAP2 SWAP1 DUP2 DUP2 MSTORE PUSH1 0x20 ADD DUP3 DUP1 SLOAD PUSH2 0x997 SWAP1 PUSH2 0x42D1 JUMP JUMPDEST DUP1 ISZERO PUSH2 0x9E4 JUMPI DUP1 PUSH1 0x1F LT PUSH2 0x9B9 JUMPI PUSH2 0x100 DUP1 DUP4 SLOAD DIV MUL DUP4 MSTORE SWAP2 PUSH1 0x20 ADD SWAP2 PUSH2 0x9E4 JUMP JUMPDEST DUP3 ADD SWAP2 SWAP1 PUSH1 0x0 MSTORE PUSH1 0x20 PUSH1 0x0 KECCAK256 SWAP1 JUMPDEST DUP2 SLOAD DUP2 MSTORE SWAP1 PUSH1 0x1 ADD SWAP1 PUSH1 0x20 ADD DUP1 DUP4 GT PUSH2 0x9C7 JUMPI DUP3 SWAP1 SUB PUSH1 0x1F AND DUP3 ADD SWAP2 JUMPDEST POP POP POP POP POP DUP2 MSTORE PUSH1 0x20 ADD PUSH1 0x1 DUP3 ADD DUP1 SLOAD PUSH2 0x9FD SWAP1 PUSH2 0x42D1 JUMP JUMPDEST DUP1 PUSH1 0x1F ADD PUSH1 0x20 DUP1 SWAP2 DIV MUL PUSH1 0x20 ADD PUSH1 0x40 MLOAD SWAP1 DUP2 ADD PUSH1 0x40 MSTORE DUP1 SWAP3 SWAP2 SWAP1 DUP2 DUP2 MSTORE PUSH1 0x20 ADD DUP3 DUP1 SLOAD PUSH2 0xA29 SWAP1 PUSH2 0x42D1 JUMP JUMPDEST DUP1 ISZERO PUSH2 0xA76 JUMPI DUP1 PUSH1 0x1F LT PUSH2 0xA4B JUMPI PUSH2 0x100 DUP1 DUP4 SLOAD DIV MUL DUP4 MSTORE SWAP2 PUSH1 0x20 ADD SWAP2 PUSH2 0xA76 JUMP JUMPDEST DUP3 ADD SWAP2 SWAP1 PUSH1 0x0 MSTORE PUSH1 0x20 PUSH1 0x0 KECCAK256 SWAP1 JUMPDEST DUP2 SLOAD DUP2 MSTORE SWAP1 PUSH1 0x1 ADD SWAP1 PUSH1 0x20 ADD DUP1 DUP4 GT PUSH2 0xA59 JUMPI DUP3 SWAP1 SUB PUSH1 0x1F AND DUP3 ADD SWAP2 JUMPDEST POP POP POP POP POP DUP2 MSTORE PUSH1 0x20 ADD PUSH1 0x2 DUP3 ADD SLOAD DUP2 MSTORE PUSH1 0x20 ADD PUSH1 0x3 DUP3 ADD SLOAD DUP2 MSTORE PUSH1 0x20 ADD PUSH1 0x4 DUP3 ADD SLOAD DUP2 MSTORE POP POP SWAP1 POP PUSH1 0x0 DUP2 PUSH1 0x40 ADD MLOAD EQ ISZERO DUP1 ISZERO PUSH2 0xAB9 JUMPI POP PUSH1 0x0 DUP2 PUSH1 0x60 ADD MLOAD EQ ISZERO JUMPDEST PUSH2 0xAF8 JUMPI PUSH1 0x40 MLOAD PUSH32 0x8C379A000000000000000000000000000000000000000000000000000000000 DUP2 MSTORE PUSH1 0x4 ADD PUSH2 0xAEF SWAP1 PUSH2 0x434E JUMP JUMPDEST PUSH1 0x40 MLOAD DUP1 SWAP2 SUB SWAP1 REVERT JUMPDEST DUP1 PUSH1 0x20 ADD MLOAD SWAP2 POP POP SWAP2 SWAP1 POP JUMP JUMPDEST PUSH2 0xB0D PUSH2 0x1371 JUMP JUMPDEST ISZERO PUSH2 0xB4D JUMPI PUSH1 0x40 MLOAD PUSH32 0x8C379A000000000000000000000000000000000000000000000000000000000 DUP2 MSTORE PUSH1 0x4 ADD PUSH2 0xB44 SWAP1 PUSH2 0x4282 JUMP JUMPDEST PUSH1 0x40 MLOAD DUP1 SWAP2 SUB SWAP1 REVERT JUMPDEST PUSH1 0x0 PUSH1 0x6 PUSH1 0x0 DUP5 DUP2 MSTORE PUSH1 0x20 ADD SWAP1 DUP2 MSTORE PUSH1 0x20 ADD PUSH1 0x0 KECCAK256 PUSH1 0x40 MLOAD DUP1 PUSH1 0xA0 ADD PUSH1 0x40 MSTORE SWAP1 DUP2 PUSH1 0x0 DUP3 ADD DUP1 SLOAD PUSH2 0xB7D SWAP1 PUSH2 0x42D1 JUMP JUMPDEST DUP1 PUSH1 0x1F ADD PUSH1 0x20 DUP1 SWAP2 DIV MUL PUSH1 0x20 ADD PUSH1 0x40 MLOAD SWAP1 DUP2 ADD PUSH1 0x40 MSTORE DUP1 SWAP3 SWAP2 SWAP1 DUP2 DUP2 MSTORE PUSH1 0x20 ADD DUP3 DUP1 SLOAD PUSH2 0xBA9 SWAP1 PUSH2 0x42D1 JUMP JUMPDEST DUP1 ISZERO PUSH2 0xBF6 JUMPI DUP1 PUSH1 0x1F LT PUSH2 0xBCB JUMPI PUSH2 0x100 DUP1 DUP4 SLOAD DIV MUL DUP4 MSTORE SWAP2 PUSH1 0x20 ADD SWAP2 PUSH2 0xBF6 JUMP JUMPDEST DUP3 ADD SWAP2 SWAP1 PUSH1 0x0 MSTORE PUSH1 0x20 PUSH1 0x0 KECCAK256 SWAP1 JUMPDEST DUP2 SLOAD DUP2 MSTORE SWAP1 PUSH1 0x1 ADD SWAP1 PUSH1 0x20 ADD DUP1 DUP4 GT PUSH2 0xBD9 JUMPI DUP3 SWAP1 SUB PUSH1 0x1F AND DUP3 ADD SWAP2 JUMPDEST POP POP POP POP POP DUP2 MSTORE PUSH1 0x20 ADD PUSH1 0x1 DUP3 ADD DUP1 SLOAD PUSH2 0xC0F SWAP1 PUSH2 0x42D1 JUMP JUMPDEST DUP1 PUSH1 0x1F ADD PUSH1 0x20 DUP1 SWAP2 DIV MUL PUSH1 0x20 ADD PUSH1 0x40 MLOAD SWAP1 DUP2 ADD PUSH1 0x40 MSTORE DUP1 SWAP3 SWAP2 SWAP1 DUP2 DUP2 MSTORE PUSH1 0x20 ADD DUP3 DUP1 SLOAD PUSH2 0xC3B SWAP1 PUSH2 0x42D1 JUMP JUMPDEST DUP1 ISZERO PUSH2 0xC88 JUMPI DUP1 PUSH1 0x1F LT PUSH2 0xC5D JUMPI PUSH2 0x100 DUP1 DUP4 SLOAD DIV MUL DUP4 MSTORE SWAP2 PUSH1 0x20 ADD SWAP2 PUSH2 0xC88 JUMP JUMPDEST DUP3 ADD SWAP2 SWAP1 PUSH1 0x0 MSTORE PUSH1 0x20 PUSH1 0x0 KECCAK256 SWAP1 JUMPDEST DUP2 SLOAD DUP2 MSTORE SWAP1 PUSH1 0x1 ADD SWAP1 PUSH1 0x20 ADD DUP1 DUP4 GT PUSH2 0xC6B JUMPI DUP3 SWAP1 SUB PUSH1 0x1F AND DUP3 ADD SWAP2 JUMPDEST POP POP POP POP POP DUP2 MSTORE PUSH1 0x20 ADD PUSH1 0x2 DUP3 ADD SLOAD DUP2 MSTORE PUSH1 0x20 ADD PUSH1 0x3 DUP3 ADD SLOAD DUP2 MSTORE PUSH1 0x20 ADD PUSH1 0x4 DUP3 ADD SLOAD DUP2 MSTORE POP POP SWAP1 POP PUSH1 0x0 DUP2 PUSH1 0x40 ADD MLOAD EQ ISZERO DUP1 ISZERO PUSH2 0xCCB JUMPI POP PUSH1 0x0 DUP2 PUSH1 0x60 ADD MLOAD EQ ISZERO JUMPDEST PUSH2 0xD0A JUMPI PUSH1 0x40 MLOAD PUSH32 0x8C379A000000000000000000000000000000000000000000000000000000000 DUP2 MSTORE PUSH1 0x4 ADD PUSH2 0xD01 SWAP1 PUSH2 0x43BA JUMP JUMPDEST PUSH1 0x40 MLOAD DUP1 SWAP2 SUB SWAP1 REVERT JUMPDEST PUSH1 0x0 DUP2 PUSH1 0x80 ADD MLOAD EQ DUP1 PUSH2 0xD2C JUMPI POP DUP2 DUP2 PUSH1 0x80 ADD MLOAD PUSH2 0xD28 SWAP2 SWAP1 PUSH2 0x4409 JUMP JUMPDEST CALLVALUE LT ISZERO JUMPDEST PUSH2 0xD6B JUMPI PUSH1 0x40 MLOAD PUSH32 0x8C379A000000000000000000000000000000000000000000000000000000000 DUP2 MSTORE PUSH1 0x4 ADD PUSH2 0xD62 SWAP1 PUSH2 0x44AF JUMP JUMPDEST PUSH1 0x40 MLOAD DUP1 SWAP2 SUB SWAP1 REVERT JUMPDEST PUSH2 0xD86 DUP5 DUP5 DUP5 PUSH1 0x40 MLOAD DUP1 PUSH1 0x20 ADD PUSH1 0x40 MSTORE DUP1 PUSH1 0x0 DUP2 MSTORE POP PUSH2 0x1DDA JUMP JUMPDEST POP POP POP POP JUMP JUMPDEST PUSH2 0xD99 PUSH1 0x0 DUP1 SHL CALLER PUSH2 0x1388 JUMP JUMPDEST PUSH2 0xDD8 JUMPI PUSH1 0x40 MLOAD PUSH32 0x8C379A000000000000000000000000000000000000000000000000000000000 DUP2 MSTORE PUSH1 0x4 ADD PUSH2 0xDCF SWAP1 PUSH2 0x451B JUMP JUMPDEST PUSH1 0x40 MLOAD DUP1 SWAP2 SUB SWAP1 REVERT JUMPDEST CALLER PUSH20 0xFFFFFFFFFFFFFFFFFFFFFFFFFFFFFFFFFFFFFFFF AND PUSH2 0x8FC SELFBALANCE SWAP1 DUP2 ISZERO MUL SWAP1 PUSH1 0x40 MLOAD PUSH1 0x0 PUSH1 0x40 MLOAD DUP1 DUP4 SUB DUP2 DUP6 DUP9 DUP9 CALL SWAP4 POP POP POP POP ISZERO DUP1 ISZERO PUSH2 0xE1E JUMPI RETURNDATASIZE PUSH1 0x0 DUP1 RETURNDATACOPY RETURNDATASIZE PUSH1 0x0 REVERT JUMPDEST POP JUMP JUMPDEST PUSH1 0x0 PUSH1 0x3 PUSH1 0x0 DUP4 DUP2 MSTORE PUSH1 0x20 ADD SWAP1 DUP2 MSTORE PUSH1 0x20 ADD PUSH1 0x0 KECCAK256 PUSH1 0x1 ADD SLOAD SWAP1 POP SWAP2 SWAP1 POP JUMP JUMPDEST PUSH2 0xE49 PUSH2 0x1F8A JUMP JUMPDEST PUSH20 0xFFFFFFFFFFFFFFFFFFFFFFFFFFFFFFFFFFFFFFFF AND DUP6 PUSH20 0xFFFFFFFFFFFFFFFFFFFFFFFFFFFFFFFFFFFFFFFF AND EQ DUP1 PUSH2 0xE8F JUMPI POP PUSH2 0xE8E DUP6 PUSH2 0xE89 PUSH2 0x1F8A JUMP JUMPDEST PUSH2 0x193A JUMP JUMPDEST JUMPDEST PUSH2 0xECE JUMPI PUSH1 0x40 MLOAD PUSH32 0x8C379A000000000000000000000000000000000000000000000000000000000 DUP2 MSTORE PUSH1 0x4 ADD PUSH2 0xEC5 SWAP1 PUSH2 0x45AD JUMP JUMPDEST PUSH1 0x40 MLOAD DUP1 SWAP2 SUB SWAP1 REVERT JUMPDEST PUSH2 0xEDB DUP6 DUP6 DUP6 DUP6 DUP6 PUSH2 0x1F92 JUMP JUMPDEST POP POP POP POP POP JUMP JUMPDEST PUSH2 0xEEB DUP3 PUSH2 0xE21 JUMP JUMPDEST PUSH2 0xEF4 DUP2 PUSH2 0x22B3 JUMP JUMPDEST PUSH2 0xEFE DUP4 DUP4 PUSH2 0x22C7 JUMP JUMPDEST POP POP POP JUMP JUMPDEST PUSH2 0xF0B PUSH2 0x1F8A JUMP JUMPDEST PUSH20 0xFFFFFFFFFFFFFFFFFFFFFFFFFFFFFFFFFFFFFFFF AND DUP2 PUSH20 0xFFFFFFFFFFFFFFFFFFFFFFFFFFFFFFFFFFFFFFFF AND EQ PUSH2 0xF78 JUMPI PUSH1 0x40 MLOAD PUSH32 0x8C379A000000000000000000000000000000000000000000000000000000000 DUP2 MSTORE PUSH1 0x4 ADD PUSH2 0xF6F SWAP1 PUSH2 0x463F JUMP JUMPDEST PUSH1 0x40 MLOAD DUP1 SWAP2 SUB SWAP1 REVERT JUMPDEST PUSH2 0xF82 DUP3 DUP3 PUSH2 0x23A8 JUMP JUMPDEST POP POP JUMP JUMPDEST PUSH2 0xFB0 PUSH32 0x9F2DF0FED2C77648DE5860A4CC508CD0818C85B8B8A1AB4CEEEF8D981C8956A6 CALLER PUSH2 0x1388 JUMP JUMPDEST PUSH2 0xFEF JUMPI PUSH1 0x40 MLOAD PUSH32 0x8C379A000000000000000000000000000000000000000000000000000000000 DUP2 MSTORE PUSH1 0x4 ADD PUSH2 0xFE6 SWAP1 PUSH2 0x4216 JUMP JUMPDEST PUSH1 0x40 MLOAD DUP1 SWAP2 SUB SWAP1 REVERT JUMPDEST PUSH2 0xFF7 PUSH2 0x1371 JUMP JUMPDEST ISZERO PUSH2 0x1037 JUMPI PUSH1 0x40 MLOAD PUSH32 0x8C379A000000000000000000000000000000000000000000000000000000000 DUP2 MSTORE PUSH1 0x4 ADD PUSH2 0x102E SWAP1 PUSH2 0x4282 JUMP JUMPDEST PUSH1 0x40 MLOAD DUP1 SWAP2 SUB SWAP1 REVERT JUMPDEST PUSH2 0x1052 DUP4 DUP4 DUP4 PUSH1 0x40 MLOAD DUP1 PUSH1 0x20 ADD PUSH1 0x40 MSTORE DUP1 PUSH1 0x0 DUP2 MSTORE POP PUSH2 0x1DDA JUMP JUMPDEST POP POP POP JUMP JUMPDEST PUSH2 0x1081 PUSH32 0x65D7A28E3265B37A6474929F336521B332C1681B933F6CB9F3376673440D862A CALLER PUSH2 0x1388 JUMP JUMPDEST PUSH2 0x10C0 JUMPI PUSH1 0x40 MLOAD PUSH32 0x8C379A000000000000000000000000000000000000000000000000000000000 DUP2 MSTORE PUSH1 0x4 ADD PUSH2 0x10B7 SWAP1 PUSH2 0x46AB JUMP JUMPDEST PUSH1 0x40 MLOAD DUP1 SWAP2 SUB SWAP1 REVERT JUMPDEST PUSH2 0x10C8 PUSH2 0x1371 JUMP JUMPDEST ISZERO PUSH2 0x1108 JUMPI PUSH1 0x40 MLOAD PUSH32 0x8C379A000000000000000000000000000000000000000000000000000000000 DUP2 MSTORE PUSH1 0x4 ADD PUSH2 0x10FF SWAP1 PUSH2 0x4282 JUMP JUMPDEST PUSH1 0x40 MLOAD DUP1 SWAP2 SUB SWAP1 REVERT JUMPDEST PUSH2 0x1110 PUSH2 0x248A JUMP JUMPDEST JUMP JUMPDEST PUSH1 0x60 DUP2 MLOAD DUP4 MLOAD EQ PUSH2 0x1158 JUMPI PUSH1 0x40 MLOAD PUSH32 0x8C379A000000000000000000000000000000000000000000000000000000000 DUP2 MSTORE PUSH1 0x4 ADD PUSH2 0x114F SWAP1 PUSH2 0x473D JUMP JUMPDEST PUSH1 0x40 MLOAD DUP1 SWAP2 SUB SWAP1 REVERT JUMPDEST PUSH1 0x0 DUP4 MLOAD PUSH8 0xFFFFFFFFFFFFFFFF DUP2 GT ISZERO PUSH2 0x1175 JUMPI PUSH2 0x1174 PUSH2 0x3882 JUMP JUMPDEST JUMPDEST PUSH1 0x40 MLOAD SWAP1 DUP1 DUP3 MSTORE DUP1 PUSH1 0x20 MUL PUSH1 0x20 ADD DUP3 ADD PUSH1 0x40 MSTORE DUP1 ISZERO PUSH2 0x11A3 JUMPI DUP2 PUSH1 0x20 ADD PUSH1 0x20 DUP3 MUL DUP1 CALLDATASIZE DUP4 CALLDATACOPY DUP1 DUP3 ADD SWAP2 POP POP SWAP1 POP JUMPDEST POP SWAP1 POP PUSH1 0x0 JUMPDEST DUP5 MLOAD DUP2 LT ISZERO PUSH2 0x1220 JUMPI PUSH2 0x11F0 DUP6 DUP3 DUP2 MLOAD DUP2 LT PUSH2 0x11C8 JUMPI PUSH2 0x11C7 PUSH2 0x475D JUMP JUMPDEST JUMPDEST PUSH1 0x20 MUL PUSH1 0x20 ADD ADD MLOAD DUP6 DUP4 DUP2 MLOAD DUP2 LT PUSH2 0x11E3 JUMPI PUSH2 0x11E2 PUSH2 0x475D JUMP JUMPDEST JUMPDEST PUSH1 0x20 MUL PUSH1 0x20 ADD ADD MLOAD PUSH2 0x70A JUMP JUMPDEST DUP3 DUP3 DUP2 MLOAD DUP2 LT PUSH2 0x1203 JUMPI PUSH2 0x1202 PUSH2 0x475D JUMP JUMPDEST JUMPDEST PUSH1 0x20 MUL PUSH1 0x20 ADD ADD DUP2 DUP2 MSTORE POP POP DUP1 PUSH2 0x1219 SWAP1 PUSH2 0x478C JUMP JUMPDEST SWAP1 POP PUSH2 0x11A9 JUMP JUMPDEST POP DUP1 SWAP2 POP POP SWAP3 SWAP2 POP POP JUMP JUMPDEST PUSH1 0x6 PUSH1 0x20 MSTORE DUP1 PUSH1 0x0 MSTORE PUSH1 0x40 PUSH1 0x0 KECCAK256 PUSH1 0x0 SWAP2 POP SWAP1 POP DUP1 PUSH1 0x0 ADD DUP1 SLOAD PUSH2 0x124E SWAP1 PUSH2 0x42D1 JUMP JUMPDEST DUP1 PUSH1 0x1F ADD PUSH1 0x20 DUP1 SWAP2 DIV MUL PUSH1 0x20 ADD PUSH1 0x40 MLOAD SWAP1 DUP2 ADD PUSH1 0x40 MSTORE DUP1 SWAP3 SWAP2 SWAP1 DUP2 DUP2 MSTORE PUSH1 0x20 ADD DUP3 DUP1 SLOAD PUSH2 0x127A SWAP1 PUSH2 0x42D1 JUMP JUMPDEST DUP1 ISZERO PUSH2 0x12C7 JUMPI DUP1 PUSH1 0x1F LT PUSH2 0x129C JUMPI PUSH2 0x100 DUP1 DUP4 SLOAD DIV MUL DUP4 MSTORE SWAP2 PUSH1 0x20 ADD SWAP2 PUSH2 0x12C7 JUMP JUMPDEST DUP3 ADD SWAP2 SWAP1 PUSH1 0x0 MSTORE PUSH1 0x20 PUSH1 0x0 KECCAK256 SWAP1 JUMPDEST DUP2 SLOAD DUP2 MSTORE SWAP1 PUSH1 0x1 ADD SWAP1 PUSH1 0x20 ADD DUP1 DUP4 GT PUSH2 0x12AA JUMPI DUP3 SWAP1 SUB PUSH1 0x1F AND DUP3 ADD SWAP2 JUMPDEST POP POP POP POP POP SWAP1 DUP1 PUSH1 0x1 ADD DUP1 SLOAD PUSH2 0x12DC SWAP1 PUSH2 0x42D1 JUMP JUMPDEST DUP1 PUSH1 0x1F ADD PUSH1 0x20 DUP1 SWAP2 DIV MUL PUSH1 0x20 ADD PUSH1 0x40 MLOAD SWAP1 DUP2 ADD PUSH1 0x40 MSTORE DUP1 SWAP3 SWAP2 SWAP1 DUP2 DUP2 MSTORE PUSH1 0x20 ADD DUP3 DUP1 SLOAD PUSH2 0x1308 SWAP1 PUSH2 0x42D1 JUMP JUMPDEST DUP1 ISZERO PUSH2 0x1355 JUMPI DUP1 PUSH1 0x1F LT PUSH2 0x132A JUMPI PUSH2 0x100 DUP1 DUP4 SLOAD DIV MUL DUP4 MSTORE SWAP2 PUSH1 0x20 ADD SWAP2 PUSH2 0x1355 JUMP JUMPDEST DUP3 ADD SWAP2 SWAP1 PUSH1 0x0 MSTORE PUSH1 0x20 PUSH1 0x0 KECCAK256 SWAP1 JUMPDEST DUP2 SLOAD DUP2 MSTORE SWAP1 PUSH1 0x1 ADD SWAP1 PUSH1 0x20 ADD DUP1 DUP4 GT PUSH2 0x1338 JUMPI DUP3 SWAP1 SUB PUSH1 0x1F AND DUP3 ADD SWAP2 JUMPDEST POP POP POP POP POP SWAP1 DUP1 PUSH1 0x2 ADD SLOAD SWAP1 DUP1 PUSH1 0x3 ADD SLOAD SWAP1 DUP1 PUSH1 0x4 ADD SLOAD SWAP1 POP DUP6 JUMP JUMPDEST PUSH1 0x0 PUSH1 0x4 PUSH1 0x0 SWAP1 SLOAD SWAP1 PUSH2 0x100 EXP SWAP1 DIV PUSH1 0xFF AND SWAP1 POP SWAP1 JUMP JUMPDEST PUSH1 0x0 PUSH1 0x3 PUSH1 0x0 DUP5 DUP2 MSTORE PUSH1 0x20 ADD SWAP1 DUP2 MSTORE PUSH1 0x20 ADD PUSH1 0x0 KECCAK256 PUSH1 0x0 ADD PUSH1 0x0 DUP4 PUSH20 0xFFFFFFFFFFFFFFFFFFFFFFFFFFFFFFFFFFFFFFFF AND PUSH20 0xFFFFFFFFFFFFFFFFFFFFFFFFFFFFFFFFFFFFFFFF AND DUP2 MSTORE PUSH1 0x20 ADD SWAP1 DUP2 MSTORE PUSH1 0x20 ADD PUSH1 0x0 KECCAK256 PUSH1 0x0 SWAP1 SLOAD SWAP1 PUSH2 0x100 EXP SWAP1 DIV PUSH1 0xFF AND SWAP1 POP SWAP3 SWAP2 POP POP JUMP JUMPDEST PUSH2 0x1400 PUSH1 0x0 DUP1 SHL CALLER PUSH2 0x1388 JUMP JUMPDEST PUSH2 0x143F JUMPI PUSH1 0x40 MLOAD PUSH32 0x8C379A000000000000000000000000000000000000000000000000000000000 DUP2 MSTORE PUSH1 0x4 ADD PUSH2 0x1436 SWAP1 PUSH2 0x451B JUMP JUMPDEST PUSH1 0x40 MLOAD DUP1 SWAP2 SUB SWAP1 REVERT JUMPDEST DUP2 DUP2 PUSH1 0x5 SWAP2 SWAP1 PUSH2 0x1450 SWAP3 SWAP2 SWAP1 PUSH2 0x32CA JUMP JUMPDEST POP POP POP JUMP JUMPDEST PUSH2 0x1462 PUSH1 0x0 DUP1 SHL CALLER PUSH2 0x1388 JUMP JUMPDEST PUSH2 0x14A1 JUMPI PUSH1 0x40 MLOAD PUSH32 0x8C379A000000000000000000000000000000000000000000000000000000000 DUP2 MSTORE PUSH1 0x4 ADD PUSH2 0x1498 SWAP1 PUSH2 0x451B JUMP JUMPDEST PUSH1 0x40 MLOAD DUP1 SWAP2 SUB SWAP1 REVERT JUMPDEST PUSH1 0x40 MLOAD DUP1 PUSH1 0xA0 ADD PUSH1 0x40 MSTORE DUP1 DUP9 DUP9 DUP1 DUP1 PUSH1 0x1F ADD PUSH1 0x20 DUP1 SWAP2 DIV MUL PUSH1 0x20 ADD PUSH1 0x40 MLOAD SWAP1 DUP2 ADD PUSH1 0x40 MSTORE DUP1 SWAP4 SWAP3 SWAP2 SWAP1 DUP2 DUP2 MSTORE PUSH1 0x20 ADD DUP4 DUP4 DUP1 DUP3 DUP5 CALLDATACOPY PUSH1 0x0 DUP2 DUP5 ADD MSTORE PUSH1 0x1F NOT PUSH1 0x1F DUP3 ADD AND SWAP1 POP DUP1 DUP4 ADD SWAP3 POP POP POP POP POP POP POP DUP2 MSTORE PUSH1 0x20 ADD DUP7 DUP7 DUP1 DUP1 PUSH1 0x1F ADD PUSH1 0x20 DUP1 SWAP2 DIV MUL PUSH1 0x20 ADD PUSH1 0x40 MLOAD SWAP1 DUP2 ADD PUSH1 0x40 MSTORE DUP1 SWAP4 SWAP3 SWAP2 SWAP1 DUP2 DUP2 MSTORE PUSH1 0x20 ADD DUP4 DUP4 DUP1 DUP3 DUP5 CALLDATACOPY PUSH1 0x0 DUP2 DUP5 ADD MSTORE PUSH1 0x1F NOT PUSH1 0x1F DUP3 ADD AND SWAP1 POP DUP1 DUP4 ADD SWAP3 POP POP POP POP POP POP POP DUP2 MSTORE PUSH1 0x20 ADD DUP5 DUP2 MSTORE PUSH1 0x20 ADD DUP4 DUP2 MSTORE PUSH1 0x20 ADD DUP3 DUP2 MSTORE POP PUSH1 0x6 PUSH1 0x0 DUP11 DUP2 MSTORE PUSH1 0x20 ADD SWAP1 DUP2 MSTORE PUSH1 0x20 ADD PUSH1 0x0 KECCAK256 PUSH1 0x0 DUP3 ADD MLOAD DUP2 PUSH1 0x0 ADD SWAP1 DUP1 MLOAD SWAP1 PUSH1 0x20 ADD SWAP1 PUSH2 0x157F SWAP3 SWAP2 SWAP1 PUSH2 0x3350 JUMP JUMPDEST POP PUSH1 0x20 DUP3 ADD MLOAD DUP2 PUSH1 0x1 ADD SWAP1 DUP1 MLOAD SWAP1 PUSH1 0x20 ADD SWAP1 PUSH2 0x159C SWAP3 SWAP2 SWAP1 PUSH2 0x3350 JUMP JUMPDEST POP PUSH1 0x40 DUP3 ADD MLOAD DUP2 PUSH1 0x2 ADD SSTORE PUSH1 0x60 DUP3 ADD MLOAD DUP2 PUSH1 0x3 ADD SSTORE PUSH1 0x80 DUP3 ADD MLOAD DUP2 PUSH1 0x4 ADD SSTORE SWAP1 POP POP POP POP POP POP POP POP POP POP JUMP JUMPDEST PUSH2 0x15D5 PUSH1 0x0 DUP1 SHL CALLER PUSH2 0x1388 JUMP JUMPDEST PUSH2 0x1614 JUMPI PUSH1 0x40 MLOAD PUSH32 0x8C379A000000000000000000000000000000000000000000000000000000000 DUP2 MSTORE PUSH1 0x4 ADD PUSH2 0x160B SWAP1 PUSH2 0x451B JUMP JUMPDEST PUSH1 0x40 MLOAD DUP1 SWAP2 SUB SWAP1 REVERT JUMPDEST PUSH1 0x0 DUP5 SWAP1 POP DUP1 PUSH20 0xFFFFFFFFFFFFFFFFFFFFFFFFFFFFFFFFFFFFFFFF AND PUSH4 0xF242432A ADDRESS CALLER DUP8 DUP8 DUP8 PUSH1 0x40 MLOAD DUP7 PUSH4 0xFFFFFFFF AND PUSH1 0xE0 SHL DUP2 MSTORE PUSH1 0x4 ADD PUSH2 0x165A SWAP6 SWAP5 SWAP4 SWAP3 SWAP2 SWAP1 PUSH2 0x4838 JUMP JUMPDEST PUSH1 0x0 PUSH1 0x40 MLOAD DUP1 DUP4 SUB DUP2 PUSH1 0x0 DUP8 DUP1 EXTCODESIZE ISZERO DUP1 ISZERO PUSH2 0x1674 JUMPI PUSH1 0x0 DUP1 REVERT JUMPDEST POP GAS CALL ISZERO DUP1 ISZERO PUSH2 0x1688 JUMPI RETURNDATASIZE PUSH1 0x0 DUP1 RETURNDATACOPY RETURNDATASIZE PUSH1 0x0 REVERT JUMPDEST POP POP POP POP POP POP POP POP POP JUMP JUMPDEST PUSH2 0x16A0 PUSH1 0x0 DUP1 SHL CALLER PUSH2 0x1388 JUMP JUMPDEST PUSH2 0x16DF JUMPI PUSH1 0x40 MLOAD PUSH32 0x8C379A000000000000000000000000000000000000000000000000000000000 DUP2 MSTORE PUSH1 0x4 ADD PUSH2 0x16D6 SWAP1 PUSH2 0x451B JUMP JUMPDEST PUSH1 0x40 MLOAD DUP1 SWAP2 SUB SWAP1 REVERT JUMPDEST PUSH1 0x0 DUP3 SWAP1 POP DUP1 PUSH20 0xFFFFFFFFFFFFFFFFFFFFFFFFFFFFFFFFFFFFFFFF AND PUSH4 0xA9059CBB CALLER DUP5 PUSH1 0x40 MLOAD DUP4 PUSH4 0xFFFFFFFF AND PUSH1 0xE0 SHL DUP2 MSTORE PUSH1 0x4 ADD PUSH2 0x171F SWAP3 SWAP2 SWAP1 PUSH2 0x4892 JUMP JUMPDEST PUSH1 0x20 PUSH1 0x40 MLOAD DUP1 DUP4 SUB DUP2 PUSH1 0x0 DUP8 GAS CALL ISZERO DUP1 ISZERO PUSH2 0x173E JUMPI RETURNDATASIZE PUSH1 0x0 DUP1 RETURNDATACOPY RETURNDATASIZE PUSH1 0x0 REVERT JUMPDEST POP POP POP POP PUSH1 0x40 MLOAD RETURNDATASIZE PUSH1 0x1F NOT PUSH1 0x1F DUP3 ADD AND DUP3 ADD DUP1 PUSH1 0x40 MSTORE POP DUP2 ADD SWAP1 PUSH2 0x1762 SWAP2 SWAP1 PUSH2 0x48D0 JUMP JUMPDEST POP POP POP POP JUMP JUMPDEST PUSH1 0x0 DUP1 SHL DUP2 JUMP JUMPDEST PUSH2 0x1781 PUSH2 0x177A PUSH2 0x1F8A JUMP JUMPDEST DUP4 DUP4 PUSH2 0x252D JUMP JUMPDEST POP POP JUMP JUMPDEST PUSH2 0x17AF PUSH32 0x65D7A28E3265B37A6474929F336521B332C1681B933F6CB9F3376673440D862A CALLER PUSH2 0x1388 JUMP JUMPDEST PUSH2 0x17EE JUMPI PUSH1 0x40 MLOAD PUSH32 0x8C379A000000000000000000000000000000000000000000000000000000000 DUP2 MSTORE PUSH1 0x4 ADD PUSH2 0x17E5 SWAP1 PUSH2 0x46AB JUMP JUMPDEST PUSH1 0x40 MLOAD DUP1 SWAP2 SUB SWAP1 REVERT JUMPDEST PUSH2 0x17F6 PUSH2 0x1371 JUMP JUMPDEST PUSH2 0x1835 JUMPI PUSH1 0x40 MLOAD PUSH32 0x8C379A000000000000000000000000000000000000000000000000000000000 DUP2 MSTORE PUSH1 0x4 ADD PUSH2 0x182C SWAP1 PUSH2 0x4949 JUMP JUMPDEST PUSH1 0x40 MLOAD DUP1 SWAP2 SUB SWAP1 REVERT JUMPDEST PUSH2 0x183D PUSH2 0x2699 JUMP JUMPDEST JUMP JUMPDEST PUSH32 0x9F2DF0FED2C77648DE5860A4CC508CD0818C85B8B8A1AB4CEEEF8D981C8956A6 DUP2 JUMP JUMPDEST PUSH2 0x186C DUP3 PUSH2 0xE21 JUMP JUMPDEST PUSH2 0x1875 DUP2 PUSH2 0x22B3 JUMP JUMPDEST PUSH2 0x187F DUP4 DUP4 PUSH2 0x23A8 JUMP JUMPDEST POP POP POP JUMP JUMPDEST PUSH32 0x65D7A28E3265B37A6474929F336521B332C1681B933F6CB9F3376673440D862A DUP2 JUMP JUMPDEST PUSH1 0x60 PUSH1 0x5 DUP1 SLOAD PUSH2 0x18B7 SWAP1 PUSH2 0x42D1 JUMP JUMPDEST DUP1 PUSH1 0x1F ADD PUSH1 0x20 DUP1 SWAP2 DIV MUL PUSH1 0x20 ADD PUSH1 0x40 MLOAD SWAP1 DUP2 ADD PUSH1 0x40 MSTORE DUP1 SWAP3 SWAP2 SWAP1 DUP2 DUP2 MSTORE PUSH1 0x20 ADD DUP3 DUP1 SLOAD PUSH2 0x18E3 SWAP1 PUSH2 0x42D1 JUMP JUMPDEST DUP1 ISZERO PUSH2 0x1930 JUMPI DUP1 PUSH1 0x1F LT PUSH2 0x1905 JUMPI PUSH2 0x100 DUP1 DUP4 SLOAD DIV MUL DUP4 MSTORE SWAP2 PUSH1 0x20 ADD SWAP2 PUSH2 0x1930 JUMP JUMPDEST DUP3 ADD SWAP2 SWAP1 PUSH1 0x0 MSTORE PUSH1 0x20 PUSH1 0x0 KECCAK256 SWAP1 JUMPDEST DUP2 SLOAD DUP2 MSTORE SWAP1 PUSH1 0x1 ADD SWAP1 PUSH1 0x20 ADD DUP1 DUP4 GT PUSH2 0x1913 JUMPI DUP3 SWAP1 SUB PUSH1 0x1F AND DUP3 ADD SWAP2 JUMPDEST POP POP POP POP POP SWAP1 POP SWAP1 JUMP JUMPDEST PUSH1 0x0 PUSH1 0x1 PUSH1 0x0 DUP5 PUSH20 0xFFFFFFFFFFFFFFFFFFFFFFFFFFFFFFFFFFFFFFFF AND PUSH20 0xFFFFFFFFFFFFFFFFFFFFFFFFFFFFFFFFFFFFFFFF AND DUP2 MSTORE PUSH1 0x20 ADD SWAP1 DUP2 MSTORE PUSH1 0x20 ADD PUSH1 0x0 KECCAK256 PUSH1 0x0 DUP4 PUSH20 0xFFFFFFFFFFFFFFFFFFFFFFFFFFFFFFFFFFFFFFFF AND PUSH20 0xFFFFFFFFFFFFFFFFFFFFFFFFFFFFFFFFFFFFFFFF AND DUP2 MSTORE PUSH1 0x20 ADD SWAP1 DUP2 MSTORE PUSH1 0x20 ADD PUSH1 0x0 KECCAK256 PUSH1 0x0 SWAP1 SLOAD SWAP1 PUSH2 0x100 EXP SWAP1 DIV PUSH1 0xFF AND SWAP1 POP SWAP3 SWAP2 POP POP JUMP JUMPDEST PUSH2 0x19D6 PUSH2 0x1F8A JUMP JUMPDEST PUSH20 0xFFFFFFFFFFFFFFFFFFFFFFFFFFFFFFFFFFFFFFFF AND DUP6 PUSH20 0xFFFFFFFFFFFFFFFFFFFFFFFFFFFFFFFFFFFFFFFF AND EQ DUP1 PUSH2 0x1A1C JUMPI POP PUSH2 0x1A1B DUP6 PUSH2 0x1A16 PUSH2 0x1F8A JUMP JUMPDEST PUSH2 0x193A JUMP JUMPDEST JUMPDEST PUSH2 0x1A5B JUMPI PUSH1 0x40 MLOAD PUSH32 0x8C379A000000000000000000000000000000000000000000000000000000000 DUP2 MSTORE PUSH1 0x4 ADD PUSH2 0x1A52 SWAP1 PUSH2 0x49DB JUMP JUMPDEST PUSH1 0x40 MLOAD DUP1 SWAP2 SUB SWAP1 REVERT JUMPDEST PUSH2 0x1A68 DUP6 DUP6 DUP6 DUP6 DUP6 PUSH2 0x273B JUMP JUMPDEST POP POP POP POP POP JUMP JUMPDEST PUSH2 0x1A7C PUSH1 0x0 DUP1 SHL CALLER PUSH2 0x1388 JUMP JUMPDEST PUSH2 0x1ABB JUMPI PUSH1 0x40 MLOAD PUSH32 0x8C379A000000000000000000000000000000000000000000000000000000000 DUP2 MSTORE PUSH1 0x4 ADD PUSH2 0x1AB2 SWAP1 PUSH2 0x451B JUMP JUMPDEST PUSH1 0x40 MLOAD DUP1 SWAP2 SUB SWAP1 REVERT JUMPDEST PUSH1 0x0 DUP3 SWAP1 POP DUP1 PUSH20 0xFFFFFFFFFFFFFFFFFFFFFFFFFFFFFFFFFFFFFFFF AND PUSH4 0x42842E0E ADDRESS CALLER DUP6 PUSH1 0x40 MLOAD DUP5 PUSH4 0xFFFFFFFF AND PUSH1 0xE0 SHL DUP2 MSTORE PUSH1 0x4 ADD PUSH2 0x1AFD SWAP4 SWAP3 SWAP2 SWAP1 PUSH2 0x49FB JUMP JUMPDEST PUSH1 0x0 PUSH1 0x40 MLOAD DUP1 DUP4 SUB DUP2 PUSH1 0x0 DUP8 DUP1 EXTCODESIZE ISZERO DUP1 ISZERO PUSH2 0x1B17 JUMPI PUSH1 0x0 DUP1 REVERT JUMPDEST POP GAS CALL ISZERO DUP1 ISZERO PUSH2 0x1B2B JUMPI RETURNDATASIZE PUSH1 0x0 DUP1 RETURNDATACOPY RETURNDATASIZE PUSH1 0x0 REVERT JUMPDEST POP POP POP POP POP POP POP JUMP JUMPDEST PUSH1 0x0 PUSH32 0x7965DB0B00000000000000000000000000000000000000000000000000000000 PUSH28 0xFFFFFFFFFFFFFFFFFFFFFFFFFFFFFFFFFFFFFFFFFFFFFFFFFFFFFFFF NOT AND DUP3 PUSH28 0xFFFFFFFFFFFFFFFFFFFFFFFFFFFFFFFFFFFFFFFFFFFFFFFFFFFFFFFF NOT AND EQ DUP1 PUSH2 0x1BA7 JUMPI POP PUSH2 0x1BA6 DUP3 PUSH2 0x29D6 JUMP JUMPDEST JUMPDEST SWAP1 POP SWAP2 SWAP1 POP JUMP JUMPDEST PUSH1 0x0 PUSH20 0xFFFFFFFFFFFFFFFFFFFFFFFFFFFFFFFFFFFFFFFF AND DUP5 PUSH20 0xFFFFFFFFFFFFFFFFFFFFFFFFFFFFFFFFFFFFFFFF AND SUB PUSH2 0x1C1D JUMPI PUSH1 0x40 MLOAD PUSH32 0x8C379A000000000000000000000000000000000000000000000000000000000 DUP2 MSTORE PUSH1 0x4 ADD PUSH2 0x1C14 SWAP1 PUSH2 0x4AA4 JUMP JUMPDEST PUSH1 0x40 MLOAD DUP1 SWAP2 SUB SWAP1 REVERT JUMPDEST DUP2 MLOAD DUP4 MLOAD EQ PUSH2 0x1C61 JUMPI PUSH1 0x40 MLOAD PUSH32 0x8C379A000000000000000000000000000000000000000000000000000000000 DUP2 MSTORE PUSH1 0x4 ADD PUSH2 0x1C58 SWAP1 PUSH2 0x4B36 JUMP JUMPDEST PUSH1 0x40 MLOAD DUP1 SWAP2 SUB SWAP1 REVERT JUMPDEST PUSH1 0x0 PUSH2 0x1C6B PUSH2 0x1F8A JUMP JUMPDEST SWAP1 POP PUSH2 0x1C7C DUP2 PUSH1 0x0 DUP8 DUP8 DUP8 DUP8 PUSH2 0x2AB8 JUMP JUMPDEST PUSH1 0x0 JUMPDEST DUP5 MLOAD DUP2 LT ISZERO PUSH2 0x1D35 JUMPI DUP4 DUP2 DUP2 MLOAD DUP2 LT PUSH2 0x1C9B JUMPI PUSH2 0x1C9A PUSH2 0x475D JUMP JUMPDEST JUMPDEST PUSH1 0x20 MUL PUSH1 0x20 ADD ADD MLOAD PUSH1 0x0 DUP1 DUP8 DUP5 DUP2 MLOAD DUP2 LT PUSH2 0x1CB9 JUMPI PUSH2 0x1CB8 PUSH2 0x475D JUMP JUMPDEST JUMPDEST PUSH1 0x20 MUL PUSH1 0x20 ADD ADD MLOAD DUP2 MSTORE PUSH1 0x20 ADD SWAP1 DUP2 MSTORE PUSH1 0x20 ADD PUSH1 0x0 KECCAK256 PUSH1 0x0 DUP9 PUSH20 0xFFFFFFFFFFFFFFFFFFFFFFFFFFFFFFFFFFFFFFFF AND PUSH20 0xFFFFFFFFFFFFFFFFFFFFFFFFFFFFFFFFFFFFFFFF AND DUP2 MSTORE PUSH1 0x20 ADD SWAP1 DUP2 MSTORE PUSH1 0x20 ADD PUSH1 0x0 KECCAK256 PUSH1 0x0 DUP3 DUP3 SLOAD PUSH2 0x1D1B SWAP2 SWAP1 PUSH2 0x4B56 JUMP JUMPDEST SWAP3 POP POP DUP2 SWAP1 SSTORE POP DUP1 DUP1 PUSH2 0x1D2D SWAP1 PUSH2 0x478C JUMP JUMPDEST SWAP2 POP POP PUSH2 0x1C7F JUMP JUMPDEST POP DUP5 PUSH20 0xFFFFFFFFFFFFFFFFFFFFFFFFFFFFFFFFFFFFFFFF AND PUSH1 0x0 PUSH20 0xFFFFFFFFFFFFFFFFFFFFFFFFFFFFFFFFFFFFFFFF AND DUP3 PUSH20 0xFFFFFFFFFFFFFFFFFFFFFFFFFFFFFFFFFFFFFFFF AND PUSH32 0x4A39DC06D4C0DBC64B70AF90FD698A233A518AA5D07E595D983B8C0526C8F7FB DUP8 DUP8 PUSH1 0x40 MLOAD PUSH2 0x1DAD SWAP3 SWAP2 SWAP1 PUSH2 0x4BAC JUMP JUMPDEST PUSH1 0x40 MLOAD DUP1 SWAP2 SUB SWAP1 LOG4 PUSH2 0x1DC4 DUP2 PUSH1 0x0 DUP8 DUP8 DUP8 DUP8 PUSH2 0x2ACE JUMP JUMPDEST PUSH2 0x1DD3 DUP2 PUSH1 0x0 DUP8 DUP8 DUP8 DUP8 PUSH2 0x2AD6 JUMP JUMPDEST POP POP POP POP POP JUMP JUMPDEST PUSH1 0x0 PUSH20 0xFFFFFFFFFFFFFFFFFFFFFFFFFFFFFFFFFFFFFFFF AND DUP5 PUSH20 0xFFFFFFFFFFFFFFFFFFFFFFFFFFFFFFFFFFFFFFFF AND SUB PUSH2 0x1E49 JUMPI PUSH1 0x40 MLOAD PUSH32 0x8C379A000000000000000000000000000000000000000000000000000000000 DUP2 MSTORE PUSH1 0x4 ADD PUSH2 0x1E40 SWAP1 PUSH2 0x4AA4 JUMP JUMPDEST PUSH1 0x40 MLOAD DUP1 SWAP2 SUB SWAP1 REVERT JUMPDEST PUSH1 0x0 PUSH2 0x1E53 PUSH2 0x1F8A JUMP JUMPDEST SWAP1 POP PUSH1 0x0 PUSH2 0x1E60 DUP6 PUSH2 0x2CAD JUMP JUMPDEST SWAP1 POP PUSH1 0x0 PUSH2 0x1E6D DUP6 PUSH2 0x2CAD JUMP JUMPDEST SWAP1 POP PUSH2 0x1E7E DUP4 PUSH1 0x0 DUP10 DUP6 DUP6 DUP10 PUSH2 0x2AB8 JUMP JUMPDEST DUP5 PUSH1 0x0 DUP1 DUP9 DUP2 MSTORE PUSH1 0x20 ADD SWAP1 DUP2 MSTORE PUSH1 0x20 ADD PUSH1 0x0 KECCAK256 PUSH1 0x0 DUP10 PUSH20 0xFFFFFFFFFFFFFFFFFFFFFFFFFFFFFFFFFFFFFFFF AND PUSH20 0xFFFFFFFFFFFFFFFFFFFFFFFFFFFFFFFFFFFFFFFF AND DUP2 MSTORE PUSH1 0x20 ADD SWAP1 DUP2 MSTORE PUSH1 0x20 ADD PUSH1 0x0 KECCAK256 PUSH1 0x0 DUP3 DUP3 SLOAD PUSH2 0x1EDD SWAP2 SWAP1 PUSH2 0x4B56 JUMP JUMPDEST SWAP3 POP POP DUP2 SWAP1 SSTORE POP DUP7 PUSH20 0xFFFFFFFFFFFFFFFFFFFFFFFFFFFFFFFFFFFFFFFF AND PUSH1 0x0 PUSH20 0xFFFFFFFFFFFFFFFFFFFFFFFFFFFFFFFFFFFFFFFF AND DUP5 PUSH20 0xFFFFFFFFFFFFFFFFFFFFFFFFFFFFFFFFFFFFFFFF AND PUSH32 0xC3D58168C5AE7397731D063D5BBF3D657854427343F4C083240F7AACAA2D0F62 DUP10 DUP10 PUSH1 0x40 MLOAD PUSH2 0x1F5B SWAP3 SWAP2 SWAP1 PUSH2 0x4BE3 JUMP JUMPDEST PUSH1 0x40 MLOAD DUP1 SWAP2 SUB SWAP1 LOG4 PUSH2 0x1F72 DUP4 PUSH1 0x0 DUP10 DUP6 DUP6 DUP10 PUSH2 0x2ACE JUMP JUMPDEST PUSH2 0x1F81 DUP4 PUSH1 0x0 DUP10 DUP10 DUP10 DUP10 PUSH2 0x2D27 JUMP JUMPDEST POP POP POP POP POP POP POP JUMP JUMPDEST PUSH1 0x0 CALLER SWAP1 POP SWAP1 JUMP JUMPDEST DUP2 MLOAD DUP4 MLOAD EQ PUSH2 0x1FD6 JUMPI PUSH1 0x40 MLOAD PUSH32 0x8C379A000000000000000000000000000000000000000000000000000000000 DUP2 MSTORE PUSH1 0x4 ADD PUSH2 0x1FCD SWAP1 PUSH2 0x4B36 JUMP JUMPDEST PUSH1 0x40 MLOAD DUP1 SWAP2 SUB SWAP1 REVERT JUMPDEST PUSH1 0x0 PUSH20 0xFFFFFFFFFFFFFFFFFFFFFFFFFFFFFFFFFFFFFFFF AND DUP5 PUSH20 0xFFFFFFFFFFFFFFFFFFFFFFFFFFFFFFFFFFFFFFFF AND SUB PUSH2 0x2045 JUMPI PUSH1 0x40 MLOAD PUSH32 0x8C379A000000000000000000000000000000000000000000000000000000000 DUP2 MSTORE PUSH1 0x4 ADD PUSH2 0x203C SWAP1 PUSH2 0x4C7E JUMP JUMPDEST PUSH1 0x40 MLOAD DUP1 SWAP2 SUB SWAP1 REVERT JUMPDEST PUSH1 0x0 PUSH2 0x204F PUSH2 0x1F8A JUMP JUMPDEST SWAP1 POP PUSH2 0x205F DUP2 DUP8 DUP8 DUP8 DUP8 DUP8 PUSH2 0x2AB8 JUMP JUMPDEST PUSH1 0x0 JUMPDEST DUP5 MLOAD DUP2 LT ISZERO PUSH2 0x2210 JUMPI PUSH1 0x0 DUP6 DUP3 DUP2 MLOAD DUP2 LT PUSH2 0x2080 JUMPI PUSH2 0x207F PUSH2 0x475D JUMP JUMPDEST JUMPDEST PUSH1 0x20 MUL PUSH1 0x20 ADD ADD MLOAD SWAP1 POP PUSH1 0x0 DUP6 DUP4 DUP2 MLOAD DUP2 LT PUSH2 0x209F JUMPI PUSH2 0x209E PUSH2 0x475D JUMP JUMPDEST JUMPDEST PUSH1 0x20 MUL PUSH1 0x20 ADD ADD MLOAD SWAP1 POP PUSH1 0x0 DUP1 PUSH1 0x0 DUP5 DUP2 MSTORE PUSH1 0x20 ADD SWAP1 DUP2 MSTORE PUSH1 0x20 ADD PUSH1 0x0 KECCAK256 PUSH1 0x0 DUP12 PUSH20 0xFFFFFFFFFFFFFFFFFFFFFFFFFFFFFFFFFFFFFFFF AND PUSH20 0xFFFFFFFFFFFFFFFFFFFFFFFFFFFFFFFFFFFFFFFF AND DUP2 MSTORE PUSH1 0x20 ADD SWAP1 DUP2 MSTORE PUSH1 0x20 ADD PUSH1 0x0 KECCAK256 SLOAD SWAP1 POP DUP2 DUP2 LT ISZERO PUSH2 0x2140 JUMPI PUSH1 0x40 MLOAD PUSH32 0x8C379A000000000000000000000000000000000000000000000000000000000 DUP2 MSTORE PUSH1 0x4 ADD PUSH2 0x2137 SWAP1 PUSH2 0x4D10 JUMP JUMPDEST PUSH1 0x40 MLOAD DUP1 SWAP2 SUB SWAP1 REVERT JUMPDEST DUP2 DUP2 SUB PUSH1 0x0 DUP1 DUP6 DUP2 MSTORE PUSH1 0x20 ADD SWAP1 DUP2 MSTORE PUSH1 0x20 ADD PUSH1 0x0 KECCAK256 PUSH1 0x0 DUP13 PUSH20 0xFFFFFFFFFFFFFFFFFFFFFFFFFFFFFFFFFFFFFFFF AND PUSH20 0xFFFFFFFFFFFFFFFFFFFFFFFFFFFFFFFFFFFFFFFF AND DUP2 MSTORE PUSH1 0x20 ADD SWAP1 DUP2 MSTORE PUSH1 0x20 ADD PUSH1 0x0 KECCAK256 DUP2 SWAP1 SSTORE POP DUP2 PUSH1 0x0 DUP1 DUP6 DUP2 MSTORE PUSH1 0x20 ADD SWAP1 DUP2 MSTORE PUSH1 0x20 ADD PUSH1 0x0 KECCAK256 PUSH1 0x0 DUP12 PUSH20 0xFFFFFFFFFFFFFFFFFFFFFFFFFFFFFFFFFFFFFFFF AND PUSH20 0xFFFFFFFFFFFFFFFFFFFFFFFFFFFFFFFFFFFFFFFF AND DUP2 MSTORE PUSH1 0x20 ADD SWAP1 DUP2 MSTORE PUSH1 0x20 ADD PUSH1 0x0 KECCAK256 PUSH1 0x0 DUP3 DUP3 SLOAD PUSH2 0x21F5 SWAP2 SWAP1 PUSH2 0x4B56 JUMP JUMPDEST SWAP3 POP POP DUP2 SWAP1 SSTORE POP POP POP POP DUP1 PUSH2 0x2209 SWAP1 PUSH2 0x478C JUMP JUMPDEST SWAP1 POP PUSH2 0x2062 JUMP JUMPDEST POP DUP5 PUSH20 0xFFFFFFFFFFFFFFFFFFFFFFFFFFFFFFFFFFFFFFFF AND DUP7 PUSH20 0xFFFFFFFFFFFFFFFFFFFFFFFFFFFFFFFFFFFFFFFF AND DUP3 PUSH20 0xFFFFFFFFFFFFFFFFFFFFFFFFFFFFFFFFFFFFFFFF AND PUSH32 0x4A39DC06D4C0DBC64B70AF90FD698A233A518AA5D07E595D983B8C0526C8F7FB DUP8 DUP8 PUSH1 0x40 MLOAD PUSH2 0x2287 SWAP3 SWAP2 SWAP1 PUSH2 0x4BAC JUMP JUMPDEST PUSH1 0x40 MLOAD DUP1 SWAP2 SUB SWAP1 LOG4 PUSH2 0x229D DUP2 DUP8 DUP8 DUP8 DUP8 DUP8 PUSH2 0x2ACE JUMP JUMPDEST PUSH2 0x22AB DUP2 DUP8 DUP8 DUP8 DUP8 DUP8 PUSH2 0x2AD6 JUMP JUMPDEST POP POP POP POP POP POP JUMP JUMPDEST PUSH2 0x22C4 DUP2 PUSH2 0x22BF PUSH2 0x1F8A JUMP JUMPDEST PUSH2 0x2EFE JUMP JUMPDEST POP JUMP JUMPDEST PUSH2 0x22D1 DUP3 DUP3 PUSH2 0x1388 JUMP JUMPDEST PUSH2 0x23A4 JUMPI PUSH1 0x1 PUSH1 0x3 PUSH1 0x0 DUP5 DUP2 MSTORE PUSH1 0x20 ADD SWAP1 DUP2 MSTORE PUSH1 0x20 ADD PUSH1 0x0 KECCAK256 PUSH1 0x0 ADD PUSH1 0x0 DUP4 PUSH20 0xFFFFFFFFFFFFFFFFFFFFFFFFFFFFFFFFFFFFFFFF AND PUSH20 0xFFFFFFFFFFFFFFFFFFFFFFFFFFFFFFFFFFFFFFFF AND DUP2 MSTORE PUSH1 0x20 ADD SWAP1 DUP2 MSTORE PUSH1 0x20 ADD PUSH1 0x0 KECCAK256 PUSH1 0x0 PUSH2 0x100 EXP DUP2 SLOAD DUP2 PUSH1 0xFF MUL NOT AND SWAP1 DUP4 ISZERO ISZERO MUL OR SWAP1 SSTORE POP PUSH2 0x2349 PUSH2 0x1F8A JUMP JUMPDEST PUSH20 0xFFFFFFFFFFFFFFFFFFFFFFFFFFFFFFFFFFFFFFFF AND DUP2 PUSH20 0xFFFFFFFFFFFFFFFFFFFFFFFFFFFFFFFFFFFFFFFF AND DUP4 PUSH32 0x2F8788117E7EFF1D82E926EC794901D17C78024A50270940304540A733656F0D PUSH1 0x40 MLOAD PUSH1 0x40 MLOAD DUP1 SWAP2 SUB SWAP1 LOG4 JUMPDEST POP POP JUMP JUMPDEST PUSH2 0x23B2 DUP3 DUP3 PUSH2 0x1388 JUMP JUMPDEST ISZERO PUSH2 0x2486 JUMPI PUSH1 0x0 PUSH1 0x3 PUSH1 0x0 DUP5 DUP2 MSTORE PUSH1 0x20 ADD SWAP1 DUP2 MSTORE PUSH1 0x20 ADD PUSH1 0x0 KECCAK256 PUSH1 0x0 ADD PUSH1 0x0 DUP4 PUSH20 0xFFFFFFFFFFFFFFFFFFFFFFFFFFFFFFFFFFFFFFFF AND PUSH20 0xFFFFFFFFFFFFFFFFFFFFFFFFFFFFFFFFFFFFFFFF AND DUP2 MSTORE PUSH1 0x20 ADD SWAP1 DUP2 MSTORE PUSH1 0x20 ADD PUSH1 0x0 KECCAK256 PUSH1 0x0 PUSH2 0x100 EXP DUP2 SLOAD DUP2 PUSH1 0xFF MUL NOT AND SWAP1 DUP4 ISZERO ISZERO MUL OR SWAP1 SSTORE POP PUSH2 0x242B PUSH2 0x1F8A JUMP JUMPDEST PUSH20 0xFFFFFFFFFFFFFFFFFFFFFFFFFFFFFFFFFFFFFFFF AND DUP2 PUSH20 0xFFFFFFFFFFFFFFFFFFFFFFFFFFFFFFFFFFFFFFFF AND DUP4 PUSH32 0xF6391F5C32D9C69D2A47EA670B442974B53935D1EDC7FD64EB21E047A839171B PUSH1 0x40 MLOAD PUSH1 0x40 MLOAD DUP1 SWAP2 SUB SWAP1 LOG4 JUMPDEST POP POP JUMP JUMPDEST PUSH2 0x2492 PUSH2 0x1371 JUMP JUMPDEST ISZERO PUSH2 0x24D2 JUMPI PUSH1 0x40 MLOAD PUSH32 0x8C379A000000000000000000000000000000000000000000000000000000000 DUP2 MSTORE PUSH1 0x4 ADD PUSH2 0x24C9 SWAP1 PUSH2 0x4282 JUMP JUMPDEST PUSH1 0x40 MLOAD DUP1 SWAP2 SUB SWAP1 REVERT JUMPDEST PUSH1 0x1 PUSH1 0x4 PUSH1 0x0 PUSH2 0x100 EXP DUP2 SLOAD DUP2 PUSH1 0xFF MUL NOT AND SWAP1 DUP4 ISZERO ISZERO MUL OR SWAP1 SSTORE POP PUSH32 0x62E78CEA01BEE320CD4E420270B5EA74000D11B0C9F74754EBDBFC544B05A258 PUSH2 0x2516 PUSH2 0x1F8A JUMP JUMPDEST PUSH1 0x40 MLOAD PUSH2 0x2523 SWAP2 SWAP1 PUSH2 0x4D30 JUMP JUMPDEST PUSH1 0x40 MLOAD DUP1 SWAP2 SUB SWAP1 LOG1 JUMP JUMPDEST DUP2 PUSH20 0xFFFFFFFFFFFFFFFFFFFFFFFFFFFFFFFFFFFFFFFF AND DUP4 PUSH20 0xFFFFFFFFFFFFFFFFFFFFFFFFFFFFFFFFFFFFFFFF AND SUB PUSH2 0x259B JUMPI PUSH1 0x40 MLOAD PUSH32 0x8C379A000000000000000000000000000000000000000000000000000000000 DUP2 MSTORE PUSH1 0x4 ADD PUSH2 0x2592 SWAP1 PUSH2 0x4DBD JUMP JUMPDEST PUSH1 0x40 MLOAD DUP1 SWAP2 SUB SWAP1 REVERT JUMPDEST DUP1 PUSH1 0x1 PUSH1 0x0 DUP6 PUSH20 0xFFFFFFFFFFFFFFFFFFFFFFFFFFFFFFFFFFFFFFFF AND PUSH20 0xFFFFFFFFFFFFFFFFFFFFFFFFFFFFFFFFFFFFFFFF AND DUP2 MSTORE PUSH1 0x20 ADD SWAP1 DUP2 MSTORE PUSH1 0x20 ADD PUSH1 0x0 KECCAK256 PUSH1 0x0 DUP5 PUSH20 0xFFFFFFFFFFFFFFFFFFFFFFFFFFFFFFFFFFFFFFFF AND PUSH20 0xFFFFFFFFFFFFFFFFFFFFFFFFFFFFFFFFFFFFFFFF AND DUP2 MSTORE PUSH1 0x20 ADD SWAP1 DUP2 MSTORE PUSH1 0x20 ADD PUSH1 0x0 KECCAK256 PUSH1 0x0 PUSH2 0x100 EXP DUP2 SLOAD DUP2 PUSH1 0xFF MUL NOT AND SWAP1 DUP4 ISZERO ISZERO MUL OR SWAP1 SSTORE POP DUP2 PUSH20 0xFFFFFFFFFFFFFFFFFFFFFFFFFFFFFFFFFFFFFFFF AND DUP4 PUSH20 0xFFFFFFFFFFFFFFFFFFFFFFFFFFFFFFFFFFFFFFFF AND PUSH32 0x17307EAB39AB6107E8899845AD3D59BD9653F200F220920489CA2B5937696C31 DUP4 PUSH1 0x40 MLOAD PUSH2 0x268C SWAP2 SWAP1 PUSH2 0x35A5 JUMP JUMPDEST PUSH1 0x40 MLOAD DUP1 SWAP2 SUB SWAP1 LOG3 POP POP POP JUMP JUMPDEST PUSH2 0x26A1 PUSH2 0x1371 JUMP JUMPDEST PUSH2 0x26E0 JUMPI PUSH1 0x40 MLOAD PUSH32 0x8C379A000000000000000000000000000000000000000000000000000000000 DUP2 MSTORE PUSH1 0x4 ADD PUSH2 0x26D7 SWAP1 PUSH2 0x4949 JUMP JUMPDEST PUSH1 0x40 MLOAD DUP1 SWAP2 SUB SWAP1 REVERT JUMPDEST PUSH1 0x0 PUSH1 0x4 PUSH1 0x0 PUSH2 0x100 EXP DUP2 SLOAD DUP2 PUSH1 0xFF MUL NOT AND SWAP1 DUP4 ISZERO ISZERO MUL OR SWAP1 SSTORE POP PUSH32 0x5DB9EE0A495BF2E6FF9C91A7834C1BA4FDD244A5E8AA4E537BD38AEAE4B073AA PUSH2 0x2724 PUSH2 0x1F8A JUMP JUMPDEST PUSH1 0x40 MLOAD PUSH2 0x2731 SWAP2 SWAP1 PUSH2 0x4D30 JUMP JUMPDEST PUSH1 0x40 MLOAD DUP1 SWAP2 SUB SWAP1 LOG1 JUMP JUMPDEST PUSH1 0x0 PUSH20 0xFFFFFFFFFFFFFFFFFFFFFFFFFFFFFFFFFFFFFFFF AND DUP5 PUSH20 0xFFFFFFFFFFFFFFFFFFFFFFFFFFFFFFFFFFFFFFFF AND SUB PUSH2 0x27AA JUMPI PUSH1 0x40 MLOAD PUSH32 0x8C379A000000000000000000000000000000000000000000000000000000000 DUP2 MSTORE PUSH1 0x4 ADD PUSH2 0x27A1 SWAP1 PUSH2 0x4C7E JUMP JUMPDEST PUSH1 0x40 MLOAD DUP1 SWAP2 SUB SWAP1 REVERT JUMPDEST PUSH1 0x0 PUSH2 0x27B4 PUSH2 0x1F8A JUMP JUMPDEST SWAP1 POP PUSH1 0x0 PUSH2 0x27C1 DUP6 PUSH2 0x2CAD JUMP JUMPDEST SWAP1 POP PUSH1 0x0 PUSH2 0x27CE DUP6 PUSH2 0x2CAD JUMP JUMPDEST SWAP1 POP PUSH2 0x27DE DUP4 DUP10 DUP10 DUP6 DUP6 DUP10 PUSH2 0x2AB8 JUMP JUMPDEST PUSH1 0x0 DUP1 PUSH1 0x0 DUP9 DUP2 MSTORE PUSH1 0x20 ADD SWAP1 DUP2 MSTORE PUSH1 0x20 ADD PUSH1 0x0 KECCAK256 PUSH1 0x0 DUP11 PUSH20 0xFFFFFFFFFFFFFFFFFFFFFFFFFFFFFFFFFFFFFFFF AND PUSH20 0xFFFFFFFFFFFFFFFFFFFFFFFFFFFFFFFFFFFFFFFF AND DUP2 MSTORE PUSH1 0x20 ADD SWAP1 DUP2 MSTORE PUSH1 0x20 ADD PUSH1 0x0 KECCAK256 SLOAD SWAP1 POP DUP6 DUP2 LT ISZERO PUSH2 0x2875 JUMPI PUSH1 0x40 MLOAD PUSH32 0x8C379A000000000000000000000000000000000000000000000000000000000 DUP2 MSTORE PUSH1 0x4 ADD PUSH2 0x286C SWAP1 PUSH2 0x4D10 JUMP JUMPDEST PUSH1 0x40 MLOAD DUP1 SWAP2 SUB SWAP1 REVERT JUMPDEST DUP6 DUP2 SUB PUSH1 0x0 DUP1 DUP10 DUP2 MSTORE PUSH1 0x20 ADD SWAP1 DUP2 MSTORE PUSH1 0x20 ADD PUSH1 0x0 KECCAK256 PUSH1 0x0 DUP12 PUSH20 0xFFFFFFFFFFFFFFFFFFFFFFFFFFFFFFFFFFFFFFFF AND PUSH20 0xFFFFFFFFFFFFFFFFFFFFFFFFFFFFFFFFFFFFFFFF AND DUP2 MSTORE PUSH1 0x20 ADD SWAP1 DUP2 MSTORE PUSH1 0x20 ADD PUSH1 0x0 KECCAK256 DUP2 SWAP1 SSTORE POP DUP6 PUSH1 0x0 DUP1 DUP10 DUP2 MSTORE PUSH1 0x20 ADD SWAP1 DUP2 MSTORE PUSH1 0x20 ADD PUSH1 0x0 KECCAK256 PUSH1 0x0 DUP11 PUSH20 0xFFFFFFFFFFFFFFFFFFFFFFFFFFFFFFFFFFFFFFFF AND PUSH20 0xFFFFFFFFFFFFFFFFFFFFFFFFFFFFFFFFFFFFFFFF AND DUP2 MSTORE PUSH1 0x20 ADD SWAP1 DUP2 MSTORE PUSH1 0x20 ADD PUSH1 0x0 KECCAK256 PUSH1 0x0 DUP3 DUP3 SLOAD PUSH2 0x292A SWAP2 SWAP1 PUSH2 0x4B56 JUMP JUMPDEST SWAP3 POP POP DUP2 SWAP1 SSTORE POP DUP8 PUSH20 0xFFFFFFFFFFFFFFFFFFFFFFFFFFFFFFFFFFFFFFFF AND DUP10 PUSH20 0xFFFFFFFFFFFFFFFFFFFFFFFFFFFFFFFFFFFFFFFF AND DUP6 PUSH20 0xFFFFFFFFFFFFFFFFFFFFFFFFFFFFFFFFFFFFFFFF AND PUSH32 0xC3D58168C5AE7397731D063D5BBF3D657854427343F4C083240F7AACAA2D0F62 DUP11 DUP11 PUSH1 0x40 MLOAD PUSH2 0x29A7 SWAP3 SWAP2 SWAP1 PUSH2 0x4BE3 JUMP JUMPDEST PUSH1 0x40 MLOAD DUP1 SWAP2 SUB SWAP1 LOG4 PUSH2 0x29BD DUP5 DUP11 DUP11 DUP7 DUP7 DUP11 PUSH2 0x2ACE JUMP JUMPDEST PUSH2 0x29CB DUP5 DUP11 DUP11 DUP11 DUP11 DUP11 PUSH2 0x2D27 JUMP JUMPDEST POP POP POP POP POP POP POP POP POP JUMP JUMPDEST PUSH1 0x0 PUSH32 0xD9B67A2600000000000000000000000000000000000000000000000000000000 PUSH28 0xFFFFFFFFFFFFFFFFFFFFFFFFFFFFFFFFFFFFFFFFFFFFFFFFFFFFFFFF NOT AND DUP3 PUSH28 0xFFFFFFFFFFFFFFFFFFFFFFFFFFFFFFFFFFFFFFFFFFFFFFFFFFFFFFFF NOT AND EQ DUP1 PUSH2 0x2AA1 JUMPI POP PUSH32 0xE89341C00000000000000000000000000000000000000000000000000000000 PUSH28 0xFFFFFFFFFFFFFFFFFFFFFFFFFFFFFFFFFFFFFFFFFFFFFFFFFFFFFFFF NOT AND DUP3 PUSH28 0xFFFFFFFFFFFFFFFFFFFFFFFFFFFFFFFFFFFFFFFFFFFFFFFFFFFFFFFF NOT AND EQ JUMPDEST DUP1 PUSH2 0x2AB1 JUMPI POP PUSH2 0x2AB0 DUP3 PUSH2 0x2F9B JUMP JUMPDEST JUMPDEST SWAP1 POP SWAP2 SWAP1 POP JUMP JUMPDEST PUSH2 0x2AC6 DUP7 DUP7 DUP7 DUP7 DUP7 DUP7 PUSH2 0x3005 JUMP JUMPDEST POP POP POP POP POP POP JUMP JUMPDEST POP POP POP POP POP POP JUMP JUMPDEST PUSH2 0x2AF5 DUP5 PUSH20 0xFFFFFFFFFFFFFFFFFFFFFFFFFFFFFFFFFFFFFFFF AND PUSH2 0x3063 JUMP JUMPDEST ISZERO PUSH2 0x2CA5 JUMPI DUP4 PUSH20 0xFFFFFFFFFFFFFFFFFFFFFFFFFFFFFFFFFFFFFFFF AND PUSH4 0xBC197C81 DUP8 DUP8 DUP7 DUP7 DUP7 PUSH1 0x40 MLOAD DUP7 PUSH4 0xFFFFFFFF AND PUSH1 0xE0 SHL DUP2 MSTORE PUSH1 0x4 ADD PUSH2 0x2B3B SWAP6 SWAP5 SWAP4 SWAP3 SWAP2 SWAP1 PUSH2 0x4DDD JUMP JUMPDEST PUSH1 0x20 PUSH1 0x40 MLOAD DUP1 DUP4 SUB DUP2 PUSH1 0x0 DUP8 GAS CALL SWAP3 POP POP POP DUP1 ISZERO PUSH2 0x2B77 JUMPI POP PUSH1 0x40 MLOAD RETURNDATASIZE PUSH1 0x1F NOT PUSH1 0x1F DUP3 ADD AND DUP3 ADD DUP1 PUSH1 0x40 MSTORE POP DUP2 ADD SWAP1 PUSH2 0x2B74 SWAP2 SWAP1 PUSH2 0x4E5A JUMP JUMPDEST PUSH1 0x1 JUMPDEST PUSH2 0x2C1C JUMPI PUSH2 0x2B83 PUSH2 0x4E94 JUMP JUMPDEST DUP1 PUSH4 0x8C379A0 SUB PUSH2 0x2BDF JUMPI POP PUSH2 0x2B97 PUSH2 0x4EB6 JUMP JUMPDEST DUP1 PUSH2 0x2BA2 JUMPI POP PUSH2 0x2BE1 JUMP JUMPDEST DUP1 PUSH1 0x40 MLOAD PUSH32 0x8C379A000000000000000000000000000000000000000000000000000000000 DUP2 MSTORE PUSH1 0x4 ADD PUSH2 0x2BD6 SWAP2 SWAP1 PUSH2 0x3780 JUMP JUMPDEST PUSH1 0x40 MLOAD DUP1 SWAP2 SUB SWAP1 REVERT JUMPDEST POP JUMPDEST PUSH1 0x40 MLOAD PUSH32 0x8C379A000000000000000000000000000000000000000000000000000000000 DUP2 MSTORE PUSH1 0x4 ADD PUSH2 0x2C13 SWAP1 PUSH2 0x4FB8 JUMP JUMPDEST PUSH1 0x40 MLOAD DUP1 SWAP2 SUB SWAP1 REVERT JUMPDEST PUSH4 0xBC197C81 PUSH1 0xE0 SHL PUSH28 0xFFFFFFFFFFFFFFFFFFFFFFFFFFFFFFFFFFFFFFFFFFFFFFFFFFFFFFFF NOT AND DUP2 PUSH28 0xFFFFFFFFFFFFFFFFFFFFFFFFFFFFFFFFFFFFFFFFFFFFFFFFFFFFFFFF NOT AND EQ PUSH2 0x2CA3 JUMPI PUSH1 0x40 MLOAD PUSH32 0x8C379A000000000000000000000000000000000000000000000000000000000 DUP2 MSTORE PUSH1 0x4 ADD PUSH2 0x2C9A SWAP1 PUSH2 0x504A JUMP JUMPDEST PUSH1 0x40 MLOAD DUP1 SWAP2 SUB SWAP1 REVERT JUMPDEST POP JUMPDEST POP POP POP POP POP POP JUMP JUMPDEST PUSH1 0x60 PUSH1 0x0 PUSH1 0x1 PUSH8 0xFFFFFFFFFFFFFFFF DUP2 GT ISZERO PUSH2 0x2CCC JUMPI PUSH2 0x2CCB PUSH2 0x3882 JUMP JUMPDEST JUMPDEST PUSH1 0x40 MLOAD SWAP1 DUP1 DUP3 MSTORE DUP1 PUSH1 0x20 MUL PUSH1 0x20 ADD DUP3 ADD PUSH1 0x40 MSTORE DUP1 ISZERO PUSH2 0x2CFA JUMPI DUP2 PUSH1 0x20 ADD PUSH1 0x20 DUP3 MUL DUP1 CALLDATASIZE DUP4 CALLDATACOPY DUP1 DUP3 ADD SWAP2 POP POP SWAP1 POP JUMPDEST POP SWAP1 POP DUP3 DUP2 PUSH1 0x0 DUP2 MLOAD DUP2 LT PUSH2 0x2D12 JUMPI PUSH2 0x2D11 PUSH2 0x475D JUMP JUMPDEST JUMPDEST PUSH1 0x20 MUL PUSH1 0x20 ADD ADD DUP2 DUP2 MSTORE POP POP DUP1 SWAP2 POP POP SWAP2 SWAP1 POP JUMP JUMPDEST PUSH2 0x2D46 DUP5 PUSH20 0xFFFFFFFFFFFFFFFFFFFFFFFFFFFFFFFFFFFFFFFF AND PUSH2 0x3063 JUMP JUMPDEST ISZERO PUSH2 0x2EF6 JUMPI DUP4 PUSH20 0xFFFFFFFFFFFFFFFFFFFFFFFFFFFFFFFFFFFFFFFF AND PUSH4 0xF23A6E61 DUP8 DUP8 DUP7 DUP7 DUP7 PUSH1 0x40 MLOAD DUP7 PUSH4 0xFFFFFFFF AND PUSH1 0xE0 SHL DUP2 MSTORE PUSH1 0x4 ADD PUSH2 0x2D8C SWAP6 SWAP5 SWAP4 SWAP3 SWAP2 SWAP1 PUSH2 0x4838 JUMP JUMPDEST PUSH1 0x20 PUSH1 0x40 MLOAD DUP1 DUP4 SUB DUP2 PUSH1 0x0 DUP8 GAS CALL SWAP3 POP POP POP DUP1 ISZERO PUSH2 0x2DC8 JUMPI POP PUSH1 0x40 MLOAD RETURNDATASIZE PUSH1 0x1F NOT PUSH1 0x1F DUP3 ADD AND DUP3 ADD DUP1 PUSH1 0x40 MSTORE POP DUP2 ADD SWAP1 PUSH2 0x2DC5 SWAP2 SWAP1 PUSH2 0x4E5A JUMP JUMPDEST PUSH1 0x1 JUMPDEST PUSH2 0x2E6D JUMPI PUSH2 0x2DD4 PUSH2 0x4E94 JUMP JUMPDEST DUP1 PUSH4 0x8C379A0 SUB PUSH2 0x2E30 JUMPI POP PUSH2 0x2DE8 PUSH2 0x4EB6 JUMP JUMPDEST DUP1 PUSH2 0x2DF3 JUMPI POP PUSH2 0x2E32 JUMP JUMPDEST DUP1 PUSH1 0x40 MLOAD PUSH32 0x8C379A000000000000000000000000000000000000000000000000000000000 DUP2 MSTORE PUSH1 0x4 ADD PUSH2 0x2E27 SWAP2 SWAP1 PUSH2 0x3780 JUMP JUMPDEST PUSH1 0x40 MLOAD DUP1 SWAP2 SUB SWAP1 REVERT JUMPDEST POP JUMPDEST PUSH1 0x40 MLOAD PUSH32 0x8C379A000000000000000000000000000000000000000000000000000000000 DUP2 MSTORE PUSH1 0x4 ADD PUSH2 0x2E64 SWAP1 PUSH2 0x4FB8 JUMP JUMPDEST PUSH1 0x40 MLOAD DUP1 SWAP2 SUB SWAP1 REVERT JUMPDEST PUSH4 0xF23A6E61 PUSH1 0xE0 SHL PUSH28 0xFFFFFFFFFFFFFFFFFFFFFFFFFFFFFFFFFFFFFFFFFFFFFFFFFFFFFFFF NOT AND DUP2 PUSH28 0xFFFFFFFFFFFFFFFFFFFFFFFFFFFFFFFFFFFFFFFFFFFFFFFFFFFFFFFF NOT AND EQ PUSH2 0x2EF4 JUMPI PUSH1 0x40 MLOAD PUSH32 0x8C379A000000000000000000000000000000000000000000000000000000000 DUP2 MSTORE PUSH1 0x4 ADD PUSH2 0x2EEB SWAP1 PUSH2 0x504A JUMP JUMPDEST PUSH1 0x40 MLOAD DUP1 SWAP2 SUB SWAP1 REVERT JUMPDEST POP JUMPDEST POP POP POP POP POP POP JUMP JUMPDEST PUSH2 0x2F08 DUP3 DUP3 PUSH2 0x1388 JUMP JUMPDEST PUSH2 0x2F97 JUMPI PUSH2 0x2F2D DUP2 PUSH20 0xFFFFFFFFFFFFFFFFFFFFFFFFFFFFFFFFFFFFFFFF AND PUSH1 0x14 PUSH2 0x3086 JUMP JUMPDEST PUSH2 0x2F3B DUP4 PUSH1 0x0 SHR PUSH1 0x20 PUSH2 0x3086 JUMP JUMPDEST PUSH1 0x40 MLOAD PUSH1 0x20 ADD PUSH2 0x2F4C SWAP3 SWAP2 SWAP1 PUSH2 0x513E JUMP JUMPDEST PUSH1 0x40 MLOAD PUSH1 0x20 DUP2 DUP4 SUB SUB DUP2 MSTORE SWAP1 PUSH1 0x40 MSTORE PUSH1 0x40 MLOAD PUSH32 0x8C379A000000000000000000000000000000000000000000000000000000000 DUP2 MSTORE PUSH1 0x4 ADD PUSH2 0x2F8E SWAP2 SWAP1 PUSH2 0x3780 JUMP JUMPDEST PUSH1 0x40 MLOAD DUP1 SWAP2 SUB SWAP1 REVERT JUMPDEST POP POP JUMP JUMPDEST PUSH1 0x0 PUSH32 0x1FFC9A700000000000000000000000000000000000000000000000000000000 PUSH28 0xFFFFFFFFFFFFFFFFFFFFFFFFFFFFFFFFFFFFFFFFFFFFFFFFFFFFFFFF NOT AND DUP3 PUSH28 0xFFFFFFFFFFFFFFFFFFFFFFFFFFFFFFFFFFFFFFFFFFFFFFFFFFFFFFFF NOT AND EQ SWAP1 POP SWAP2 SWAP1 POP JUMP JUMPDEST PUSH2 0x3013 DUP7 DUP7 DUP7 DUP7 DUP7 DUP7 PUSH2 0x32C2 JUMP JUMPDEST PUSH2 0x301B PUSH2 0x1371 JUMP JUMPDEST ISZERO PUSH2 0x305B JUMPI PUSH1 0x40 MLOAD PUSH32 0x8C379A000000000000000000000000000000000000000000000000000000000 DUP2 MSTORE PUSH1 0x4 ADD PUSH2 0x3052 SWAP1 PUSH2 0x51EA JUMP JUMPDEST PUSH1 0x40 MLOAD DUP1 SWAP2 SUB SWAP1 REVERT JUMPDEST POP POP POP POP POP POP JUMP JUMPDEST PUSH1 0x0 DUP1 DUP3 PUSH20 0xFFFFFFFFFFFFFFFFFFFFFFFFFFFFFFFFFFFFFFFF AND EXTCODESIZE GT SWAP1 POP SWAP2 SWAP1 POP JUMP JUMPDEST PUSH1 0x60 PUSH1 0x0 PUSH1 0x2 DUP4 PUSH1 0x2 PUSH2 0x3099 SWAP2 SWAP1 PUSH2 0x4409 JUMP JUMPDEST PUSH2 0x30A3 SWAP2 SWAP1 PUSH2 0x4B56 JUMP JUMPDEST PUSH8 0xFFFFFFFFFFFFFFFF DUP2 GT ISZERO PUSH2 0x30BC JUMPI PUSH2 0x30BB PUSH2 0x3882 JUMP JUMPDEST JUMPDEST PUSH1 0x40 MLOAD SWAP1 DUP1 DUP3 MSTORE DUP1 PUSH1 0x1F ADD PUSH1 0x1F NOT AND PUSH1 0x20 ADD DUP3 ADD PUSH1 0x40 MSTORE DUP1 ISZERO PUSH2 0x30EE JUMPI DUP2 PUSH1 0x20 ADD PUSH1 0x1 DUP3 MUL DUP1 CALLDATASIZE DUP4 CALLDATACOPY DUP1 DUP3 ADD SWAP2 POP POP SWAP1 POP JUMPDEST POP SWAP1 POP PUSH32 0x3000000000000000000000000000000000000000000000000000000000000000 DUP2 PUSH1 0x0 DUP2 MLOAD DUP2 LT PUSH2 0x3126 JUMPI PUSH2 0x3125 PUSH2 0x475D JUMP JUMPDEST JUMPDEST PUSH1 0x20 ADD ADD SWAP1 PUSH31 0xFFFFFFFFFFFFFFFFFFFFFFFFFFFFFFFFFFFFFFFFFFFFFFFFFFFFFFFFFFFFFF NOT AND SWAP1 DUP2 PUSH1 0x0 BYTE SWAP1 MSTORE8 POP PUSH32 0x7800000000000000000000000000000000000000000000000000000000000000 DUP2 PUSH1 0x1 DUP2 MLOAD DUP2 LT PUSH2 0x318A JUMPI PUSH2 0x3189 PUSH2 0x475D JUMP JUMPDEST JUMPDEST PUSH1 0x20 ADD ADD SWAP1 PUSH31 0xFFFFFFFFFFFFFFFFFFFFFFFFFFFFFFFFFFFFFFFFFFFFFFFFFFFFFFFFFFFFFF NOT AND SWAP1 DUP2 PUSH1 0x0 BYTE SWAP1 MSTORE8 POP PUSH1 0x0 PUSH1 0x1 DUP5 PUSH1 0x2 PUSH2 0x31CA SWAP2 SWAP1 PUSH2 0x4409 JUMP JUMPDEST PUSH2 0x31D4 SWAP2 SWAP1 PUSH2 0x4B56 JUMP JUMPDEST SWAP1 POP JUMPDEST PUSH1 0x1 DUP2 GT ISZERO PUSH2 0x3274 JUMPI PUSH32 0x3031323334353637383961626364656600000000000000000000000000000000 PUSH1 0xF DUP7 AND PUSH1 0x10 DUP2 LT PUSH2 0x3216 JUMPI PUSH2 0x3215 PUSH2 0x475D JUMP JUMPDEST JUMPDEST BYTE PUSH1 0xF8 SHL DUP3 DUP3 DUP2 MLOAD DUP2 LT PUSH2 0x322D JUMPI PUSH2 0x322C PUSH2 0x475D JUMP JUMPDEST JUMPDEST PUSH1 0x20 ADD ADD SWAP1 PUSH31 0xFFFFFFFFFFFFFFFFFFFFFFFFFFFFFFFFFFFFFFFFFFFFFFFFFFFFFFFFFFFFFF NOT AND SWAP1 DUP2 PUSH1 0x0 BYTE SWAP1 MSTORE8 POP PUSH1 0x4 DUP6 SWAP1 SHR SWAP5 POP DUP1 PUSH2 0x326D SWAP1 PUSH2 0x520A JUMP JUMPDEST SWAP1 POP PUSH2 0x31D7 JUMP JUMPDEST POP PUSH1 0x0 DUP5 EQ PUSH2 0x32B8 JUMPI PUSH1 0x40 MLOAD PUSH32 0x8C379A000000000000000000000000000000000000000000000000000000000 DUP2 MSTORE PUSH1 0x4 ADD PUSH2 0x32AF SWAP1 PUSH2 0x527F JUMP JUMPDEST PUSH1 0x40 MLOAD DUP1 SWAP2 SUB SWAP1 REVERT JUMPDEST DUP1 SWAP2 POP POP SWAP3 SWAP2 POP POP JUMP JUMPDEST POP POP POP POP POP POP JUMP JUMPDEST DUP3 DUP1 SLOAD PUSH2 0x32D6 SWAP1 PUSH2 0x42D1 JUMP JUMPDEST SWAP1 PUSH1 0x0 MSTORE PUSH1 0x20 PUSH1 0x0 KECCAK256 SWAP1 PUSH1 0x1F ADD PUSH1 0x20 SWAP1 DIV DUP2 ADD SWAP3 DUP3 PUSH2 0x32F8 JUMPI PUSH1 0x0 DUP6 SSTORE PUSH2 0x333F JUMP JUMPDEST DUP3 PUSH1 0x1F LT PUSH2 0x3311 JUMPI DUP1 CALLDATALOAD PUSH1 0xFF NOT AND DUP4 DUP1 ADD OR DUP6 SSTORE PUSH2 0x333F JUMP JUMPDEST DUP3 DUP1 ADD PUSH1 0x1 ADD DUP6 SSTORE DUP3 ISZERO PUSH2 0x333F JUMPI SWAP2 DUP3 ADD JUMPDEST DUP3 DUP2 GT ISZERO PUSH2 0x333E JUMPI DUP3 CALLDATALOAD DUP3 SSTORE SWAP2 PUSH1 0x20 ADD SWAP2 SWAP1 PUSH1 0x1 ADD SWAP1 PUSH2 0x3323 JUMP JUMPDEST JUMPDEST POP SWAP1 POP PUSH2 0x334C SWAP2 SWAP1 PUSH2 0x33D6 JUMP JUMPDEST POP SWAP1 JUMP JUMPDEST DUP3 DUP1 SLOAD PUSH2 0x335C SWAP1 PUSH2 0x42D1 JUMP JUMPDEST SWAP1 PUSH1 0x0 MSTORE PUSH1 0x20 PUSH1 0x0 KECCAK256 SWAP1 PUSH1 0x1F ADD PUSH1 0x20 SWAP1 DIV DUP2 ADD SWAP3 DUP3 PUSH2 0x337E JUMPI PUSH1 0x0 DUP6 SSTORE PUSH2 0x33C5 JUMP JUMPDEST DUP3 PUSH1 0x1F LT PUSH2 0x3397 JUMPI DUP1 MLOAD PUSH1 0xFF NOT AND DUP4 DUP1 ADD OR DUP6 SSTORE PUSH2 0x33C5 JUMP JUMPDEST DUP3 DUP1 ADD PUSH1 0x1 ADD DUP6 SSTORE DUP3 ISZERO PUSH2 0x33C5 JUMPI SWAP2 DUP3 ADD JUMPDEST DUP3 DUP2 GT ISZERO PUSH2 0x33C4 JUMPI DUP3 MLOAD DUP3 SSTORE SWAP2 PUSH1 0x20 ADD SWAP2 SWAP1 PUSH1 0x1 ADD SWAP1 PUSH2 0x33A9 JUMP JUMPDEST JUMPDEST POP SWAP1 POP PUSH2 0x33D2 SWAP2 SWAP1 PUSH2 0x33D6 JUMP JUMPDEST POP SWAP1 JUMP JUMPDEST JUMPDEST DUP1 DUP3 GT ISZERO PUSH2 0x33EF JUMPI PUSH1 0x0 DUP2 PUSH1 0x0 SWAP1 SSTORE POP PUSH1 0x1 ADD PUSH2 0x33D7 JUMP JUMPDEST POP SWAP1 JUMP JUMPDEST PUSH1 0x0 PUSH1 0x40 MLOAD SWAP1 POP SWAP1 JUMP JUMPDEST PUSH1 0x0 DUP1 REVERT JUMPDEST PUSH1 0x0 DUP1 REVERT JUMPDEST PUSH1 0x0 PUSH20 0xFFFFFFFFFFFFFFFFFFFFFFFFFFFFFFFFFFFFFFFF DUP3 AND SWAP1 POP SWAP2 SWAP1 POP JUMP JUMPDEST PUSH1 0x0 PUSH2 0x3432 DUP3 PUSH2 0x3407 JUMP JUMPDEST SWAP1 POP SWAP2 SWAP1 POP JUMP JUMPDEST PUSH2 0x3442 DUP2 PUSH2 0x3427 JUMP JUMPDEST DUP2 EQ PUSH2 0x344D JUMPI PUSH1 0x0 DUP1 REVERT JUMPDEST POP JUMP JUMPDEST PUSH1 0x0 DUP2 CALLDATALOAD SWAP1 POP PUSH2 0x345F DUP2 PUSH2 0x3439 JUMP JUMPDEST SWAP3 SWAP2 POP POP JUMP JUMPDEST PUSH1 0x0 DUP2 SWAP1 POP SWAP2 SWAP1 POP JUMP JUMPDEST PUSH2 0x3478 DUP2 PUSH2 0x3465 JUMP JUMPDEST DUP2 EQ PUSH2 0x3483 JUMPI PUSH1 0x0 DUP1 REVERT JUMPDEST POP JUMP JUMPDEST PUSH1 0x0 DUP2 CALLDATALOAD SWAP1 POP PUSH2 0x3495 DUP2 PUSH2 0x346F JUMP JUMPDEST SWAP3 SWAP2 POP POP JUMP JUMPDEST PUSH1 0x0 DUP1 PUSH1 0x40 DUP4 DUP6 SUB SLT ISZERO PUSH2 0x34B2 JUMPI PUSH2 0x34B1 PUSH2 0x33FD JUMP JUMPDEST JUMPDEST PUSH1 0x0 PUSH2 0x34C0 DUP6 DUP3 DUP7 ADD PUSH2 0x3450 JUMP JUMPDEST SWAP3 POP POP PUSH1 0x20 PUSH2 0x34D1 DUP6 DUP3 DUP7 ADD PUSH2 0x3486 JUMP JUMPDEST SWAP2 POP POP SWAP3 POP SWAP3 SWAP1 POP JUMP JUMPDEST PUSH2 0x34E4 DUP2 PUSH2 0x3465 JUMP JUMPDEST DUP3 MSTORE POP POP JUMP JUMPDEST PUSH1 0x0 PUSH1 0x20 DUP3 ADD SWAP1 POP PUSH2 0x34FF PUSH1 0x0 DUP4 ADD DUP5 PUSH2 0x34DB JUMP JUMPDEST SWAP3 SWAP2 POP POP JUMP JUMPDEST PUSH1 0x0 PUSH32 0xFFFFFFFF00000000000000000000000000000000000000000000000000000000 DUP3 AND SWAP1 POP SWAP2 SWAP1 POP JUMP JUMPDEST PUSH2 0x353A DUP2 PUSH2 0x3505 JUMP JUMPDEST DUP2 EQ PUSH2 0x3545 JUMPI PUSH1 0x0 DUP1 REVERT JUMPDEST POP JUMP JUMPDEST PUSH1 0x0 DUP2 CALLDATALOAD SWAP1 POP PUSH2 0x3557 DUP2 PUSH2 0x3531 JUMP JUMPDEST SWAP3 SWAP2 POP POP JUMP JUMPDEST PUSH1 0x0 PUSH1 0x20 DUP3 DUP5 SUB SLT ISZERO PUSH2 0x3573 JUMPI PUSH2 0x3572 PUSH2 0x33FD JUMP JUMPDEST JUMPDEST PUSH1 0x0 PUSH2 0x3581 DUP5 DUP3 DUP6 ADD PUSH2 0x3548 JUMP JUMPDEST SWAP2 POP POP SWAP3 SWAP2 POP POP JUMP JUMPDEST PUSH1 0x0 DUP2 ISZERO ISZERO SWAP1 POP SWAP2 SWAP1 POP JUMP JUMPDEST PUSH2 0x359F DUP2 PUSH2 0x358A JUMP JUMPDEST DUP3 MSTORE POP POP JUMP JUMPDEST PUSH1 0x0 PUSH1 0x20 DUP3 ADD SWAP1 POP PUSH2 0x35BA PUSH1 0x0 DUP4 ADD DUP5 PUSH2 0x3596 JUMP JUMPDEST SWAP3 SWAP2 POP POP JUMP JUMPDEST PUSH1 0x0 DUP1 REVERT JUMPDEST PUSH1 0x0 DUP1 REVERT JUMPDEST PUSH1 0x0 DUP1 REVERT JUMPDEST PUSH1 0x0 DUP1 DUP4 PUSH1 0x1F DUP5 ADD SLT PUSH2 0x35E5 JUMPI PUSH2 0x35E4 PUSH2 0x35C0 JUMP JUMPDEST JUMPDEST DUP3 CALLDATALOAD SWAP1 POP PUSH8 0xFFFFFFFFFFFFFFFF DUP2 GT ISZERO PUSH2 0x3602 JUMPI PUSH2 0x3601 PUSH2 0x35C5 JUMP JUMPDEST JUMPDEST PUSH1 0x20 DUP4 ADD SWAP2 POP DUP4 PUSH1 0x20 DUP3 MUL DUP4 ADD GT ISZERO PUSH2 0x361E JUMPI PUSH2 0x361D PUSH2 0x35CA JUMP JUMPDEST JUMPDEST SWAP3 POP SWAP3 SWAP1 POP JUMP JUMPDEST PUSH1 0x0 DUP1 PUSH1 0x0 DUP1 PUSH1 0x0 PUSH1 0x60 DUP7 DUP9 SUB SLT ISZERO PUSH2 0x3641 JUMPI PUSH2 0x3640 PUSH2 0x33FD JUMP JUMPDEST JUMPDEST PUSH1 0x0 PUSH2 0x364F DUP9 DUP3 DUP10 ADD PUSH2 0x3450 JUMP JUMPDEST SWAP6 POP POP PUSH1 0x20 DUP7 ADD CALLDATALOAD PUSH8 0xFFFFFFFFFFFFFFFF DUP2 GT ISZERO PUSH2 0x3670 JUMPI PUSH2 0x366F PUSH2 0x3402 JUMP JUMPDEST JUMPDEST PUSH2 0x367C DUP9 DUP3 DUP10 ADD PUSH2 0x35CF JUMP JUMPDEST SWAP5 POP SWAP5 POP POP PUSH1 0x40 DUP7 ADD CALLDATALOAD PUSH8 0xFFFFFFFFFFFFFFFF DUP2 GT ISZERO PUSH2 0x369F JUMPI PUSH2 0x369E PUSH2 0x3402 JUMP JUMPDEST JUMPDEST PUSH2 0x36AB DUP9 DUP3 DUP10 ADD PUSH2 0x35CF JUMP JUMPDEST SWAP3 POP SWAP3 POP POP SWAP3 SWAP6 POP SWAP3 SWAP6 SWAP1 SWAP4 POP JUMP JUMPDEST PUSH1 0x0 PUSH1 0x20 DUP3 DUP5 SUB SLT ISZERO PUSH2 0x36D0 JUMPI PUSH2 0x36CF PUSH2 0x33FD JUMP JUMPDEST JUMPDEST PUSH1 0x0 PUSH2 0x36DE DUP5 DUP3 DUP6 ADD PUSH2 0x3486 JUMP JUMPDEST SWAP2 POP POP SWAP3 SWAP2 POP POP JUMP JUMPDEST PUSH1 0x0 DUP2 MLOAD SWAP1 POP SWAP2 SWAP1 POP JUMP JUMPDEST PUSH1 0x0 DUP3 DUP3 MSTORE PUSH1 0x20 DUP3 ADD SWAP1 POP SWAP3 SWAP2 POP POP JUMP JUMPDEST PUSH1 0x0 JUMPDEST DUP4 DUP2 LT ISZERO PUSH2 0x3721 JUMPI DUP1 DUP3 ADD MLOAD DUP2 DUP5 ADD MSTORE PUSH1 0x20 DUP2 ADD SWAP1 POP PUSH2 0x3706 JUMP JUMPDEST DUP4 DUP2 GT ISZERO PUSH2 0x3730 JUMPI PUSH1 0x0 DUP5 DUP5 ADD MSTORE JUMPDEST POP POP POP POP JUMP JUMPDEST PUSH1 0x0 PUSH1 0x1F NOT PUSH1 0x1F DUP4 ADD AND SWAP1 POP SWAP2 SWAP1 POP JUMP JUMPDEST PUSH1 0x0 PUSH2 0x3752 DUP3 PUSH2 0x36E7 JUMP JUMPDEST PUSH2 0x375C DUP2 DUP6 PUSH2 0x36F2 JUMP JUMPDEST SWAP4 POP PUSH2 0x376C DUP2 DUP6 PUSH1 0x20 DUP7 ADD PUSH2 0x3703 JUMP JUMPDEST PUSH2 0x3775 DUP2 PUSH2 0x3736 JUMP JUMPDEST DUP5 ADD SWAP2 POP POP SWAP3 SWAP2 POP POP JUMP JUMPDEST PUSH1 0x0 PUSH1 0x20 DUP3 ADD SWAP1 POP DUP2 DUP2 SUB PUSH1 0x0 DUP4 ADD MSTORE PUSH2 0x379A DUP2 DUP5 PUSH2 0x3747 JUMP JUMPDEST SWAP1 POP SWAP3 SWAP2 POP POP JUMP JUMPDEST PUSH1 0x0 DUP1 PUSH1 0x0 PUSH1 0x60 DUP5 DUP7 SUB SLT ISZERO PUSH2 0x37BB JUMPI PUSH2 0x37BA PUSH2 0x33FD JUMP JUMPDEST JUMPDEST PUSH1 0x0 PUSH2 0x37C9 DUP7 DUP3 DUP8 ADD PUSH2 0x3450 JUMP JUMPDEST SWAP4 POP POP PUSH1 0x20 PUSH2 0x37DA DUP7 DUP3 DUP8 ADD PUSH2 0x3486 JUMP JUMPDEST SWAP3 POP POP PUSH1 0x40 PUSH2 0x37EB DUP7 DUP3 DUP8 ADD PUSH2 0x3486 JUMP JUMPDEST SWAP2 POP POP SWAP3 POP SWAP3 POP SWAP3 JUMP JUMPDEST PUSH1 0x0 DUP2 SWAP1 POP SWAP2 SWAP1 POP JUMP JUMPDEST PUSH2 0x3808 DUP2 PUSH2 0x37F5 JUMP JUMPDEST DUP2 EQ PUSH2 0x3813 JUMPI PUSH1 0x0 DUP1 REVERT JUMPDEST POP JUMP JUMPDEST PUSH1 0x0 DUP2 CALLDATALOAD SWAP1 POP PUSH2 0x3825 DUP2 PUSH2 0x37FF JUMP JUMPDEST SWAP3 SWAP2 POP POP JUMP JUMPDEST PUSH1 0x0 PUSH1 0x20 DUP3 DUP5 SUB SLT ISZERO PUSH2 0x3841 JUMPI PUSH2 0x3840 PUSH2 0x33FD JUMP JUMPDEST JUMPDEST PUSH1 0x0 PUSH2 0x384F DUP5 DUP3 DUP6 ADD PUSH2 0x3816 JUMP JUMPDEST SWAP2 POP POP SWAP3 SWAP2 POP POP JUMP JUMPDEST PUSH2 0x3861 DUP2 PUSH2 0x37F5 JUMP JUMPDEST DUP3 MSTORE POP POP JUMP JUMPDEST PUSH1 0x0 PUSH1 0x20 DUP3 ADD SWAP1 POP PUSH2 0x387C PUSH1 0x0 DUP4 ADD DUP5 PUSH2 0x3858 JUMP JUMPDEST SWAP3 SWAP2 POP POP JUMP JUMPDEST PUSH32 0x4E487B7100000000000000000000000000000000000000000000000000000000 PUSH1 0x0 MSTORE PUSH1 0x41 PUSH1 0x4 MSTORE PUSH1 0x24 PUSH1 0x0 REVERT JUMPDEST PUSH2 0x38BA DUP3 PUSH2 0x3736 JUMP JUMPDEST DUP2 ADD DUP2 DUP2 LT PUSH8 0xFFFFFFFFFFFFFFFF DUP3 GT OR ISZERO PUSH2 0x38D9 JUMPI PUSH2 0x38D8 PUSH2 0x3882 JUMP JUMPDEST JUMPDEST DUP1 PUSH1 0x40 MSTORE POP POP POP JUMP JUMPDEST PUSH1 0x0 PUSH2 0x38EC PUSH2 0x33F3 JUMP JUMPDEST SWAP1 POP PUSH2 0x38F8 DUP3 DUP3 PUSH2 0x38B1 JUMP JUMPDEST SWAP2 SWAP1 POP JUMP JUMPDEST PUSH1 0x0 PUSH8 0xFFFFFFFFFFFFFFFF DUP3 GT ISZERO PUSH2 0x3918 JUMPI PUSH2 0x3917 PUSH2 0x3882 JUMP JUMPDEST JUMPDEST PUSH1 0x20 DUP3 MUL SWAP1 POP PUSH1 0x20 DUP2 ADD SWAP1 POP SWAP2 SWAP1 POP JUMP JUMPDEST PUSH1 0x0 PUSH2 0x393C PUSH2 0x3937 DUP5 PUSH2 0x38FD JUMP JUMPDEST PUSH2 0x38E2 JUMP JUMPDEST SWAP1 POP DUP1 DUP4 DUP3 MSTORE PUSH1 0x20 DUP3 ADD SWAP1 POP PUSH1 0x20 DUP5 MUL DUP4 ADD DUP6 DUP2 GT ISZERO PUSH2 0x395F JUMPI PUSH2 0x395E PUSH2 0x35CA JUMP JUMPDEST JUMPDEST DUP4 JUMPDEST DUP2 DUP2 LT ISZERO PUSH2 0x3988 JUMPI DUP1 PUSH2 0x3974 DUP9 DUP3 PUSH2 0x3486 JUMP JUMPDEST DUP5 MSTORE PUSH1 0x20 DUP5 ADD SWAP4 POP POP PUSH1 0x20 DUP2 ADD SWAP1 POP PUSH2 0x3961 JUMP JUMPDEST POP POP POP SWAP4 SWAP3 POP POP POP JUMP JUMPDEST PUSH1 0x0 DUP3 PUSH1 0x1F DUP4 ADD SLT PUSH2 0x39A7 JUMPI PUSH2 0x39A6 PUSH2 0x35C0 JUMP JUMPDEST JUMPDEST DUP2 CALLDATALOAD PUSH2 0x39B7 DUP5 DUP3 PUSH1 0x20 DUP7 ADD PUSH2 0x3929 JUMP JUMPDEST SWAP2 POP POP SWAP3 SWAP2 POP POP JUMP JUMPDEST PUSH1 0x0 DUP1 REVERT JUMPDEST PUSH1 0x0 PUSH8 0xFFFFFFFFFFFFFFFF DUP3 GT ISZERO PUSH2 0x39E0 JUMPI PUSH2 0x39DF PUSH2 0x3882 JUMP JUMPDEST JUMPDEST PUSH2 0x39E9 DUP3 PUSH2 0x3736 JUMP JUMPDEST SWAP1 POP PUSH1 0x20 DUP2 ADD SWAP1 POP SWAP2 SWAP1 POP JUMP JUMPDEST DUP3 DUP2 DUP4 CALLDATACOPY PUSH1 0x0 DUP4 DUP4 ADD MSTORE POP POP POP JUMP JUMPDEST PUSH1 0x0 PUSH2 0x3A18 PUSH2 0x3A13 DUP5 PUSH2 0x39C5 JUMP JUMPDEST PUSH2 0x38E2 JUMP JUMPDEST SWAP1 POP DUP3 DUP2 MSTORE PUSH1 0x20 DUP2 ADD DUP5 DUP5 DUP5 ADD GT ISZERO PUSH2 0x3A34 JUMPI PUSH2 0x3A33 PUSH2 0x39C0 JUMP JUMPDEST JUMPDEST PUSH2 0x3A3F DUP5 DUP3 DUP6 PUSH2 0x39F6 JUMP JUMPDEST POP SWAP4 SWAP3 POP POP POP JUMP JUMPDEST PUSH1 0x0 DUP3 PUSH1 0x1F DUP4 ADD SLT PUSH2 0x3A5C JUMPI PUSH2 0x3A5B PUSH2 0x35C0 JUMP JUMPDEST JUMPDEST DUP2 CALLDATALOAD PUSH2 0x3A6C DUP5 DUP3 PUSH1 0x20 DUP7 ADD PUSH2 0x3A05 JUMP JUMPDEST SWAP2 POP POP SWAP3 SWAP2 POP POP JUMP JUMPDEST PUSH1 0x0 DUP1 PUSH1 0x0 DUP1 PUSH1 0x0 PUSH1 0xA0 DUP7 DUP9 SUB SLT ISZERO PUSH2 0x3A91 JUMPI PUSH2 0x3A90 PUSH2 0x33FD JUMP JUMPDEST JUMPDEST PUSH1 0x0 PUSH2 0x3A9F DUP9 DUP3 DUP10 ADD PUSH2 0x3450 JUMP JUMPDEST SWAP6 POP POP PUSH1 0x20 PUSH2 0x3AB0 DUP9 DUP3 DUP10 ADD PUSH2 0x3450 JUMP JUMPDEST SWAP5 POP POP PUSH1 0x40 DUP7 ADD CALLDATALOAD PUSH8 0xFFFFFFFFFFFFFFFF DUP2 GT ISZERO PUSH2 0x3AD1 JUMPI PUSH2 0x3AD0 PUSH2 0x3402 JUMP JUMPDEST JUMPDEST PUSH2 0x3ADD DUP9 DUP3 DUP10 ADD PUSH2 0x3992 JUMP JUMPDEST SWAP4 POP POP PUSH1 0x60 DUP7 ADD CALLDATALOAD PUSH8 0xFFFFFFFFFFFFFFFF DUP2 GT ISZERO PUSH2 0x3AFE JUMPI PUSH2 0x3AFD PUSH2 0x3402 JUMP JUMPDEST JUMPDEST PUSH2 0x3B0A DUP9 DUP3 DUP10 ADD PUSH2 0x3992 JUMP JUMPDEST SWAP3 POP POP PUSH1 0x80 DUP7 ADD CALLDATALOAD PUSH8 0xFFFFFFFFFFFFFFFF DUP2 GT ISZERO PUSH2 0x3B2B JUMPI PUSH2 0x3B2A PUSH2 0x3402 JUMP JUMPDEST JUMPDEST PUSH2 0x3B37 DUP9 DUP3 DUP10 ADD PUSH2 0x3A47 JUMP JUMPDEST SWAP2 POP POP SWAP3 SWAP6 POP SWAP3 SWAP6 SWAP1 SWAP4 POP JUMP JUMPDEST PUSH1 0x0 DUP1 PUSH1 0x40 DUP4 DUP6 SUB SLT ISZERO PUSH2 0x3B5B JUMPI PUSH2 0x3B5A PUSH2 0x33FD JUMP JUMPDEST JUMPDEST PUSH1 0x0 PUSH2 0x3B69 DUP6 DUP3 DUP7 ADD PUSH2 0x3816 JUMP JUMPDEST SWAP3 POP POP PUSH1 0x20 PUSH2 0x3B7A DUP6 DUP3 DUP7 ADD PUSH2 0x3450 JUMP JUMPDEST SWAP2 POP POP SWAP3 POP SWAP3 SWAP1 POP JUMP JUMPDEST PUSH1 0x0 PUSH8 0xFFFFFFFFFFFFFFFF DUP3 GT ISZERO PUSH2 0x3B9F JUMPI PUSH2 0x3B9E PUSH2 0x3882 JUMP JUMPDEST JUMPDEST PUSH1 0x20 DUP3 MUL SWAP1 POP PUSH1 0x20 DUP2 ADD SWAP1 POP SWAP2 SWAP1 POP JUMP JUMPDEST PUSH1 0x0 PUSH2 0x3BC3 PUSH2 0x3BBE DUP5 PUSH2 0x3B84 JUMP JUMPDEST PUSH2 0x38E2 JUMP JUMPDEST SWAP1 POP DUP1 DUP4 DUP3 MSTORE PUSH1 0x20 DUP3 ADD SWAP1 POP PUSH1 0x20 DUP5 MUL DUP4 ADD DUP6 DUP2 GT ISZERO PUSH2 0x3BE6 JUMPI PUSH2 0x3BE5 PUSH2 0x35CA JUMP JUMPDEST JUMPDEST DUP4 JUMPDEST DUP2 DUP2 LT ISZERO PUSH2 0x3C0F JUMPI DUP1 PUSH2 0x3BFB DUP9 DUP3 PUSH2 0x3450 JUMP JUMPDEST DUP5 MSTORE PUSH1 0x20 DUP5 ADD SWAP4 POP POP PUSH1 0x20 DUP2 ADD SWAP1 POP PUSH2 0x3BE8 JUMP JUMPDEST POP POP POP SWAP4 SWAP3 POP POP POP JUMP JUMPDEST PUSH1 0x0 DUP3 PUSH1 0x1F DUP4 ADD SLT PUSH2 0x3C2E JUMPI PUSH2 0x3C2D PUSH2 0x35C0 JUMP JUMPDEST JUMPDEST DUP2 CALLDATALOAD PUSH2 0x3C3E DUP5 DUP3 PUSH1 0x20 DUP7 ADD PUSH2 0x3BB0 JUMP JUMPDEST SWAP2 POP POP SWAP3 SWAP2 POP POP JUMP JUMPDEST PUSH1 0x0 DUP1 PUSH1 0x40 DUP4 DUP6 SUB SLT ISZERO PUSH2 0x3C5E JUMPI PUSH2 0x3C5D PUSH2 0x33FD JUMP JUMPDEST JUMPDEST PUSH1 0x0 DUP4 ADD CALLDATALOAD PUSH8 0xFFFFFFFFFFFFFFFF DUP2 GT ISZERO PUSH2 0x3C7C JUMPI PUSH2 0x3C7B PUSH2 0x3402 JUMP JUMPDEST JUMPDEST PUSH2 0x3C88 DUP6 DUP3 DUP7 ADD PUSH2 0x3C19 JUMP JUMPDEST SWAP3 POP POP PUSH1 0x20 DUP4 ADD CALLDATALOAD PUSH8 0xFFFFFFFFFFFFFFFF DUP2 GT ISZERO PUSH2 0x3CA9 JUMPI PUSH2 0x3CA8 PUSH2 0x3402 JUMP JUMPDEST JUMPDEST PUSH2 0x3CB5 DUP6 DUP3 DUP7 ADD PUSH2 0x3992 JUMP JUMPDEST SWAP2 POP POP SWAP3 POP SWAP3 SWAP1 POP JUMP JUMPDEST PUSH1 0x0 DUP2 MLOAD SWAP1 POP SWAP2 SWAP1 POP JUMP JUMPDEST PUSH1 0x0 DUP3 DUP3 MSTORE PUSH1 0x20 DUP3 ADD SWAP1 POP SWAP3 SWAP2 POP POP JUMP JUMPDEST PUSH1 0x0 DUP2 SWAP1 POP PUSH1 0x20 DUP3 ADD SWAP1 POP SWAP2 SWAP1 POP JUMP JUMPDEST PUSH2 0x3CF4 DUP2 PUSH2 0x3465 JUMP JUMPDEST DUP3 MSTORE POP POP JUMP JUMPDEST PUSH1 0x0 PUSH2 0x3D06 DUP4 DUP4 PUSH2 0x3CEB JUMP JUMPDEST PUSH1 0x20 DUP4 ADD SWAP1 POP SWAP3 SWAP2 POP POP JUMP JUMPDEST PUSH1 0x0 PUSH1 0x20 DUP3 ADD SWAP1 POP SWAP2 SWAP1 POP JUMP JUMPDEST PUSH1 0x0 PUSH2 0x3D2A DUP3 PUSH2 0x3CBF JUMP JUMPDEST PUSH2 0x3D34 DUP2 DUP6 PUSH2 0x3CCA JUMP JUMPDEST SWAP4 POP PUSH2 0x3D3F DUP4 PUSH2 0x3CDB JUMP JUMPDEST DUP1 PUSH1 0x0 JUMPDEST DUP4 DUP2 LT ISZERO PUSH2 0x3D70 JUMPI DUP2 MLOAD PUSH2 0x3D57 DUP9 DUP3 PUSH2 0x3CFA JUMP JUMPDEST SWAP8 POP PUSH2 0x3D62 DUP4 PUSH2 0x3D12 JUMP JUMPDEST SWAP3 POP POP PUSH1 0x1 DUP2 ADD SWAP1 POP PUSH2 0x3D43 JUMP JUMPDEST POP DUP6 SWAP4 POP POP POP POP SWAP3 SWAP2 POP POP JUMP JUMPDEST PUSH1 0x0 PUSH1 0x20 DUP3 ADD SWAP1 POP DUP2 DUP2 SUB PUSH1 0x0 DUP4 ADD MSTORE PUSH2 0x3D97 DUP2 DUP5 PUSH2 0x3D1F JUMP JUMPDEST SWAP1 POP SWAP3 SWAP2 POP POP JUMP JUMPDEST PUSH1 0x0 PUSH1 0xA0 DUP3 ADD SWAP1 POP DUP2 DUP2 SUB PUSH1 0x0 DUP4 ADD MSTORE PUSH2 0x3DB9 DUP2 DUP9 PUSH2 0x3747 JUMP JUMPDEST SWAP1 POP DUP2 DUP2 SUB PUSH1 0x20 DUP4 ADD MSTORE PUSH2 0x3DCD DUP2 DUP8 PUSH2 0x3747 JUMP JUMPDEST SWAP1 POP PUSH2 0x3DDC PUSH1 0x40 DUP4 ADD DUP7 PUSH2 0x34DB JUMP JUMPDEST PUSH2 0x3DE9 PUSH1 0x60 DUP4 ADD DUP6 PUSH2 0x34DB JUMP JUMPDEST PUSH2 0x3DF6 PUSH1 0x80 DUP4 ADD DUP5 PUSH2 0x34DB JUMP JUMPDEST SWAP7 SWAP6 POP POP POP POP POP POP JUMP JUMPDEST PUSH1 0x0 DUP1 DUP4 PUSH1 0x1F DUP5 ADD SLT PUSH2 0x3E16 JUMPI PUSH2 0x3E15 PUSH2 0x35C0 JUMP JUMPDEST JUMPDEST DUP3 CALLDATALOAD SWAP1 POP PUSH8 0xFFFFFFFFFFFFFFFF DUP2 GT ISZERO PUSH2 0x3E33 JUMPI PUSH2 0x3E32 PUSH2 0x35C5 JUMP JUMPDEST JUMPDEST PUSH1 0x20 DUP4 ADD SWAP2 POP DUP4 PUSH1 0x1 DUP3 MUL DUP4 ADD GT ISZERO PUSH2 0x3E4F JUMPI PUSH2 0x3E4E PUSH2 0x35CA JUMP JUMPDEST JUMPDEST SWAP3 POP SWAP3 SWAP1 POP JUMP JUMPDEST PUSH1 0x0 DUP1 PUSH1 0x20 DUP4 DUP6 SUB SLT ISZERO PUSH2 0x3E6D JUMPI PUSH2 0x3E6C PUSH2 0x33FD JUMP JUMPDEST JUMPDEST PUSH1 0x0 DUP4 ADD CALLDATALOAD PUSH8 0xFFFFFFFFFFFFFFFF DUP2 GT ISZERO PUSH2 0x3E8B JUMPI PUSH2 0x3E8A PUSH2 0x3402 JUMP JUMPDEST JUMPDEST PUSH2 0x3E97 DUP6 DUP3 DUP7 ADD PUSH2 0x3E00 JUMP JUMPDEST SWAP3 POP SWAP3 POP POP SWAP3 POP SWAP3 SWAP1 POP JUMP JUMPDEST PUSH1 0x0 DUP1 PUSH1 0x0 DUP1 PUSH1 0x0 DUP1 PUSH1 0x0 DUP1 PUSH1 0xC0 DUP10 DUP12 SUB SLT ISZERO PUSH2 0x3EC3 JUMPI PUSH2 0x3EC2 PUSH2 0x33FD JUMP JUMPDEST JUMPDEST PUSH1 0x0 PUSH2 0x3ED1 DUP12 DUP3 DUP13 ADD PUSH2 0x3486 JUMP JUMPDEST SWAP9 POP POP PUSH1 0x20 DUP10 ADD CALLDATALOAD PUSH8 0xFFFFFFFFFFFFFFFF DUP2 GT ISZERO PUSH2 0x3EF2 JUMPI PUSH2 0x3EF1 PUSH2 0x3402 JUMP JUMPDEST JUMPDEST PUSH2 0x3EFE DUP12 DUP3 DUP13 ADD PUSH2 0x3E00 JUMP JUMPDEST SWAP8 POP SWAP8 POP POP PUSH1 0x40 DUP10 ADD CALLDATALOAD PUSH8 0xFFFFFFFFFFFFFFFF DUP2 GT ISZERO PUSH2 0x3F21 JUMPI PUSH2 0x3F20 PUSH2 0x3402 JUMP JUMPDEST JUMPDEST PUSH2 0x3F2D DUP12 DUP3 DUP13 ADD PUSH2 0x3E00 JUMP JUMPDEST SWAP6 POP SWAP6 POP POP PUSH1 0x60 PUSH2 0x3F40 DUP12 DUP3 DUP13 ADD PUSH2 0x3486 JUMP JUMPDEST SWAP4 POP POP PUSH1 0x80 PUSH2 0x3F51 DUP12 DUP3 DUP13 ADD PUSH2 0x3486 JUMP JUMPDEST SWAP3 POP POP PUSH1 0xA0 PUSH2 0x3F62 DUP12 DUP3 DUP13 ADD PUSH2 0x3486 JUMP JUMPDEST SWAP2 POP POP SWAP3 SWAP6 SWAP9 POP SWAP3 SWAP6 SWAP9 SWAP1 SWAP4 SWAP7 POP JUMP JUMPDEST PUSH1 0x0 DUP1 PUSH1 0x0 DUP1 PUSH1 0x80 DUP6 DUP8 SUB SLT ISZERO PUSH2 0x3F8C JUMPI PUSH2 0x3F8B PUSH2 0x33FD JUMP JUMPDEST JUMPDEST PUSH1 0x0 PUSH2 0x3F9A DUP8 DUP3 DUP9 ADD PUSH2 0x3450 JUMP JUMPDEST SWAP5 POP POP PUSH1 0x20 PUSH2 0x3FAB DUP8 DUP3 DUP9 ADD PUSH2 0x3486 JUMP JUMPDEST SWAP4 POP POP PUSH1 0x40 PUSH2 0x3FBC DUP8 DUP3 DUP9 ADD PUSH2 0x3486 JUMP JUMPDEST SWAP3 POP POP PUSH1 0x60 DUP6 ADD CALLDATALOAD PUSH8 0xFFFFFFFFFFFFFFFF DUP2 GT ISZERO PUSH2 0x3FDD JUMPI PUSH2 0x3FDC PUSH2 0x3402 JUMP JUMPDEST JUMPDEST PUSH2 0x3FE9 DUP8 DUP3 DUP9 ADD PUSH2 0x3A47 JUMP JUMPDEST SWAP2 POP POP SWAP3 SWAP6 SWAP2 SWAP5 POP SWAP3 POP JUMP JUMPDEST PUSH2 0x3FFE DUP2 PUSH2 0x358A JUMP JUMPDEST DUP2 EQ PUSH2 0x4009 JUMPI PUSH1 0x0 DUP1 REVERT JUMPDEST POP JUMP JUMPDEST PUSH1 0x0 DUP2 CALLDATALOAD SWAP1 POP PUSH2 0x401B DUP2 PUSH2 0x3FF5 JUMP JUMPDEST SWAP3 SWAP2 POP POP JUMP JUMPDEST PUSH1 0x0 DUP1 PUSH1 0x40 DUP4 DUP6 SUB SLT ISZERO PUSH2 0x4038 JUMPI PUSH2 0x4037 PUSH2 0x33FD JUMP JUMPDEST JUMPDEST PUSH1 0x0 PUSH2 0x4046 DUP6 DUP3 DUP7 ADD PUSH2 0x3450 JUMP JUMPDEST SWAP3 POP POP PUSH1 0x20 PUSH2 0x4057 DUP6 DUP3 DUP7 ADD PUSH2 0x400C JUMP JUMPDEST SWAP2 POP POP SWAP3 POP SWAP3 SWAP1 POP JUMP JUMPDEST PUSH1 0x0 DUP1 PUSH1 0x40 DUP4 DUP6 SUB SLT ISZERO PUSH2 0x4078 JUMPI PUSH2 0x4077 PUSH2 0x33FD JUMP JUMPDEST JUMPDEST PUSH1 0x0 PUSH2 0x4086 DUP6 DUP3 DUP7 ADD PUSH2 0x3450 JUMP JUMPDEST SWAP3 POP POP PUSH1 0x20 PUSH2 0x4097 DUP6 DUP3 DUP7 ADD PUSH2 0x3450 JUMP JUMPDEST SWAP2 POP POP SWAP3 POP SWAP3 SWAP1 POP JUMP JUMPDEST PUSH1 0x0 DUP1 PUSH1 0x0 DUP1 PUSH1 0x0 PUSH1 0xA0 DUP7 DUP9 SUB SLT ISZERO PUSH2 0x40BD JUMPI PUSH2 0x40BC PUSH2 0x33FD JUMP JUMPDEST JUMPDEST PUSH1 0x0 PUSH2 0x40CB DUP9 DUP3 DUP10 ADD PUSH2 0x3450 JUMP JUMPDEST SWAP6 POP POP PUSH1 0x20 PUSH2 0x40DC DUP9 DUP3 DUP10 ADD PUSH2 0x3450 JUMP JUMPDEST SWAP5 POP POP PUSH1 0x40 PUSH2 0x40ED DUP9 DUP3 DUP10 ADD PUSH2 0x3486 JUMP JUMPDEST SWAP4 POP POP PUSH1 0x60 PUSH2 0x40FE DUP9 DUP3 DUP10 ADD PUSH2 0x3486 JUMP JUMPDEST SWAP3 POP POP PUSH1 0x80 DUP7 ADD CALLDATALOAD PUSH8 0xFFFFFFFFFFFFFFFF DUP2 GT ISZERO PUSH2 0x411F JUMPI PUSH2 0x411E PUSH2 0x3402 JUMP JUMPDEST JUMPDEST PUSH2 0x412B DUP9 DUP3 DUP10 ADD PUSH2 0x3A47 JUMP JUMPDEST SWAP2 POP POP SWAP3 SWAP6 POP SWAP3 SWAP6 SWAP1 SWAP4 POP JUMP JUMPDEST PUSH32 0x455243313135353A2062616C616E636520717565727920666F7220746865207A PUSH1 0x0 DUP3 ADD MSTORE PUSH32 0x65726F2061646472657373000000000000000000000000000000000000000000 PUSH1 0x20 DUP3 ADD MSTORE POP JUMP JUMPDEST PUSH1 0x0 PUSH2 0x4194 PUSH1 0x2B DUP4 PUSH2 0x36F2 JUMP JUMPDEST SWAP2 POP PUSH2 0x419F DUP3 PUSH2 0x4138 JUMP JUMPDEST PUSH1 0x40 DUP3 ADD SWAP1 POP SWAP2 SWAP1 POP JUMP JUMPDEST PUSH1 0x0 PUSH1 0x20 DUP3 ADD SWAP1 POP DUP2 DUP2 SUB PUSH1 0x0 DUP4 ADD MSTORE PUSH2 0x41C3 DUP2 PUSH2 0x4187 JUMP JUMPDEST SWAP1 POP SWAP2 SWAP1 POP JUMP JUMPDEST PUSH32 0x53656E646572206973206E6F74206D696E746572000000000000000000000000 PUSH1 0x0 DUP3 ADD MSTORE POP JUMP JUMPDEST PUSH1 0x0 PUSH2 0x4200 PUSH1 0x14 DUP4 PUSH2 0x36F2 JUMP JUMPDEST SWAP2 POP PUSH2 0x420B DUP3 PUSH2 0x41CA JUMP JUMPDEST PUSH1 0x20 DUP3 ADD SWAP1 POP SWAP2 SWAP1 POP JUMP JUMPDEST PUSH1 0x0 PUSH1 0x20 DUP3 ADD SWAP1 POP DUP2 DUP2 SUB PUSH1 0x0 DUP4 ADD MSTORE PUSH2 0x422F DUP2 PUSH2 0x41F3 JUMP JUMPDEST SWAP1 POP SWAP2 SWAP1 POP JUMP JUMPDEST PUSH32 0x5061757361626C653A2070617573656400000000000000000000000000000000 PUSH1 0x0 DUP3 ADD MSTORE POP JUMP JUMPDEST PUSH1 0x0 PUSH2 0x426C PUSH1 0x10 DUP4 PUSH2 0x36F2 JUMP JUMPDEST SWAP2 POP PUSH2 0x4277 DUP3 PUSH2 0x4236 JUMP JUMPDEST PUSH1 0x20 DUP3 ADD SWAP1 POP SWAP2 SWAP1 POP JUMP JUMPDEST PUSH1 0x0 PUSH1 0x20 DUP3 ADD SWAP1 POP DUP2 DUP2 SUB PUSH1 0x0 DUP4 ADD MSTORE PUSH2 0x429B DUP2 PUSH2 0x425F JUMP JUMPDEST SWAP1 POP SWAP2 SWAP1 POP JUMP JUMPDEST PUSH32 0x4E487B7100000000000000000000000000000000000000000000000000000000 PUSH1 0x0 MSTORE PUSH1 0x22 PUSH1 0x4 MSTORE PUSH1 0x24 PUSH1 0x0 REVERT JUMPDEST PUSH1 0x0 PUSH1 0x2 DUP3 DIV SWAP1 POP PUSH1 0x1 DUP3 AND DUP1 PUSH2 0x42E9 JUMPI PUSH1 0x7F DUP3 AND SWAP2 POP JUMPDEST PUSH1 0x20 DUP3 LT DUP2 SUB PUSH2 0x42FC JUMPI PUSH2 0x42FB PUSH2 0x42A2 JUMP JUMPDEST JUMPDEST POP SWAP2 SWAP1 POP JUMP JUMPDEST PUSH32 0x546F6B656E206E6F7420666F756E640000000000000000000000000000000000 PUSH1 0x0 DUP3 ADD MSTORE POP JUMP JUMPDEST PUSH1 0x0 PUSH2 0x4338 PUSH1 0xF DUP4 PUSH2 0x36F2 JUMP JUMPDEST SWAP2 POP PUSH2 0x4343 DUP3 PUSH2 0x4302 JUMP JUMPDEST PUSH1 0x20 DUP3 ADD SWAP1 POP SWAP2 SWAP1 POP JUMP JUMPDEST PUSH1 0x0 PUSH1 0x20 DUP3 ADD SWAP1 POP DUP2 DUP2 SUB PUSH1 0x0 DUP4 ADD MSTORE PUSH2 0x4367 DUP2 PUSH2 0x432B JUMP JUMPDEST SWAP1 POP SWAP2 SWAP1 POP JUMP JUMPDEST PUSH32 0x546F6B656E2073657474696E67206E6F7420666F756E64000000000000000000 PUSH1 0x0 DUP3 ADD MSTORE POP JUMP JUMPDEST PUSH1 0x0 PUSH2 0x43A4 PUSH1 0x17 DUP4 PUSH2 0x36F2 JUMP JUMPDEST SWAP2 POP PUSH2 0x43AF DUP3 PUSH2 0x436E JUMP JUMPDEST PUSH1 0x20 DUP3 ADD SWAP1 POP SWAP2 SWAP1 POP JUMP JUMPDEST PUSH1 0x0 PUSH1 0x20 DUP3 ADD SWAP1 POP DUP2 DUP2 SUB PUSH1 0x0 DUP4 ADD MSTORE PUSH2 0x43D3 DUP2 PUSH2 0x4397 JUMP JUMPDEST SWAP1 POP SWAP2 SWAP1 POP JUMP JUMPDEST PUSH32 0x4E487B7100000000000000000000000000000000000000000000000000000000 PUSH1 0x0 MSTORE PUSH1 0x11 PUSH1 0x4 MSTORE PUSH1 0x24 PUSH1 0x0 REVERT JUMPDEST PUSH1 0x0 PUSH2 0x4414 DUP3 PUSH2 0x3465 JUMP JUMPDEST SWAP2 POP PUSH2 0x441F DUP4 PUSH2 0x3465 JUMP JUMPDEST SWAP3 POP DUP2 PUSH32 0xFFFFFFFFFFFFFFFFFFFFFFFFFFFFFFFFFFFFFFFFFFFFFFFFFFFFFFFFFFFFFFFF DIV DUP4 GT DUP3 ISZERO ISZERO AND ISZERO PUSH2 0x4458 JUMPI PUSH2 0x4457 PUSH2 0x43DA JUMP JUMPDEST JUMPDEST DUP3 DUP3 MUL SWAP1 POP SWAP3 SWAP2 POP POP JUMP JUMPDEST PUSH32 0x416D6F756E742073656E74206E6F7420656E6F75676800000000000000000000 PUSH1 0x0 DUP3 ADD MSTORE POP JUMP JUMPDEST PUSH1 0x0 PUSH2 0x4499 PUSH1 0x16 DUP4 PUSH2 0x36F2 JUMP JUMPDEST SWAP2 POP PUSH2 0x44A4 DUP3 PUSH2 0x4463 JUMP JUMPDEST PUSH1 0x20 DUP3 ADD SWAP1 POP SWAP2 SWAP1 POP JUMP JUMPDEST PUSH1 0x0 PUSH1 0x20 DUP3 ADD SWAP1 POP DUP2 DUP2 SUB PUSH1 0x0 DUP4 ADD MSTORE PUSH2 0x44C8 DUP2 PUSH2 0x448C JUMP JUMPDEST SWAP1 POP SWAP2 SWAP1 POP JUMP JUMPDEST PUSH32 0x53656E646572206973206E6F742061646D696E00000000000000000000000000 PUSH1 0x0 DUP3 ADD MSTORE POP JUMP JUMPDEST PUSH1 0x0 PUSH2 0x4505 PUSH1 0x13 DUP4 PUSH2 0x36F2 JUMP JUMPDEST SWAP2 POP PUSH2 0x4510 DUP3 PUSH2 0x44CF JUMP JUMPDEST PUSH1 0x20 DUP3 ADD SWAP1 POP SWAP2 SWAP1 POP JUMP JUMPDEST PUSH1 0x0 PUSH1 0x20 DUP3 ADD SWAP1 POP DUP2 DUP2 SUB PUSH1 0x0 DUP4 ADD MSTORE PUSH2 0x4534 DUP2 PUSH2 0x44F8 JUMP JUMPDEST SWAP1 POP SWAP2 SWAP1 POP JUMP JUMPDEST PUSH32 0x455243313135353A207472616E736665722063616C6C6572206973206E6F7420 PUSH1 0x0 DUP3 ADD MSTORE PUSH32 0x6F776E6572206E6F7220617070726F7665640000000000000000000000000000 PUSH1 0x20 DUP3 ADD MSTORE POP JUMP JUMPDEST PUSH1 0x0 PUSH2 0x4597 PUSH1 0x32 DUP4 PUSH2 0x36F2 JUMP JUMPDEST SWAP2 POP PUSH2 0x45A2 DUP3 PUSH2 0x453B JUMP JUMPDEST PUSH1 0x40 DUP3 ADD SWAP1 POP SWAP2 SWAP1 POP JUMP JUMPDEST PUSH1 0x0 PUSH1 0x20 DUP3 ADD SWAP1 POP DUP2 DUP2 SUB PUSH1 0x0 DUP4 ADD MSTORE PUSH2 0x45C6 DUP2 PUSH2 0x458A JUMP JUMPDEST SWAP1 POP SWAP2 SWAP1 POP JUMP JUMPDEST PUSH32 0x416363657373436F6E74726F6C3A2063616E206F6E6C792072656E6F756E6365 PUSH1 0x0 DUP3 ADD MSTORE PUSH32 0x20726F6C657320666F722073656C660000000000000000000000000000000000 PUSH1 0x20 DUP3 ADD MSTORE POP JUMP JUMPDEST PUSH1 0x0 PUSH2 0x4629 PUSH1 0x2F DUP4 PUSH2 0x36F2 JUMP JUMPDEST SWAP2 POP PUSH2 0x4634 DUP3 PUSH2 0x45CD JUMP JUMPDEST PUSH1 0x40 DUP3 ADD SWAP1 POP SWAP2 SWAP1 POP JUMP JUMPDEST PUSH1 0x0 PUSH1 0x20 DUP3 ADD SWAP1 POP DUP2 DUP2 SUB PUSH1 0x0 DUP4 ADD MSTORE PUSH2 0x4658 DUP2 PUSH2 0x461C JUMP JUMPDEST SWAP1 POP SWAP2 SWAP1 POP JUMP JUMPDEST PUSH32 0x53656E646572206973206E6F7420706175736572000000000000000000000000 PUSH1 0x0 DUP3 ADD MSTORE POP JUMP JUMPDEST PUSH1 0x0 PUSH2 0x4695 PUSH1 0x14 DUP4 PUSH2 0x36F2 JUMP JUMPDEST SWAP2 POP PUSH2 0x46A0 DUP3 PUSH2 0x465F JUMP JUMPDEST PUSH1 0x20 DUP3 ADD SWAP1 POP SWAP2 SWAP1 POP JUMP JUMPDEST PUSH1 0x0 PUSH1 0x20 DUP3 ADD SWAP1 POP DUP2 DUP2 SUB PUSH1 0x0 DUP4 ADD MSTORE PUSH2 0x46C4 DUP2 PUSH2 0x4688 JUMP JUMPDEST SWAP1 POP SWAP2 SWAP1 POP JUMP JUMPDEST PUSH32 0x455243313135353A206163636F756E747320616E6420696473206C656E677468 PUSH1 0x0 DUP3 ADD MSTORE PUSH32 0x206D69736D617463680000000000000000000000000000000000000000000000 PUSH1 0x20 DUP3 ADD MSTORE POP JUMP JUMPDEST PUSH1 0x0 PUSH2 0x4727 PUSH1 0x29 DUP4 PUSH2 0x36F2 JUMP JUMPDEST SWAP2 POP PUSH2 0x4732 DUP3 PUSH2 0x46CB JUMP JUMPDEST PUSH1 0x40 DUP3 ADD SWAP1 POP SWAP2 SWAP1 POP JUMP JUMPDEST PUSH1 0x0 PUSH1 0x20 DUP3 ADD SWAP1 POP DUP2 DUP2 SUB PUSH1 0x0 DUP4 ADD MSTORE PUSH2 0x4756 DUP2 PUSH2 0x471A JUMP JUMPDEST SWAP1 POP SWAP2 SWAP1 POP JUMP JUMPDEST PUSH32 0x4E487B7100000000000000000000000000000000000000000000000000000000 PUSH1 0x0 MSTORE PUSH1 0x32 PUSH1 0x4 MSTORE PUSH1 0x24 PUSH1 0x0 REVERT JUMPDEST PUSH1 0x0 PUSH2 0x4797 DUP3 PUSH2 0x3465 JUMP JUMPDEST SWAP2 POP PUSH32 0xFFFFFFFFFFFFFFFFFFFFFFFFFFFFFFFFFFFFFFFFFFFFFFFFFFFFFFFFFFFFFFFF DUP3 SUB PUSH2 0x47C9 JUMPI PUSH2 0x47C8 PUSH2 0x43DA JUMP JUMPDEST JUMPDEST PUSH1 0x1 DUP3 ADD SWAP1 POP SWAP2 SWAP1 POP JUMP JUMPDEST PUSH2 0x47DD DUP2 PUSH2 0x3427 JUMP JUMPDEST DUP3 MSTORE POP POP JUMP JUMPDEST PUSH1 0x0 DUP2 MLOAD SWAP1 POP SWAP2 SWAP1 POP JUMP JUMPDEST PUSH1 0x0 DUP3 DUP3 MSTORE PUSH1 0x20 DUP3 ADD SWAP1 POP SWAP3 SWAP2 POP POP JUMP JUMPDEST PUSH1 0x0 PUSH2 0x480A DUP3 PUSH2 0x47E3 JUMP JUMPDEST PUSH2 0x4814 DUP2 DUP6 PUSH2 0x47EE JUMP JUMPDEST SWAP4 POP PUSH2 0x4824 DUP2 DUP6 PUSH1 0x20 DUP7 ADD PUSH2 0x3703 JUMP JUMPDEST PUSH2 0x482D DUP2 PUSH2 0x3736 JUMP JUMPDEST DUP5 ADD SWAP2 POP POP SWAP3 SWAP2 POP POP JUMP JUMPDEST PUSH1 0x0 PUSH1 0xA0 DUP3 ADD SWAP1 POP PUSH2 0x484D PUSH1 0x0 DUP4 ADD DUP9 PUSH2 0x47D4 JUMP JUMPDEST PUSH2 0x485A PUSH1 0x20 DUP4 ADD DUP8 PUSH2 0x47D4 JUMP JUMPDEST PUSH2 0x4867 PUSH1 0x40 DUP4 ADD DUP7 PUSH2 0x34DB JUMP JUMPDEST PUSH2 0x4874 PUSH1 0x60 DUP4 ADD DUP6 PUSH2 0x34DB JUMP JUMPDEST DUP2 DUP2 SUB PUSH1 0x80 DUP4 ADD MSTORE PUSH2 0x4886 DUP2 DUP5 PUSH2 0x47FF JUMP JUMPDEST SWAP1 POP SWAP7 SWAP6 POP POP POP POP POP POP JUMP JUMPDEST PUSH1 0x0 PUSH1 0x40 DUP3 ADD SWAP1 POP PUSH2 0x48A7 PUSH1 0x0 DUP4 ADD DUP6 PUSH2 0x47D4 JUMP JUMPDEST PUSH2 0x48B4 PUSH1 0x20 DUP4 ADD DUP5 PUSH2 0x34DB JUMP JUMPDEST SWAP4 SWAP3 POP POP POP JUMP JUMPDEST PUSH1 0x0 DUP2 MLOAD SWAP1 POP PUSH2 0x48CA DUP2 PUSH2 0x3FF5 JUMP JUMPDEST SWAP3 SWAP2 POP POP JUMP JUMPDEST PUSH1 0x0 PUSH1 0x20 DUP3 DUP5 SUB SLT ISZERO PUSH2 0x48E6 JUMPI PUSH2 0x48E5 PUSH2 0x33FD JUMP JUMPDEST JUMPDEST PUSH1 0x0 PUSH2 0x48F4 DUP5 DUP3 DUP6 ADD PUSH2 0x48BB JUMP JUMPDEST SWAP2 POP POP SWAP3 SWAP2 POP POP JUMP JUMPDEST PUSH32 0x5061757361626C653A206E6F7420706175736564000000000000000000000000 PUSH1 0x0 DUP3 ADD MSTORE POP JUMP JUMPDEST PUSH1 0x0 PUSH2 0x4933 PUSH1 0x14 DUP4 PUSH2 0x36F2 JUMP JUMPDEST SWAP2 POP PUSH2 0x493E DUP3 PUSH2 0x48FD JUMP JUMPDEST PUSH1 0x20 DUP3 ADD SWAP1 POP SWAP2 SWAP1 POP JUMP JUMPDEST PUSH1 0x0 PUSH1 0x20 DUP3 ADD SWAP1 POP DUP2 DUP2 SUB PUSH1 0x0 DUP4 ADD MSTORE PUSH2 0x4962 DUP2 PUSH2 0x4926 JUMP JUMPDEST SWAP1 POP SWAP2 SWAP1 POP JUMP JUMPDEST PUSH32 0x455243313135353A2063616C6C6572206973206E6F74206F776E6572206E6F72 PUSH1 0x0 DUP3 ADD MSTORE PUSH32 0x20617070726F7665640000000000000000000000000000000000000000000000 PUSH1 0x20 DUP3 ADD MSTORE POP JUMP JUMPDEST PUSH1 0x0 PUSH2 0x49C5 PUSH1 0x29 DUP4 PUSH2 0x36F2 JUMP JUMPDEST SWAP2 POP PUSH2 0x49D0 DUP3 PUSH2 0x4969 JUMP JUMPDEST PUSH1 0x40 DUP3 ADD SWAP1 POP SWAP2 SWAP1 POP JUMP JUMPDEST PUSH1 0x0 PUSH1 0x20 DUP3 ADD SWAP1 POP DUP2 DUP2 SUB PUSH1 0x0 DUP4 ADD MSTORE PUSH2 0x49F4 DUP2 PUSH2 0x49B8 JUMP JUMPDEST SWAP1 POP SWAP2 SWAP1 POP JUMP JUMPDEST PUSH1 0x0 PUSH1 0x60 DUP3 ADD SWAP1 POP PUSH2 0x4A10 PUSH1 0x0 DUP4 ADD DUP7 PUSH2 0x47D4 JUMP JUMPDEST PUSH2 0x4A1D PUSH1 0x20 DUP4 ADD DUP6 PUSH2 0x47D4 JUMP JUMPDEST PUSH2 0x4A2A PUSH1 0x40 DUP4 ADD DUP5 PUSH2 0x34DB JUMP JUMPDEST SWAP5 SWAP4 POP POP POP POP JUMP JUMPDEST PUSH32 0x455243313135353A206D696E7420746F20746865207A65726F20616464726573 PUSH1 0x0 DUP3 ADD MSTORE PUSH32 0x7300000000000000000000000000000000000000000000000000000000000000 PUSH1 0x20 DUP3 ADD MSTORE POP JUMP JUMPDEST PUSH1 0x0 PUSH2 0x4A8E PUSH1 0x21 DUP4 PUSH2 0x36F2 JUMP JUMPDEST SWAP2 POP PUSH2 0x4A99 DUP3 PUSH2 0x4A32 JUMP JUMPDEST PUSH1 0x40 DUP3 ADD SWAP1 POP SWAP2 SWAP1 POP JUMP JUMPDEST PUSH1 0x0 PUSH1 0x20 DUP3 ADD SWAP1 POP DUP2 DUP2 SUB PUSH1 0x0 DUP4 ADD MSTORE PUSH2 0x4ABD DUP2 PUSH2 0x4A81 JUMP JUMPDEST SWAP1 POP SWAP2 SWAP1 POP JUMP JUMPDEST PUSH32 0x455243313135353A2069647320616E6420616D6F756E7473206C656E67746820 PUSH1 0x0 DUP3 ADD MSTORE PUSH32 0x6D69736D61746368000000000000000000000000000000000000000000000000 PUSH1 0x20 DUP3 ADD MSTORE POP JUMP JUMPDEST PUSH1 0x0 PUSH2 0x4B20 PUSH1 0x28 DUP4 PUSH2 0x36F2 JUMP JUMPDEST SWAP2 POP PUSH2 0x4B2B DUP3 PUSH2 0x4AC4 JUMP JUMPDEST PUSH1 0x40 DUP3 ADD SWAP1 POP SWAP2 SWAP1 POP JUMP JUMPDEST PUSH1 0x0 PUSH1 0x20 DUP3 ADD SWAP1 POP DUP2 DUP2 SUB PUSH1 0x0 DUP4 ADD MSTORE PUSH2 0x4B4F DUP2 PUSH2 0x4B13 JUMP JUMPDEST SWAP1 POP SWAP2 SWAP1 POP JUMP JUMPDEST PUSH1 0x0 PUSH2 0x4B61 DUP3 PUSH2 0x3465 JUMP JUMPDEST SWAP2 POP PUSH2 0x4B6C DUP4 PUSH2 0x3465 JUMP JUMPDEST SWAP3 POP DUP3 PUSH32 0xFFFFFFFFFFFFFFFFFFFFFFFFFFFFFFFFFFFFFFFFFFFFFFFFFFFFFFFFFFFFFFFF SUB DUP3 GT ISZERO PUSH2 0x4BA1 JUMPI PUSH2 0x4BA0 PUSH2 0x43DA JUMP JUMPDEST JUMPDEST DUP3 DUP3 ADD SWAP1 POP SWAP3 SWAP2 POP POP JUMP JUMPDEST PUSH1 0x0 PUSH1 0x40 DUP3 ADD SWAP1 POP DUP2 DUP2 SUB PUSH1 0x0 DUP4 ADD MSTORE PUSH2 0x4BC6 DUP2 DUP6 PUSH2 0x3D1F JUMP JUMPDEST SWAP1 POP DUP2 DUP2 SUB PUSH1 0x20 DUP4 ADD MSTORE PUSH2 0x4BDA DUP2 DUP5 PUSH2 0x3D1F JUMP JUMPDEST SWAP1 POP SWAP4 SWAP3 POP POP POP JUMP JUMPDEST PUSH1 0x0 PUSH1 0x40 DUP3 ADD SWAP1 POP PUSH2 0x4BF8 PUSH1 0x0 DUP4 ADD DUP6 PUSH2 0x34DB JUMP JUMPDEST PUSH2 0x4C05 PUSH1 0x20 DUP4 ADD DUP5 PUSH2 0x34DB JUMP JUMPDEST SWAP4 SWAP3 POP POP POP JUMP JUMPDEST PUSH32 0x455243313135353A207472616E7366657220746F20746865207A65726F206164 PUSH1 0x0 DUP3 ADD MSTORE PUSH32 0x6472657373000000000000000000000000000000000000000000000000000000 PUSH1 0x20 DUP3 ADD MSTORE POP JUMP JUMPDEST PUSH1 0x0 PUSH2 0x4C68 PUSH1 0x25 DUP4 PUSH2 0x36F2 JUMP JUMPDEST SWAP2 POP PUSH2 0x4C73 DUP3 PUSH2 0x4C0C JUMP JUMPDEST PUSH1 0x40 DUP3 ADD SWAP1 POP SWAP2 SWAP1 POP JUMP JUMPDEST PUSH1 0x0 PUSH1 0x20 DUP3 ADD SWAP1 POP DUP2 DUP2 SUB PUSH1 0x0 DUP4 ADD MSTORE PUSH2 0x4C97 DUP2 PUSH2 0x4C5B JUMP JUMPDEST SWAP1 POP SWAP2 SWAP1 POP JUMP JUMPDEST PUSH32 0x455243313135353A20696E73756666696369656E742062616C616E636520666F PUSH1 0x0 DUP3 ADD MSTORE PUSH32 0x72207472616E7366657200000000000000000000000000000000000000000000 PUSH1 0x20 DUP3 ADD MSTORE POP JUMP JUMPDEST PUSH1 0x0 PUSH2 0x4CFA PUSH1 0x2A DUP4 PUSH2 0x36F2 JUMP JUMPDEST SWAP2 POP PUSH2 0x4D05 DUP3 PUSH2 0x4C9E JUMP JUMPDEST PUSH1 0x40 DUP3 ADD SWAP1 POP SWAP2 SWAP1 POP JUMP JUMPDEST PUSH1 0x0 PUSH1 0x20 DUP3 ADD SWAP1 POP DUP2 DUP2 SUB PUSH1 0x0 DUP4 ADD MSTORE PUSH2 0x4D29 DUP2 PUSH2 0x4CED JUMP JUMPDEST SWAP1 POP SWAP2 SWAP1 POP JUMP JUMPDEST PUSH1 0x0 PUSH1 0x20 DUP3 ADD SWAP1 POP PUSH2 0x4D45 PUSH1 0x0 DUP4 ADD DUP5 PUSH2 0x47D4 JUMP JUMPDEST SWAP3 SWAP2 POP POP JUMP JUMPDEST PUSH32 0x455243313135353A2073657474696E6720617070726F76616C20737461747573 PUSH1 0x0 DUP3 ADD MSTORE PUSH32 0x20666F722073656C660000000000000000000000000000000000000000000000 PUSH1 0x20 DUP3 ADD MSTORE POP JUMP JUMPDEST PUSH1 0x0 PUSH2 0x4DA7 PUSH1 0x29 DUP4 PUSH2 0x36F2 JUMP JUMPDEST SWAP2 POP PUSH2 0x4DB2 DUP3 PUSH2 0x4D4B JUMP JUMPDEST PUSH1 0x40 DUP3 ADD SWAP1 POP SWAP2 SWAP1 POP JUMP JUMPDEST PUSH1 0x0 PUSH1 0x20 DUP3 ADD SWAP1 POP DUP2 DUP2 SUB PUSH1 0x0 DUP4 ADD MSTORE PUSH2 0x4DD6 DUP2 PUSH2 0x4D9A JUMP JUMPDEST SWAP1 POP SWAP2 SWAP1 POP JUMP JUMPDEST PUSH1 0x0 PUSH1 0xA0 DUP3 ADD SWAP1 POP PUSH2 0x4DF2 PUSH1 0x0 DUP4 ADD DUP9 PUSH2 0x47D4 JUMP JUMPDEST PUSH2 0x4DFF PUSH1 0x20 DUP4 ADD DUP8 PUSH2 0x47D4 JUMP JUMPDEST DUP2 DUP2 SUB PUSH1 0x40 DUP4 ADD MSTORE PUSH2 0x4E11 DUP2 DUP7 PUSH2 0x3D1F JUMP JUMPDEST SWAP1 POP DUP2 DUP2 SUB PUSH1 0x60 DUP4 ADD MSTORE PUSH2 0x4E25 DUP2 DUP6 PUSH2 0x3D1F JUMP JUMPDEST SWAP1 POP DUP2 DUP2 SUB PUSH1 0x80 DUP4 ADD MSTORE PUSH2 0x4E39 DUP2 DUP5 PUSH2 0x47FF JUMP JUMPDEST SWAP1 POP SWAP7 SWAP6 POP POP POP POP POP POP JUMP JUMPDEST PUSH1 0x0 DUP2 MLOAD SWAP1 POP PUSH2 0x4E54 DUP2 PUSH2 0x3531 JUMP JUMPDEST SWAP3 SWAP2 POP POP JUMP JUMPDEST PUSH1 0x0 PUSH1 0x20 DUP3 DUP5 SUB SLT ISZERO PUSH2 0x4E70 JUMPI PUSH2 0x4E6F PUSH2 0x33FD JUMP JUMPDEST JUMPDEST PUSH1 0x0 PUSH2 0x4E7E DUP5 DUP3 DUP6 ADD PUSH2 0x4E45 JUMP JUMPDEST SWAP2 POP POP SWAP3 SWAP2 POP POP JUMP JUMPDEST PUSH1 0x0 DUP2 PUSH1 0xE0 SHR SWAP1 POP SWAP2 SWAP1 POP JUMP JUMPDEST PUSH1 0x0 PUSH1 0x3 RETURNDATASIZE GT ISZERO PUSH2 0x4EB3 JUMPI PUSH1 0x4 PUSH1 0x0 DUP1 RETURNDATACOPY PUSH2 0x4EB0 PUSH1 0x0 MLOAD PUSH2 0x4E87 JUMP JUMPDEST SWAP1 POP JUMPDEST SWAP1 JUMP JUMPDEST PUSH1 0x0 PUSH1 0x44 RETURNDATASIZE LT PUSH2 0x4F43 JUMPI PUSH2 0x4EC8 PUSH2 0x33F3 JUMP JUMPDEST PUSH1 0x4 RETURNDATASIZE SUB PUSH1 0x4 DUP3 RETURNDATACOPY DUP1 MLOAD RETURNDATASIZE PUSH1 0x24 DUP3 ADD GT PUSH8 0xFFFFFFFFFFFFFFFF DUP3 GT OR ISZERO PUSH2 0x4EF0 JUMPI POP POP PUSH2 0x4F43 JUMP JUMPDEST DUP1 DUP3 ADD DUP1 MLOAD PUSH8 0xFFFFFFFFFFFFFFFF DUP2 GT ISZERO PUSH2 0x4F0E JUMPI POP POP POP POP PUSH2 0x4F43 JUMP JUMPDEST DUP1 PUSH1 0x20 DUP4 ADD ADD PUSH1 0x4 RETURNDATASIZE SUB DUP6 ADD DUP2 GT ISZERO PUSH2 0x4F2B JUMPI POP POP POP POP POP PUSH2 0x4F43 JUMP JUMPDEST PUSH2 0x4F3A DUP3 PUSH1 0x20 ADD DUP6 ADD DUP7 PUSH2 0x38B1 JUMP JUMPDEST DUP3 SWAP6 POP POP POP POP POP POP JUMPDEST SWAP1 JUMP JUMPDEST PUSH32 0x455243313135353A207472616E7366657220746F206E6F6E2045524331313535 PUSH1 0x0 DUP3 ADD MSTORE PUSH32 0x526563656976657220696D706C656D656E746572000000000000000000000000 PUSH1 0x20 DUP3 ADD MSTORE POP JUMP JUMPDEST PUSH1 0x0 PUSH2 0x4FA2 PUSH1 0x34 DUP4 PUSH2 0x36F2 JUMP JUMPDEST SWAP2 POP PUSH2 0x4FAD DUP3 PUSH2 0x4F46 JUMP JUMPDEST PUSH1 0x40 DUP3 ADD SWAP1 POP SWAP2 SWAP1 POP JUMP JUMPDEST PUSH1 0x0 PUSH1 0x20 DUP3 ADD SWAP1 POP DUP2 DUP2 SUB PUSH1 0x0 DUP4 ADD MSTORE PUSH2 0x4FD1 DUP2 PUSH2 0x4F95 JUMP JUMPDEST SWAP1 POP SWAP2 SWAP1 POP JUMP JUMPDEST PUSH32 0x455243313135353A204552433131353552656365697665722072656A65637465 PUSH1 0x0 DUP3 ADD MSTORE PUSH32 0x6420746F6B656E73000000000000000000000000000000000000000000000000 PUSH1 0x20 DUP3 ADD MSTORE POP JUMP JUMPDEST PUSH1 0x0 PUSH2 0x5034 PUSH1 0x28 DUP4 PUSH2 0x36F2 JUMP JUMPDEST SWAP2 POP PUSH2 0x503F DUP3 PUSH2 0x4FD8 JUMP JUMPDEST PUSH1 0x40 DUP3 ADD SWAP1 POP SWAP2 SWAP1 POP JUMP JUMPDEST PUSH1 0x0 PUSH1 0x20 DUP3 ADD SWAP1 POP DUP2 DUP2 SUB PUSH1 0x0 DUP4 ADD MSTORE PUSH2 0x5063 DUP2 PUSH2 0x5027 JUMP JUMPDEST SWAP1 POP SWAP2 SWAP1 POP JUMP JUMPDEST PUSH1 0x0 DUP2 SWAP1 POP SWAP3 SWAP2 POP POP JUMP JUMPDEST PUSH32 0x416363657373436F6E74726F6C3A206163636F756E7420000000000000000000 PUSH1 0x0 DUP3 ADD MSTORE POP JUMP JUMPDEST PUSH1 0x0 PUSH2 0x50AB PUSH1 0x17 DUP4 PUSH2 0x506A JUMP JUMPDEST SWAP2 POP PUSH2 0x50B6 DUP3 PUSH2 0x5075 JUMP JUMPDEST PUSH1 0x17 DUP3 ADD SWAP1 POP SWAP2 SWAP1 POP JUMP JUMPDEST PUSH1 0x0 PUSH2 0x50CC DUP3 PUSH2 0x36E7 JUMP JUMPDEST PUSH2 0x50D6 DUP2 DUP6 PUSH2 0x506A JUMP JUMPDEST SWAP4 POP PUSH2 0x50E6 DUP2 DUP6 PUSH1 0x20 DUP7 ADD PUSH2 0x3703 JUMP JUMPDEST DUP1 DUP5 ADD SWAP2 POP POP SWAP3 SWAP2 POP POP JUMP JUMPDEST PUSH32 0x206973206D697373696E6720726F6C6520000000000000000000000000000000 PUSH1 0x0 DUP3 ADD MSTORE POP JUMP JUMPDEST PUSH1 0x0 PUSH2 0x5128 PUSH1 0x11 DUP4 PUSH2 0x506A JUMP JUMPDEST SWAP2 POP PUSH2 0x5133 DUP3 PUSH2 0x50F2 JUMP JUMPDEST PUSH1 0x11 DUP3 ADD SWAP1 POP SWAP2 SWAP1 POP JUMP JUMPDEST PUSH1 0x0 PUSH2 0x5149 DUP3 PUSH2 0x509E JUMP JUMPDEST SWAP2 POP PUSH2 0x5155 DUP3 DUP6 PUSH2 0x50C1 JUMP JUMPDEST SWAP2 POP PUSH2 0x5160 DUP3 PUSH2 0x511B JUMP JUMPDEST SWAP2 POP PUSH2 0x516C DUP3 DUP5 PUSH2 0x50C1 JUMP JUMPDEST SWAP2 POP DUP2 SWAP1 POP SWAP4 SWAP3 POP POP POP JUMP JUMPDEST PUSH32 0x455243313135355061757361626C653A20746F6B656E207472616E7366657220 PUSH1 0x0 DUP3 ADD MSTORE PUSH32 0x7768696C65207061757365640000000000000000000000000000000000000000 PUSH1 0x20 DUP3 ADD MSTORE POP JUMP JUMPDEST PUSH1 0x0 PUSH2 0x51D4 PUSH1 0x2C DUP4 PUSH2 0x36F2 JUMP JUMPDEST SWAP2 POP PUSH2 0x51DF DUP3 PUSH2 0x5178 JUMP JUMPDEST PUSH1 0x40 DUP3 ADD SWAP1 POP SWAP2 SWAP1 POP JUMP JUMPDEST PUSH1 0x0 PUSH1 0x20 DUP3 ADD SWAP1 POP DUP2 DUP2 SUB PUSH1 0x0 DUP4 ADD MSTORE PUSH2 0x5203 DUP2 PUSH2 0x51C7 JUMP JUMPDEST SWAP1 POP SWAP2 SWAP1 POP JUMP JUMPDEST PUSH1 0x0 PUSH2 0x5215 DUP3 PUSH2 0x3465 JUMP JUMPDEST SWAP2 POP PUSH1 0x0 DUP3 SUB PUSH2 0x5228 JUMPI PUSH2 0x5227 PUSH2 0x43DA JUMP JUMPDEST JUMPDEST PUSH1 0x1 DUP3 SUB SWAP1 POP SWAP2 SWAP1 POP JUMP JUMPDEST PUSH32 0x537472696E67733A20686578206C656E67746820696E73756666696369656E74 PUSH1 0x0 DUP3 ADD MSTORE POP JUMP JUMPDEST PUSH1 0x0 PUSH2 0x5269 PUSH1 0x20 DUP4 PUSH2 0x36F2 JUMP JUMPDEST SWAP2 POP PUSH2 0x5274 DUP3 PUSH2 0x5233 JUMP JUMPDEST PUSH1 0x20 DUP3 ADD SWAP1 POP SWAP2 SWAP1 POP JUMP JUMPDEST PUSH1 0x0 PUSH1 0x20 DUP3 ADD SWAP1 POP DUP2 DUP2 SUB PUSH1 0x0 DUP4 ADD MSTORE PUSH2 0x5298 DUP2 PUSH2 0x525C JUMP JUMPDEST SWAP1 POP SWAP2 SWAP1 POP JUMP INVALID LOG2 PUSH5 0x6970667358 0x22 SLT KECCAK256 PUSH23 0x3064CF48EDB1F32DAF51B5981E1F4CA15B20D4D9BD95B7 0xD 0xC3 0x2C 0x4A 0x2A 0xDD NUMBER SHR PUSH5 0x736F6C6343 STOP ADDMOD 0xE STOP CALLER PUSH9 0x747470733A2F2F6170 PUSH17 0x2E676F696E6775702E78797A2F6170692F BALANCE BALANCE CALLDATALOAD CALLDATALOAD 0x2D PUSH14 0x657461646174612F697066733A2F 0x2F MLOAD PUSH14 0x59576E586D7035774C5565434E48 PUSH20 0x725333504C746E464258684577706E4B766D5268 PUSH19 0x6A5959336964324A0000000000000000000000 "
		},
		"gasEstimates": {
			"creation": {
				"codeDepositCost": "4241000",
				"executionCost": "infinite",
				"totalCost": "infinite"
			},
			"external": {
				"DEFAULT_ADMIN_ROLE()": "424",
				"MINTER_ROLE()": "396",
				"PAUSER_ROLE()": "440",
				"balanceOf(address,uint256)": "infinite",
				"balanceOfBatch(address[],uint256[])": "infinite",
				"contractURI()": "infinite",
				"getRoleAdmin(bytes32)": "infinite",
				"grantRole(bytes32,address)": "infinite",
				"hasRole(bytes32,address)": "3186",
				"isApprovedForAll(address,address)": "infinite",
				"manualMint(address,uint256,uint256)": "infinite",
				"manualMintBatch(address,uint256[],uint256[])": "infinite",
				"mint(address,uint256,uint256)": "infinite",
				"pauseContract()": "infinite",
				"paused()": "2590",
				"renounceRole(bytes32,address)": "infinite",
				"revokeRole(bytes32,address)": "infinite",
				"safeBatchTransferFrom(address,address,uint256[],uint256[],bytes)": "infinite",
				"safeTransferFrom(address,address,uint256,uint256,bytes)": "infinite",
				"setApprovalForAll(address,bool)": "infinite",
				"setContractURI(string)": "infinite",
				"setTokenSettings(uint256,string,string,uint256,uint256,uint256)": "infinite",
				"supportsInterface(bytes4)": "974",
				"tokenSettings(uint256)": "infinite",
				"unpauseContract()": "infinite",
				"uri(uint256)": "infinite",
				"withdrawERC1155(address,uint256,uint256,bytes)": "infinite",
				"withdrawERC20(address,uint256)": "infinite",
				"withdrawERC721(address,uint256)": "infinite",
				"withdrawFunds()": "infinite"
			},
			"internal": {
				"_beforeTokenTransfer(address,address,address,uint256[] memory,uint256[] memory,bytes memory)": "infinite"
			}
		},
		"methodIdentifiers": {
			"DEFAULT_ADMIN_ROLE()": "a217fddf",
			"MINTER_ROLE()": "d5391393",
			"PAUSER_ROLE()": "e63ab1e9",
			"balanceOf(address,uint256)": "00fdd58e",
			"balanceOfBatch(address[],uint256[])": "4e1273f4",
			"contractURI()": "e8a3d485",
			"getRoleAdmin(bytes32)": "248a9ca3",
			"grantRole(bytes32,address)": "2f2ff15d",
			"hasRole(bytes32,address)": "91d14854",
			"isApprovedForAll(address,address)": "e985e9c5",
			"manualMint(address,uint256,uint256)": "39580ce8",
			"manualMintBatch(address,uint256[],uint256[])": "07594abf",
			"mint(address,uint256,uint256)": "156e29f6",
			"pauseContract()": "439766ce",
			"paused()": "5c975abb",
			"renounceRole(bytes32,address)": "36568abe",
			"revokeRole(bytes32,address)": "d547741f",
			"safeBatchTransferFrom(address,address,uint256[],uint256[],bytes)": "2eb2c2d6",
			"safeTransferFrom(address,address,uint256,uint256,bytes)": "f242432a",
			"setApprovalForAll(address,bool)": "a22cb465",
			"setContractURI(string)": "938e3d7b",
			"setTokenSettings(uint256,string,string,uint256,uint256,uint256)": "9e50b2a2",
			"supportsInterface(bytes4)": "01ffc9a7",
			"tokenSettings(uint256)": "5059d0d2",
			"unpauseContract()": "b33712c5",
			"uri(uint256)": "0e89341c",
			"withdrawERC1155(address,uint256,uint256,bytes)": "a1538bde",
			"withdrawERC20(address,uint256)": "a1db9782",
			"withdrawERC721(address,uint256)": "f3e414f8",
			"withdrawFunds()": "24600fc3"
		}
	},
	"abi": [
		{
			"inputs": [],
			"stateMutability": "nonpayable",
			"type": "constructor"
		},
		{
			"anonymous": false,
			"inputs": [
				{
					"indexed": true,
					"internalType": "address",
					"name": "account",
					"type": "address"
				},
				{
					"indexed": true,
					"internalType": "address",
					"name": "operator",
					"type": "address"
				},
				{
					"indexed": false,
					"internalType": "bool",
					"name": "approved",
					"type": "bool"
				}
			],
			"name": "ApprovalForAll",
			"type": "event"
		},
		{
			"anonymous": false,
			"inputs": [
				{
					"indexed": false,
					"internalType": "address",
					"name": "account",
					"type": "address"
				}
			],
			"name": "Paused",
			"type": "event"
		},
		{
			"anonymous": false,
			"inputs": [
				{
					"indexed": true,
					"internalType": "bytes32",
					"name": "role",
					"type": "bytes32"
				},
				{
					"indexed": true,
					"internalType": "bytes32",
					"name": "previousAdminRole",
					"type": "bytes32"
				},
				{
					"indexed": true,
					"internalType": "bytes32",
					"name": "newAdminRole",
					"type": "bytes32"
				}
			],
			"name": "RoleAdminChanged",
			"type": "event"
		},
		{
			"anonymous": false,
			"inputs": [
				{
					"indexed": true,
					"internalType": "bytes32",
					"name": "role",
					"type": "bytes32"
				},
				{
					"indexed": true,
					"internalType": "address",
					"name": "account",
					"type": "address"
				},
				{
					"indexed": true,
					"internalType": "address",
					"name": "sender",
					"type": "address"
				}
			],
			"name": "RoleGranted",
			"type": "event"
		},
		{
			"anonymous": false,
			"inputs": [
				{
					"indexed": true,
					"internalType": "bytes32",
					"name": "role",
					"type": "bytes32"
				},
				{
					"indexed": true,
					"internalType": "address",
					"name": "account",
					"type": "address"
				},
				{
					"indexed": true,
					"internalType": "address",
					"name": "sender",
					"type": "address"
				}
			],
			"name": "RoleRevoked",
			"type": "event"
		},
		{
			"anonymous": false,
			"inputs": [
				{
					"indexed": true,
					"internalType": "address",
					"name": "operator",
					"type": "address"
				},
				{
					"indexed": true,
					"internalType": "address",
					"name": "from",
					"type": "address"
				},
				{
					"indexed": true,
					"internalType": "address",
					"name": "to",
					"type": "address"
				},
				{
					"indexed": false,
					"internalType": "uint256[]",
					"name": "ids",
					"type": "uint256[]"
				},
				{
					"indexed": false,
					"internalType": "uint256[]",
					"name": "values",
					"type": "uint256[]"
				}
			],
			"name": "TransferBatch",
			"type": "event"
		},
		{
			"anonymous": false,
			"inputs": [
				{
					"indexed": true,
					"internalType": "address",
					"name": "operator",
					"type": "address"
				},
				{
					"indexed": true,
					"internalType": "address",
					"name": "from",
					"type": "address"
				},
				{
					"indexed": true,
					"internalType": "address",
					"name": "to",
					"type": "address"
				},
				{
					"indexed": false,
					"internalType": "uint256",
					"name": "id",
					"type": "uint256"
				},
				{
					"indexed": false,
					"internalType": "uint256",
					"name": "value",
					"type": "uint256"
				}
			],
			"name": "TransferSingle",
			"type": "event"
		},
		{
			"anonymous": false,
			"inputs": [
				{
					"indexed": false,
					"internalType": "string",
					"name": "value",
					"type": "string"
				},
				{
					"indexed": true,
					"internalType": "uint256",
					"name": "id",
					"type": "uint256"
				}
			],
			"name": "URI",
			"type": "event"
		},
		{
			"anonymous": false,
			"inputs": [
				{
					"indexed": false,
					"internalType": "address",
					"name": "account",
					"type": "address"
				}
			],
			"name": "Unpaused",
			"type": "event"
		},
		{
			"inputs": [],
			"name": "DEFAULT_ADMIN_ROLE",
			"outputs": [
				{
					"internalType": "bytes32",
					"name": "",
					"type": "bytes32"
				}
			],
			"stateMutability": "view",
			"type": "function"
		},
		{
			"inputs": [],
			"name": "MINTER_ROLE",
			"outputs": [
				{
					"internalType": "bytes32",
					"name": "",
					"type": "bytes32"
				}
			],
			"stateMutability": "view",
			"type": "function"
		},
		{
			"inputs": [],
			"name": "PAUSER_ROLE",
			"outputs": [
				{
					"internalType": "bytes32",
					"name": "",
					"type": "bytes32"
				}
			],
			"stateMutability": "view",
			"type": "function"
		},
		{
			"inputs": [
				{
					"internalType": "address",
					"name": "account",
					"type": "address"
				},
				{
					"internalType": "uint256",
					"name": "id",
					"type": "uint256"
				}
			],
			"name": "balanceOf",
			"outputs": [
				{
					"internalType": "uint256",
					"name": "",
					"type": "uint256"
				}
			],
			"stateMutability": "view",
			"type": "function"
		},
		{
			"inputs": [
				{
					"internalType": "address[]",
					"name": "accounts",
					"type": "address[]"
				},
				{
					"internalType": "uint256[]",
					"name": "ids",
					"type": "uint256[]"
				}
			],
			"name": "balanceOfBatch",
			"outputs": [
				{
					"internalType": "uint256[]",
					"name": "",
					"type": "uint256[]"
				}
			],
			"stateMutability": "view",
			"type": "function"
		},
		{
			"inputs": [],
			"name": "contractURI",
			"outputs": [
				{
					"internalType": "string",
					"name": "",
					"type": "string"
				}
			],
			"stateMutability": "view",
			"type": "function"
		},
		{
			"inputs": [
				{
					"internalType": "bytes32",
					"name": "role",
					"type": "bytes32"
				}
			],
			"name": "getRoleAdmin",
			"outputs": [
				{
					"internalType": "bytes32",
					"name": "",
					"type": "bytes32"
				}
			],
			"stateMutability": "view",
			"type": "function"
		},
		{
			"inputs": [
				{
					"internalType": "bytes32",
					"name": "role",
					"type": "bytes32"
				},
				{
					"internalType": "address",
					"name": "account",
					"type": "address"
				}
			],
			"name": "grantRole",
			"outputs": [],
			"stateMutability": "nonpayable",
			"type": "function"
		},
		{
			"inputs": [
				{
					"internalType": "bytes32",
					"name": "role",
					"type": "bytes32"
				},
				{
					"internalType": "address",
					"name": "account",
					"type": "address"
				}
			],
			"name": "hasRole",
			"outputs": [
				{
					"internalType": "bool",
					"name": "",
					"type": "bool"
				}
			],
			"stateMutability": "view",
			"type": "function"
		},
		{
			"inputs": [
				{
					"internalType": "address",
					"name": "account",
					"type": "address"
				},
				{
					"internalType": "address",
					"name": "operator",
					"type": "address"
				}
			],
			"name": "isApprovedForAll",
			"outputs": [
				{
					"internalType": "bool",
					"name": "",
					"type": "bool"
				}
			],
			"stateMutability": "view",
			"type": "function"
		},
		{
			"inputs": [
				{
					"internalType": "address",
					"name": "account",
					"type": "address"
				},
				{
					"internalType": "uint256",
					"name": "tokenID",
					"type": "uint256"
				},
				{
					"internalType": "uint256",
					"name": "qty",
					"type": "uint256"
				}
			],
			"name": "manualMint",
			"outputs": [],
			"stateMutability": "nonpayable",
			"type": "function"
		},
		{
			"inputs": [
				{
					"internalType": "address",
					"name": "account",
					"type": "address"
				},
				{
					"internalType": "uint256[]",
					"name": "tokenIDs",
					"type": "uint256[]"
				},
				{
					"internalType": "uint256[]",
					"name": "qtys",
					"type": "uint256[]"
				}
			],
			"name": "manualMintBatch",
			"outputs": [],
			"stateMutability": "nonpayable",
			"type": "function"
		},
		{
			"inputs": [
				{
					"internalType": "address",
					"name": "account",
					"type": "address"
				},
				{
					"internalType": "uint256",
					"name": "tokenID",
					"type": "uint256"
				},
				{
					"internalType": "uint256",
					"name": "qty",
					"type": "uint256"
				}
			],
			"name": "mint",
			"outputs": [],
			"stateMutability": "payable",
			"type": "function"
		},
		{
			"inputs": [],
			"name": "pauseContract",
			"outputs": [],
			"stateMutability": "nonpayable",
			"type": "function"
		},
		{
			"inputs": [],
			"name": "paused",
			"outputs": [
				{
					"internalType": "bool",
					"name": "",
					"type": "bool"
				}
			],
			"stateMutability": "view",
			"type": "function"
		},
		{
			"inputs": [
				{
					"internalType": "bytes32",
					"name": "role",
					"type": "bytes32"
				},
				{
					"internalType": "address",
					"name": "account",
					"type": "address"
				}
			],
			"name": "renounceRole",
			"outputs": [],
			"stateMutability": "nonpayable",
			"type": "function"
		},
		{
			"inputs": [
				{
					"internalType": "bytes32",
					"name": "role",
					"type": "bytes32"
				},
				{
					"internalType": "address",
					"name": "account",
					"type": "address"
				}
			],
			"name": "revokeRole",
			"outputs": [],
			"stateMutability": "nonpayable",
			"type": "function"
		},
		{
			"inputs": [
				{
					"internalType": "address",
					"name": "from",
					"type": "address"
				},
				{
					"internalType": "address",
					"name": "to",
					"type": "address"
				},
				{
					"internalType": "uint256[]",
					"name": "ids",
					"type": "uint256[]"
				},
				{
					"internalType": "uint256[]",
					"name": "amounts",
					"type": "uint256[]"
				},
				{
					"internalType": "bytes",
					"name": "data",
					"type": "bytes"
				}
			],
			"name": "safeBatchTransferFrom",
			"outputs": [],
			"stateMutability": "nonpayable",
			"type": "function"
		},
		{
			"inputs": [
				{
					"internalType": "address",
					"name": "from",
					"type": "address"
				},
				{
					"internalType": "address",
					"name": "to",
					"type": "address"
				},
				{
					"internalType": "uint256",
					"name": "id",
					"type": "uint256"
				},
				{
					"internalType": "uint256",
					"name": "amount",
					"type": "uint256"
				},
				{
					"internalType": "bytes",
					"name": "data",
					"type": "bytes"
				}
			],
			"name": "safeTransferFrom",
			"outputs": [],
			"stateMutability": "nonpayable",
			"type": "function"
		},
		{
			"inputs": [
				{
					"internalType": "address",
					"name": "operator",
					"type": "address"
				},
				{
					"internalType": "bool",
					"name": "approved",
					"type": "bool"
				}
			],
			"name": "setApprovalForAll",
			"outputs": [],
			"stateMutability": "nonpayable",
			"type": "function"
		},
		{
			"inputs": [
				{
					"internalType": "string",
					"name": "_uri",
					"type": "string"
				}
			],
			"name": "setContractURI",
			"outputs": [],
			"stateMutability": "nonpayable",
			"type": "function"
		},
		{
			"inputs": [
				{
					"internalType": "uint256",
					"name": "tokenID",
					"type": "uint256"
				},
				{
					"internalType": "string",
					"name": "_description",
					"type": "string"
				},
				{
					"internalType": "string",
					"name": "_metadataURI",
					"type": "string"
				},
				{
					"internalType": "uint256",
					"name": "_category",
					"type": "uint256"
				},
				{
					"internalType": "uint256",
					"name": "_tier",
					"type": "uint256"
				},
				{
					"internalType": "uint256",
					"name": "_price",
					"type": "uint256"
				}
			],
			"name": "setTokenSettings",
			"outputs": [],
			"stateMutability": "nonpayable",
			"type": "function"
		},
		{
			"inputs": [
				{
					"internalType": "bytes4",
					"name": "interfaceId",
					"type": "bytes4"
				}
			],
			"name": "supportsInterface",
			"outputs": [
				{
					"internalType": "bool",
					"name": "",
					"type": "bool"
				}
			],
			"stateMutability": "view",
			"type": "function"
		},
		{
			"inputs": [
				{
					"internalType": "uint256",
					"name": "",
					"type": "uint256"
				}
			],
			"name": "tokenSettings",
			"outputs": [
				{
					"internalType": "string",
					"name": "description",
					"type": "string"
				},
				{
					"internalType": "string",
					"name": "metadataURI",
					"type": "string"
				},
				{
					"internalType": "uint256",
					"name": "category",
					"type": "uint256"
				},
				{
					"internalType": "uint256",
					"name": "tier",
					"type": "uint256"
				},
				{
					"internalType": "uint256",
					"name": "price",
					"type": "uint256"
				}
			],
			"stateMutability": "view",
			"type": "function"
		},
		{
			"inputs": [],
			"name": "unpauseContract",
			"outputs": [],
			"stateMutability": "nonpayable",
			"type": "function"
		},
		{
			"inputs": [
				{
					"internalType": "uint256",
					"name": "tokenID",
					"type": "uint256"
				}
			],
			"name": "uri",
			"outputs": [
				{
					"internalType": "string",
					"name": "",
					"type": "string"
				}
			],
			"stateMutability": "view",
			"type": "function"
		},
		{
			"inputs": [
				{
					"internalType": "address",
					"name": "_tokenContract",
					"type": "address"
				},
				{
					"internalType": "uint256",
					"name": "_tokenID",
					"type": "uint256"
				},
				{
					"internalType": "uint256",
					"name": "_amount",
					"type": "uint256"
				},
				{
					"internalType": "bytes",
					"name": "_data",
					"type": "bytes"
				}
			],
			"name": "withdrawERC1155",
			"outputs": [],
			"stateMutability": "nonpayable",
			"type": "function"
		},
		{
			"inputs": [
				{
					"internalType": "address",
					"name": "_tokenContract",
					"type": "address"
				},
				{
					"internalType": "uint256",
					"name": "_amount",
					"type": "uint256"
				}
			],
			"name": "withdrawERC20",
			"outputs": [],
			"stateMutability": "nonpayable",
			"type": "function"
		},
		{
			"inputs": [
				{
					"internalType": "address",
					"name": "_tokenContract",
					"type": "address"
				},
				{
					"internalType": "uint256",
					"name": "_tokenID",
					"type": "uint256"
				}
			],
			"name": "withdrawERC721",
			"outputs": [],
			"stateMutability": "nonpayable",
			"type": "function"
		},
		{
			"inputs": [],
			"name": "withdrawFunds",
			"outputs": [],
			"stateMutability": "nonpayable",
			"type": "function"
		}
	]
}