{
  "_format": "hh-sol-artifact-1",
  "contractName": "GoingUpProjects",
  "sourceName": "contracts/GoingUpProjects.sol",
  "abi": [
    {
      "inputs": [],
      "stateMutability": "nonpayable",
      "type": "constructor"
    },
    {
      "anonymous": false,
      "inputs": [
        {
          "indexed": true,
          "internalType": "uint256",
          "name": "projectId",
          "type": "uint256"
        },
        {
          "indexed": false,
          "internalType": "address",
          "name": "member",
          "type": "address"
        }
      ],
      "name": "AcceptProjectInvitation",
      "type": "event"
    },
    {
      "anonymous": false,
      "inputs": [
        {
          "indexed": true,
          "internalType": "uint256",
          "name": "projectId",
          "type": "uint256"
        },
        {
          "indexed": false,
          "internalType": "address",
          "name": "activatedBy",
          "type": "address"
        }
      ],
      "name": "Activate",
      "type": "event"
    },
    {
      "anonymous": false,
      "inputs": [
        {
          "indexed": false,
          "internalType": "address",
          "name": "changedBy",
          "type": "address"
        },
        {
          "indexed": false,
          "internalType": "uint256",
          "name": "newAddMemberPrice",
          "type": "uint256"
        }
      ],
      "name": "AddMemberPriceChanged",
      "type": "event"
    },
    {
      "anonymous": false,
      "inputs": [
        {
          "indexed": false,
          "internalType": "address",
          "name": "setBy",
          "type": "address"
        },
        {
          "indexed": false,
          "internalType": "address",
          "name": "targetAddress",
          "type": "address"
        },
        {
          "indexed": false,
          "internalType": "uint256",
          "name": "overridePrice",
          "type": "uint256"
        }
      ],
      "name": "AddMemberPriceOverrideSet",
      "type": "event"
    },
    {
      "anonymous": false,
      "inputs": [
        {
          "indexed": true,
          "internalType": "uint256",
          "name": "projectId",
          "type": "uint256"
        },
        {
          "indexed": false,
          "internalType": "address",
          "name": "allowedBy",
          "type": "address"
        }
      ],
      "name": "AllowMembersToEdit",
      "type": "event"
    },
    {
      "anonymous": false,
      "inputs": [
        {
          "indexed": true,
          "internalType": "address",
          "name": "creator",
          "type": "address"
        },
        {
          "indexed": false,
          "internalType": "uint256",
          "name": "projectId",
          "type": "uint256"
        }
      ],
      "name": "Create",
      "type": "event"
    },
    {
      "anonymous": false,
      "inputs": [
        {
          "indexed": true,
          "internalType": "uint256",
          "name": "projectId",
          "type": "uint256"
        },
        {
          "indexed": false,
          "internalType": "address",
          "name": "deactivatedBy",
          "type": "address"
        }
      ],
      "name": "Deactivate",
      "type": "event"
    },
    {
      "anonymous": false,
      "inputs": [
        {
          "indexed": true,
          "internalType": "uint256",
          "name": "projectId",
          "type": "uint256"
        },
        {
          "indexed": false,
          "internalType": "address",
          "name": "allowedBy",
          "type": "address"
        }
      ],
      "name": "DisallowMembersToEdit",
      "type": "event"
    },
    {
      "anonymous": false,
      "inputs": [
        {
          "indexed": true,
          "internalType": "uint256",
          "name": "projectId",
          "type": "uint256"
        },
        {
          "indexed": false,
          "internalType": "address",
          "name": "from",
          "type": "address"
        },
        {
          "indexed": false,
          "internalType": "address",
          "name": "to",
          "type": "address"
        }
      ],
      "name": "DisinviteMember",
      "type": "event"
    },
    {
      "anonymous": false,
      "inputs": [
        {
          "indexed": false,
          "internalType": "address",
          "name": "changedBy",
          "type": "address"
        },
        {
          "indexed": false,
          "internalType": "uint256",
          "name": "newFreeMembers",
          "type": "uint256"
        }
      ],
      "name": "FreeMembersChanged",
      "type": "event"
    },
    {
      "anonymous": false,
      "inputs": [
        {
          "indexed": true,
          "internalType": "uint256",
          "name": "projectId",
          "type": "uint256"
        },
        {
          "indexed": false,
          "internalType": "address",
          "name": "from",
          "type": "address"
        },
        {
          "indexed": false,
          "internalType": "address",
          "name": "to",
          "type": "address"
        }
      ],
      "name": "InviteMember",
      "type": "event"
    },
    {
      "anonymous": false,
      "inputs": [
        {
          "indexed": true,
          "internalType": "uint256",
          "name": "projectId",
          "type": "uint256"
        },
        {
          "indexed": false,
          "internalType": "address",
          "name": "member",
          "type": "address"
        },
        {
          "indexed": false,
          "internalType": "string",
          "name": "reason",
          "type": "string"
        }
      ],
      "name": "LeaveProject",
      "type": "event"
    },
    {
      "anonymous": false,
      "inputs": [
        {
          "indexed": true,
          "internalType": "uint256",
          "name": "projectId",
          "type": "uint256"
        },
        {
          "indexed": false,
          "internalType": "address",
          "name": "addedBy",
          "type": "address"
        },
        {
          "indexed": false,
          "internalType": "address",
          "name": "member",
          "type": "address"
        }
      ],
      "name": "ManuallyAddMember",
      "type": "event"
    },
    {
      "anonymous": false,
      "inputs": [
        {
          "indexed": false,
          "internalType": "uint256",
          "name": "projectId",
          "type": "uint256"
        },
        {
          "indexed": false,
          "internalType": "address",
          "name": "removedBy",
          "type": "address"
        },
        {
          "indexed": false,
          "internalType": "address",
          "name": "memberRemoved",
          "type": "address"
        },
        {
          "indexed": false,
          "internalType": "string",
          "name": "reason",
          "type": "string"
        }
      ],
      "name": "RemoveMember",
      "type": "event"
    },
    {
      "anonymous": false,
      "inputs": [
        {
          "indexed": true,
          "internalType": "uint256",
          "name": "projectId",
          "type": "uint256"
        },
        {
          "indexed": false,
          "internalType": "address",
          "name": "setAsAchievedBy",
          "type": "address"
        },
        {
          "indexed": false,
          "internalType": "address",
          "name": "member",
          "type": "address"
        }
      ],
      "name": "SetMemberGoalAsAchieved",
      "type": "event"
    },
    {
      "anonymous": false,
      "inputs": [
        {
          "indexed": true,
          "internalType": "uint256",
          "name": "projectId",
          "type": "uint256"
        },
        {
          "indexed": false,
          "internalType": "address",
          "name": "setAsVerifiedBy",
          "type": "address"
        },
        {
          "indexed": false,
          "internalType": "address",
          "name": "member",
          "type": "address"
        }
      ],
      "name": "SetMemberRewardAsVerified",
      "type": "event"
    },
    {
      "anonymous": false,
      "inputs": [
        {
          "indexed": true,
          "internalType": "uint256",
          "name": "projectId",
          "type": "uint256"
        },
        {
          "indexed": false,
          "internalType": "address",
          "name": "setBy",
          "type": "address"
        },
        {
          "indexed": false,
          "internalType": "string",
          "name": "key",
          "type": "string"
        },
        {
          "indexed": false,
          "internalType": "string",
          "name": "value",
          "type": "string"
        }
      ],
      "name": "SetProjectExtraData",
      "type": "event"
    },
    {
      "anonymous": false,
      "inputs": [
        {
          "indexed": true,
          "internalType": "uint256",
          "name": "projectId",
          "type": "uint256"
        },
        {
          "indexed": false,
          "internalType": "address",
          "name": "setBy",
          "type": "address"
        },
        {
          "indexed": false,
          "internalType": "address",
          "name": "member",
          "type": "address"
        }
      ],
      "name": "SetProjectMemberExtraData",
      "type": "event"
    },
    {
      "anonymous": false,
      "inputs": [
        {
          "indexed": true,
          "internalType": "uint256",
          "name": "projectId",
          "type": "uint256"
        },
        {
          "indexed": false,
          "internalType": "address",
          "name": "setBy",
          "type": "address"
        }
      ],
      "name": "SetProjectPrivate",
      "type": "event"
    },
    {
      "anonymous": false,
      "inputs": [
        {
          "indexed": true,
          "internalType": "uint256",
          "name": "projectId",
          "type": "uint256"
        },
        {
          "indexed": false,
          "internalType": "address",
          "name": "setBy",
          "type": "address"
        }
      ],
      "name": "SetProjectPublic",
      "type": "event"
    },
    {
      "anonymous": false,
      "inputs": [
        {
          "indexed": true,
          "internalType": "uint256",
          "name": "projectId",
          "type": "uint256"
        },
        {
          "indexed": false,
          "internalType": "address",
          "name": "reviewedBy",
          "type": "address"
        },
        {
          "indexed": false,
          "internalType": "int8",
          "name": "score",
          "type": "int8"
        },
        {
          "indexed": false,
          "internalType": "string",
          "name": "comments",
          "type": "string"
        }
      ],
      "name": "SubmitProjectReview",
      "type": "event"
    },
    {
      "anonymous": false,
      "inputs": [
        {
          "indexed": true,
          "internalType": "uint256",
          "name": "projectId",
          "type": "uint256"
        },
        {
          "indexed": false,
          "internalType": "address",
          "name": "from",
          "type": "address"
        },
        {
          "indexed": false,
          "internalType": "address",
          "name": "to",
          "type": "address"
        }
      ],
      "name": "TransferProjectOwnership",
      "type": "event"
    },
    {
      "anonymous": false,
      "inputs": [
        {
          "indexed": true,
          "internalType": "address",
          "name": "updater",
          "type": "address"
        },
        {
          "indexed": false,
          "internalType": "uint256",
          "name": "projectId",
          "type": "uint256"
        }
      ],
      "name": "Update",
      "type": "event"
    },
    {
      "inputs": [
        {
          "internalType": "uint256",
          "name": "projectId",
          "type": "uint256"
        }
      ],
      "name": "acceptProjectInvitation",
      "outputs": [],
      "stateMutability": "nonpayable",
      "type": "function"
    },
    {
      "inputs": [
        {
          "internalType": "uint256",
          "name": "projectId",
          "type": "uint256"
        }
      ],
      "name": "activate",
      "outputs": [],
      "stateMutability": "nonpayable",
      "type": "function"
    },
    {
      "inputs": [],
      "name": "addMemberPrice",
      "outputs": [
        {
          "internalType": "uint256",
          "name": "",
          "type": "uint256"
        }
      ],
      "stateMutability": "view",
      "type": "function"
    },
    {
      "inputs": [
        {
          "internalType": "address",
          "name": "",
          "type": "address"
        }
      ],
      "name": "addMemberPriceOverrides",
      "outputs": [
        {
          "internalType": "uint256",
          "name": "",
          "type": "uint256"
        }
      ],
      "stateMutability": "view",
      "type": "function"
    },
    {
      "inputs": [
        {
          "internalType": "address",
          "name": "",
          "type": "address"
        }
      ],
      "name": "admins",
      "outputs": [
        {
          "internalType": "bool",
          "name": "",
          "type": "bool"
        }
      ],
      "stateMutability": "view",
      "type": "function"
    },
    {
      "inputs": [
        {
          "internalType": "uint256",
          "name": "projectId",
          "type": "uint256"
        }
      ],
      "name": "allowMembersToEdit",
      "outputs": [],
      "stateMutability": "nonpayable",
      "type": "function"
    },
    {
      "inputs": [
        {
          "internalType": "string",
          "name": "name",
          "type": "string"
        },
        {
          "internalType": "string",
          "name": "description",
          "type": "string"
        },
        {
          "internalType": "uint256",
          "name": "started",
          "type": "uint256"
        },
        {
          "internalType": "uint256",
          "name": "ended",
          "type": "uint256"
        },
        {
          "internalType": "string",
          "name": "primaryUrl",
          "type": "string"
        },
        {
          "internalType": "string",
          "name": "tags",
          "type": "string"
        },
        {
          "internalType": "bool",
          "name": "isPrivate",
          "type": "bool"
        }
      ],
      "name": "create",
      "outputs": [],
      "stateMutability": "payable",
      "type": "function"
    },
    {
      "inputs": [
        {
          "internalType": "uint256",
          "name": "projectId",
          "type": "uint256"
        }
      ],
      "name": "deactivate",
      "outputs": [],
      "stateMutability": "nonpayable",
      "type": "function"
    },
    {
      "inputs": [
        {
          "internalType": "uint256",
          "name": "projectId",
          "type": "uint256"
        }
      ],
      "name": "disallowMembersToEdit",
      "outputs": [],
      "stateMutability": "nonpayable",
      "type": "function"
    },
    {
      "inputs": [
        {
          "internalType": "uint256",
          "name": "projectId",
          "type": "uint256"
        },
        {
          "internalType": "address",
          "name": "member",
          "type": "address"
        }
      ],
      "name": "disinviteMember",
      "outputs": [],
      "stateMutability": "nonpayable",
      "type": "function"
    },
    {
      "inputs": [
        {
          "internalType": "uint256",
          "name": "",
          "type": "uint256"
        },
        {
          "internalType": "string",
          "name": "",
          "type": "string"
        }
      ],
      "name": "extraData",
      "outputs": [
        {
          "internalType": "string",
          "name": "",
          "type": "string"
        }
      ],
      "stateMutability": "view",
      "type": "function"
    },
    {
      "inputs": [],
      "name": "freeMembers",
      "outputs": [
        {
          "internalType": "uint256",
          "name": "",
          "type": "uint256"
        }
      ],
      "stateMutability": "view",
      "type": "function"
    },
    {
      "inputs": [
        {
          "internalType": "uint256",
          "name": "projectId",
          "type": "uint256"
        }
      ],
      "name": "getPendingInvites",
      "outputs": [
        {
          "internalType": "address[]",
          "name": "",
          "type": "address[]"
        }
      ],
      "stateMutability": "view",
      "type": "function"
    },
    {
      "inputs": [
        {
          "internalType": "uint256",
          "name": "projectId",
          "type": "uint256"
        }
      ],
      "name": "getProjectMembers",
      "outputs": [
        {
          "internalType": "address[]",
          "name": "",
          "type": "address[]"
        }
      ],
      "stateMutability": "view",
      "type": "function"
    },
    {
      "inputs": [
        {
          "internalType": "uint256",
          "name": "projectId",
          "type": "uint256"
        },
        {
          "internalType": "address",
          "name": "member",
          "type": "address"
        },
        {
          "internalType": "string",
          "name": "role",
          "type": "string"
        },
        {
          "internalType": "string",
          "name": "goal",
          "type": "string"
        },
        {
          "internalType": "string",
          "name": "rewardData",
          "type": "string"
        }
      ],
      "name": "inviteMember",
      "outputs": [],
      "stateMutability": "payable",
      "type": "function"
    },
    {
      "inputs": [
        {
          "internalType": "uint256",
          "name": "projectId",
          "type": "uint256"
        },
        {
          "internalType": "address",
          "name": "addressToCheck",
          "type": "address"
        }
      ],
      "name": "isAddressInvitedToProject",
      "outputs": [
        {
          "internalType": "bool",
          "name": "",
          "type": "bool"
        }
      ],
      "stateMutability": "view",
      "type": "function"
    },
    {
      "inputs": [
        {
          "internalType": "uint256",
          "name": "projectId",
          "type": "uint256"
        },
        {
          "internalType": "string",
          "name": "reason",
          "type": "string"
        }
      ],
      "name": "leaveProject",
      "outputs": [],
      "stateMutability": "nonpayable",
      "type": "function"
    },
    {
      "inputs": [
        {
          "internalType": "uint256",
          "name": "projectId",
          "type": "uint256"
        },
        {
          "internalType": "address",
          "name": "member",
          "type": "address"
        },
        {
          "internalType": "string",
          "name": "role",
          "type": "string"
        },
        {
          "internalType": "string",
          "name": "goal",
          "type": "string"
        },
        {
          "internalType": "string",
          "name": "rewardData",
          "type": "string"
        }
      ],
      "name": "manuallyAddMember",
      "outputs": [],
      "stateMutability": "nonpayable",
      "type": "function"
    },
    {
      "inputs": [],
      "name": "owner",
      "outputs": [
        {
          "internalType": "address",
          "name": "",
          "type": "address"
        }
      ],
      "stateMutability": "view",
      "type": "function"
    },
    {
      "inputs": [],
      "name": "price",
      "outputs": [
        {
          "internalType": "uint256",
          "name": "",
          "type": "uint256"
        }
      ],
      "stateMutability": "view",
      "type": "function"
    },
    {
      "inputs": [
        {
          "internalType": "uint256",
          "name": "",
          "type": "uint256"
        },
        {
          "internalType": "address",
          "name": "",
          "type": "address"
        }
      ],
      "name": "projectMemberMapping",
      "outputs": [
        {
          "internalType": "string",
          "name": "role",
          "type": "string"
        },
        {
          "internalType": "string",
          "name": "goal",
          "type": "string"
        },
        {
          "internalType": "string",
          "name": "rewardData",
          "type": "string"
        },
        {
          "internalType": "bool",
          "name": "goalAchieved",
          "type": "bool"
        },
        {
          "internalType": "bool",
          "name": "rewardVerified",
          "type": "bool"
        },
        {
          "internalType": "string",
          "name": "extraData",
          "type": "string"
        }
      ],
      "stateMutability": "view",
      "type": "function"
    },
    {
      "inputs": [
        {
          "internalType": "uint256",
          "name": "",
          "type": "uint256"
        }
      ],
      "name": "projects",
      "outputs": [
        {
          "internalType": "uint256",
          "name": "id",
          "type": "uint256"
        },
        {
          "internalType": "string",
          "name": "name",
          "type": "string"
        },
        {
          "internalType": "string",
          "name": "description",
          "type": "string"
        },
        {
          "internalType": "uint256",
          "name": "started",
          "type": "uint256"
        },
        {
          "internalType": "uint256",
          "name": "ended",
          "type": "uint256"
        },
        {
          "internalType": "string",
          "name": "primaryUrl",
          "type": "string"
        },
        {
          "internalType": "string",
          "name": "tags",
          "type": "string"
        },
        {
          "internalType": "address",
          "name": "owner",
          "type": "address"
        },
        {
          "internalType": "bool",
          "name": "active",
          "type": "bool"
        },
        {
          "internalType": "bool",
          "name": "allowMembersToEdit",
          "type": "bool"
        },
        {
          "internalType": "bool",
          "name": "isPrivate",
          "type": "bool"
        }
      ],
      "stateMutability": "view",
      "type": "function"
    },
    {
      "inputs": [
        {
          "internalType": "uint256",
          "name": "projectId",
          "type": "uint256"
        },
        {
          "internalType": "address",
          "name": "member",
          "type": "address"
        },
        {
          "internalType": "string",
          "name": "reason",
          "type": "string"
        }
      ],
      "name": "removeMember",
      "outputs": [],
      "stateMutability": "nonpayable",
      "type": "function"
    },
    {
      "inputs": [
        {
          "internalType": "uint256",
          "name": "newAddMemberPrice",
          "type": "uint256"
        }
      ],
      "name": "setAddMemberPrice",
      "outputs": [],
      "stateMutability": "nonpayable",
      "type": "function"
    },
    {
      "inputs": [
        {
          "internalType": "address",
          "name": "targetAddress",
          "type": "address"
        },
        {
          "internalType": "uint256",
          "name": "overridePrice",
          "type": "uint256"
        }
      ],
      "name": "setAddMemberPriceOverride",
      "outputs": [],
      "stateMutability": "nonpayable",
      "type": "function"
    },
    {
      "inputs": [
        {
          "internalType": "address",
          "name": "targetAddress",
          "type": "address"
        },
        {
          "internalType": "bool",
          "name": "isAdmin",
          "type": "bool"
        }
      ],
      "name": "setAdmin",
      "outputs": [],
      "stateMutability": "nonpayable",
      "type": "function"
    },
    {
      "inputs": [
        {
          "internalType": "uint256",
          "name": "newFreeMembers",
          "type": "uint256"
        }
      ],
      "name": "setFreeMembers",
      "outputs": [],
      "stateMutability": "nonpayable",
      "type": "function"
    },
    {
      "inputs": [
        {
          "internalType": "uint256",
          "name": "projectId",
          "type": "uint256"
        },
        {
          "internalType": "address",
          "name": "member",
          "type": "address"
        }
      ],
      "name": "setMemberGoalAsAchieved",
      "outputs": [],
      "stateMutability": "nonpayable",
      "type": "function"
    },
    {
      "inputs": [
        {
          "internalType": "uint256",
          "name": "projectId",
          "type": "uint256"
        },
        {
          "internalType": "address",
          "name": "member",
          "type": "address"
        }
      ],
      "name": "setMemberRewardAsVerified",
      "outputs": [],
      "stateMutability": "nonpayable",
      "type": "function"
    },
    {
      "inputs": [
        {
          "internalType": "uint256",
          "name": "newPrice",
          "type": "uint256"
        }
      ],
      "name": "setPrice",
      "outputs": [],
      "stateMutability": "nonpayable",
      "type": "function"
    },
    {
      "inputs": [
        {
          "internalType": "uint256",
          "name": "projectId",
          "type": "uint256"
        },
        {
          "internalType": "string",
          "name": "key",
          "type": "string"
        },
        {
          "internalType": "string",
          "name": "value",
          "type": "string"
        }
      ],
      "name": "setProjectExtraData",
      "outputs": [],
      "stateMutability": "nonpayable",
      "type": "function"
    },
    {
      "inputs": [
        {
          "internalType": "uint256",
          "name": "projectId",
          "type": "uint256"
        },
        {
          "internalType": "address",
          "name": "member",
          "type": "address"
        },
        {
          "internalType": "string",
          "name": "data",
          "type": "string"
        }
      ],
      "name": "setProjectMemberExtraData",
      "outputs": [],
      "stateMutability": "nonpayable",
      "type": "function"
    },
    {
      "inputs": [
        {
          "internalType": "uint256",
          "name": "projectId",
          "type": "uint256"
        }
      ],
      "name": "setProjectPrivate",
      "outputs": [],
      "stateMutability": "nonpayable",
      "type": "function"
    },
    {
      "inputs": [
        {
          "internalType": "uint256",
          "name": "projectId",
          "type": "uint256"
        }
      ],
      "name": "setProjectPublic",
      "outputs": [],
      "stateMutability": "nonpayable",
      "type": "function"
    },
    {
      "inputs": [
        {
          "internalType": "uint256",
          "name": "projectId",
          "type": "uint256"
        },
        {
          "internalType": "int8",
          "name": "score",
          "type": "int8"
        },
        {
          "internalType": "string",
          "name": "comments",
          "type": "string"
        }
      ],
      "name": "submitProjectReview",
      "outputs": [],
      "stateMutability": "payable",
      "type": "function"
    },
    {
      "inputs": [
        {
          "internalType": "address",
          "name": "newOwner",
          "type": "address"
        }
      ],
      "name": "transferOwnership",
      "outputs": [],
      "stateMutability": "nonpayable",
      "type": "function"
    },
    {
      "inputs": [
        {
          "internalType": "uint256",
          "name": "projectId",
          "type": "uint256"
        },
        {
          "internalType": "address",
          "name": "to",
          "type": "address"
        }
      ],
      "name": "transferProjectOwnership",
      "outputs": [],
      "stateMutability": "payable",
      "type": "function"
    },
    {
      "inputs": [
        {
          "internalType": "uint256",
          "name": "projectId",
          "type": "uint256"
        },
        {
          "internalType": "string",
          "name": "name",
          "type": "string"
        },
        {
          "internalType": "string",
          "name": "description",
          "type": "string"
        },
        {
          "internalType": "uint256",
          "name": "started",
          "type": "uint256"
        },
        {
          "internalType": "uint256",
          "name": "ended",
          "type": "uint256"
        },
        {
          "internalType": "string",
          "name": "primaryUrl",
          "type": "string"
        },
        {
          "internalType": "string",
          "name": "tags",
          "type": "string"
        },
        {
          "internalType": "bool",
          "name": "isPrivate",
          "type": "bool"
        }
      ],
      "name": "update",
      "outputs": [],
      "stateMutability": "payable",
      "type": "function"
    },
    {
      "inputs": [
        {
          "internalType": "address",
          "name": "tokenAddress",
          "type": "address"
        },
        {
          "internalType": "uint256",
          "name": "tokenID",
          "type": "uint256"
        },
        {
          "internalType": "uint256",
          "name": "amount",
          "type": "uint256"
        },
        {
          "internalType": "bytes",
          "name": "data",
          "type": "bytes"
        }
      ],
      "name": "withdrawERC1155",
      "outputs": [],
      "stateMutability": "nonpayable",
      "type": "function"
    },
    {
      "inputs": [
        {
          "internalType": "address",
          "name": "tokenAddress",
          "type": "address"
        },
        {
          "internalType": "uint256",
          "name": "amount",
          "type": "uint256"
        }
      ],
      "name": "withdrawERC20",
      "outputs": [],
      "stateMutability": "nonpayable",
      "type": "function"
    },
    {
      "inputs": [
        {
          "internalType": "address",
          "name": "tokenAddress",
          "type": "address"
        },
        {
          "internalType": "uint256",
          "name": "tokenID",
          "type": "uint256"
        }
      ],
      "name": "withdrawERC721",
      "outputs": [],
      "stateMutability": "nonpayable",
      "type": "function"
    },
    {
      "inputs": [],
      "name": "withdrawFunds",
      "outputs": [],
      "stateMutability": "nonpayable",
      "type": "function"
    }
  ],
  "bytecode": "0x60806040526001600055662386f26fc10000600355600560045567016345785d8a000060055534801561003157600080fd5b50600180546001600160a01b03191633179055614f77806100536000396000f3fe6080604052600436106102505760003560e01c80638368254011610139578063b4bd0197116100b6578063f08afc851161007a578063f08afc8514610716578063f2fde38b1461072c578063f3e414f81461074c578063f80a48741461076c578063f9d4f2841461078c578063fe26b70b146107ac57600080fd5b8063b4bd019714610690578063c7d3c30e146106b0578063d4eba6a8146106c3578063d515d9d9146106e3578063dfecbd8e1461070357600080fd5b8063a035b1fe116100fd578063a035b1fe146105e8578063a1538bde146105fe578063a1db97821461061e578063abd6dd011461063e578063b260c42a1461067057600080fd5b806383682540146105305780638da5cb5b146105505780638e3ea7cf14610588578063916b9bef146105a857806391b7f5ed146105c857600080fd5b80633bcaa830116101d257806353baa5d01161019657806353baa5d01461045f57806366f9363c1461047f5780636da52db11461049f5780637c59b702146104bf5780637cc35b05146104fa5780637e9d4ed11461051057600080fd5b80633bcaa83014610392578063429b62e5146103b257806343ec213d146103f2578063473f8501146104125780634b0bddd21461043f57600080fd5b806316fa0b3e1161021957806316fa0b3e1461030a5780631cdb86261461032a57806324600fc3146103575780632f1fff131461036c578063331a749a1461037f57600080fd5b80627671e31461025557806306387204146102775780630b397a05146102975780630e7563bf146102b7578063107046bd146102ca575b600080fd5b34801561026157600080fd5b506102756102703660046142ab565b6107cc565b005b34801561028357600080fd5b506102756102923660046142e0565b610868565b3480156102a357600080fd5b506102756102b23660046143b8565b610c1c565b6102756102c5366004614418565b610d37565b3480156102d657600080fd5b506102ea6102e53660046142ab565b6111c2565b6040516103019b9a9998979695949392919061454b565b60405180910390f35b34801561031657600080fd5b506102756103253660046145f0565b61144d565b34801561033657600080fd5b5061034a6103453660046143b8565b6114f2565b604051610301919061461a565b34801561036357600080fd5b506102756115a8565b61027561037a366004614676565b61161b565b61027561038d36600461472a565b611ba1565b34801561039e57600080fd5b506102756103ad366004614789565b611c69565b3480156103be57600080fd5b506103e26103cd3660046147ae565b60026020526000908152604090205460ff1681565b6040519015158152602001610301565b3480156103fe57600080fd5b5061027561040d366004614789565b612030565b34801561041e57600080fd5b5061043261042d3660046142ab565b612413565b60405161030191906147c9565b34801561044b57600080fd5b5061027561045a366004614816565b612433565b34801561046b57600080fd5b5061027561047a3660046142ab565b6124a8565b34801561048b57600080fd5b5061027561049a366004614676565b61281f565b3480156104ab57600080fd5b506102756104ba3660046142ab565b612950565b3480156104cb57600080fd5b506104ec6104da3660046147ae565b60066020526000908152604090205481565b604051908152602001610301565b34801561050657600080fd5b506104ec60045481565b34801561051c57600080fd5b5061027561052b3660046142e0565b612cc1565b34801561053c57600080fd5b5061027561054b3660046142e0565b61307b565b34801561055c57600080fd5b50600154610570906001600160a01b031681565b6040516001600160a01b039091168152602001610301565b34801561059457600080fd5b506102756105a33660046142ab565b613159565b3480156105b457600080fd5b506102756105c33660046142ab565b6131df565b3480156105d457600080fd5b506102756105e33660046142ab565b61326a565b3480156105f457600080fd5b506104ec60035481565b34801561060a57600080fd5b5061027561061936600461484d565b6132b3565b34801561062a57600080fd5b506102756106393660046145f0565b613366565b34801561064a57600080fd5b5061065e6106593660046142e0565b613423565b604051610301969594939291906148c2565b34801561067c57600080fd5b5061027561068b3660046142ab565b61368b565b34801561069c57600080fd5b506102756106ab3660046142ab565b61371c565b6102756106be36600461492c565b61379b565b3480156106cf57600080fd5b506102756106de3660046142ab565b6139ad565b3480156106ef57600080fd5b506104326106fe3660046142ab565b613a74565b6102756107113660046142e0565b613a8e565b34801561072257600080fd5b506104ec60055481565b34801561073857600080fd5b506102756107473660046147ae565b613b4a565b34801561075857600080fd5b506102756107673660046145f0565b613bb6565b34801561077857600080fd5b506102756107873660046149fd565b613c67565b34801561079857600080fd5b506103e26107a73660046142e0565b613ffa565b3480156107b857600080fd5b506102756107c73660046142ab565b614019565b6000818152600760208190526040909120015481906001600160a01b031633146108115760405162461bcd60e51b815260040161080890614a60565b60405180910390fd5b600082815260076020818152604092839020909101805460ff60a81b19169055905133815283917f28cf371e0846d7075b0f20e862d6bc23805f62e691976f6be6447f190a8ec50a91015b60405180910390a25050565b600082815260076020908152604080832081516101608101909252805482526001810180548795948401919061089d90614a8f565b80601f01602080910402602001604051908101604052809291908181526020018280546108c990614a8f565b80156109165780601f106108eb57610100808354040283529160200191610916565b820191906000526020600020905b8154815290600101906020018083116108f957829003601f168201915b5050505050815260200160028201805461092f90614a8f565b80601f016020809104026020016040519081016040528092919081815260200182805461095b90614a8f565b80156109a85780601f1061097d576101008083540402835291602001916109a8565b820191906000526020600020905b81548152906001019060200180831161098b57829003601f168201915b5050505050815260200160038201548152602001600482015481526020016005820180546109d590614a8f565b80601f0160208091040260200160405190810160405280929190818152602001828054610a0190614a8f565b8015610a4e5780601f10610a2357610100808354040283529160200191610a4e565b820191906000526020600020905b815481529060010190602001808311610a3157829003601f168201915b50505050508152602001600682018054610a6790614a8f565b80601f0160208091040260200160405190810160405280929190818152602001828054610a9390614a8f565b8015610ae05780601f10610ab557610100808354040283529160200191610ae0565b820191906000526020600020905b815481529060010190602001808311610ac357829003601f168201915b5050509183525050600791909101546001600160a01b03808216602084015260ff600160a01b8304811615156040850152600160a81b8304811615156060850152600160b01b909204909116151560809092019190915260e08201519192503391161480610b6e57508061012001518015610b6e57506000828152600860205260409020610b6e90336140aa565b610b8a5760405162461bcd60e51b815260040161080890614ac9565b6000848152600a60205260409020610ba290846140cc565b5060408051602080820183526000808352878152600982528381206001600160a01b03881682529091529190912090610bdb9082614b45565b50837f6f6b7b88ae3aeea58ec4761e132ecfec9ff054b29d7e0116533b320d8b7758003385604051610c0e929190614c05565b60405180910390a250505050565b60008281526007602081905260409091200154336001600160a01b0390911603610c885760405162461bcd60e51b815260206004820152601a60248201527f6f776e65722063616e6e6f74206c656176652070726f6a6563740000000000006044820152606401610808565b6000828152600860205260409020610ca090336140aa565b610cbc5760405162461bcd60e51b815260040161080890614c1f565b6000828152600860205260409020610cd490336140cc565b5060408051602080820183526000808352858152600982528381203382529091529190912090610d049082614b45565b50817f417462e9e2a4bcf0628b9739ba91bbf7ee6d93f1ce945936db56ac47360d903a338360405161085c929190614c56565b600354341015610d595760405162461bcd60e51b815260040161080890614c82565b600088815260076020908152604080832081516101608101909252805482526001810180548d959484019190610d8e90614a8f565b80601f0160208091040260200160405190810160405280929190818152602001828054610dba90614a8f565b8015610e075780601f10610ddc57610100808354040283529160200191610e07565b820191906000526020600020905b815481529060010190602001808311610dea57829003601f168201915b50505050508152602001600282018054610e2090614a8f565b80601f0160208091040260200160405190810160405280929190818152602001828054610e4c90614a8f565b8015610e995780601f10610e6e57610100808354040283529160200191610e99565b820191906000526020600020905b815481529060010190602001808311610e7c57829003601f168201915b505050505081526020016003820154815260200160048201548152602001600582018054610ec690614a8f565b80601f0160208091040260200160405190810160405280929190818152602001828054610ef290614a8f565b8015610f3f5780601f10610f1457610100808354040283529160200191610f3f565b820191906000526020600020905b815481529060010190602001808311610f2257829003601f168201915b50505050508152602001600682018054610f5890614a8f565b80601f0160208091040260200160405190810160405280929190818152602001828054610f8490614a8f565b8015610fd15780601f10610fa657610100808354040283529160200191610fd1565b820191906000526020600020905b815481529060010190602001808311610fb457829003601f168201915b5050509183525050600791909101546001600160a01b03808216602084015260ff600160a01b8304811615156040850152600160a81b8304811615156060850152600160b01b909204909116151560809092019190915260e0820151919250339116148061105f5750806101200151801561105f5750600082815260086020526040902061105f90336140aa565b61107b5760405162461bcd60e51b815260040161080890614ac9565b60008a815260076020819052604090912001548a90600160a01b900460ff166110db5760405162461bcd60e51b815260206004820152601260248201527170726f6a656374206e6f742061637469766560701b6044820152606401610808565b60008b81526007602052604090206001016110f68b82614b45565b5060008b81526007602052604090206002016111128a82614b45565b5060008b8152600760205260409020600381018990556004810188905560050161113c8782614b45565b5060008b81526007602052604090206006016111588682614b45565b5060008b815260076020818152604092839020909101805460ff60b01b1916600160b01b8815150217905590518c815233917f5f66d2a93b609bc6596b75c6dbb0e4f3f7cafd4b3b617157ff304d1076e58375910160405180910390a25050505050505050505050565b600760205260009081526040902080546001820180549192916111e490614a8f565b80601f016020809104026020016040519081016040528092919081815260200182805461121090614a8f565b801561125d5780601f106112325761010080835404028352916020019161125d565b820191906000526020600020905b81548152906001019060200180831161124057829003601f168201915b50505050509080600201805461127290614a8f565b80601f016020809104026020016040519081016040528092919081815260200182805461129e90614a8f565b80156112eb5780601f106112c0576101008083540402835291602001916112eb565b820191906000526020600020905b8154815290600101906020018083116112ce57829003601f168201915b50505050509080600301549080600401549080600501805461130c90614a8f565b80601f016020809104026020016040519081016040528092919081815260200182805461133890614a8f565b80156113855780601f1061135a57610100808354040283529160200191611385565b820191906000526020600020905b81548152906001019060200180831161136857829003601f168201915b50505050509080600601805461139a90614a8f565b80601f01602080910402602001604051908101604052809291908181526020018280546113c690614a8f565b80156114135780601f106113e857610100808354040283529160200191611413565b820191906000526020600020905b8154815290600101906020018083116113f657829003601f168201915b505050600790930154919250506001600160a01b0381169060ff600160a01b8204811691600160a81b8104821691600160b01b909104168b565b6001546001600160a01b031633148061147557503360009081526002602052604090205460ff165b6114915760405162461bcd60e51b815260040161080890614caf565b6001600160a01b03821660008181526006602090815260409182902084905581513381529081019290925281018290527fe7f7f25d3b7ef2ac6491f0eb64c7bc8b3629dc3591569e52be1b7a4eb5ea97dc9060600160405180910390a15050565b600b60209081526000928352604090922081518083018401805192815290840192909301919091209152805461152790614a8f565b80601f016020809104026020016040519081016040528092919081815260200182805461155390614a8f565b80156115a05780601f10611575576101008083540402835291602001916115a0565b820191906000526020600020905b81548152906001019060200180831161158357829003601f168201915b505050505081565b6001546001600160a01b03163314806115d057503360009081526002602052604090205460ff165b6115ec5760405162461bcd60e51b815260040161080890614caf565b60405133904780156108fc02916000818181858888f19350505050158015611618573d6000803e3d6000fd5b50565b600088815260076020908152604080832081516101608101909252805482526001810180548d95948401919061165090614a8f565b80601f016020809104026020016040519081016040528092919081815260200182805461167c90614a8f565b80156116c95780601f1061169e576101008083540402835291602001916116c9565b820191906000526020600020905b8154815290600101906020018083116116ac57829003601f168201915b505050505081526020016002820180546116e290614a8f565b80601f016020809104026020016040519081016040528092919081815260200182805461170e90614a8f565b801561175b5780601f106117305761010080835404028352916020019161175b565b820191906000526020600020905b81548152906001019060200180831161173e57829003601f168201915b50505050508152602001600382015481526020016004820154815260200160058201805461178890614a8f565b80601f01602080910402602001604051908101604052809291908181526020018280546117b490614a8f565b80156118015780601f106117d657610100808354040283529160200191611801565b820191906000526020600020905b8154815290600101906020018083116117e457829003601f168201915b5050505050815260200160068201805461181a90614a8f565b80601f016020809104026020016040519081016040528092919081815260200182805461184690614a8f565b80156118935780601f1061186857610100808354040283529160200191611893565b820191906000526020600020905b81548152906001019060200180831161187657829003601f168201915b5050509183525050600791909101546001600160a01b03808216602084015260ff600160a01b8304811615156040850152600160a81b8304811615156060850152600160b01b909204909116151560809092019190915260e08201519192503391161480611921575080610120015180156119215750600082815260086020526040902061192190336140aa565b61193d5760405162461bcd60e51b815260040161080890614ac9565b336000908152600660205260408120548b9181900361195b57506005545b6004546000838152600860205260409020611975906140e1565b6000848152600a6020526040902061198c906140e1565b6119969190614ce8565b6119a1906001614ce8565b1115611aaf57803410156119c75760405162461bcd60e51b815260040161080890614c82565b60008c8152600a602052604090206119df908c6140eb565b5060008c81526009602090815260408083206001600160a01b038f1684529091529020611a0d8a8c83614d00565b5060008c81526009602090815260408083206001600160a01b038f1684529091529020600101611a3e888a83614d00565b5060008c81526009602090815260408083206001600160a01b038f1684529091529020600201611a6f868883614d00565b508b7fc6f31c441833b21f293718c07925d80b07f6bc91007450774197b3db20f72fcc338d604051611aa2929190614c05565b60405180910390a2611b93565b60008c8152600a60205260409020611ac7908c6140eb565b5060008c81526009602090815260408083206001600160a01b038f1684529091529020611af58a8c83614d00565b5060008c81526009602090815260408083206001600160a01b038f1684529091529020600101611b26888a83614d00565b5060008c81526009602090815260408083206001600160a01b038f1684529091529020600201611b57868883614d00565b508b7fc6f31c441833b21f293718c07925d80b07f6bc91007450774197b3db20f72fcc338d604051611b8a929190614c05565b60405180910390a25b505050505050505050505050565b600354341015611bc35760405162461bcd60e51b815260040161080890614c82565b6004198260000b12158015611bdc575060058260000b13155b611c285760405162461bcd60e51b815260206004820152601f60248201527f73636f7265206d757374206265206265747765656e202d3520616e64202b35006044820152606401610808565b827f60bba7935bbeede862536783b7f9a308eb01a6e5799e17ff32a5da221e1a962c338484604051611c5c93929190614dc1565b60405180910390a2505050565b6000838152600760209081526040808320815161016081019092528054825260018101805488959484019190611c9e90614a8f565b80601f0160208091040260200160405190810160405280929190818152602001828054611cca90614a8f565b8015611d175780601f10611cec57610100808354040283529160200191611d17565b820191906000526020600020905b815481529060010190602001808311611cfa57829003601f168201915b50505050508152602001600282018054611d3090614a8f565b80601f0160208091040260200160405190810160405280929190818152602001828054611d5c90614a8f565b8015611da95780601f10611d7e57610100808354040283529160200191611da9565b820191906000526020600020905b815481529060010190602001808311611d8c57829003601f168201915b505050505081526020016003820154815260200160048201548152602001600582018054611dd690614a8f565b80601f0160208091040260200160405190810160405280929190818152602001828054611e0290614a8f565b8015611e4f5780601f10611e2457610100808354040283529160200191611e4f565b820191906000526020600020905b815481529060010190602001808311611e3257829003601f168201915b50505050508152602001600682018054611e6890614a8f565b80601f0160208091040260200160405190810160405280929190818152602001828054611e9490614a8f565b8015611ee15780601f10611eb657610100808354040283529160200191611ee1565b820191906000526020600020905b815481529060010190602001808311611ec457829003601f168201915b5050509183525050600791909101546001600160a01b03808216602084015260ff600160a01b8304811615156040850152600160a81b8304811615156060850152600160b01b909204909116151560809092019190915260e08201519192503391161480611f6f57508061012001518015611f6f57506000828152600860205260409020611f6f90336140aa565b611f8b5760405162461bcd60e51b815260040161080890614ac9565b6000858152600860205260409020611fa390856140aa565b611fbf5760405162461bcd60e51b815260040161080890614c1f565b60008581526009602090815260408083206001600160a01b03881684529091529020600401611fee8482614b45565b50847fd9f85596d0350abe376b65c9bc1ab49e988552f2ac979b593e5d55cadd53fa7b3386604051612021929190614c05565b60405180910390a25050505050565b600083815260076020908152604080832081516101608101909252805482526001810180548895948401919061206590614a8f565b80601f016020809104026020016040519081016040528092919081815260200182805461209190614a8f565b80156120de5780601f106120b3576101008083540402835291602001916120de565b820191906000526020600020905b8154815290600101906020018083116120c157829003601f168201915b505050505081526020016002820180546120f790614a8f565b80601f016020809104026020016040519081016040528092919081815260200182805461212390614a8f565b80156121705780601f1061214557610100808354040283529160200191612170565b820191906000526020600020905b81548152906001019060200180831161215357829003601f168201915b50505050508152602001600382015481526020016004820154815260200160058201805461219d90614a8f565b80601f01602080910402602001604051908101604052809291908181526020018280546121c990614a8f565b80156122165780601f106121eb57610100808354040283529160200191612216565b820191906000526020600020905b8154815290600101906020018083116121f957829003601f168201915b5050505050815260200160068201805461222f90614a8f565b80601f016020809104026020016040519081016040528092919081815260200182805461225b90614a8f565b80156122a85780601f1061227d576101008083540402835291602001916122a8565b820191906000526020600020905b81548152906001019060200180831161228b57829003601f168201915b5050509183525050600791909101546001600160a01b03808216602084015260ff600160a01b8304811615156040850152600160a81b8304811615156060850152600160b01b909204909116151560809092019190915260e08201519192503391161480612336575080610120015180156123365750600082815260086020526040902061233690336140aa565b6123525760405162461bcd60e51b815260040161080890614ac9565b600085815260086020526040902061236a90856140aa565b6123b65760405162461bcd60e51b815260206004820152601a60248201527f63616e6e6f742072656d6f76652061206e6f6e2d6d656d6265720000000000006044820152606401610808565b60008581526008602052604090206123ce90856140cc565b507f192e9717726252986d627e77aab569769deec7d8ec94b1e7b356598545ce46e8853386866040516124049493929190614df5565b60405180910390a15050505050565b6000818152600a6020526040902060609061242d90614100565b92915050565b6001546001600160a01b0316331461247d5760405162461bcd60e51b815260206004820152600d60248201526c3737ba103a34329037bbb732b960991b6044820152606401610808565b6001600160a01b03919091166000908152600260205260409020805460ff1916911515919091179055565b60008181526007602090815260408083208151610160810190925280548252600181018054869594840191906124dd90614a8f565b80601f016020809104026020016040519081016040528092919081815260200182805461250990614a8f565b80156125565780601f1061252b57610100808354040283529160200191612556565b820191906000526020600020905b81548152906001019060200180831161253957829003601f168201915b5050505050815260200160028201805461256f90614a8f565b80601f016020809104026020016040519081016040528092919081815260200182805461259b90614a8f565b80156125e85780601f106125bd576101008083540402835291602001916125e8565b820191906000526020600020905b8154815290600101906020018083116125cb57829003601f168201915b50505050508152602001600382015481526020016004820154815260200160058201805461261590614a8f565b80601f016020809104026020016040519081016040528092919081815260200182805461264190614a8f565b801561268e5780601f106126635761010080835404028352916020019161268e565b820191906000526020600020905b81548152906001019060200180831161267157829003601f168201915b505050505081526020016006820180546126a790614a8f565b80601f01602080910402602001604051908101604052809291908181526020018280546126d390614a8f565b80156127205780601f106126f557610100808354040283529160200191612720565b820191906000526020600020905b81548152906001019060200180831161270357829003601f168201915b5050509183525050600791909101546001600160a01b03808216602084015260ff600160a01b8304811615156040850152600160a81b8304811615156060850152600160b01b909204909116151560809092019190915260e082015191925033911614806127ae575080610120015180156127ae575060008281526008602052604090206127ae90336140aa565b6127ca5760405162461bcd60e51b815260040161080890614ac9565b600083815260076020818152604092839020909101805460ff60b01b1916600160b01b179055905133815284917fb73e4ba45c2954d5b4e8ebe9b323e78b8aa4e7ff0a690f4244f46dda051170849101611c5c565b6001546001600160a01b031633148061284757503360009081526002602052604090205460ff165b6128635760405162461bcd60e51b815260040161080890614caf565b600088815260086020526040902061287b90886140eb565b5060008881526009602090815260408083206001600160a01b038b16845290915290206128a9868883614d00565b5060008881526009602090815260408083206001600160a01b038b16845290915290206001016128da848683614d00565b5060008881526009602090815260408083206001600160a01b038b168452909152902060020161290b828483614d00565b50877fd964449c6fa9af4a279c0d5de7838f879ec83eaf4c1cb8904fa27f9fd245d465338960405161293e929190614c05565b60405180910390a25050505050505050565b600081815260076020908152604080832081516101608101909252805482526001810180548695948401919061298590614a8f565b80601f01602080910402602001604051908101604052809291908181526020018280546129b190614a8f565b80156129fe5780601f106129d3576101008083540402835291602001916129fe565b820191906000526020600020905b8154815290600101906020018083116129e157829003601f168201915b50505050508152602001600282018054612a1790614a8f565b80601f0160208091040260200160405190810160405280929190818152602001828054612a4390614a8f565b8015612a905780601f10612a6557610100808354040283529160200191612a90565b820191906000526020600020905b815481529060010190602001808311612a7357829003601f168201915b505050505081526020016003820154815260200160048201548152602001600582018054612abd90614a8f565b80601f0160208091040260200160405190810160405280929190818152602001828054612ae990614a8f565b8015612b365780601f10612b0b57610100808354040283529160200191612b36565b820191906000526020600020905b815481529060010190602001808311612b1957829003601f168201915b50505050508152602001600682018054612b4f90614a8f565b80601f0160208091040260200160405190810160405280929190818152602001828054612b7b90614a8f565b8015612bc85780601f10612b9d57610100808354040283529160200191612bc8565b820191906000526020600020905b815481529060010190602001808311612bab57829003601f168201915b5050509183525050600791909101546001600160a01b03808216602084015260ff600160a01b8304811615156040850152600160a81b8304811615156060850152600160b01b909204909116151560809092019190915260e08201519192503391161480612c5657508061012001518015612c5657506000828152600860205260409020612c5690336140aa565b612c725760405162461bcd60e51b815260040161080890614ac9565b600083815260076020818152604092839020909101805460ff60b01b19169055905133815284917f168a71deb8127d652672213c2cd3b59bbc36a568bf9708634a183f5af379550e9101611c5c565b6000828152600760209081526040808320815161016081019092528054825260018101805487959484019190612cf690614a8f565b80601f0160208091040260200160405190810160405280929190818152602001828054612d2290614a8f565b8015612d6f5780601f10612d4457610100808354040283529160200191612d6f565b820191906000526020600020905b815481529060010190602001808311612d5257829003601f168201915b50505050508152602001600282018054612d8890614a8f565b80601f0160208091040260200160405190810160405280929190818152602001828054612db490614a8f565b8015612e015780601f10612dd657610100808354040283529160200191612e01565b820191906000526020600020905b815481529060010190602001808311612de457829003601f168201915b505050505081526020016003820154815260200160048201548152602001600582018054612e2e90614a8f565b80601f0160208091040260200160405190810160405280929190818152602001828054612e5a90614a8f565b8015612ea75780601f10612e7c57610100808354040283529160200191612ea7565b820191906000526020600020905b815481529060010190602001808311612e8a57829003601f168201915b50505050508152602001600682018054612ec090614a8f565b80601f0160208091040260200160405190810160405280929190818152602001828054612eec90614a8f565b8015612f395780601f10612f0e57610100808354040283529160200191612f39565b820191906000526020600020905b815481529060010190602001808311612f1c57829003601f168201915b5050509183525050600791909101546001600160a01b03808216602084015260ff600160a01b8304811615156040850152600160a81b8304811615156060850152600160b01b909204909116151560809092019190915260e08201519192503391161480612fc757508061012001518015612fc757506000828152600860205260409020612fc790336140aa565b612fe35760405162461bcd60e51b815260040161080890614ac9565b6000848152600860205260409020612ffb90846140aa565b6130175760405162461bcd60e51b815260040161080890614c1f565b60008481526009602090815260408083206001600160a01b038716845290915290819020600301805460ff191660011790555184907f36645d58e02afa1c38639e8290df30bfae15c41917fb49043cd0d853b279942990610c0e9033908790614c05565b6001546001600160a01b03163314806130a357503360009081526002602052604090205460ff165b6130bf5760405162461bcd60e51b815260040161080890614caf565b60008281526008602052604090206130d790826140aa565b6130f35760405162461bcd60e51b815260040161080890614c1f565b60008281526009602090815260408083206001600160a01b038516845290915290819020600301805461ff0019166101001790555182907f831a63cadef843aaf575ea22551d52b9832e3110954e1d97a237b88598cc7f0a9061085c9033908590614c05565b6001546001600160a01b031633148061318157503360009081526002602052604090205460ff165b61319d5760405162461bcd60e51b815260040161080890614caf565b600481905560408051338152602081018390527fb1cd13d2c2f805634911f8ba7c0f1f1a3b73ddcfe210982d9effa12e0e5fce7491015b60405180910390a150565b6000818152600760208190526040909120015481906001600160a01b0316331461321b5760405162461bcd60e51b815260040161080890614a60565b600082815260076020818152604092839020909101805460ff60a01b19169055905133815283917f2db5b21c1b51bf62f3aedd6ee9d626e86c1ce7a4c3678863d72af87528620af5910161085c565b6001546001600160a01b031633148061329257503360009081526002602052604090205460ff165b6132ae5760405162461bcd60e51b815260040161080890614caf565b600355565b6001546001600160a01b03163314806132db57503360009081526002602052604090205460ff165b6132f75760405162461bcd60e51b815260040161080890614caf565b604051637921219560e11b815284906001600160a01b0382169063f242432a9061332d9030903390899089908990600401614e31565b600060405180830381600087803b15801561334757600080fd5b505af115801561335b573d6000803e3d6000fd5b505050505050505050565b6001546001600160a01b031633148061338e57503360009081526002602052604090205460ff165b6133aa5760405162461bcd60e51b815260040161080890614caf565b60405163a9059cbb60e01b81523360048201526024810182905282906001600160a01b0382169063a9059cbb906044016020604051808303816000875af11580156133f9573d6000803e3d6000fd5b505050506040513d601f19601f8201168201806040525081019061341d9190614e76565b50505050565b600960209081526000928352604080842090915290825290208054819061344990614a8f565b80601f016020809104026020016040519081016040528092919081815260200182805461347590614a8f565b80156134c25780601f10613497576101008083540402835291602001916134c2565b820191906000526020600020905b8154815290600101906020018083116134a557829003601f168201915b5050505050908060010180546134d790614a8f565b80601f016020809104026020016040519081016040528092919081815260200182805461350390614a8f565b80156135505780601f1061352557610100808354040283529160200191613550565b820191906000526020600020905b81548152906001019060200180831161353357829003601f168201915b50505050509080600201805461356590614a8f565b80601f016020809104026020016040519081016040528092919081815260200182805461359190614a8f565b80156135de5780601f106135b3576101008083540402835291602001916135de565b820191906000526020600020905b8154815290600101906020018083116135c157829003601f168201915b505050506003830154600484018054939460ff808416956101009094041693509161360890614a8f565b80601f016020809104026020016040519081016040528092919081815260200182805461363490614a8f565b80156136815780601f1061365657610100808354040283529160200191613681565b820191906000526020600020905b81548152906001019060200180831161366457829003601f168201915b5050505050905086565b6000818152600760208190526040909120015481906001600160a01b031633146136c75760405162461bcd60e51b815260040161080890614a60565b600082815260076020818152604092839020909101805460ff60a01b1916600160a01b179055905133815283917f3852d39a30839f855c0cb6324fff483384b34a6031c370abda21e5df18931b8a910161085c565b6001546001600160a01b031633148061374457503360009081526002602052604090205460ff165b6137605760405162461bcd60e51b815260040161080890614caf565b600581905560408051338152602081018390527f74259ab7af8cedcc56fe61eda6425c17b82940e9be1c4eec7074c0abcca5252a91016131d4565b6003543410156137bd5760405162461bcd60e51b815260040161080890614c82565b6138296040518061016001604052806000815260200160608152602001606081526020016000815260200160008152602001606081526020016060815260200160006001600160a01b031681526020016000151581526020016000151581526020016000151581525090565b6000805480835260208084018b815260408086018c9052606086018b9052608086018a905260a0860189905260c086018890528615156101408701523360e08701526001610100870181905261012087018690529385526007909252922083518155915183929182019061389d9082614b45565b50604082015160028201906138b29082614b45565b50606082015160038201556080820151600482015560a082015160058201906138db9082614b45565b5060c082015160068201906138f09082614b45565b5060e082015160079091018054610100840151610120850151610140909501511515600160b01b0260ff60b01b19951515600160a81b029590951661ffff60a81b19911515600160a01b026001600160a81b03199093166001600160a01b039095169490941791909117169190911791909117905560008054908061397483614e93565b9091555050805160405190815233907fcc9018de05b5f497ee7618d8830568d8ac2d45d0671b73d8f71c67e824122ec79060200161293e565b6000818152600a602052604090206139c590336140aa565b613a0a5760405162461bcd60e51b81526020600482015260166024820152751b9bdd081a5b9d9a5d1959081d1bc81c1c9bda9958dd60521b6044820152606401610808565b6000818152600a60205260409020613a2290336140cc565b506000818152600860205260409020613a3b90336140eb565b5060405133815281907f772d3a0eec20698cdfbd3c606d83b1680e703ac1cd6cce8b19417522f4b41d0f9060200160405180910390a250565b600081815260086020526040902060609061242d90614100565b600354341015613ab05760405162461bcd60e51b815260040161080890614c82565b6000828152600760208190526040909120015482906001600160a01b03163314613aec5760405162461bcd60e51b815260040161080890614a60565b6000838152600760208190526040918290200180546001600160a01b0319166001600160a01b0385161790555183907f52490b9ef326bbc78c4fc19841b07019ccd6a03fd9be6be771b876a01e9bac6790611c5c9033908690614c05565b6001546001600160a01b03163314613b945760405162461bcd60e51b815260206004820152600d60248201526c3737ba103a34329037bbb732b960991b6044820152606401610808565b600180546001600160a01b0319166001600160a01b0392909216919091179055565b6001546001600160a01b0316331480613bde57503360009081526002602052604090205460ff165b613bfa5760405162461bcd60e51b815260040161080890614caf565b604051632142170760e11b81523060048201523360248201526044810182905282906001600160a01b038216906342842e0e90606401600060405180830381600087803b158015613c4a57600080fd5b505af1158015613c5e573d6000803e3d6000fd5b50505050505050565b6000838152600760209081526040808320815161016081019092528054825260018101805488959484019190613c9c90614a8f565b80601f0160208091040260200160405190810160405280929190818152602001828054613cc890614a8f565b8015613d155780601f10613cea57610100808354040283529160200191613d15565b820191906000526020600020905b815481529060010190602001808311613cf857829003601f168201915b50505050508152602001600282018054613d2e90614a8f565b80601f0160208091040260200160405190810160405280929190818152602001828054613d5a90614a8f565b8015613da75780601f10613d7c57610100808354040283529160200191613da7565b820191906000526020600020905b815481529060010190602001808311613d8a57829003601f168201915b505050505081526020016003820154815260200160048201548152602001600582018054613dd490614a8f565b80601f0160208091040260200160405190810160405280929190818152602001828054613e0090614a8f565b8015613e4d5780601f10613e2257610100808354040283529160200191613e4d565b820191906000526020600020905b815481529060010190602001808311613e3057829003601f168201915b50505050508152602001600682018054613e6690614a8f565b80601f0160208091040260200160405190810160405280929190818152602001828054613e9290614a8f565b8015613edf5780601f10613eb457610100808354040283529160200191613edf565b820191906000526020600020905b815481529060010190602001808311613ec257829003601f168201915b5050509183525050600791909101546001600160a01b03808216602084015260ff600160a01b8304811615156040850152600160a81b8304811615156060850152600160b01b909204909116151560809092019190915260e08201519192503391161480613f6d57508061012001518015613f6d57506000828152600860205260409020613f6d90336140aa565b613f895760405162461bcd60e51b815260040161080890614ac9565b82600b600087815260200190815260200160002085604051613fab9190614eac565b90815260200160405180910390209081613fc59190614b45565b50847fa135796c3dfbf727059d984bed603f5302680833cd089ccb602e8e31656c189833868660405161202193929190614ec8565b6000828152600a6020526040812061401290836140aa565b9392505050565b6000818152600760208190526040909120015481906001600160a01b031633146140555760405162461bcd60e51b815260040161080890614a60565b600082815260076020818152604092839020909101805460ff60a81b1916600160a81b179055905133815283917f6006c14b1490fea98e4a6b6ce7ec6bc4d699a2270ec1a1fb3281efe4c870b065910161085c565b6001600160a01b03811660009081526001830160205260408120541515614012565b6000614012836001600160a01b03841661410d565b600061242d825490565b6000614012836001600160a01b038416614200565b606060006140128361424f565b600081815260018301602052604081205480156141f6576000614131600183614efe565b855490915060009061414590600190614efe565b90508181146141aa57600086600001828154811061416557614165614f15565b906000526020600020015490508087600001848154811061418857614188614f15565b6000918252602080832090910192909255918252600188019052604090208390555b85548690806141bb576141bb614f2b565b60019003818190600052602060002001600090559055856001016000868152602001908152602001600020600090556001935050505061242d565b600091505061242d565b60008181526001830160205260408120546142475750815460018181018455600084815260208082209093018490558454848252828601909352604090209190915561242d565b50600061242d565b60608160000180548060200260200160405190810160405280929190818152602001828054801561429f57602002820191906000526020600020905b81548152602001906001019080831161428b575b50505050509050919050565b6000602082840312156142bd57600080fd5b5035919050565b80356001600160a01b03811681146142db57600080fd5b919050565b600080604083850312156142f357600080fd5b82359150614303602084016142c4565b90509250929050565b634e487b7160e01b600052604160045260246000fd5b600067ffffffffffffffff8084111561433d5761433d61430c565b604051601f8501601f19908116603f011681019082821181831017156143655761436561430c565b8160405280935085815286868601111561437e57600080fd5b858560208301376000602087830101525050509392505050565b600082601f8301126143a957600080fd5b61401283833560208501614322565b600080604083850312156143cb57600080fd5b82359150602083013567ffffffffffffffff8111156143e957600080fd5b6143f585828601614398565b9150509250929050565b801515811461161857600080fd5b80356142db816143ff565b600080600080600080600080610100898b03121561443557600080fd5b88359750602089013567ffffffffffffffff8082111561445457600080fd5b6144608c838d01614398565b985060408b013591508082111561447657600080fd5b6144828c838d01614398565b975060608b0135965060808b0135955060a08b01359150808211156144a657600080fd5b6144b28c838d01614398565b945060c08b01359150808211156144c857600080fd5b506144d58b828c01614398565b9250506144e460e08a0161440d565b90509295985092959890939650565b60005b8381101561450e5781810151838201526020016144f6565b8381111561341d5750506000910152565b600081518084526145378160208601602086016144f3565b601f01601f19169290920160200192915050565b60006101608d83528060208401526145658184018e61451f565b90508281036040840152614579818d61451f565b90508a606084015289608084015282810360a0840152614599818a61451f565b905082810360c08401526145ad818961451f565b6001600160a01b03881660e085015286151561010085015285151561012085015284151561014085015291506145e09050565b9c9b505050505050505050505050565b6000806040838503121561460357600080fd5b61460c836142c4565b946020939093013593505050565b602081526000614012602083018461451f565b60008083601f84011261463f57600080fd5b50813567ffffffffffffffff81111561465757600080fd5b60208301915083602082850101111561466f57600080fd5b9250929050565b60008060008060008060008060a0898b03121561469257600080fd5b883597506146a260208a016142c4565b9650604089013567ffffffffffffffff808211156146bf57600080fd5b6146cb8c838d0161462d565b909850965060608b01359150808211156146e457600080fd5b6146f08c838d0161462d565b909650945060808b013591508082111561470957600080fd5b506147168b828c0161462d565b999c989b5096995094979396929594505050565b60008060006060848603121561473f57600080fd5b8335925060208401358060000b811461475757600080fd5b9150604084013567ffffffffffffffff81111561477357600080fd5b61477f86828701614398565b9150509250925092565b60008060006060848603121561479e57600080fd5b83359250614757602085016142c4565b6000602082840312156147c057600080fd5b614012826142c4565b6020808252825182820181905260009190848201906040850190845b8181101561480a5783516001600160a01b0316835292840192918401916001016147e5565b50909695505050505050565b6000806040838503121561482957600080fd5b614832836142c4565b91506020830135614842816143ff565b809150509250929050565b6000806000806080858703121561486357600080fd5b61486c856142c4565b93506020850135925060408501359150606085013567ffffffffffffffff81111561489657600080fd5b8501601f810187136148a757600080fd5b6148b687823560208401614322565b91505092959194509250565b60c0815260006148d560c083018961451f565b82810360208401526148e7818961451f565b905082810360408401526148fb818861451f565b90508515156060840152841515608084015282810360a084015261491f818561451f565b9998505050505050505050565b600080600080600080600060e0888a03121561494757600080fd5b873567ffffffffffffffff8082111561495f57600080fd5b61496b8b838c01614398565b985060208a013591508082111561498157600080fd5b61498d8b838c01614398565b975060408a0135965060608a0135955060808a01359150808211156149b157600080fd5b6149bd8b838c01614398565b945060a08a01359150808211156149d357600080fd5b506149e08a828b01614398565b9250506149ef60c0890161440d565b905092959891949750929550565b600080600060608486031215614a1257600080fd5b83359250602084013567ffffffffffffffff80821115614a3157600080fd5b614a3d87838801614398565b93506040860135915080821115614a5357600080fd5b5061477f86828701614398565b6020808252601590820152743737ba103a343290383937b532b1ba1037bbb732b960591b604082015260600190565b600181811c90821680614aa357607f821691505b602082108103614ac357634e487b7160e01b600052602260045260246000fd5b50919050565b60208082526013908201527218d85b9b9bdd0819591a5d081c1c9bda9958dd606a1b604082015260600190565b601f821115614b4057600081815260208120601f850160051c81016020861015614b1d5750805b601f850160051c820191505b81811015614b3c57828155600101614b29565b5050505b505050565b815167ffffffffffffffff811115614b5f57614b5f61430c565b614b7381614b6d8454614a8f565b84614af6565b602080601f831160018114614ba85760008415614b905750858301515b600019600386901b1c1916600185901b178555614b3c565b600085815260208120601f198616915b82811015614bd757888601518255948401946001909101908401614bb8565b5085821015614bf55787850151600019600388901b60f8161c191681555b5050505050600190811b01905550565b6001600160a01b0392831681529116602082015260400190565b60208082526017908201527f6e6f742061206d656d626572206f662070726f6a656374000000000000000000604082015260600190565b6001600160a01b0383168152604060208201819052600090614c7a9083018461451f565b949350505050565b6020808252601390820152720c8d2c840dcdee840e6cadcc840cadcdeeaced606b1b604082015260600190565b6020808252600990820152683737ba1030b236b4b760b91b604082015260600190565b634e487b7160e01b600052601160045260246000fd5b60008219821115614cfb57614cfb614cd2565b500190565b67ffffffffffffffff831115614d1857614d1861430c565b614d2c83614d268354614a8f565b83614af6565b6000601f841160018114614d605760008515614d485750838201355b600019600387901b1c1916600186901b178355614dba565b600083815260209020601f19861690835b82811015614d915786850135825560209485019460019092019101614d71565b5086821015614dae5760001960f88860031b161c19848701351681555b505060018560011b0183555b5050505050565b6001600160a01b0384168152600083810b6020830152606060408301819052614dec9083018461451f565b95945050505050565b8481526001600160a01b03848116602083015283166040820152608060608201819052600090614e279083018461451f565b9695505050505050565b6001600160a01b03868116825285166020820152604081018490526060810183905260a060808201819052600090614e6b9083018461451f565b979650505050505050565b600060208284031215614e8857600080fd5b8151614012816143ff565b600060018201614ea557614ea5614cd2565b5060010190565b60008251614ebe8184602087016144f3565b9190910192915050565b6001600160a01b0384168152606060208201819052600090614eec9083018561451f565b8281036040840152614e27818561451f565b600082821015614f1057614f10614cd2565b500390565b634e487b7160e01b600052603260045260246000fd5b634e487b7160e01b600052603160045260246000fdfea2646970667358221220cf646df39bbb540c9efdc2a50111c189af1cb33702285d362658c92256290b9264736f6c634300080f0033",
  "linkReferences": {},
  "deployedLinkReferences": {}
}