{
  "_format": "hh-sol-artifact-1",
  "contractName": "GoingUpMembership",
  "sourceName": "contracts/GoingUpMembership.sol",
  "abi": [
    {
      "inputs": [],
      "stateMutability": "nonpayable",
      "type": "constructor"
    },
    {
      "anonymous": false,
      "inputs": [
        {
          "indexed": true,
          "internalType": "address",
          "name": "owner",
          "type": "address"
        },
        {
          "indexed": true,
          "internalType": "address",
          "name": "approved",
          "type": "address"
        },
        {
          "indexed": true,
          "internalType": "uint256",
          "name": "tokenId",
          "type": "uint256"
        }
      ],
      "name": "Approval",
      "type": "event"
    },
    {
      "anonymous": false,
      "inputs": [
        {
          "indexed": true,
          "internalType": "address",
          "name": "owner",
          "type": "address"
        },
        {
          "indexed": true,
          "internalType": "address",
          "name": "operator",
          "type": "address"
        },
        {
          "indexed": false,
          "internalType": "bool",
          "name": "approved",
          "type": "bool"
        }
      ],
      "name": "ApprovalForAll",
      "type": "event"
    },
    {
      "anonymous": false,
      "inputs": [
        {
          "indexed": true,
          "internalType": "address",
          "name": "previousOwner",
          "type": "address"
        },
        {
          "indexed": true,
          "internalType": "address",
          "name": "newOwner",
          "type": "address"
        }
      ],
      "name": "OwnershipTransferred",
      "type": "event"
    },
    {
      "anonymous": false,
      "inputs": [
        {
          "indexed": true,
          "internalType": "address",
          "name": "from",
          "type": "address"
        },
        {
          "indexed": true,
          "internalType": "address",
          "name": "to",
          "type": "address"
        },
        {
          "indexed": true,
          "internalType": "uint256",
          "name": "tokenId",
          "type": "uint256"
        }
      ],
      "name": "Transfer",
      "type": "event"
    },
    {
      "inputs": [
        {
          "internalType": "address",
          "name": "to",
          "type": "address"
        },
        {
          "internalType": "uint256",
          "name": "tokenId",
          "type": "uint256"
        }
      ],
      "name": "approve",
      "outputs": [],
      "stateMutability": "nonpayable",
      "type": "function"
    },
    {
      "inputs": [
        {
          "internalType": "address",
          "name": "owner",
          "type": "address"
        }
      ],
      "name": "balanceOf",
      "outputs": [
        {
          "internalType": "uint256",
          "name": "",
          "type": "uint256"
        }
      ],
      "stateMutability": "view",
      "type": "function"
    },
    {
      "inputs": [
        {
          "internalType": "uint256",
          "name": "tokenId",
          "type": "uint256"
        }
      ],
      "name": "getApproved",
      "outputs": [
        {
          "internalType": "address",
          "name": "",
          "type": "address"
        }
      ],
      "stateMutability": "view",
      "type": "function"
    },
    {
      "inputs": [
        {
          "internalType": "address",
          "name": "owner",
          "type": "address"
        },
        {
          "internalType": "address",
          "name": "operator",
          "type": "address"
        }
      ],
      "name": "isApprovedForAll",
      "outputs": [
        {
          "internalType": "bool",
          "name": "",
          "type": "bool"
        }
      ],
      "stateMutability": "view",
      "type": "function"
    },
    {
      "inputs": [
        {
          "internalType": "address",
          "name": "to",
          "type": "address"
        },
        {
          "internalType": "uint256",
          "name": "qty",
          "type": "uint256"
        }
      ],
      "name": "manualMint",
      "outputs": [],
      "stateMutability": "nonpayable",
      "type": "function"
    },
    {
      "inputs": [],
      "name": "maxSupply",
      "outputs": [
        {
          "internalType": "uint256",
          "name": "",
          "type": "uint256"
        }
      ],
      "stateMutability": "view",
      "type": "function"
    },
    {
      "inputs": [
        {
          "internalType": "bytes32[]",
          "name": "proof",
          "type": "bytes32[]"
        }
      ],
      "name": "mint",
      "outputs": [],
      "stateMutability": "payable",
      "type": "function"
    },
    {
      "inputs": [],
      "name": "mintPrice",
      "outputs": [
        {
          "internalType": "uint256",
          "name": "",
          "type": "uint256"
        }
      ],
      "stateMutability": "view",
      "type": "function"
    },
    {
      "inputs": [],
      "name": "name",
      "outputs": [
        {
          "internalType": "string",
          "name": "",
          "type": "string"
        }
      ],
      "stateMutability": "view",
      "type": "function"
    },
    {
      "inputs": [],
      "name": "owner",
      "outputs": [
        {
          "internalType": "address",
          "name": "",
          "type": "address"
        }
      ],
      "stateMutability": "view",
      "type": "function"
    },
    {
      "inputs": [
        {
          "internalType": "uint256",
          "name": "tokenId",
          "type": "uint256"
        }
      ],
      "name": "ownerOf",
      "outputs": [
        {
          "internalType": "address",
          "name": "",
          "type": "address"
        }
      ],
      "stateMutability": "view",
      "type": "function"
    },
    {
      "inputs": [],
      "name": "partner1",
      "outputs": [
        {
          "internalType": "address payable",
          "name": "",
          "type": "address"
        }
      ],
      "stateMutability": "view",
      "type": "function"
    },
    {
      "inputs": [],
      "name": "partner1Percentage",
      "outputs": [
        {
          "internalType": "uint256",
          "name": "",
          "type": "uint256"
        }
      ],
      "stateMutability": "view",
      "type": "function"
    },
    {
      "inputs": [],
      "name": "partner2",
      "outputs": [
        {
          "internalType": "address payable",
          "name": "",
          "type": "address"
        }
      ],
      "stateMutability": "view",
      "type": "function"
    },
    {
      "inputs": [],
      "name": "partner2Percentage",
      "outputs": [
        {
          "internalType": "uint256",
          "name": "",
          "type": "uint256"
        }
      ],
      "stateMutability": "view",
      "type": "function"
    },
    {
      "inputs": [],
      "name": "renounceOwnership",
      "outputs": [],
      "stateMutability": "nonpayable",
      "type": "function"
    },
    {
      "inputs": [
        {
          "internalType": "address",
          "name": "from",
          "type": "address"
        },
        {
          "internalType": "address",
          "name": "to",
          "type": "address"
        },
        {
          "internalType": "uint256",
          "name": "tokenId",
          "type": "uint256"
        }
      ],
      "name": "safeTransferFrom",
      "outputs": [],
      "stateMutability": "nonpayable",
      "type": "function"
    },
    {
      "inputs": [
        {
          "internalType": "address",
          "name": "from",
          "type": "address"
        },
        {
          "internalType": "address",
          "name": "to",
          "type": "address"
        },
        {
          "internalType": "uint256",
          "name": "tokenId",
          "type": "uint256"
        },
        {
          "internalType": "bytes",
          "name": "_data",
          "type": "bytes"
        }
      ],
      "name": "safeTransferFrom",
      "outputs": [],
      "stateMutability": "nonpayable",
      "type": "function"
    },
    {
      "inputs": [
        {
          "internalType": "address",
          "name": "operator",
          "type": "address"
        },
        {
          "internalType": "bool",
          "name": "approved",
          "type": "bool"
        }
      ],
      "name": "setApprovalForAll",
      "outputs": [],
      "stateMutability": "nonpayable",
      "type": "function"
    },
    {
      "inputs": [
        {
          "internalType": "string",
          "name": "baseURI",
          "type": "string"
        }
      ],
      "name": "setBaseURI",
      "outputs": [],
      "stateMutability": "nonpayable",
      "type": "function"
    },
    {
      "inputs": [
        {
          "internalType": "uint256",
          "name": "newPrice",
          "type": "uint256"
        }
      ],
      "name": "setMintPrice",
      "outputs": [],
      "stateMutability": "nonpayable",
      "type": "function"
    },
    {
      "inputs": [
        {
          "internalType": "address payable",
          "name": "partner",
          "type": "address"
        },
        {
          "internalType": "uint256",
          "name": "percentage",
          "type": "uint256"
        }
      ],
      "name": "setPartner1",
      "outputs": [],
      "stateMutability": "nonpayable",
      "type": "function"
    },
    {
      "inputs": [
        {
          "internalType": "address payable",
          "name": "partner",
          "type": "address"
        },
        {
          "internalType": "uint256",
          "name": "percentage",
          "type": "uint256"
        }
      ],
      "name": "setPartner2",
      "outputs": [],
      "stateMutability": "nonpayable",
      "type": "function"
    },
    {
      "inputs": [
        {
          "internalType": "bytes32",
          "name": "root",
          "type": "bytes32"
        }
      ],
      "name": "setWhitelistRoot",
      "outputs": [],
      "stateMutability": "nonpayable",
      "type": "function"
    },
    {
      "inputs": [
        {
          "internalType": "bytes4",
          "name": "interfaceId",
          "type": "bytes4"
        }
      ],
      "name": "supportsInterface",
      "outputs": [
        {
          "internalType": "bool",
          "name": "",
          "type": "bool"
        }
      ],
      "stateMutability": "view",
      "type": "function"
    },
    {
      "inputs": [],
      "name": "symbol",
      "outputs": [
        {
          "internalType": "string",
          "name": "",
          "type": "string"
        }
      ],
      "stateMutability": "view",
      "type": "function"
    },
    {
      "inputs": [
        {
          "internalType": "uint256",
          "name": "index",
          "type": "uint256"
        }
      ],
      "name": "tokenByIndex",
      "outputs": [
        {
          "internalType": "uint256",
          "name": "",
          "type": "uint256"
        }
      ],
      "stateMutability": "view",
      "type": "function"
    },
    {
      "inputs": [
        {
          "internalType": "address",
          "name": "owner",
          "type": "address"
        },
        {
          "internalType": "uint256",
          "name": "index",
          "type": "uint256"
        }
      ],
      "name": "tokenOfOwnerByIndex",
      "outputs": [
        {
          "internalType": "uint256",
          "name": "",
          "type": "uint256"
        }
      ],
      "stateMutability": "view",
      "type": "function"
    },
    {
      "inputs": [
        {
          "internalType": "uint256",
          "name": "tokenId",
          "type": "uint256"
        }
      ],
      "name": "tokenURI",
      "outputs": [
        {
          "internalType": "string",
          "name": "",
          "type": "string"
        }
      ],
      "stateMutability": "view",
      "type": "function"
    },
    {
      "inputs": [],
      "name": "totalSupply",
      "outputs": [
        {
          "internalType": "uint256",
          "name": "",
          "type": "uint256"
        }
      ],
      "stateMutability": "view",
      "type": "function"
    },
    {
      "inputs": [
        {
          "internalType": "address",
          "name": "from",
          "type": "address"
        },
        {
          "internalType": "address",
          "name": "to",
          "type": "address"
        },
        {
          "internalType": "uint256",
          "name": "tokenId",
          "type": "uint256"
        }
      ],
      "name": "transferFrom",
      "outputs": [],
      "stateMutability": "nonpayable",
      "type": "function"
    },
    {
      "inputs": [
        {
          "internalType": "address",
          "name": "newOwner",
          "type": "address"
        }
      ],
      "name": "transferOwnership",
      "outputs": [],
      "stateMutability": "nonpayable",
      "type": "function"
    },
    {
      "inputs": [],
      "name": "withdraw",
      "outputs": [],
      "stateMutability": "nonpayable",
      "type": "function"
    },
    {
      "inputs": [
        {
          "internalType": "address",
          "name": "_tokenContract",
          "type": "address"
        },
        {
          "internalType": "uint256",
          "name": "_tokenID",
          "type": "uint256"
        },
        {
          "internalType": "uint256",
          "name": "_amount",
          "type": "uint256"
        },
        {
          "internalType": "bytes",
          "name": "_data",
          "type": "bytes"
        }
      ],
      "name": "withdrawERC1155",
      "outputs": [],
      "stateMutability": "nonpayable",
      "type": "function"
    },
    {
      "inputs": [
        {
          "internalType": "address",
          "name": "tokenAddress",
          "type": "address"
        }
      ],
      "name": "withdrawERC20",
      "outputs": [],
      "stateMutability": "nonpayable",
      "type": "function"
    },
    {
      "inputs": [
        {
          "internalType": "address",
          "name": "_tokenContract",
          "type": "address"
        },
        {
          "internalType": "uint256",
          "name": "_tokenID",
          "type": "uint256"
        }
      ],
      "name": "withdrawERC721",
      "outputs": [],
      "stateMutability": "nonpayable",
      "type": "function"
    }
  ],
  "bytecode": "0x6080604052671ecf063ce95e0000600c557ffbaa96a1f7806c1ab06f957c8fc6e60875b6880254f77b71439c7854a6b47755600e553480156200004157600080fd5b50604051806040016040528060128152602001710476f696e675550204d656d626572736869760741b815250604051806040016040528060048152602001634755504d60e01b81525081600090816200009b9190620008a9565b506001620000aa8282620008a9565b505050620000c7620000c16200011760201b60201c565b6200011b565b6001600b5560005b60168110156200011057620000fb33620000e860085490565b620000f59060016200098b565b6200016d565b806200010781620009a6565b915050620000cf565b5062000ab6565b3390565b600a80546001600160a01b038381166001600160a01b0319831681179093556040519116919082907f8be0079c531659141344cd1fd0a4f28419497f9722a3daafe3b4186f6b6457e090600090a35050565b6200018f8282604051806020016040528060008152506200019360201b60201c565b5050565b6200019f83836200020f565b620001ae600084848462000365565b6200020a5760405162461bcd60e51b815260206004820152603260248201526000805160206200353383398151915260448201527131b2b4bb32b91034b6b83632b6b2b73a32b960711b60648201526084015b60405180910390fd5b505050565b6001600160a01b038216620002675760405162461bcd60e51b815260206004820181905260248201527f4552433732313a206d696e7420746f20746865207a65726f2061646472657373604482015260640162000201565b6000818152600260205260409020546001600160a01b031615620002ce5760405162461bcd60e51b815260206004820152601c60248201527f4552433732313a20746f6b656e20616c7265616479206d696e74656400000000604482015260640162000201565b620002dc60008383620004c1565b6001600160a01b0382166000908152600360205260408120805460019290620003079084906200098b565b909155505060008181526002602052604080822080546001600160a01b0319166001600160a01b03861690811790915590518392907fddf252ad1be2c89b69c2b068fc378daa952ba7f163c4a11628f55a4df523b3ef908290a45050565b600062000386846001600160a01b0316620004d960201b620015021760201c565b15620004b557604051630a85bd0160e11b81526001600160a01b0385169063150b7a0290620003c0903390899088908890600401620009c2565b6020604051808303816000875af1925050508015620003fe575060408051601f3d908101601f19168201909252620003fb9181019062000a3d565b60015b6200049a573d8080156200042f576040519150601f19603f3d011682016040523d82523d6000602084013e62000434565b606091505b508051600003620004925760405162461bcd60e51b815260206004820152603260248201526000805160206200353383398151915260448201527131b2b4bb32b91034b6b83632b6b2b73a32b960711b606482015260840162000201565b805181602001fd5b6001600160e01b031916630a85bd0160e11b149050620004b9565b5060015b949350505050565b6200020a838383620004e860201b620015111760201c565b6001600160a01b03163b151590565b620005008383836200020a60201b620008e51760201c565b6001600160a01b0383166200055e576200055881600880546000838152600960205260408120829055600182018355919091527ff3f7a9fe364faab93b216da50a3214154f22a0a2b415b23a84c8169e8b636ee30155565b62000584565b816001600160a01b0316836001600160a01b0316146200058457620005848382620005c4565b6001600160a01b0382166200059e576200020a8162000671565b826001600160a01b0316826001600160a01b0316146200020a576200020a82826200072b565b60006001620005de846200077c60201b62000d441760201c565b620005ea919062000a70565b6000838152600760205260409020549091508082146200063e576001600160a01b03841660009081526006602090815260408083208584528252808320548484528184208190558352600790915290208190555b5060009182526007602090815260408084208490556001600160a01b039094168352600681528383209183525290812055565b600854600090620006859060019062000a70565b60008381526009602052604081205460088054939450909284908110620006b057620006b062000a8a565b906000526020600020015490508060088381548110620006d457620006d462000a8a565b60009182526020808320909101929092558281526009909152604080822084905585825281205560088054806200070f576200070f62000aa0565b6001900381819060005260206000200160009055905550505050565b600062000743836200077c60201b62000d441760201c565b6001600160a01b039093166000908152600660209081526040808320868452825280832085905593825260079052919091209190915550565b60006001600160a01b038216620007e95760405162461bcd60e51b815260206004820152602a60248201527f4552433732313a2062616c616e636520717565727920666f7220746865207a65604482015269726f206164647265737360b01b606482015260840162000201565b506001600160a01b031660009081526003602052604090205490565b634e487b7160e01b600052604160045260246000fd5b600181811c908216806200083057607f821691505b6020821081036200085157634e487b7160e01b600052602260045260246000fd5b50919050565b601f8211156200020a57600081815260208120601f850160051c81016020861015620008805750805b601f850160051c820191505b81811015620008a1578281556001016200088c565b505050505050565b81516001600160401b03811115620008c557620008c562000805565b620008dd81620008d684546200081b565b8462000857565b602080601f831160018114620009155760008415620008fc5750858301515b600019600386901b1c1916600185901b178555620008a1565b600085815260208120601f198616915b82811015620009465788860151825594840194600190910190840162000925565b5085821015620009655787850151600019600388901b60f8161c191681555b5050505050600190811b01905550565b634e487b7160e01b600052601160045260246000fd5b60008219821115620009a157620009a162000975565b500190565b600060018201620009bb57620009bb62000975565b5060010190565b600060018060a01b038087168352602081871681850152856040850152608060608501528451915081608085015260005b8281101562000a115785810182015185820160a001528101620009f3565b8281111562000a2457600060a084870101525b5050601f01601f19169190910160a00195945050505050565b60006020828403121562000a5057600080fd5b81516001600160e01b03198116811462000a6957600080fd5b9392505050565b60008282101562000a855762000a8562000975565b500390565b634e487b7160e01b600052603260045260246000fd5b634e487b7160e01b600052603160045260246000fd5b612a6d8062000ac66000396000f3fe60806040526004361061020f5760003560e01c80638b35a24411610118578063d0df5465116100a0578063f2fde38b1161006f578063f2fde38b146105f8578063f3e414f814610618578063f4a0a52814610638578063f4f3b20014610658578063f5aa406d1461067857600080fd5b8063d0df546514610564578063d5abeb011461057a578063e4c5ff461461058f578063e985e9c5146105af57600080fd5b8063a22cb465116100e7578063a22cb465146104d1578063a4c7c7b3146104f1578063b77a147b14610511578063b88d4fde14610524578063c87b56dd1461054457600080fd5b80638b35a2441461045e5780638da5cb5b1461047e57806395d89b411461049c578063a1538bde146104b157600080fd5b80633ccfd60b1161019b5780636352211e1161016a5780636352211e146103d35780636817c76c146103f357806370a0823114610409578063715018a6146104295780637473aa2f1461043e57600080fd5b80633ccfd60b1461035e57806342842e0e146103735780634f6ccce71461039357806355f804b3146103b357600080fd5b8063095ea7b3116101e2578063095ea7b3146102c757806318160ddd146102e957806323b872dd146102fe5780632caddbeb1461031e5780632f745c591461033e57600080fd5b806301ffc9a71461021457806306fdde0314610249578063081812fc1461026b57806308758e85146102a3575b600080fd5b34801561022057600080fd5b5061023461022f366004612190565b610698565b60405190151581526020015b60405180910390f35b34801561025557600080fd5b5061025e6106a9565b6040516102409190612205565b34801561027757600080fd5b5061028b610286366004612218565b61073b565b6040516001600160a01b039091168152602001610240565b3480156102af57600080fd5b506102b960125481565b604051908152602001610240565b3480156102d357600080fd5b506102e76102e2366004612246565b6107d5565b005b3480156102f557600080fd5b506008546102b9565b34801561030a57600080fd5b506102e7610319366004612272565b6108ea565b34801561032a57600080fd5b506102e7610339366004612246565b61091b565b34801561034a57600080fd5b506102b9610359366004612246565b61096b565b34801561036a57600080fd5b506102e7610a01565b34801561037f57600080fd5b506102e761038e366004612272565b610be8565b34801561039f57600080fd5b506102b96103ae366004612218565b610c03565b3480156103bf57600080fd5b506102e76103ce3660046122b3565b610c96565b3480156103df57600080fd5b5061028b6103ee366004612218565b610ccd565b3480156103ff57600080fd5b506102b9600c5481565b34801561041557600080fd5b506102b9610424366004612325565b610d44565b34801561043557600080fd5b506102e7610dcb565b34801561044a57600080fd5b506102e7610459366004612246565b610e01565b34801561046a57600080fd5b5060115461028b906001600160a01b031681565b34801561048a57600080fd5b50600a546001600160a01b031661028b565b3480156104a857600080fd5b5061025e610e51565b3480156104bd57600080fd5b506102e76104cc3660046123f9565b610e60565b3480156104dd57600080fd5b506102e76104ec36600461246a565b610f25565b3480156104fd57600080fd5b50600f5461028b906001600160a01b031681565b6102e761051f3660046124a3565b610f34565b34801561053057600080fd5b506102e761053f366004612549565b611076565b34801561055057600080fd5b5061025e61055f366004612218565b6110ae565b34801561057057600080fd5b506102b960105481565b34801561058657600080fd5b506102b960de81565b34801561059b57600080fd5b506102e76105aa366004612246565b61115f565b3480156105bb57600080fd5b506102346105ca36600461259d565b6001600160a01b03918216600090815260056020908152604080832093909416825291909152205460ff1690565b34801561060457600080fd5b506102e7610613366004612325565b61120c565b34801561062457600080fd5b506102e7610633366004612246565b6112a4565b34801561064457600080fd5b506102e7610653366004612218565b611367565b34801561066457600080fd5b506102e7610673366004612325565b611396565b34801561068457600080fd5b506102e7610693366004612218565b6114d3565b60006106a3826115c9565b92915050565b6060600080546106b8906125cb565b80601f01602080910402602001604051908101604052809291908181526020018280546106e4906125cb565b80156107315780601f1061070657610100808354040283529160200191610731565b820191906000526020600020905b81548152906001019060200180831161071457829003601f168201915b5050505050905090565b6000818152600260205260408120546001600160a01b03166107b95760405162461bcd60e51b815260206004820152602c60248201527f4552433732313a20617070726f76656420717565727920666f72206e6f6e657860448201526b34b9ba32b73a103a37b5b2b760a11b60648201526084015b60405180910390fd5b506000908152600460205260409020546001600160a01b031690565b60006107e082610ccd565b9050806001600160a01b0316836001600160a01b03160361084d5760405162461bcd60e51b815260206004820152602160248201527f4552433732313a20617070726f76616c20746f2063757272656e74206f776e656044820152603960f91b60648201526084016107b0565b336001600160a01b0382161480610869575061086981336105ca565b6108db5760405162461bcd60e51b815260206004820152603860248201527f4552433732313a20617070726f76652063616c6c6572206973206e6f74206f7760448201527f6e6572206e6f7220617070726f76656420666f7220616c6c000000000000000060648201526084016107b0565b6108e583836115ee565b505050565b6108f4338261165c565b6109105760405162461bcd60e51b81526004016107b090612605565b6108e5838383611753565b600a546001600160a01b031633146109455760405162461bcd60e51b81526004016107b090612656565b601180546001600160a01b0319166001600160a01b039390931692909217909155601255565b600061097683610d44565b82106109d85760405162461bcd60e51b815260206004820152602b60248201527f455243373231456e756d657261626c653a206f776e657220696e646578206f7560448201526a74206f6620626f756e647360a81b60648201526084016107b0565b506001600160a01b03919091166000908152600660209081526040808320938352929052205490565b600a546001600160a01b03163314610a2b5760405162461bcd60e51b81526004016107b090612656565b6002600b5403610a4d5760405162461bcd60e51b81526004016107b09061268b565b6002600b55601254601054603291610a64916126d8565b1115610abe5760405162461bcd60e51b815260206004820152602360248201527f706172746e6572732063616e6e6f742068617665206d6f7265207468616e206860448201526230b63360e91b60648201526084016107b0565b600f546001600160a01b031615801590610ada57506000601054115b15610b39576000606460105447610af191906126f0565b610afb9190612725565b600f546040519192506001600160a01b03169082156108fc029083906000818181858888f19350505050158015610b36573d6000803e3d6000fd5b50505b600f546001600160a01b031615801590610b5557506000601054115b15610bb4576000606460125447610b6c91906126f0565b610b769190612725565b6011546040519192506001600160a01b03169082156108fc029083906000818181858888f19350505050158015610bb1573d6000803e3d6000fd5b50505b60405133904780156108fc02916000818181858888f19350505050158015610be0573d6000803e3d6000fd5b506001600b55565b6108e583838360405180602001604052806000815250611076565b6000610c0e60085490565b8210610c715760405162461bcd60e51b815260206004820152602c60248201527f455243373231456e756d657261626c653a20676c6f62616c20696e646578206f60448201526b7574206f6620626f756e647360a01b60648201526084016107b0565b60088281548110610c8457610c84612739565b90600052602060002001549050919050565b600a546001600160a01b03163314610cc05760405162461bcd60e51b81526004016107b090612656565b600d6108e582848361279d565b6000818152600260205260408120546001600160a01b0316806106a35760405162461bcd60e51b815260206004820152602960248201527f4552433732313a206f776e657220717565727920666f72206e6f6e657869737460448201526832b73a103a37b5b2b760b91b60648201526084016107b0565b60006001600160a01b038216610daf5760405162461bcd60e51b815260206004820152602a60248201527f4552433732313a2062616c616e636520717565727920666f7220746865207a65604482015269726f206164647265737360b01b60648201526084016107b0565b506001600160a01b031660009081526003602052604090205490565b600a546001600160a01b03163314610df55760405162461bcd60e51b81526004016107b090612656565b610dff60006118fa565b565b600a546001600160a01b03163314610e2b5760405162461bcd60e51b81526004016107b090612656565b600f80546001600160a01b0319166001600160a01b039390931692909217909155601055565b6060600180546106b8906125cb565b600a546001600160a01b03163314610e8a5760405162461bcd60e51b81526004016107b090612656565b6002600b5403610eac5760405162461bcd60e51b81526004016107b09061268b565b6002600b55604051637921219560e11b815284906001600160a01b0382169063f242432a90610ee7903090339089908990899060040161285e565b600060405180830381600087803b158015610f0157600080fd5b505af1158015610f15573d6000803e3d6000fd5b50506001600b5550505050505050565b610f3033838361194c565b5050565b60de610f3f60085490565b10610f805760405162461bcd60e51b81526020600482015260116024820152701b585e081cdd5c1c1b1e481b5a5b9d1959607a1b60448201526064016107b0565b610f8933610d44565b15610fc75760405162461bcd60e51b815260206004820152600e60248201526d185b1c9958591e481b5a5b9d195960921b60448201526064016107b0565b610fd081611a1a565b61100e5760405162461bcd60e51b815260206004820152600f60248201526e1b9bdd081dda1a5d195b1a5cdd1959608a1b60448201526064016107b0565b600c543410156110565760405162461bcd60e51b81526020600482015260136024820152720c8d2c840dcdee840e6cadcc840cadcdeeaced606b1b60448201526064016107b0565b6110733361106360085490565b61106e9060016126d8565b611a62565b50565b611080338361165c565b61109c5760405162461bcd60e51b81526004016107b090612605565b6110a884848484611a7c565b50505050565b6000818152600260205260409020546060906001600160a01b031661110c5760405162461bcd60e51b81526020600482015260146024820152731d1bdad95b88191bd95cc81b9bdd08195e1a5cdd60621b60448201526064016107b0565b600061111783611aaf565b905060008151116111375760405180602001604052806000815250611158565b8060405160200161114891906128a3565b6040516020818303038152906040525b9392505050565b600a546001600160a01b031633146111895760405162461bcd60e51b81526004016107b090612656565b60de8161119560085490565b61119f91906126d8565b11156111e25760405162461bcd60e51b815260206004820152601260248201527165786365656473206d617820737570706c7960701b60448201526064016107b0565b60005b818110156108e5576111fa8361106360085490565b80611204816128cc565b9150506111e5565b600a546001600160a01b031633146112365760405162461bcd60e51b81526004016107b090612656565b6001600160a01b03811661129b5760405162461bcd60e51b815260206004820152602660248201527f4f776e61626c653a206e6577206f776e657220697320746865207a65726f206160448201526564647265737360d01b60648201526084016107b0565b611073816118fa565b600a546001600160a01b031633146112ce5760405162461bcd60e51b81526004016107b090612656565b6002600b54036112f05760405162461bcd60e51b81526004016107b09061268b565b6002600b55604051632142170760e11b81523060048201523360248201526044810182905282906001600160a01b038216906342842e0e90606401600060405180830381600087803b15801561134557600080fd5b505af1158015611359573d6000803e3d6000fd5b50506001600b555050505050565b600a546001600160a01b031633146113915760405162461bcd60e51b81526004016107b090612656565b600c55565b600a546001600160a01b031633146113c05760405162461bcd60e51b81526004016107b090612656565b6002600b54036113e25760405162461bcd60e51b81526004016107b09061268b565b6002600b556040516370a0823160e01b815230600482015281906000906001600160a01b038316906370a0823190602401602060405180830381865afa158015611430573d6000803e3d6000fd5b505050506040513d601f19601f8201168201806040525081019061145491906128e5565b60405163a9059cbb60e01b8152336004820152602481018290529091506001600160a01b0383169063a9059cbb906044016020604051808303816000875af11580156114a4573d6000803e3d6000fd5b505050506040513d601f19601f820116820180604052508101906114c891906128fe565b50506001600b555050565b600a546001600160a01b031633146114fd5760405162461bcd60e51b81526004016107b090612656565b600e55565b6001600160a01b03163b151590565b6001600160a01b03831661156c5761156781600880546000838152600960205260408120829055600182018355919091527ff3f7a9fe364faab93b216da50a3214154f22a0a2b415b23a84c8169e8b636ee30155565b61158f565b816001600160a01b0316836001600160a01b03161461158f5761158f8382611b73565b6001600160a01b0382166115a6576108e581611c10565b826001600160a01b0316826001600160a01b0316146108e5576108e58282611cbf565b60006001600160e01b0319821663780e9d6360e01b14806106a357506106a382611d03565b600081815260046020526040902080546001600160a01b0319166001600160a01b038416908117909155819061162382610ccd565b6001600160a01b03167f8c5be1e5ebec7d5bd14f71427d1e84f3dd0314c0f7b2291e5b200ac8c7c3b92560405160405180910390a45050565b6000818152600260205260408120546001600160a01b03166116d55760405162461bcd60e51b815260206004820152602c60248201527f4552433732313a206f70657261746f7220717565727920666f72206e6f6e657860448201526b34b9ba32b73a103a37b5b2b760a11b60648201526084016107b0565b60006116e083610ccd565b9050806001600160a01b0316846001600160a01b0316148061172757506001600160a01b0380821660009081526005602090815260408083209388168352929052205460ff165b8061174b5750836001600160a01b03166117408461073b565b6001600160a01b0316145b949350505050565b826001600160a01b031661176682610ccd565b6001600160a01b0316146117ca5760405162461bcd60e51b815260206004820152602560248201527f4552433732313a207472616e736665722066726f6d20696e636f72726563742060448201526437bbb732b960d91b60648201526084016107b0565b6001600160a01b03821661182c5760405162461bcd60e51b8152602060048201526024808201527f4552433732313a207472616e7366657220746f20746865207a65726f206164646044820152637265737360e01b60648201526084016107b0565b611837838383611d53565b6118426000826115ee565b6001600160a01b038316600090815260036020526040812080546001929061186b90849061291b565b90915550506001600160a01b03821660009081526003602052604081208054600192906118999084906126d8565b909155505060008181526002602052604080822080546001600160a01b0319166001600160a01b0386811691821790925591518493918716917fddf252ad1be2c89b69c2b068fc378daa952ba7f163c4a11628f55a4df523b3ef91a4505050565b600a80546001600160a01b038381166001600160a01b0319831681179093556040519116919082907f8be0079c531659141344cd1fd0a4f28419497f9722a3daafe3b4186f6b6457e090600090a35050565b816001600160a01b0316836001600160a01b0316036119ad5760405162461bcd60e51b815260206004820152601960248201527f4552433732313a20617070726f766520746f2063616c6c65720000000000000060448201526064016107b0565b6001600160a01b03838116600081815260056020908152604080832094871680845294825291829020805460ff191686151590811790915591519182527f17307eab39ab6107e8899845ad3d59bd9653f200f220920489ca2b5937696c31910160405180910390a3505050565b6040516bffffffffffffffffffffffff193360601b166020820152600090819060340160405160208183030381529060405280519060200120905061115883600e5483611d5e565b610f30828260405180602001604052806000815250611d74565b611a87848484611753565b611a9384848484611da7565b6110a85760405162461bcd60e51b81526004016107b090612932565b6000818152600260205260409020546060906001600160a01b0316611b2e5760405162461bcd60e51b815260206004820152602f60248201527f4552433732314d657461646174613a2055524920717565727920666f72206e6f60448201526e3732bc34b9ba32b73a103a37b5b2b760891b60648201526084016107b0565b6000611b38611ea8565b90506000815111611b585760405180602001604052806000815250611158565b80611b6284611eb7565b604051602001611148929190612984565b60006001611b8084610d44565b611b8a919061291b565b600083815260076020526040902054909150808214611bdd576001600160a01b03841660009081526006602090815260408083208584528252808320548484528184208190558352600790915290208190555b5060009182526007602090815260408084208490556001600160a01b039094168352600681528383209183525290812055565b600854600090611c229060019061291b565b60008381526009602052604081205460088054939450909284908110611c4a57611c4a612739565b906000526020600020015490508060088381548110611c6b57611c6b612739565b6000918252602080832090910192909255828152600990915260408082208490558582528120556008805480611ca357611ca36129b3565b6001900381819060005260206000200160009055905550505050565b6000611cca83610d44565b6001600160a01b039093166000908152600660209081526040808320868452825280832085905593825260079052919091209190915550565b60006001600160e01b031982166380ac58cd60e01b1480611d3457506001600160e01b03198216635b5e139f60e01b145b806106a357506301ffc9a760e01b6001600160e01b03198316146106a3565b6108e5838383611511565b600082611d6b8584611fb8565b14949350505050565b611d7e838361202c565b611d8b6000848484611da7565b6108e55760405162461bcd60e51b81526004016107b090612932565b60006001600160a01b0384163b15611e9d57604051630a85bd0160e11b81526001600160a01b0385169063150b7a0290611deb9033908990889088906004016129c9565b6020604051808303816000875af1925050508015611e26575060408051601f3d908101601f19168201909252611e2391810190612a06565b60015b611e83573d808015611e54576040519150601f19603f3d011682016040523d82523d6000602084013e611e59565b606091505b508051600003611e7b5760405162461bcd60e51b81526004016107b090612932565b805181602001fd5b6001600160e01b031916630a85bd0160e11b14905061174b565b506001949350505050565b6060600d80546106b8906125cb565b606081600003611ede5750506040805180820190915260018152600360fc1b602082015290565b8160005b8115611f085780611ef2816128cc565b9150611f019050600a83612725565b9150611ee2565b60008167ffffffffffffffff811115611f2357611f23612342565b6040519080825280601f01601f191660200182016040528015611f4d576020820181803683370190505b5090505b841561174b57611f6260018361291b565b9150611f6f600a86612a23565b611f7a9060306126d8565b60f81b818381518110611f8f57611f8f612739565b60200101906001600160f81b031916908160001a905350611fb1600a86612725565b9450611f51565b600081815b8451811015612024576000858281518110611fda57611fda612739565b602002602001015190508083116120005760008381526020829052604090209250612011565b600081815260208490526040902092505b508061201c816128cc565b915050611fbd565b509392505050565b6001600160a01b0382166120825760405162461bcd60e51b815260206004820181905260248201527f4552433732313a206d696e7420746f20746865207a65726f206164647265737360448201526064016107b0565b6000818152600260205260409020546001600160a01b0316156120e75760405162461bcd60e51b815260206004820152601c60248201527f4552433732313a20746f6b656e20616c7265616479206d696e7465640000000060448201526064016107b0565b6120f360008383611d53565b6001600160a01b038216600090815260036020526040812080546001929061211c9084906126d8565b909155505060008181526002602052604080822080546001600160a01b0319166001600160a01b03861690811790915590518392907fddf252ad1be2c89b69c2b068fc378daa952ba7f163c4a11628f55a4df523b3ef908290a45050565b6001600160e01b03198116811461107357600080fd5b6000602082840312156121a257600080fd5b81356111588161217a565b60005b838110156121c85781810151838201526020016121b0565b838111156110a85750506000910152565b600081518084526121f18160208601602086016121ad565b601f01601f19169290920160200192915050565b60208152600061115860208301846121d9565b60006020828403121561222a57600080fd5b5035919050565b6001600160a01b038116811461107357600080fd5b6000806040838503121561225957600080fd5b823561226481612231565b946020939093013593505050565b60008060006060848603121561228757600080fd5b833561229281612231565b925060208401356122a281612231565b929592945050506040919091013590565b600080602083850312156122c657600080fd5b823567ffffffffffffffff808211156122de57600080fd5b818501915085601f8301126122f257600080fd5b81358181111561230157600080fd5b86602082850101111561231357600080fd5b60209290920196919550909350505050565b60006020828403121561233757600080fd5b813561115881612231565b634e487b7160e01b600052604160045260246000fd5b604051601f8201601f1916810167ffffffffffffffff8111828210171561238157612381612342565b604052919050565b600082601f83011261239a57600080fd5b813567ffffffffffffffff8111156123b4576123b4612342565b6123c7601f8201601f1916602001612358565b8181528460208386010111156123dc57600080fd5b816020850160208301376000918101602001919091529392505050565b6000806000806080858703121561240f57600080fd5b843561241a81612231565b93506020850135925060408501359150606085013567ffffffffffffffff81111561244457600080fd5b61245087828801612389565b91505092959194509250565b801515811461107357600080fd5b6000806040838503121561247d57600080fd5b823561248881612231565b915060208301356124988161245c565b809150509250929050565b600060208083850312156124b657600080fd5b823567ffffffffffffffff808211156124ce57600080fd5b818501915085601f8301126124e257600080fd5b8135818111156124f4576124f4612342565b8060051b9150612505848301612358565b818152918301840191848101908884111561251f57600080fd5b938501935b8385101561253d57843582529385019390850190612524565b98975050505050505050565b6000806000806080858703121561255f57600080fd5b843561256a81612231565b9350602085013561257a81612231565b925060408501359150606085013567ffffffffffffffff81111561244457600080fd5b600080604083850312156125b057600080fd5b82356125bb81612231565b9150602083013561249881612231565b600181811c908216806125df57607f821691505b6020821081036125ff57634e487b7160e01b600052602260045260246000fd5b50919050565b60208082526031908201527f4552433732313a207472616e736665722063616c6c6572206973206e6f74206f6040820152701ddb995c881b9bdc88185c1c1c9bdd9959607a1b606082015260800190565b6020808252818101527f4f776e61626c653a2063616c6c6572206973206e6f7420746865206f776e6572604082015260600190565b6020808252601f908201527f5265656e7472616e637947756172643a207265656e7472616e742063616c6c00604082015260600190565b634e487b7160e01b600052601160045260246000fd5b600082198211156126eb576126eb6126c2565b500190565b600081600019048311821515161561270a5761270a6126c2565b500290565b634e487b7160e01b600052601260045260246000fd5b6000826127345761273461270f565b500490565b634e487b7160e01b600052603260045260246000fd5b601f8211156108e557600081815260208120601f850160051c810160208610156127765750805b601f850160051c820191505b8181101561279557828155600101612782565b505050505050565b67ffffffffffffffff8311156127b5576127b5612342565b6127c9836127c383546125cb565b8361274f565b6000601f8411600181146127fd57600085156127e55750838201355b600019600387901b1c1916600186901b178355612857565b600083815260209020601f19861690835b8281101561282e578685013582556020948501946001909201910161280e565b508682101561284b5760001960f88860031b161c19848701351681555b505060018560011b0183555b5050505050565b6001600160a01b03868116825285166020820152604081018490526060810183905260a060808201819052600090612898908301846121d9565b979650505050505050565b600082516128b58184602087016121ad565b64173539b7b760d91b920191825250600501919050565b6000600182016128de576128de6126c2565b5060010190565b6000602082840312156128f757600080fd5b5051919050565b60006020828403121561291057600080fd5b81516111588161245c565b60008282101561292d5761292d6126c2565b500390565b60208082526032908201527f4552433732313a207472616e7366657220746f206e6f6e20455243373231526560408201527131b2b4bb32b91034b6b83632b6b2b73a32b960711b606082015260800190565b600083516129968184602088016121ad565b8351908301906129aa8183602088016121ad565b01949350505050565b634e487b7160e01b600052603160045260246000fd5b6001600160a01b03858116825284166020820152604081018390526080606082018190526000906129fc908301846121d9565b9695505050505050565b600060208284031215612a1857600080fd5b81516111588161217a565b600082612a3257612a3261270f565b50069056fea2646970667358221220a804898c2375ac551bfdefee3a1c1dd3ddeae66a083062be8fd97617b76fb22f64736f6c634300080f00334552433732313a207472616e7366657220746f206e6f6e204552433732315265",
  "linkReferences": {},
  "deployedLinkReferences": {}
}