{
  "_format": "hh-sol-artifact-1",
  "contractName": "GoingUpProjects",
  "sourceName": "contracts/GoingUpProjects.sol",
  "abi": [
    {
      "inputs": [],
      "stateMutability": "nonpayable",
      "type": "constructor"
    },
    {
      "anonymous": false,
      "inputs": [
        {
          "indexed": true,
          "internalType": "uint256",
          "name": "projectId",
          "type": "uint256"
        },
        {
          "indexed": false,
          "internalType": "address",
          "name": "member",
          "type": "address"
        }
      ],
      "name": "AcceptProjectInvitation",
      "type": "event"
    },
    {
      "anonymous": false,
      "inputs": [
        {
          "indexed": true,
          "internalType": "uint256",
          "name": "projectId",
          "type": "uint256"
        },
        {
          "indexed": false,
          "internalType": "address",
          "name": "activatedBy",
          "type": "address"
        }
      ],
      "name": "Activate",
      "type": "event"
    },
    {
      "anonymous": false,
      "inputs": [
        {
          "indexed": false,
          "internalType": "address",
          "name": "changedBy",
          "type": "address"
        },
        {
          "indexed": false,
          "internalType": "uint256",
          "name": "newAddMemberPrice",
          "type": "uint256"
        }
      ],
      "name": "AddMemberPriceChanged",
      "type": "event"
    },
    {
      "anonymous": false,
      "inputs": [
        {
          "indexed": false,
          "internalType": "address",
          "name": "setBy",
          "type": "address"
        },
        {
          "indexed": false,
          "internalType": "address",
          "name": "targetAddress",
          "type": "address"
        },
        {
          "indexed": false,
          "internalType": "uint256",
          "name": "overridePrice",
          "type": "uint256"
        }
      ],
      "name": "AddMemberPriceOverrideSet",
      "type": "event"
    },
    {
      "anonymous": false,
      "inputs": [
        {
          "indexed": true,
          "internalType": "uint256",
          "name": "projectId",
          "type": "uint256"
        },
        {
          "indexed": false,
          "internalType": "address",
          "name": "allowedBy",
          "type": "address"
        }
      ],
      "name": "AllowMembersToEdit",
      "type": "event"
    },
    {
      "anonymous": false,
      "inputs": [
        {
          "indexed": true,
          "internalType": "address",
          "name": "creator",
          "type": "address"
        },
        {
          "indexed": false,
          "internalType": "uint256",
          "name": "projectId",
          "type": "uint256"
        }
      ],
      "name": "Create",
      "type": "event"
    },
    {
      "anonymous": false,
      "inputs": [
        {
          "indexed": true,
          "internalType": "uint256",
          "name": "projectId",
          "type": "uint256"
        },
        {
          "indexed": false,
          "internalType": "address",
          "name": "deactivatedBy",
          "type": "address"
        }
      ],
      "name": "Deactivate",
      "type": "event"
    },
    {
      "anonymous": false,
      "inputs": [
        {
          "indexed": true,
          "internalType": "uint256",
          "name": "projectId",
          "type": "uint256"
        },
        {
          "indexed": false,
          "internalType": "address",
          "name": "allowedBy",
          "type": "address"
        }
      ],
      "name": "DisallowMembersToEdit",
      "type": "event"
    },
    {
      "anonymous": false,
      "inputs": [
        {
          "indexed": true,
          "internalType": "uint256",
          "name": "projectId",
          "type": "uint256"
        },
        {
          "indexed": false,
          "internalType": "address",
          "name": "from",
          "type": "address"
        },
        {
          "indexed": false,
          "internalType": "address",
          "name": "to",
          "type": "address"
        }
      ],
      "name": "DisinviteMember",
      "type": "event"
    },
    {
      "anonymous": false,
      "inputs": [
        {
          "indexed": false,
          "internalType": "address",
          "name": "changedBy",
          "type": "address"
        },
        {
          "indexed": false,
          "internalType": "uint256",
          "name": "newFreeMembers",
          "type": "uint256"
        }
      ],
      "name": "FreeMembersChanged",
      "type": "event"
    },
    {
      "anonymous": false,
      "inputs": [
        {
          "indexed": true,
          "internalType": "uint256",
          "name": "projectId",
          "type": "uint256"
        },
        {
          "indexed": false,
          "internalType": "address",
          "name": "from",
          "type": "address"
        },
        {
          "indexed": false,
          "internalType": "address",
          "name": "to",
          "type": "address"
        }
      ],
      "name": "InviteMember",
      "type": "event"
    },
    {
      "anonymous": false,
      "inputs": [
        {
          "indexed": true,
          "internalType": "uint256",
          "name": "projectId",
          "type": "uint256"
        },
        {
          "indexed": false,
          "internalType": "address",
          "name": "member",
          "type": "address"
        },
        {
          "indexed": false,
          "internalType": "string",
          "name": "reason",
          "type": "string"
        }
      ],
      "name": "LeaveProject",
      "type": "event"
    },
    {
      "anonymous": false,
      "inputs": [
        {
          "indexed": true,
          "internalType": "uint256",
          "name": "projectId",
          "type": "uint256"
        },
        {
          "indexed": false,
          "internalType": "address",
          "name": "addedBy",
          "type": "address"
        },
        {
          "indexed": false,
          "internalType": "address",
          "name": "member",
          "type": "address"
        }
      ],
      "name": "ManuallyAddMember",
      "type": "event"
    },
    {
      "anonymous": false,
      "inputs": [
        {
          "indexed": false,
          "internalType": "uint256",
          "name": "projectId",
          "type": "uint256"
        },
        {
          "indexed": false,
          "internalType": "address",
          "name": "removedBy",
          "type": "address"
        },
        {
          "indexed": false,
          "internalType": "address",
          "name": "memberRemoved",
          "type": "address"
        },
        {
          "indexed": false,
          "internalType": "string",
          "name": "reason",
          "type": "string"
        }
      ],
      "name": "RemoveMember",
      "type": "event"
    },
    {
      "anonymous": false,
      "inputs": [
        {
          "indexed": true,
          "internalType": "uint256",
          "name": "projectId",
          "type": "uint256"
        },
        {
          "indexed": false,
          "internalType": "address",
          "name": "setAsAchievedBy",
          "type": "address"
        },
        {
          "indexed": false,
          "internalType": "address",
          "name": "member",
          "type": "address"
        }
      ],
      "name": "SetMemberGoalAsAchieved",
      "type": "event"
    },
    {
      "anonymous": false,
      "inputs": [
        {
          "indexed": true,
          "internalType": "uint256",
          "name": "projectId",
          "type": "uint256"
        },
        {
          "indexed": false,
          "internalType": "address",
          "name": "setAsVerifiedBy",
          "type": "address"
        },
        {
          "indexed": false,
          "internalType": "address",
          "name": "member",
          "type": "address"
        }
      ],
      "name": "SetMemberRewardAsVerified",
      "type": "event"
    },
    {
      "anonymous": false,
      "inputs": [
        {
          "indexed": true,
          "internalType": "uint256",
          "name": "projectId",
          "type": "uint256"
        },
        {
          "indexed": false,
          "internalType": "address",
          "name": "setBy",
          "type": "address"
        },
        {
          "indexed": false,
          "internalType": "string",
          "name": "key",
          "type": "string"
        },
        {
          "indexed": false,
          "internalType": "string",
          "name": "value",
          "type": "string"
        }
      ],
      "name": "SetProjectExtraData",
      "type": "event"
    },
    {
      "anonymous": false,
      "inputs": [
        {
          "indexed": true,
          "internalType": "uint256",
          "name": "projectId",
          "type": "uint256"
        },
        {
          "indexed": false,
          "internalType": "address",
          "name": "setBy",
          "type": "address"
        },
        {
          "indexed": false,
          "internalType": "address",
          "name": "member",
          "type": "address"
        }
      ],
      "name": "SetProjectMemberExtraData",
      "type": "event"
    },
    {
      "anonymous": false,
      "inputs": [
        {
          "indexed": true,
          "internalType": "uint256",
          "name": "projectId",
          "type": "uint256"
        },
        {
          "indexed": false,
          "internalType": "address",
          "name": "setBy",
          "type": "address"
        }
      ],
      "name": "SetProjectPrivate",
      "type": "event"
    },
    {
      "anonymous": false,
      "inputs": [
        {
          "indexed": true,
          "internalType": "uint256",
          "name": "projectId",
          "type": "uint256"
        },
        {
          "indexed": false,
          "internalType": "address",
          "name": "setBy",
          "type": "address"
        }
      ],
      "name": "SetProjectPublic",
      "type": "event"
    },
    {
      "anonymous": false,
      "inputs": [
        {
          "indexed": true,
          "internalType": "uint256",
          "name": "projectId",
          "type": "uint256"
        },
        {
          "indexed": false,
          "internalType": "address",
          "name": "reviewedBy",
          "type": "address"
        },
        {
          "indexed": false,
          "internalType": "int8",
          "name": "score",
          "type": "int8"
        },
        {
          "indexed": false,
          "internalType": "string",
          "name": "comments",
          "type": "string"
        }
      ],
      "name": "SubmitProjectReview",
      "type": "event"
    },
    {
      "anonymous": false,
      "inputs": [
        {
          "indexed": true,
          "internalType": "uint256",
          "name": "projectId",
          "type": "uint256"
        },
        {
          "indexed": false,
          "internalType": "address",
          "name": "from",
          "type": "address"
        },
        {
          "indexed": false,
          "internalType": "address",
          "name": "to",
          "type": "address"
        }
      ],
      "name": "TransferProjectOwnership",
      "type": "event"
    },
    {
      "anonymous": false,
      "inputs": [
        {
          "indexed": true,
          "internalType": "address",
          "name": "updater",
          "type": "address"
        },
        {
          "indexed": false,
          "internalType": "uint256",
          "name": "projectId",
          "type": "uint256"
        }
      ],
      "name": "Update",
      "type": "event"
    },
    {
      "inputs": [
        {
          "internalType": "uint256",
          "name": "projectId",
          "type": "uint256"
        }
      ],
      "name": "acceptProjectInvitation",
      "outputs": [],
      "stateMutability": "nonpayable",
      "type": "function"
    },
    {
      "inputs": [
        {
          "internalType": "uint256",
          "name": "projectId",
          "type": "uint256"
        }
      ],
      "name": "activate",
      "outputs": [],
      "stateMutability": "nonpayable",
      "type": "function"
    },
    {
      "inputs": [],
      "name": "addMemberPrice",
      "outputs": [
        {
          "internalType": "uint256",
          "name": "",
          "type": "uint256"
        }
      ],
      "stateMutability": "view",
      "type": "function"
    },
    {
      "inputs": [
        {
          "internalType": "address",
          "name": "",
          "type": "address"
        }
      ],
      "name": "addMemberPriceOverrides",
      "outputs": [
        {
          "internalType": "uint256",
          "name": "",
          "type": "uint256"
        }
      ],
      "stateMutability": "view",
      "type": "function"
    },
    {
      "inputs": [
        {
          "internalType": "address",
          "name": "",
          "type": "address"
        }
      ],
      "name": "admins",
      "outputs": [
        {
          "internalType": "bool",
          "name": "",
          "type": "bool"
        }
      ],
      "stateMutability": "view",
      "type": "function"
    },
    {
      "inputs": [
        {
          "internalType": "uint256",
          "name": "projectId",
          "type": "uint256"
        }
      ],
      "name": "allowMembersToEdit",
      "outputs": [],
      "stateMutability": "nonpayable",
      "type": "function"
    },
    {
      "inputs": [
        {
          "internalType": "string",
          "name": "name",
          "type": "string"
        },
        {
          "internalType": "string",
          "name": "description",
          "type": "string"
        },
        {
          "internalType": "uint256",
          "name": "started",
          "type": "uint256"
        },
        {
          "internalType": "uint256",
          "name": "ended",
          "type": "uint256"
        },
        {
          "internalType": "string",
          "name": "primaryUrl",
          "type": "string"
        },
        {
          "internalType": "string",
          "name": "tags",
          "type": "string"
        },
        {
          "internalType": "bool",
          "name": "isPrivate",
          "type": "bool"
        }
      ],
      "name": "create",
      "outputs": [],
      "stateMutability": "payable",
      "type": "function"
    },
    {
      "inputs": [
        {
          "internalType": "uint256",
          "name": "projectId",
          "type": "uint256"
        }
      ],
      "name": "deactivate",
      "outputs": [],
      "stateMutability": "nonpayable",
      "type": "function"
    },
    {
      "inputs": [
        {
          "internalType": "uint256",
          "name": "projectId",
          "type": "uint256"
        }
      ],
      "name": "disallowMembersToEdit",
      "outputs": [],
      "stateMutability": "nonpayable",
      "type": "function"
    },
    {
      "inputs": [
        {
          "internalType": "uint256",
          "name": "projectId",
          "type": "uint256"
        },
        {
          "internalType": "address",
          "name": "member",
          "type": "address"
        }
      ],
      "name": "disinviteMember",
      "outputs": [],
      "stateMutability": "nonpayable",
      "type": "function"
    },
    {
      "inputs": [
        {
          "internalType": "uint256",
          "name": "",
          "type": "uint256"
        },
        {
          "internalType": "string",
          "name": "",
          "type": "string"
        }
      ],
      "name": "extraData",
      "outputs": [
        {
          "internalType": "string",
          "name": "",
          "type": "string"
        }
      ],
      "stateMutability": "view",
      "type": "function"
    },
    {
      "inputs": [],
      "name": "freeMembers",
      "outputs": [
        {
          "internalType": "uint256",
          "name": "",
          "type": "uint256"
        }
      ],
      "stateMutability": "view",
      "type": "function"
    },
    {
      "inputs": [
        {
          "internalType": "uint256",
          "name": "projectId",
          "type": "uint256"
        }
      ],
      "name": "getPendingInvites",
      "outputs": [
        {
          "internalType": "address[]",
          "name": "",
          "type": "address[]"
        }
      ],
      "stateMutability": "view",
      "type": "function"
    },
    {
      "inputs": [
        {
          "internalType": "address",
          "name": "member",
          "type": "address"
        }
      ],
      "name": "getPendingInvitesByAddress",
      "outputs": [
        {
          "internalType": "uint256[]",
          "name": "",
          "type": "uint256[]"
        }
      ],
      "stateMutability": "view",
      "type": "function"
    },
    {
      "inputs": [
        {
          "internalType": "uint256",
          "name": "projectId",
          "type": "uint256"
        }
      ],
      "name": "getProjectMembers",
      "outputs": [
        {
          "internalType": "address[]",
          "name": "",
          "type": "address[]"
        }
      ],
      "stateMutability": "view",
      "type": "function"
    },
    {
      "inputs": [
        {
          "internalType": "address",
          "name": "member",
          "type": "address"
        }
      ],
      "name": "getProjectsByAddress",
      "outputs": [
        {
          "internalType": "uint256[]",
          "name": "",
          "type": "uint256[]"
        }
      ],
      "stateMutability": "view",
      "type": "function"
    },
    {
      "inputs": [
        {
          "internalType": "uint256",
          "name": "projectId",
          "type": "uint256"
        },
        {
          "internalType": "address",
          "name": "member",
          "type": "address"
        },
        {
          "internalType": "string",
          "name": "role",
          "type": "string"
        },
        {
          "internalType": "string",
          "name": "goal",
          "type": "string"
        },
        {
          "internalType": "string",
          "name": "rewardData",
          "type": "string"
        }
      ],
      "name": "inviteMember",
      "outputs": [],
      "stateMutability": "payable",
      "type": "function"
    },
    {
      "inputs": [
        {
          "internalType": "uint256",
          "name": "projectId",
          "type": "uint256"
        },
        {
          "internalType": "address",
          "name": "addressToCheck",
          "type": "address"
        }
      ],
      "name": "isAddressInvitedToProject",
      "outputs": [
        {
          "internalType": "bool",
          "name": "",
          "type": "bool"
        }
      ],
      "stateMutability": "view",
      "type": "function"
    },
    {
      "inputs": [
        {
          "internalType": "uint256",
          "name": "projectId",
          "type": "uint256"
        },
        {
          "internalType": "string",
          "name": "reason",
          "type": "string"
        }
      ],
      "name": "leaveProject",
      "outputs": [],
      "stateMutability": "nonpayable",
      "type": "function"
    },
    {
      "inputs": [
        {
          "internalType": "uint256",
          "name": "projectId",
          "type": "uint256"
        },
        {
          "internalType": "address",
          "name": "member",
          "type": "address"
        },
        {
          "internalType": "string",
          "name": "role",
          "type": "string"
        },
        {
          "internalType": "string",
          "name": "goal",
          "type": "string"
        },
        {
          "internalType": "string",
          "name": "rewardData",
          "type": "string"
        }
      ],
      "name": "manuallyAddMember",
      "outputs": [],
      "stateMutability": "nonpayable",
      "type": "function"
    },
    {
      "inputs": [],
      "name": "owner",
      "outputs": [
        {
          "internalType": "address",
          "name": "",
          "type": "address"
        }
      ],
      "stateMutability": "view",
      "type": "function"
    },
    {
      "inputs": [],
      "name": "price",
      "outputs": [
        {
          "internalType": "uint256",
          "name": "",
          "type": "uint256"
        }
      ],
      "stateMutability": "view",
      "type": "function"
    },
    {
      "inputs": [
        {
          "internalType": "uint256",
          "name": "",
          "type": "uint256"
        },
        {
          "internalType": "address",
          "name": "",
          "type": "address"
        }
      ],
      "name": "projectMemberMapping",
      "outputs": [
        {
          "internalType": "string",
          "name": "role",
          "type": "string"
        },
        {
          "internalType": "string",
          "name": "goal",
          "type": "string"
        },
        {
          "internalType": "string",
          "name": "rewardData",
          "type": "string"
        },
        {
          "internalType": "bool",
          "name": "goalAchieved",
          "type": "bool"
        },
        {
          "internalType": "bool",
          "name": "rewardVerified",
          "type": "bool"
        },
        {
          "internalType": "string",
          "name": "extraData",
          "type": "string"
        }
      ],
      "stateMutability": "view",
      "type": "function"
    },
    {
      "inputs": [
        {
          "internalType": "uint256",
          "name": "",
          "type": "uint256"
        }
      ],
      "name": "projects",
      "outputs": [
        {
          "internalType": "uint256",
          "name": "id",
          "type": "uint256"
        },
        {
          "internalType": "string",
          "name": "name",
          "type": "string"
        },
        {
          "internalType": "string",
          "name": "description",
          "type": "string"
        },
        {
          "internalType": "uint256",
          "name": "started",
          "type": "uint256"
        },
        {
          "internalType": "uint256",
          "name": "ended",
          "type": "uint256"
        },
        {
          "internalType": "string",
          "name": "primaryUrl",
          "type": "string"
        },
        {
          "internalType": "string",
          "name": "tags",
          "type": "string"
        },
        {
          "internalType": "address",
          "name": "owner",
          "type": "address"
        },
        {
          "internalType": "bool",
          "name": "active",
          "type": "bool"
        },
        {
          "internalType": "bool",
          "name": "allowMembersToEdit",
          "type": "bool"
        },
        {
          "internalType": "bool",
          "name": "isPrivate",
          "type": "bool"
        }
      ],
      "stateMutability": "view",
      "type": "function"
    },
    {
      "inputs": [
        {
          "internalType": "uint256",
          "name": "projectId",
          "type": "uint256"
        },
        {
          "internalType": "address",
          "name": "member",
          "type": "address"
        },
        {
          "internalType": "string",
          "name": "reason",
          "type": "string"
        }
      ],
      "name": "removeMember",
      "outputs": [],
      "stateMutability": "nonpayable",
      "type": "function"
    },
    {
      "inputs": [
        {
          "internalType": "uint256",
          "name": "newAddMemberPrice",
          "type": "uint256"
        }
      ],
      "name": "setAddMemberPrice",
      "outputs": [],
      "stateMutability": "nonpayable",
      "type": "function"
    },
    {
      "inputs": [
        {
          "internalType": "address",
          "name": "targetAddress",
          "type": "address"
        },
        {
          "internalType": "uint256",
          "name": "overridePrice",
          "type": "uint256"
        }
      ],
      "name": "setAddMemberPriceOverride",
      "outputs": [],
      "stateMutability": "nonpayable",
      "type": "function"
    },
    {
      "inputs": [
        {
          "internalType": "address",
          "name": "targetAddress",
          "type": "address"
        },
        {
          "internalType": "bool",
          "name": "isAdmin",
          "type": "bool"
        }
      ],
      "name": "setAdmin",
      "outputs": [],
      "stateMutability": "nonpayable",
      "type": "function"
    },
    {
      "inputs": [
        {
          "internalType": "uint256",
          "name": "newFreeMembers",
          "type": "uint256"
        }
      ],
      "name": "setFreeMembers",
      "outputs": [],
      "stateMutability": "nonpayable",
      "type": "function"
    },
    {
      "inputs": [
        {
          "internalType": "uint256",
          "name": "projectId",
          "type": "uint256"
        },
        {
          "internalType": "address",
          "name": "member",
          "type": "address"
        }
      ],
      "name": "setMemberGoalAsAchieved",
      "outputs": [],
      "stateMutability": "nonpayable",
      "type": "function"
    },
    {
      "inputs": [
        {
          "internalType": "uint256",
          "name": "projectId",
          "type": "uint256"
        },
        {
          "internalType": "address",
          "name": "member",
          "type": "address"
        }
      ],
      "name": "setMemberRewardAsVerified",
      "outputs": [],
      "stateMutability": "nonpayable",
      "type": "function"
    },
    {
      "inputs": [
        {
          "internalType": "uint256",
          "name": "newPrice",
          "type": "uint256"
        }
      ],
      "name": "setPrice",
      "outputs": [],
      "stateMutability": "nonpayable",
      "type": "function"
    },
    {
      "inputs": [
        {
          "internalType": "uint256",
          "name": "projectId",
          "type": "uint256"
        },
        {
          "internalType": "string",
          "name": "key",
          "type": "string"
        },
        {
          "internalType": "string",
          "name": "value",
          "type": "string"
        }
      ],
      "name": "setProjectExtraData",
      "outputs": [],
      "stateMutability": "nonpayable",
      "type": "function"
    },
    {
      "inputs": [
        {
          "internalType": "uint256",
          "name": "projectId",
          "type": "uint256"
        },
        {
          "internalType": "address",
          "name": "member",
          "type": "address"
        },
        {
          "internalType": "string",
          "name": "data",
          "type": "string"
        }
      ],
      "name": "setProjectMemberExtraData",
      "outputs": [],
      "stateMutability": "nonpayable",
      "type": "function"
    },
    {
      "inputs": [
        {
          "internalType": "uint256",
          "name": "projectId",
          "type": "uint256"
        }
      ],
      "name": "setProjectPrivate",
      "outputs": [],
      "stateMutability": "nonpayable",
      "type": "function"
    },
    {
      "inputs": [
        {
          "internalType": "uint256",
          "name": "projectId",
          "type": "uint256"
        }
      ],
      "name": "setProjectPublic",
      "outputs": [],
      "stateMutability": "nonpayable",
      "type": "function"
    },
    {
      "inputs": [
        {
          "internalType": "uint256",
          "name": "projectId",
          "type": "uint256"
        },
        {
          "internalType": "int8",
          "name": "score",
          "type": "int8"
        },
        {
          "internalType": "string",
          "name": "comments",
          "type": "string"
        }
      ],
      "name": "submitProjectReview",
      "outputs": [],
      "stateMutability": "payable",
      "type": "function"
    },
    {
      "inputs": [
        {
          "internalType": "address",
          "name": "newOwner",
          "type": "address"
        }
      ],
      "name": "transferOwnership",
      "outputs": [],
      "stateMutability": "nonpayable",
      "type": "function"
    },
    {
      "inputs": [
        {
          "internalType": "uint256",
          "name": "projectId",
          "type": "uint256"
        },
        {
          "internalType": "address",
          "name": "to",
          "type": "address"
        }
      ],
      "name": "transferProjectOwnership",
      "outputs": [],
      "stateMutability": "payable",
      "type": "function"
    },
    {
      "inputs": [
        {
          "internalType": "uint256",
          "name": "projectId",
          "type": "uint256"
        },
        {
          "internalType": "string",
          "name": "name",
          "type": "string"
        },
        {
          "internalType": "string",
          "name": "description",
          "type": "string"
        },
        {
          "internalType": "uint256",
          "name": "started",
          "type": "uint256"
        },
        {
          "internalType": "uint256",
          "name": "ended",
          "type": "uint256"
        },
        {
          "internalType": "string",
          "name": "primaryUrl",
          "type": "string"
        },
        {
          "internalType": "string",
          "name": "tags",
          "type": "string"
        },
        {
          "internalType": "bool",
          "name": "isPrivate",
          "type": "bool"
        }
      ],
      "name": "update",
      "outputs": [],
      "stateMutability": "payable",
      "type": "function"
    },
    {
      "inputs": [
        {
          "internalType": "address",
          "name": "tokenAddress",
          "type": "address"
        },
        {
          "internalType": "uint256",
          "name": "tokenID",
          "type": "uint256"
        },
        {
          "internalType": "uint256",
          "name": "amount",
          "type": "uint256"
        },
        {
          "internalType": "bytes",
          "name": "data",
          "type": "bytes"
        }
      ],
      "name": "withdrawERC1155",
      "outputs": [],
      "stateMutability": "nonpayable",
      "type": "function"
    },
    {
      "inputs": [
        {
          "internalType": "address",
          "name": "tokenAddress",
          "type": "address"
        },
        {
          "internalType": "uint256",
          "name": "amount",
          "type": "uint256"
        }
      ],
      "name": "withdrawERC20",
      "outputs": [],
      "stateMutability": "nonpayable",
      "type": "function"
    },
    {
      "inputs": [
        {
          "internalType": "address",
          "name": "tokenAddress",
          "type": "address"
        },
        {
          "internalType": "uint256",
          "name": "tokenID",
          "type": "uint256"
        }
      ],
      "name": "withdrawERC721",
      "outputs": [],
      "stateMutability": "nonpayable",
      "type": "function"
    },
    {
      "inputs": [],
      "name": "withdrawFunds",
      "outputs": [],
      "stateMutability": "nonpayable",
      "type": "function"
    }
  ],
  "bytecode": "0x60806040526001600055662386f26fc10000600355600560045567016345785d8a000060055534801561003157600080fd5b50600180546001600160a01b0319163317905561514c806100536000396000f3fe6080604052600436106102665760003560e01c80638da5cb5b11610144578063c7d3c30e116100b6578063f08afc851161007a578063f08afc8514610779578063f2fde38b1461078f578063f3e414f8146107af578063f80a4874146107cf578063f9d4f284146107ef578063fe26b70b1461080f57600080fd5b8063c7d3c30e146106f3578063d4eba6a814610706578063d515d9d914610726578063d5842c8b14610746578063dfecbd8e1461076657600080fd5b8063a1538bde11610108578063a1538bde14610614578063a1db978214610634578063abd6dd0114610654578063b260c42a14610686578063b4bd0197146106a6578063b709af50146106c657600080fd5b80638da5cb5b146105665780638e3ea7cf1461059e578063916b9bef146105be57806391b7f5ed146105de578063a035b1fe146105fe57600080fd5b8063429b62e5116101dd57806366f9363c116101a157806366f9363c146104955780636da52db1146104b55780637c59b702146104d55780637cc35b05146105105780637e9d4ed114610526578063836825401461054657600080fd5b8063429b62e5146103c857806343ec213d14610408578063473f8501146104285780634b0bddd21461045557806353baa5d01461047557600080fd5b806316fa0b3e1161022f57806316fa0b3e146103205780631cdb86261461034057806324600fc31461036d5780632f1fff1314610382578063331a749a146103955780633bcaa830146103a857600080fd5b80627671e31461026b578063063872041461028d5780630b397a05146102ad5780630e7563bf146102cd578063107046bd146102e0575b600080fd5b34801561027757600080fd5b5061028b610286366004614448565b61082f565b005b34801561029957600080fd5b5061028b6102a836600461447d565b6108cb565b3480156102b957600080fd5b5061028b6102c8366004614555565b610ca2565b61028b6102db3660046145b5565b610dd7565b3480156102ec57600080fd5b506103006102fb366004614448565b611262565b6040516103179b9a999897969594939291906146e8565b60405180910390f35b34801561032c57600080fd5b5061028b61033b36600461478d565b6114ed565b34801561034c57600080fd5b5061036061035b366004614555565b611592565b60405161031791906147b7565b34801561037957600080fd5b5061028b611648565b61028b610390366004614813565b6116bb565b61028b6103a33660046148c7565b611c87565b3480156103b457600080fd5b5061028b6103c3366004614926565b611d4f565b3480156103d457600080fd5b506103f86103e336600461494b565b60026020526000908152604090205460ff1681565b6040519015158152602001610317565b34801561041457600080fd5b5061028b610423366004614926565b612116565b34801561043457600080fd5b50610448610443366004614448565b61251c565b6040516103179190614966565b34801561046157600080fd5b5061028b6104703660046149b3565b61253c565b34801561048157600080fd5b5061028b610490366004614448565b6125b1565b3480156104a157600080fd5b5061028b6104b0366004614813565b612928565b3480156104c157600080fd5b5061028b6104d0366004614448565b612a59565b3480156104e157600080fd5b506105026104f036600461494b565b60066020526000908152604090205481565b604051908152602001610317565b34801561051c57600080fd5b5061050260045481565b34801561053257600080fd5b5061028b61054136600461447d565b612dca565b34801561055257600080fd5b5061028b61056136600461447d565b613184565b34801561057257600080fd5b50600154610586906001600160a01b031681565b6040516001600160a01b039091168152602001610317565b3480156105aa57600080fd5b5061028b6105b9366004614448565b613262565b3480156105ca57600080fd5b5061028b6105d9366004614448565b6132e8565b3480156105ea57600080fd5b5061028b6105f9366004614448565b613373565b34801561060a57600080fd5b5061050260035481565b34801561062057600080fd5b5061028b61062f3660046149ea565b6133bc565b34801561064057600080fd5b5061028b61064f36600461478d565b61346f565b34801561066057600080fd5b5061067461066f36600461447d565b61352c565b60405161031796959493929190614a5f565b34801561069257600080fd5b5061028b6106a1366004614448565b613794565b3480156106b257600080fd5b5061028b6106c1366004614448565b613825565b3480156106d257600080fd5b506106e66106e136600461494b565b6138a4565b6040516103179190614ac9565b61028b610701366004614b01565b6138c8565b34801561071257600080fd5b5061028b610721366004614448565b613ada565b34801561073257600080fd5b50610448610741366004614448565b613bd5565b34801561075257600080fd5b506106e661076136600461494b565b613bef565b61028b61077436600461447d565b613c13565b34801561078557600080fd5b5061050260055481565b34801561079b57600080fd5b5061028b6107aa36600461494b565b613ccf565b3480156107bb57600080fd5b5061028b6107ca36600461478d565b613d3b565b3480156107db57600080fd5b5061028b6107ea366004614bd2565b613dec565b3480156107fb57600080fd5b506103f861080a36600461447d565b61417f565b34801561081b57600080fd5b5061028b61082a366004614448565b61419e565b6000818152600760208190526040909120015481906001600160a01b031633146108745760405162461bcd60e51b815260040161086b90614c35565b60405180910390fd5b600082815260076020818152604092839020909101805460ff60a81b19169055905133815283917f28cf371e0846d7075b0f20e862d6bc23805f62e691976f6be6447f190a8ec50a91015b60405180910390a25050565b600082815260076020908152604080832081516101608101909252805482526001810180548795948401919061090090614c64565b80601f016020809104026020016040519081016040528092919081815260200182805461092c90614c64565b80156109795780601f1061094e57610100808354040283529160200191610979565b820191906000526020600020905b81548152906001019060200180831161095c57829003601f168201915b5050505050815260200160028201805461099290614c64565b80601f01602080910402602001604051908101604052809291908181526020018280546109be90614c64565b8015610a0b5780601f106109e057610100808354040283529160200191610a0b565b820191906000526020600020905b8154815290600101906020018083116109ee57829003601f168201915b505050505081526020016003820154815260200160048201548152602001600582018054610a3890614c64565b80601f0160208091040260200160405190810160405280929190818152602001828054610a6490614c64565b8015610ab15780601f10610a8657610100808354040283529160200191610ab1565b820191906000526020600020905b815481529060010190602001808311610a9457829003601f168201915b50505050508152602001600682018054610aca90614c64565b80601f0160208091040260200160405190810160405280929190818152602001828054610af690614c64565b8015610b435780601f10610b1857610100808354040283529160200191610b43565b820191906000526020600020905b815481529060010190602001808311610b2657829003601f168201915b5050509183525050600791909101546001600160a01b03808216602084015260ff600160a01b8304811615156040850152600160a81b8304811615156060850152600160b01b909204909116151560809092019190915260e08201519192503391161480610bd157508061012001518015610bd157506000828152600860205260409020610bd1903361422f565b610bed5760405162461bcd60e51b815260040161086b90614c9e565b6000848152600b60205260409020610c059084614251565b5060408051602080820183526000808352878152600a82528381206001600160a01b03881682529091529190912090610c3e9082614d1a565b506001600160a01b0383166000908152600c60205260409020610c619085614266565b50837f6f6b7b88ae3aeea58ec4761e132ecfec9ff054b29d7e0116533b320d8b7758003385604051610c94929190614dda565b60405180910390a250505050565b60008281526007602081905260409091200154336001600160a01b0390911603610d0e5760405162461bcd60e51b815260206004820152601a60248201527f6f776e65722063616e6e6f74206c656176652070726f6a656374000000000000604482015260640161086b565b6000828152600860205260409020610d26903361422f565b610d425760405162461bcd60e51b815260040161086b90614df4565b6000828152600860205260409020610d5a9033614251565b5060408051602080820183526000808352858152600a82528381203382529091529190912090610d8a9082614d1a565b50336000908152600960205260409020610da49083614266565b50817f417462e9e2a4bcf0628b9739ba91bbf7ee6d93f1ce945936db56ac47360d903a33836040516108bf929190614e2b565b600354341015610df95760405162461bcd60e51b815260040161086b90614e57565b600088815260076020908152604080832081516101608101909252805482526001810180548d959484019190610e2e90614c64565b80601f0160208091040260200160405190810160405280929190818152602001828054610e5a90614c64565b8015610ea75780601f10610e7c57610100808354040283529160200191610ea7565b820191906000526020600020905b815481529060010190602001808311610e8a57829003601f168201915b50505050508152602001600282018054610ec090614c64565b80601f0160208091040260200160405190810160405280929190818152602001828054610eec90614c64565b8015610f395780601f10610f0e57610100808354040283529160200191610f39565b820191906000526020600020905b815481529060010190602001808311610f1c57829003601f168201915b505050505081526020016003820154815260200160048201548152602001600582018054610f6690614c64565b80601f0160208091040260200160405190810160405280929190818152602001828054610f9290614c64565b8015610fdf5780601f10610fb457610100808354040283529160200191610fdf565b820191906000526020600020905b815481529060010190602001808311610fc257829003601f168201915b50505050508152602001600682018054610ff890614c64565b80601f016020809104026020016040519081016040528092919081815260200182805461102490614c64565b80156110715780601f1061104657610100808354040283529160200191611071565b820191906000526020600020905b81548152906001019060200180831161105457829003601f168201915b5050509183525050600791909101546001600160a01b03808216602084015260ff600160a01b8304811615156040850152600160a81b8304811615156060850152600160b01b909204909116151560809092019190915260e082015191925033911614806110ff575080610120015180156110ff575060008281526008602052604090206110ff903361422f565b61111b5760405162461bcd60e51b815260040161086b90614c9e565b60008a815260076020819052604090912001548a90600160a01b900460ff1661117b5760405162461bcd60e51b815260206004820152601260248201527170726f6a656374206e6f742061637469766560701b604482015260640161086b565b60008b81526007602052604090206001016111968b82614d1a565b5060008b81526007602052604090206002016111b28a82614d1a565b5060008b815260076020526040902060038101899055600481018890556005016111dc8782614d1a565b5060008b81526007602052604090206006016111f88682614d1a565b5060008b815260076020818152604092839020909101805460ff60b01b1916600160b01b8815150217905590518c815233917f5f66d2a93b609bc6596b75c6dbb0e4f3f7cafd4b3b617157ff304d1076e58375910160405180910390a25050505050505050505050565b6007602052600090815260409020805460018201805491929161128490614c64565b80601f01602080910402602001604051908101604052809291908181526020018280546112b090614c64565b80156112fd5780601f106112d2576101008083540402835291602001916112fd565b820191906000526020600020905b8154815290600101906020018083116112e057829003601f168201915b50505050509080600201805461131290614c64565b80601f016020809104026020016040519081016040528092919081815260200182805461133e90614c64565b801561138b5780601f106113605761010080835404028352916020019161138b565b820191906000526020600020905b81548152906001019060200180831161136e57829003601f168201915b5050505050908060030154908060040154908060050180546113ac90614c64565b80601f01602080910402602001604051908101604052809291908181526020018280546113d890614c64565b80156114255780601f106113fa57610100808354040283529160200191611425565b820191906000526020600020905b81548152906001019060200180831161140857829003601f168201915b50505050509080600601805461143a90614c64565b80601f016020809104026020016040519081016040528092919081815260200182805461146690614c64565b80156114b35780601f10611488576101008083540402835291602001916114b3565b820191906000526020600020905b81548152906001019060200180831161149657829003601f168201915b505050600790930154919250506001600160a01b0381169060ff600160a01b8204811691600160a81b8104821691600160b01b909104168b565b6001546001600160a01b031633148061151557503360009081526002602052604090205460ff165b6115315760405162461bcd60e51b815260040161086b90614e84565b6001600160a01b03821660008181526006602090815260409182902084905581513381529081019290925281018290527fe7f7f25d3b7ef2ac6491f0eb64c7bc8b3629dc3591569e52be1b7a4eb5ea97dc9060600160405180910390a15050565b600d6020908152600092835260409092208151808301840180519281529084019290930191909120915280546115c790614c64565b80601f01602080910402602001604051908101604052809291908181526020018280546115f390614c64565b80156116405780601f1061161557610100808354040283529160200191611640565b820191906000526020600020905b81548152906001019060200180831161162357829003601f168201915b505050505081565b6001546001600160a01b031633148061167057503360009081526002602052604090205460ff165b61168c5760405162461bcd60e51b815260040161086b90614e84565b60405133904780156108fc02916000818181858888f193505050501580156116b8573d6000803e3d6000fd5b50565b600088815260076020908152604080832081516101608101909252805482526001810180548d9594840191906116f090614c64565b80601f016020809104026020016040519081016040528092919081815260200182805461171c90614c64565b80156117695780601f1061173e57610100808354040283529160200191611769565b820191906000526020600020905b81548152906001019060200180831161174c57829003601f168201915b5050505050815260200160028201805461178290614c64565b80601f01602080910402602001604051908101604052809291908181526020018280546117ae90614c64565b80156117fb5780601f106117d0576101008083540402835291602001916117fb565b820191906000526020600020905b8154815290600101906020018083116117de57829003601f168201915b50505050508152602001600382015481526020016004820154815260200160058201805461182890614c64565b80601f016020809104026020016040519081016040528092919081815260200182805461185490614c64565b80156118a15780601f10611876576101008083540402835291602001916118a1565b820191906000526020600020905b81548152906001019060200180831161188457829003601f168201915b505050505081526020016006820180546118ba90614c64565b80601f01602080910402602001604051908101604052809291908181526020018280546118e690614c64565b80156119335780601f1061190857610100808354040283529160200191611933565b820191906000526020600020905b81548152906001019060200180831161191657829003601f168201915b5050509183525050600791909101546001600160a01b03808216602084015260ff600160a01b8304811615156040850152600160a81b8304811615156060850152600160b01b909204909116151560809092019190915260e082015191925033911614806119c1575080610120015180156119c1575060008281526008602052604090206119c1903361422f565b6119dd5760405162461bcd60e51b815260040161086b90614c9e565b336000908152600660205260408120548b918190036119fb57506005545b6004546000838152600860205260409020611a1590614272565b6000848152600b60205260409020611a2c90614272565b611a369190614ebd565b611a41906001614ebd565b1115611b725780341015611a675760405162461bcd60e51b815260040161086b90614e57565b60008c8152600b60205260409020611a7f908c61427c565b5060008c8152600a602090815260408083206001600160a01b038f1684529091529020611aad8a8c83614ed5565b5060008c8152600a602090815260408083206001600160a01b038f1684529091529020600101611ade888a83614ed5565b5060008c8152600a602090815260408083206001600160a01b038f1684529091529020600201611b0f868883614ed5565b506001600160a01b038b166000908152600c60205260409020611b32908d614291565b508b7fc6f31c441833b21f293718c07925d80b07f6bc91007450774197b3db20f72fcc338d604051611b65929190614dda565b60405180910390a2611c79565b60008c8152600b60205260409020611b8a908c61427c565b5060008c8152600a602090815260408083206001600160a01b038f1684529091529020611bb88a8c83614ed5565b5060008c8152600a602090815260408083206001600160a01b038f1684529091529020600101611be9888a83614ed5565b5060008c8152600a602090815260408083206001600160a01b038f1684529091529020600201611c1a868883614ed5565b506001600160a01b038b166000908152600c60205260409020611c3d908d614291565b508b7fc6f31c441833b21f293718c07925d80b07f6bc91007450774197b3db20f72fcc338d604051611c70929190614dda565b60405180910390a25b505050505050505050505050565b600354341015611ca95760405162461bcd60e51b815260040161086b90614e57565b6004198260000b12158015611cc2575060058260000b13155b611d0e5760405162461bcd60e51b815260206004820152601f60248201527f73636f7265206d757374206265206265747765656e202d3520616e64202b3500604482015260640161086b565b827f60bba7935bbeede862536783b7f9a308eb01a6e5799e17ff32a5da221e1a962c338484604051611d4293929190614f96565b60405180910390a2505050565b6000838152600760209081526040808320815161016081019092528054825260018101805488959484019190611d8490614c64565b80601f0160208091040260200160405190810160405280929190818152602001828054611db090614c64565b8015611dfd5780601f10611dd257610100808354040283529160200191611dfd565b820191906000526020600020905b815481529060010190602001808311611de057829003601f168201915b50505050508152602001600282018054611e1690614c64565b80601f0160208091040260200160405190810160405280929190818152602001828054611e4290614c64565b8015611e8f5780601f10611e6457610100808354040283529160200191611e8f565b820191906000526020600020905b815481529060010190602001808311611e7257829003601f168201915b505050505081526020016003820154815260200160048201548152602001600582018054611ebc90614c64565b80601f0160208091040260200160405190810160405280929190818152602001828054611ee890614c64565b8015611f355780601f10611f0a57610100808354040283529160200191611f35565b820191906000526020600020905b815481529060010190602001808311611f1857829003601f168201915b50505050508152602001600682018054611f4e90614c64565b80601f0160208091040260200160405190810160405280929190818152602001828054611f7a90614c64565b8015611fc75780601f10611f9c57610100808354040283529160200191611fc7565b820191906000526020600020905b815481529060010190602001808311611faa57829003601f168201915b5050509183525050600791909101546001600160a01b03808216602084015260ff600160a01b8304811615156040850152600160a81b8304811615156060850152600160b01b909204909116151560809092019190915260e082015191925033911614806120555750806101200151801561205557506000828152600860205260409020612055903361422f565b6120715760405162461bcd60e51b815260040161086b90614c9e565b6000858152600860205260409020612089908561422f565b6120a55760405162461bcd60e51b815260040161086b90614df4565b6000858152600a602090815260408083206001600160a01b038816845290915290206004016120d48482614d1a565b50847fd9f85596d0350abe376b65c9bc1ab49e988552f2ac979b593e5d55cadd53fa7b3386604051612107929190614dda565b60405180910390a25050505050565b600083815260076020908152604080832081516101608101909252805482526001810180548895948401919061214b90614c64565b80601f016020809104026020016040519081016040528092919081815260200182805461217790614c64565b80156121c45780601f10612199576101008083540402835291602001916121c4565b820191906000526020600020905b8154815290600101906020018083116121a757829003601f168201915b505050505081526020016002820180546121dd90614c64565b80601f016020809104026020016040519081016040528092919081815260200182805461220990614c64565b80156122565780601f1061222b57610100808354040283529160200191612256565b820191906000526020600020905b81548152906001019060200180831161223957829003601f168201915b50505050508152602001600382015481526020016004820154815260200160058201805461228390614c64565b80601f01602080910402602001604051908101604052809291908181526020018280546122af90614c64565b80156122fc5780601f106122d1576101008083540402835291602001916122fc565b820191906000526020600020905b8154815290600101906020018083116122df57829003601f168201915b5050505050815260200160068201805461231590614c64565b80601f016020809104026020016040519081016040528092919081815260200182805461234190614c64565b801561238e5780601f106123635761010080835404028352916020019161238e565b820191906000526020600020905b81548152906001019060200180831161237157829003601f168201915b5050509183525050600791909101546001600160a01b03808216602084015260ff600160a01b8304811615156040850152600160a81b8304811615156060850152600160b01b909204909116151560809092019190915260e0820151919250339116148061241c5750806101200151801561241c5750600082815260086020526040902061241c903361422f565b6124385760405162461bcd60e51b815260040161086b90614c9e565b6000858152600860205260409020612450908561422f565b61249c5760405162461bcd60e51b815260206004820152601a60248201527f63616e6e6f742072656d6f76652061206e6f6e2d6d656d626572000000000000604482015260640161086b565b60008581526008602052604090206124b49085614251565b506001600160a01b03841660009081526009602052604090206124d79086614266565b507f192e9717726252986d627e77aab569769deec7d8ec94b1e7b356598545ce46e88533868660405161250d9493929190614fca565b60405180910390a15050505050565b6000818152600b602052604090206060906125369061429d565b92915050565b6001546001600160a01b031633146125865760405162461bcd60e51b815260206004820152600d60248201526c3737ba103a34329037bbb732b960991b604482015260640161086b565b6001600160a01b03919091166000908152600260205260409020805460ff1916911515919091179055565b60008181526007602090815260408083208151610160810190925280548252600181018054869594840191906125e690614c64565b80601f016020809104026020016040519081016040528092919081815260200182805461261290614c64565b801561265f5780601f106126345761010080835404028352916020019161265f565b820191906000526020600020905b81548152906001019060200180831161264257829003601f168201915b5050505050815260200160028201805461267890614c64565b80601f01602080910402602001604051908101604052809291908181526020018280546126a490614c64565b80156126f15780601f106126c6576101008083540402835291602001916126f1565b820191906000526020600020905b8154815290600101906020018083116126d457829003601f168201915b50505050508152602001600382015481526020016004820154815260200160058201805461271e90614c64565b80601f016020809104026020016040519081016040528092919081815260200182805461274a90614c64565b80156127975780601f1061276c57610100808354040283529160200191612797565b820191906000526020600020905b81548152906001019060200180831161277a57829003601f168201915b505050505081526020016006820180546127b090614c64565b80601f01602080910402602001604051908101604052809291908181526020018280546127dc90614c64565b80156128295780601f106127fe57610100808354040283529160200191612829565b820191906000526020600020905b81548152906001019060200180831161280c57829003601f168201915b5050509183525050600791909101546001600160a01b03808216602084015260ff600160a01b8304811615156040850152600160a81b8304811615156060850152600160b01b909204909116151560809092019190915260e082015191925033911614806128b7575080610120015180156128b7575060008281526008602052604090206128b7903361422f565b6128d35760405162461bcd60e51b815260040161086b90614c9e565b600083815260076020818152604092839020909101805460ff60b01b1916600160b01b179055905133815284917fb73e4ba45c2954d5b4e8ebe9b323e78b8aa4e7ff0a690f4244f46dda051170849101611d42565b6001546001600160a01b031633148061295057503360009081526002602052604090205460ff165b61296c5760405162461bcd60e51b815260040161086b90614e84565b6000888152600860205260409020612984908861427c565b506000888152600a602090815260408083206001600160a01b038b16845290915290206129b2868883614ed5565b506000888152600a602090815260408083206001600160a01b038b16845290915290206001016129e3848683614ed5565b506000888152600a602090815260408083206001600160a01b038b1684529091529020600201612a14828483614ed5565b50877fd964449c6fa9af4a279c0d5de7838f879ec83eaf4c1cb8904fa27f9fd245d4653389604051612a47929190614dda565b60405180910390a25050505050505050565b6000818152600760209081526040808320815161016081019092528054825260018101805486959484019190612a8e90614c64565b80601f0160208091040260200160405190810160405280929190818152602001828054612aba90614c64565b8015612b075780601f10612adc57610100808354040283529160200191612b07565b820191906000526020600020905b815481529060010190602001808311612aea57829003601f168201915b50505050508152602001600282018054612b2090614c64565b80601f0160208091040260200160405190810160405280929190818152602001828054612b4c90614c64565b8015612b995780601f10612b6e57610100808354040283529160200191612b99565b820191906000526020600020905b815481529060010190602001808311612b7c57829003601f168201915b505050505081526020016003820154815260200160048201548152602001600582018054612bc690614c64565b80601f0160208091040260200160405190810160405280929190818152602001828054612bf290614c64565b8015612c3f5780601f10612c1457610100808354040283529160200191612c3f565b820191906000526020600020905b815481529060010190602001808311612c2257829003601f168201915b50505050508152602001600682018054612c5890614c64565b80601f0160208091040260200160405190810160405280929190818152602001828054612c8490614c64565b8015612cd15780601f10612ca657610100808354040283529160200191612cd1565b820191906000526020600020905b815481529060010190602001808311612cb457829003601f168201915b5050509183525050600791909101546001600160a01b03808216602084015260ff600160a01b8304811615156040850152600160a81b8304811615156060850152600160b01b909204909116151560809092019190915260e08201519192503391161480612d5f57508061012001518015612d5f57506000828152600860205260409020612d5f903361422f565b612d7b5760405162461bcd60e51b815260040161086b90614c9e565b600083815260076020818152604092839020909101805460ff60b01b19169055905133815284917f168a71deb8127d652672213c2cd3b59bbc36a568bf9708634a183f5af379550e9101611d42565b6000828152600760209081526040808320815161016081019092528054825260018101805487959484019190612dff90614c64565b80601f0160208091040260200160405190810160405280929190818152602001828054612e2b90614c64565b8015612e785780601f10612e4d57610100808354040283529160200191612e78565b820191906000526020600020905b815481529060010190602001808311612e5b57829003601f168201915b50505050508152602001600282018054612e9190614c64565b80601f0160208091040260200160405190810160405280929190818152602001828054612ebd90614c64565b8015612f0a5780601f10612edf57610100808354040283529160200191612f0a565b820191906000526020600020905b815481529060010190602001808311612eed57829003601f168201915b505050505081526020016003820154815260200160048201548152602001600582018054612f3790614c64565b80601f0160208091040260200160405190810160405280929190818152602001828054612f6390614c64565b8015612fb05780601f10612f8557610100808354040283529160200191612fb0565b820191906000526020600020905b815481529060010190602001808311612f9357829003601f168201915b50505050508152602001600682018054612fc990614c64565b80601f0160208091040260200160405190810160405280929190818152602001828054612ff590614c64565b80156130425780601f1061301757610100808354040283529160200191613042565b820191906000526020600020905b81548152906001019060200180831161302557829003601f168201915b5050509183525050600791909101546001600160a01b03808216602084015260ff600160a01b8304811615156040850152600160a81b8304811615156060850152600160b01b909204909116151560809092019190915260e082015191925033911614806130d0575080610120015180156130d0575060008281526008602052604090206130d0903361422f565b6130ec5760405162461bcd60e51b815260040161086b90614c9e565b6000848152600860205260409020613104908461422f565b6131205760405162461bcd60e51b815260040161086b90614df4565b6000848152600a602090815260408083206001600160a01b038716845290915290819020600301805460ff191660011790555184907f36645d58e02afa1c38639e8290df30bfae15c41917fb49043cd0d853b279942990610c949033908790614dda565b6001546001600160a01b03163314806131ac57503360009081526002602052604090205460ff165b6131c85760405162461bcd60e51b815260040161086b90614e84565b60008281526008602052604090206131e0908261422f565b6131fc5760405162461bcd60e51b815260040161086b90614df4565b6000828152600a602090815260408083206001600160a01b038516845290915290819020600301805461ff0019166101001790555182907f831a63cadef843aaf575ea22551d52b9832e3110954e1d97a237b88598cc7f0a906108bf9033908590614dda565b6001546001600160a01b031633148061328a57503360009081526002602052604090205460ff165b6132a65760405162461bcd60e51b815260040161086b90614e84565b600481905560408051338152602081018390527fb1cd13d2c2f805634911f8ba7c0f1f1a3b73ddcfe210982d9effa12e0e5fce7491015b60405180910390a150565b6000818152600760208190526040909120015481906001600160a01b031633146133245760405162461bcd60e51b815260040161086b90614c35565b600082815260076020818152604092839020909101805460ff60a01b19169055905133815283917f2db5b21c1b51bf62f3aedd6ee9d626e86c1ce7a4c3678863d72af87528620af591016108bf565b6001546001600160a01b031633148061339b57503360009081526002602052604090205460ff165b6133b75760405162461bcd60e51b815260040161086b90614e84565b600355565b6001546001600160a01b03163314806133e457503360009081526002602052604090205460ff165b6134005760405162461bcd60e51b815260040161086b90614e84565b604051637921219560e11b815284906001600160a01b0382169063f242432a906134369030903390899089908990600401615006565b600060405180830381600087803b15801561345057600080fd5b505af1158015613464573d6000803e3d6000fd5b505050505050505050565b6001546001600160a01b031633148061349757503360009081526002602052604090205460ff165b6134b35760405162461bcd60e51b815260040161086b90614e84565b60405163a9059cbb60e01b81523360048201526024810182905282906001600160a01b0382169063a9059cbb906044016020604051808303816000875af1158015613502573d6000803e3d6000fd5b505050506040513d601f19601f82011682018060405250810190613526919061504b565b50505050565b600a60209081526000928352604080842090915290825290208054819061355290614c64565b80601f016020809104026020016040519081016040528092919081815260200182805461357e90614c64565b80156135cb5780601f106135a0576101008083540402835291602001916135cb565b820191906000526020600020905b8154815290600101906020018083116135ae57829003601f168201915b5050505050908060010180546135e090614c64565b80601f016020809104026020016040519081016040528092919081815260200182805461360c90614c64565b80156136595780601f1061362e57610100808354040283529160200191613659565b820191906000526020600020905b81548152906001019060200180831161363c57829003601f168201915b50505050509080600201805461366e90614c64565b80601f016020809104026020016040519081016040528092919081815260200182805461369a90614c64565b80156136e75780601f106136bc576101008083540402835291602001916136e7565b820191906000526020600020905b8154815290600101906020018083116136ca57829003601f168201915b505050506003830154600484018054939460ff808416956101009094041693509161371190614c64565b80601f016020809104026020016040519081016040528092919081815260200182805461373d90614c64565b801561378a5780601f1061375f5761010080835404028352916020019161378a565b820191906000526020600020905b81548152906001019060200180831161376d57829003601f168201915b5050505050905086565b6000818152600760208190526040909120015481906001600160a01b031633146137d05760405162461bcd60e51b815260040161086b90614c35565b600082815260076020818152604092839020909101805460ff60a01b1916600160a01b179055905133815283917f3852d39a30839f855c0cb6324fff483384b34a6031c370abda21e5df18931b8a91016108bf565b6001546001600160a01b031633148061384d57503360009081526002602052604090205460ff165b6138695760405162461bcd60e51b815260040161086b90614e84565b600581905560408051338152602081018390527f74259ab7af8cedcc56fe61eda6425c17b82940e9be1c4eec7074c0abcca5252a91016132dd565b6001600160a01b0381166000908152600c602052604090206060906125369061429d565b6003543410156138ea5760405162461bcd60e51b815260040161086b90614e57565b6139566040518061016001604052806000815260200160608152602001606081526020016000815260200160008152602001606081526020016060815260200160006001600160a01b031681526020016000151581526020016000151581526020016000151581525090565b6000805480835260208084018b815260408086018c9052606086018b9052608086018a905260a0860189905260c086018890528615156101408701523360e0870152600161010087018190526101208701869052938552600790925292208351815591518392918201906139ca9082614d1a565b50604082015160028201906139df9082614d1a565b50606082015160038201556080820151600482015560a08201516005820190613a089082614d1a565b5060c08201516006820190613a1d9082614d1a565b5060e082015160079091018054610100840151610120850151610140909501511515600160b01b0260ff60b01b19951515600160a81b029590951661ffff60a81b19911515600160a01b026001600160a81b03199093166001600160a01b0390951694909417919091171691909117919091179055600080549080613aa183615068565b9091555050805160405190815233907fcc9018de05b5f497ee7618d8830568d8ac2d45d0671b73d8f71c67e824122ec790602001612a47565b6000818152600b60205260409020613af2903361422f565b613b375760405162461bcd60e51b81526020600482015260166024820152751b9bdd081a5b9d9a5d1959081d1bc81c1c9bda9958dd60521b604482015260640161086b565b336000908152600c60205260409020613b509082614266565b506000818152600b60205260409020613b699033614251565b506000818152600860205260409020613b82903361427c565b50336000908152600960205260409020613b9c9082614291565b5060405133815281907f772d3a0eec20698cdfbd3c606d83b1680e703ac1cd6cce8b19417522f4b41d0f9060200160405180910390a250565b60008181526008602052604090206060906125369061429d565b6001600160a01b03811660009081526009602052604090206060906125369061429d565b600354341015613c355760405162461bcd60e51b815260040161086b90614e57565b6000828152600760208190526040909120015482906001600160a01b03163314613c715760405162461bcd60e51b815260040161086b90614c35565b6000838152600760208190526040918290200180546001600160a01b0319166001600160a01b0385161790555183907f52490b9ef326bbc78c4fc19841b07019ccd6a03fd9be6be771b876a01e9bac6790611d429033908690614dda565b6001546001600160a01b03163314613d195760405162461bcd60e51b815260206004820152600d60248201526c3737ba103a34329037bbb732b960991b604482015260640161086b565b600180546001600160a01b0319166001600160a01b0392909216919091179055565b6001546001600160a01b0316331480613d6357503360009081526002602052604090205460ff165b613d7f5760405162461bcd60e51b815260040161086b90614e84565b604051632142170760e11b81523060048201523360248201526044810182905282906001600160a01b038216906342842e0e90606401600060405180830381600087803b158015613dcf57600080fd5b505af1158015613de3573d6000803e3d6000fd5b50505050505050565b6000838152600760209081526040808320815161016081019092528054825260018101805488959484019190613e2190614c64565b80601f0160208091040260200160405190810160405280929190818152602001828054613e4d90614c64565b8015613e9a5780601f10613e6f57610100808354040283529160200191613e9a565b820191906000526020600020905b815481529060010190602001808311613e7d57829003601f168201915b50505050508152602001600282018054613eb390614c64565b80601f0160208091040260200160405190810160405280929190818152602001828054613edf90614c64565b8015613f2c5780601f10613f0157610100808354040283529160200191613f2c565b820191906000526020600020905b815481529060010190602001808311613f0f57829003601f168201915b505050505081526020016003820154815260200160048201548152602001600582018054613f5990614c64565b80601f0160208091040260200160405190810160405280929190818152602001828054613f8590614c64565b8015613fd25780601f10613fa757610100808354040283529160200191613fd2565b820191906000526020600020905b815481529060010190602001808311613fb557829003601f168201915b50505050508152602001600682018054613feb90614c64565b80601f016020809104026020016040519081016040528092919081815260200182805461401790614c64565b80156140645780601f1061403957610100808354040283529160200191614064565b820191906000526020600020905b81548152906001019060200180831161404757829003601f168201915b5050509183525050600791909101546001600160a01b03808216602084015260ff600160a01b8304811615156040850152600160a81b8304811615156060850152600160b01b909204909116151560809092019190915260e082015191925033911614806140f2575080610120015180156140f2575060008281526008602052604090206140f2903361422f565b61410e5760405162461bcd60e51b815260040161086b90614c9e565b82600d6000878152602001908152602001600020856040516141309190615081565b9081526020016040518091039020908161414a9190614d1a565b50847fa135796c3dfbf727059d984bed603f5302680833cd089ccb602e8e31656c18983386866040516121079392919061509d565b6000828152600b60205260408120614197908361422f565b9392505050565b6000818152600760208190526040909120015481906001600160a01b031633146141da5760405162461bcd60e51b815260040161086b90614c35565b600082815260076020818152604092839020909101805460ff60a81b1916600160a81b179055905133815283917f6006c14b1490fea98e4a6b6ce7ec6bc4d699a2270ec1a1fb3281efe4c870b06591016108bf565b6001600160a01b03811660009081526001830160205260408120541515614197565b6000614197836001600160a01b0384166142aa565b600061419783836142aa565b6000612536825490565b6000614197836001600160a01b03841661439d565b6000614197838361439d565b60606000614197836143ec565b600081815260018301602052604081205480156143935760006142ce6001836150d3565b85549091506000906142e2906001906150d3565b9050818114614347576000866000018281548110614302576143026150ea565b9060005260206000200154905080876000018481548110614325576143256150ea565b6000918252602080832090910192909255918252600188019052604090208390555b855486908061435857614358615100565b600190038181906000526020600020016000905590558560010160008681526020019081526020016000206000905560019350505050612536565b6000915050612536565b60008181526001830160205260408120546143e457508154600181810184556000848152602080822090930184905584548482528286019093526040902091909155612536565b506000612536565b60608160000180548060200260200160405190810160405280929190818152602001828054801561443c57602002820191906000526020600020905b815481526020019060010190808311614428575b50505050509050919050565b60006020828403121561445a57600080fd5b5035919050565b80356001600160a01b038116811461447857600080fd5b919050565b6000806040838503121561449057600080fd5b823591506144a060208401614461565b90509250929050565b634e487b7160e01b600052604160045260246000fd5b600067ffffffffffffffff808411156144da576144da6144a9565b604051601f8501601f19908116603f01168101908282118183101715614502576145026144a9565b8160405280935085815286868601111561451b57600080fd5b858560208301376000602087830101525050509392505050565b600082601f83011261454657600080fd5b614197838335602085016144bf565b6000806040838503121561456857600080fd5b82359150602083013567ffffffffffffffff81111561458657600080fd5b61459285828601614535565b9150509250929050565b80151581146116b857600080fd5b80356144788161459c565b600080600080600080600080610100898b0312156145d257600080fd5b88359750602089013567ffffffffffffffff808211156145f157600080fd5b6145fd8c838d01614535565b985060408b013591508082111561461357600080fd5b61461f8c838d01614535565b975060608b0135965060808b0135955060a08b013591508082111561464357600080fd5b61464f8c838d01614535565b945060c08b013591508082111561466557600080fd5b506146728b828c01614535565b92505061468160e08a016145aa565b90509295985092959890939650565b60005b838110156146ab578181015183820152602001614693565b838111156135265750506000910152565b600081518084526146d4816020860160208601614690565b601f01601f19169290920160200192915050565b60006101608d83528060208401526147028184018e6146bc565b90508281036040840152614716818d6146bc565b90508a606084015289608084015282810360a0840152614736818a6146bc565b905082810360c084015261474a81896146bc565b6001600160a01b03881660e0850152861515610100850152851515610120850152841515610140850152915061477d9050565b9c9b505050505050505050505050565b600080604083850312156147a057600080fd5b6147a983614461565b946020939093013593505050565b60208152600061419760208301846146bc565b60008083601f8401126147dc57600080fd5b50813567ffffffffffffffff8111156147f457600080fd5b60208301915083602082850101111561480c57600080fd5b9250929050565b60008060008060008060008060a0898b03121561482f57600080fd5b8835975061483f60208a01614461565b9650604089013567ffffffffffffffff8082111561485c57600080fd5b6148688c838d016147ca565b909850965060608b013591508082111561488157600080fd5b61488d8c838d016147ca565b909650945060808b01359150808211156148a657600080fd5b506148b38b828c016147ca565b999c989b5096995094979396929594505050565b6000806000606084860312156148dc57600080fd5b8335925060208401358060000b81146148f457600080fd5b9150604084013567ffffffffffffffff81111561491057600080fd5b61491c86828701614535565b9150509250925092565b60008060006060848603121561493b57600080fd5b833592506148f460208501614461565b60006020828403121561495d57600080fd5b61419782614461565b6020808252825182820181905260009190848201906040850190845b818110156149a75783516001600160a01b031683529284019291840191600101614982565b50909695505050505050565b600080604083850312156149c657600080fd5b6149cf83614461565b915060208301356149df8161459c565b809150509250929050565b60008060008060808587031215614a0057600080fd5b614a0985614461565b93506020850135925060408501359150606085013567ffffffffffffffff811115614a3357600080fd5b8501601f81018713614a4457600080fd5b614a53878235602084016144bf565b91505092959194509250565b60c081526000614a7260c08301896146bc565b8281036020840152614a8481896146bc565b90508281036040840152614a9881886146bc565b90508515156060840152841515608084015282810360a0840152614abc81856146bc565b9998505050505050505050565b6020808252825182820181905260009190848201906040850190845b818110156149a757835183529284019291840191600101614ae5565b600080600080600080600060e0888a031215614b1c57600080fd5b873567ffffffffffffffff80821115614b3457600080fd5b614b408b838c01614535565b985060208a0135915080821115614b5657600080fd5b614b628b838c01614535565b975060408a0135965060608a0135955060808a0135915080821115614b8657600080fd5b614b928b838c01614535565b945060a08a0135915080821115614ba857600080fd5b50614bb58a828b01614535565b925050614bc460c089016145aa565b905092959891949750929550565b600080600060608486031215614be757600080fd5b83359250602084013567ffffffffffffffff80821115614c0657600080fd5b614c1287838801614535565b93506040860135915080821115614c2857600080fd5b5061491c86828701614535565b6020808252601590820152743737ba103a343290383937b532b1ba1037bbb732b960591b604082015260600190565b600181811c90821680614c7857607f821691505b602082108103614c9857634e487b7160e01b600052602260045260246000fd5b50919050565b60208082526013908201527218d85b9b9bdd0819591a5d081c1c9bda9958dd606a1b604082015260600190565b601f821115614d1557600081815260208120601f850160051c81016020861015614cf25750805b601f850160051c820191505b81811015614d1157828155600101614cfe565b5050505b505050565b815167ffffffffffffffff811115614d3457614d346144a9565b614d4881614d428454614c64565b84614ccb565b602080601f831160018114614d7d5760008415614d655750858301515b600019600386901b1c1916600185901b178555614d11565b600085815260208120601f198616915b82811015614dac57888601518255948401946001909101908401614d8d565b5085821015614dca5787850151600019600388901b60f8161c191681555b5050505050600190811b01905550565b6001600160a01b0392831681529116602082015260400190565b60208082526017908201527f6e6f742061206d656d626572206f662070726f6a656374000000000000000000604082015260600190565b6001600160a01b0383168152604060208201819052600090614e4f908301846146bc565b949350505050565b6020808252601390820152720c8d2c840dcdee840e6cadcc840cadcdeeaced606b1b604082015260600190565b6020808252600990820152683737ba1030b236b4b760b91b604082015260600190565b634e487b7160e01b600052601160045260246000fd5b60008219821115614ed057614ed0614ea7565b500190565b67ffffffffffffffff831115614eed57614eed6144a9565b614f0183614efb8354614c64565b83614ccb565b6000601f841160018114614f355760008515614f1d5750838201355b600019600387901b1c1916600186901b178355614f8f565b600083815260209020601f19861690835b82811015614f665786850135825560209485019460019092019101614f46565b5086821015614f835760001960f88860031b161c19848701351681555b505060018560011b0183555b5050505050565b6001600160a01b0384168152600083810b6020830152606060408301819052614fc1908301846146bc565b95945050505050565b8481526001600160a01b03848116602083015283166040820152608060608201819052600090614ffc908301846146bc565b9695505050505050565b6001600160a01b03868116825285166020820152604081018490526060810183905260a060808201819052600090615040908301846146bc565b979650505050505050565b60006020828403121561505d57600080fd5b81516141978161459c565b60006001820161507a5761507a614ea7565b5060010190565b60008251615093818460208701614690565b9190910192915050565b6001600160a01b03841681526060602082018190526000906150c1908301856146bc565b8281036040840152614ffc81856146bc565b6000828210156150e5576150e5614ea7565b500390565b634e487b7160e01b600052603260045260246000fd5b634e487b7160e01b600052603160045260246000fdfea2646970667358221220e5342c3f34b60bb475aa23a82291d1446be8e8cc6e1d43bd220b51ffcd66f96264736f6c634300080f0033",
  "linkReferences": {},
  "deployedLinkReferences": {}
}